{"contracts/storageFactory.sol":{"StorFact":{"abi":[{"inputs":[],"name":"createStore","outputs":[],"stateMutability":"nonpayable","type":"function"},{"inputs":[{"internalType":"uint256","name":"_ind","type":"uint256"}],"name":"sfGet","outputs":[{"internalType":"uint256","name":"","type":"uint256"}],"stateMutability":"view","type":"function"},{"inputs":[{"internalType":"uint256","name":"_ind","type":"uint256"},{"internalType":"uint256","name":"_num","type":"uint256"}],"name":"sfStore","outputs":[],"stateMutability":"nonpayable","type":"function"},{"inputs":[{"internalType":"uint256","name":"","type":"uint256"}],"name":"storedArray","outputs":[{"internalType":"contract Stored","name":"","type":"address"}],"stateMutability":"view","type":"function"}],"devdoc":{"kind":"dev","methods":{},"version":1},"evm":{"bytecode":{"linkReferences":{},"object":"608060405234801561001057600080fd5b50610d95806100206000396000f3fe608060405234801561001057600080fd5b506004361061004c5760003560e01c80631563700f14610051578063b70d134a14610066578063c5f19c201461008f578063fb122ac8146100af575b600080fd5b61006461005f36600461027e565b6100b7565b005b6100796100743660046102bb565b610139565b604051610086919061031a565b60405180910390f35b6100a261009d3660046102bb565b610163565b604051610086919061032e565b6100646101ef565b600082815481106100ca576100ca61033c565b600091825260209091200154604051636057361d60e01b81526001600160a01b0390911690636057361d9061010390849060040161032e565b600060405180830381600087803b15801561011d57600080fd5b505af1158015610131573d6000803e3d6000fd5b505050505050565b6000818154811061014957600080fd5b6000918252602090912001546001600160a01b0316905081565b60008082815481106101775761017761033c565b6000918252602091829020015460408051632e64cec160e01b815290516001600160a01b0390921692632e64cec1926004808401938290030181865afa1580156101c5573d6000803e3d6000fd5b505050506040513d601f19601f820116820180604052508101906101e99190610359565b92915050565b60006040516101fd9061026a565b604051809103906000f080158015610219573d6000803e3d6000fd5b50600080546001810182559080527f290decd9548b62a8d60345a988386fc84ba6bc95484008f6362f93160ef3e5630180546001600160a01b0319166001600160a01b039290921691909117905550565b6109e58061037b83390190565b80356101e9565b6000806040838503121561029457610294600080fd5b60006102a08585610277565b92505060206102b185828601610277565b9150509250929050565b6000602082840312156102d0576102d0600080fd5b60006102dc8484610277565b949350505050565b60006001600160a01b0382166101e9565b60006101e9826102e4565b60006101e9826102f5565b61031481610300565b82525050565b602081016101e9828461030b565b80610314565b602081016101e98284610328565b634e487b7160e01b600052603260045260246000fd5b80516101e9565b60006020828403121561036e5761036e600080fd5b60006102dc848461035256fe60026080818152610100604052600760c0908152667061747269636b60c81b60e05260a081905260018381559192906200003a9082620001b7565b505060058055506006805460ff191660011781556040805180820190915290815265737472696e6760d01b6020820152600790620000799082620001b7565b506004196008556218d85d60ea1b6009553480156200009757600080fd5b5062000287565b634e487b7160e01b600052604160045260246000fd5b634e487b7160e01b600052602260045260246000fd5b600281046001821680620000df57607f821691505b602082108103620000f457620000f4620000b4565b50919050565b60006200010b620001088381565b90565b92915050565b6200011c83620000fa565b81546008840282811b60001990911b908116901990911617825550505050565b60006200014b81848462000111565b505050565b818110156200016f57620001666000826200013c565b60010162000150565b5050565b601f8211156200014b576000818152602090206020601f850104810160208510156200019c5750805b620001b06020601f86010483018262000150565b5050505050565b81516001600160401b03811115620001d357620001d36200009e565b620001df8254620000ca565b620001ec82828562000173565b6020601f8311600181146200022357600084156200020a5750858201515b600019600886021c19811660028602178655506200027f565b600085815260208120601f198616915b8281101562000255578885015182556020948501946001909201910162000233565b86831015620002725784890151600019601f89166008021c191682555b6001600288020188555050505b505050505050565b61074e80620002976000396000f3fe608060405234801561001057600080fd5b50600436106100885760003560e01c80636f2938e81161005b5780636f2938e8146100e657806375bf7eed146100f957806377ec2b551461010c57806392fa9da31461011457600080fd5b80632e64cec11461008d5780634237c65b146100a75780636057361d146100b05780636c992aec146100c5575b600080fd5b6000545b60405161009e91906102c8565b60405180910390f35b61009160005481565b6100c36100be3660046102db565b600055565b005b6100d86100d33660046102db565b61013f565b60405161009e92919061035a565b6100916100f43660046102db565b6101f7565b6100c361010736600461046d565b61020a565b6100d86102b4565b6100916101223660046104c4565b805160208183018101805160048252928201919093012091525481565b6003818154811061014f57600080fd5b6000918252602090912060029091020180546001820180549193509061017490610515565b80601f01602080910402602001604051908101604052809291908181526020018280546101a090610515565b80156101ed5780601f106101c2576101008083540402835291602001916101ed565b820191906000526020600020905b8154815290600101906020018083116101d057829003601f168201915b5050505050905082565b6000610204826002610557565b92915050565b604080518082019091528181526020810183815260038054600181018255600091909152825160029091027fc2575a0e9e593c00f959f8c92f12db2869c3395a3b0502d05e2516446f71f85b8101918255915190917fc2575a0e9e593c00f959f8c92f12db2869c3395a3b0502d05e2516446f71f85c019061028c908261061f565b505050806004836040516102a09190610705565b908152604051908190036020019020555050565b600180546002805491929161017490610515565b81815260208101610204565b8035610204565b6000602082840312156102f0576102f0600080fd5b60006102fc84846102d4565b949350505050565b60005b8381101561031f578181015183820152602001610307565b50506000910152565b6000610332825190565b808452602084019350610349818560208601610304565b601f01601f19169290920192915050565b82815260406020820181905281016102fc8184610328565b634e487b7160e01b600052604160045260246000fd5b601f19601f830116810181811067ffffffffffffffff821117156103ae576103ae610372565b6040525050565b60006103c060405190565b90506103cc8282610388565b919050565b600067ffffffffffffffff8211156103eb576103eb610372565b601f19601f83011660200192915050565b82818337506000910152565b600061041b610416846103d1565b6103b5565b90508281526020810184848401111561043657610436600080fd5b6104418482856103fc565b509392505050565b600082601f83011261045d5761045d600080fd5b81356102fc848260208601610408565b6000806040838503121561048357610483600080fd5b823567ffffffffffffffff81111561049d5761049d600080fd5b6104a985828601610449565b92505060206104ba858286016102d4565b9150509250929050565b6000602082840312156104d9576104d9600080fd5b813567ffffffffffffffff8111156104f3576104f3600080fd5b6102fc84828501610449565b634e487b7160e01b600052602260045260246000fd5b60028104600182168061052957607f821691505b60208210810361053b5761053b6104ff565b50919050565b634e487b7160e01b600052601160045260246000fd5b81810280821583820485141761056f5761056f610541565b5092915050565b60006102046105828381565b90565b61058e83610576565b81546008840282811b60001990911b908116901990911617825550505050565b60006105bb818484610585565b505050565b818110156105db576105d36000826105ae565b6001016105c0565b5050565b601f8211156105bb576000818152602090206020601f850104810160208510156106065750805b6106186020601f8601048301826105c0565b5050505050565b815167ffffffffffffffff81111561063957610639610372565b6106438254610515565b61064e8282856105df565b6020601f831160018114610682576000841561066a5750858201515b600019600886021c19811660028602178655506106db565b600085815260208120601f198616915b828110156106b25788850151825560209485019460019092019101610692565b868310156106ce5784890151600019601f89166008021c191682555b6001600288020188555050505b505050505050565b60006106ed825190565b6106fb818560208601610304565b9290920192915050565b600061071182846106e3565b939250505056fea2646970667358221220213f4b6cd1e08247a0a3f0e4872495556f2840c74336575757ad48e238bf91ac64736f6c63430008110033a26469706673582212201334a4fd6dcd807a012c33068265c2b00e96bae37bb2a9b2ae2b4a4fca032fb164736f6c63430008110033","opcodes":"PUSH1 0x80 PUSH1 0x40 MSTORE CALLVALUE DUP1 ISZERO PUSH2 0x10 JUMPI PUSH1 0x0 DUP1 REVERT JUMPDEST POP PUSH2 0xD95 DUP1 PUSH2 0x20 PUSH1 0x0 CODECOPY PUSH1 0x0 RETURN INVALID PUSH1 0x80 PUSH1 0x40 MSTORE CALLVALUE DUP1 ISZERO PUSH2 0x10 JUMPI PUSH1 0x0 DUP1 REVERT JUMPDEST POP PUSH1 0x4 CALLDATASIZE LT PUSH2 0x4C JUMPI PUSH1 0x0 CALLDATALOAD PUSH1 0xE0 SHR DUP1 PUSH4 0x1563700F EQ PUSH2 0x51 JUMPI DUP1 PUSH4 0xB70D134A EQ PUSH2 0x66 JUMPI DUP1 PUSH4 0xC5F19C20 EQ PUSH2 0x8F JUMPI DUP1 PUSH4 0xFB122AC8 EQ PUSH2 0xAF JUMPI JUMPDEST PUSH1 0x0 DUP1 REVERT JUMPDEST PUSH2 0x64 PUSH2 0x5F CALLDATASIZE PUSH1 0x4 PUSH2 0x27E JUMP JUMPDEST PUSH2 0xB7 JUMP JUMPDEST STOP JUMPDEST PUSH2 0x79 PUSH2 0x74 CALLDATASIZE PUSH1 0x4 PUSH2 0x2BB JUMP JUMPDEST PUSH2 0x139 JUMP JUMPDEST PUSH1 0x40 MLOAD PUSH2 0x86 SWAP2 SWAP1 PUSH2 0x31A JUMP JUMPDEST PUSH1 0x40 MLOAD DUP1 SWAP2 SUB SWAP1 RETURN JUMPDEST PUSH2 0xA2 PUSH2 0x9D CALLDATASIZE PUSH1 0x4 PUSH2 0x2BB JUMP JUMPDEST PUSH2 0x163 JUMP JUMPDEST PUSH1 0x40 MLOAD PUSH2 0x86 SWAP2 SWAP1 PUSH2 0x32E JUMP JUMPDEST PUSH2 0x64 PUSH2 0x1EF JUMP JUMPDEST PUSH1 0x0 DUP3 DUP2 SLOAD DUP2 LT PUSH2 0xCA JUMPI PUSH2 0xCA PUSH2 0x33C JUMP JUMPDEST PUSH1 0x0 SWAP2 DUP3 MSTORE PUSH1 0x20 SWAP1 SWAP2 KECCAK256 ADD SLOAD PUSH1 0x40 MLOAD PUSH4 0x6057361D PUSH1 0xE0 SHL DUP2 MSTORE PUSH1 0x1 PUSH1 0x1 PUSH1 0xA0 SHL SUB SWAP1 SWAP2 AND SWAP1 PUSH4 0x6057361D SWAP1 PUSH2 0x103 SWAP1 DUP5 SWAP1 PUSH1 0x4 ADD PUSH2 0x32E JUMP JUMPDEST PUSH1 0x0 PUSH1 0x40 MLOAD DUP1 DUP4 SUB DUP2 PUSH1 0x0 DUP8 DUP1 EXTCODESIZE ISZERO DUP1 ISZERO PUSH2 0x11D JUMPI PUSH1 0x0 DUP1 REVERT JUMPDEST POP GAS CALL ISZERO DUP1 ISZERO PUSH2 0x131 JUMPI RETURNDATASIZE PUSH1 0x0 DUP1 RETURNDATACOPY RETURNDATASIZE PUSH1 0x0 REVERT JUMPDEST POP POP POP POP POP POP JUMP JUMPDEST PUSH1 0x0 DUP2 DUP2 SLOAD DUP2 LT PUSH2 0x149 JUMPI PUSH1 0x0 DUP1 REVERT JUMPDEST PUSH1 0x0 SWAP2 DUP3 MSTORE PUSH1 0x20 SWAP1 SWAP2 KECCAK256 ADD SLOAD PUSH1 0x1 PUSH1 0x1 PUSH1 0xA0 SHL SUB AND SWAP1 POP DUP2 JUMP JUMPDEST PUSH1 0x0 DUP1 DUP3 DUP2 SLOAD DUP2 LT PUSH2 0x177 JUMPI PUSH2 0x177 PUSH2 0x33C JUMP JUMPDEST PUSH1 0x0 SWAP2 DUP3 MSTORE PUSH1 0x20 SWAP2 DUP3 SWAP1 KECCAK256 ADD SLOAD PUSH1 0x40 DUP1 MLOAD PUSH4 0x2E64CEC1 PUSH1 0xE0 SHL DUP2 MSTORE SWAP1 MLOAD PUSH1 0x1 PUSH1 0x1 PUSH1 0xA0 SHL SUB SWAP1 SWAP3 AND SWAP3 PUSH4 0x2E64CEC1 SWAP3 PUSH1 0x4 DUP1 DUP5 ADD SWAP4 DUP3 SWAP1 SUB ADD DUP2 DUP7 GAS STATICCALL ISZERO DUP1 ISZERO PUSH2 0x1C5 JUMPI RETURNDATASIZE PUSH1 0x0 DUP1 RETURNDATACOPY RETURNDATASIZE PUSH1 0x0 REVERT JUMPDEST POP POP POP POP PUSH1 0x40 MLOAD RETURNDATASIZE PUSH1 0x1F NOT PUSH1 0x1F DUP3 ADD AND DUP3 ADD DUP1 PUSH1 0x40 MSTORE POP DUP2 ADD SWAP1 PUSH2 0x1E9 SWAP2 SWAP1 PUSH2 0x359 JUMP JUMPDEST SWAP3 SWAP2 POP POP JUMP JUMPDEST PUSH1 0x0 PUSH1 0x40 MLOAD PUSH2 0x1FD SWAP1 PUSH2 0x26A JUMP JUMPDEST PUSH1 0x40 MLOAD DUP1 SWAP2 SUB SWAP1 PUSH1 0x0 CREATE DUP1 ISZERO DUP1 ISZERO PUSH2 0x219 JUMPI RETURNDATASIZE PUSH1 0x0 DUP1 RETURNDATACOPY RETURNDATASIZE PUSH1 0x0 REVERT JUMPDEST POP PUSH1 0x0 DUP1 SLOAD PUSH1 0x1 DUP2 ADD DUP3 SSTORE SWAP1 DUP1 MSTORE PUSH32 0x290DECD9548B62A8D60345A988386FC84BA6BC95484008F6362F93160EF3E563 ADD DUP1 SLOAD PUSH1 0x1 PUSH1 0x1 PUSH1 0xA0 SHL SUB NOT AND PUSH1 0x1 PUSH1 0x1 PUSH1 0xA0 SHL SUB SWAP3 SWAP1 SWAP3 AND SWAP2 SWAP1 SWAP2 OR SWAP1 SSTORE POP JUMP JUMPDEST PUSH2 0x9E5 DUP1 PUSH2 0x37B DUP4 CODECOPY ADD SWAP1 JUMP JUMPDEST DUP1 CALLDATALOAD PUSH2 0x1E9 JUMP JUMPDEST PUSH1 0x0 DUP1 PUSH1 0x40 DUP4 DUP6 SUB SLT ISZERO PUSH2 0x294 JUMPI PUSH2 0x294 PUSH1 0x0 DUP1 REVERT JUMPDEST PUSH1 0x0 PUSH2 0x2A0 DUP6 DUP6 PUSH2 0x277 JUMP JUMPDEST SWAP3 POP POP PUSH1 0x20 PUSH2 0x2B1 DUP6 DUP3 DUP7 ADD PUSH2 0x277 JUMP JUMPDEST SWAP2 POP POP SWAP3 POP SWAP3 SWAP1 POP JUMP JUMPDEST PUSH1 0x0 PUSH1 0x20 DUP3 DUP5 SUB SLT ISZERO PUSH2 0x2D0 JUMPI PUSH2 0x2D0 PUSH1 0x0 DUP1 REVERT JUMPDEST PUSH1 0x0 PUSH2 0x2DC DUP5 DUP5 PUSH2 0x277 JUMP JUMPDEST SWAP5 SWAP4 POP POP POP POP JUMP JUMPDEST PUSH1 0x0 PUSH1 0x1 PUSH1 0x1 PUSH1 0xA0 SHL SUB DUP3 AND PUSH2 0x1E9 JUMP JUMPDEST PUSH1 0x0 PUSH2 0x1E9 DUP3 PUSH2 0x2E4 JUMP JUMPDEST PUSH1 0x0 PUSH2 0x1E9 DUP3 PUSH2 0x2F5 JUMP JUMPDEST PUSH2 0x314 DUP2 PUSH2 0x300 JUMP JUMPDEST DUP3 MSTORE POP POP JUMP JUMPDEST PUSH1 0x20 DUP2 ADD PUSH2 0x1E9 DUP3 DUP5 PUSH2 0x30B JUMP JUMPDEST DUP1 PUSH2 0x314 JUMP JUMPDEST PUSH1 0x20 DUP2 ADD PUSH2 0x1E9 DUP3 DUP5 PUSH2 0x328 JUMP JUMPDEST PUSH4 0x4E487B71 PUSH1 0xE0 SHL PUSH1 0x0 MSTORE PUSH1 0x32 PUSH1 0x4 MSTORE PUSH1 0x24 PUSH1 0x0 REVERT JUMPDEST DUP1 MLOAD PUSH2 0x1E9 JUMP JUMPDEST PUSH1 0x0 PUSH1 0x20 DUP3 DUP5 SUB SLT ISZERO PUSH2 0x36E JUMPI PUSH2 0x36E PUSH1 0x0 DUP1 REVERT JUMPDEST PUSH1 0x0 PUSH2 0x2DC DUP5 DUP5 PUSH2 0x352 JUMP INVALID PUSH1 0x2 PUSH1 0x80 DUP2 DUP2 MSTORE PUSH2 0x100 PUSH1 0x40 MSTORE PUSH1 0x7 PUSH1 0xC0 SWAP1 DUP2 MSTORE PUSH7 0x7061747269636B PUSH1 0xC8 SHL PUSH1 0xE0 MSTORE PUSH1 0xA0 DUP2 SWAP1 MSTORE PUSH1 0x1 DUP4 DUP2 SSTORE SWAP2 SWAP3 SWAP1 PUSH3 0x3A SWAP1 DUP3 PUSH3 0x1B7 JUMP JUMPDEST POP POP PUSH1 0x5 DUP1 SSTORE POP PUSH1 0x6 DUP1 SLOAD PUSH1 0xFF NOT AND PUSH1 0x1 OR DUP2 SSTORE PUSH1 0x40 DUP1 MLOAD DUP1 DUP3 ADD SWAP1 SWAP2 MSTORE SWAP1 DUP2 MSTORE PUSH6 0x737472696E67 PUSH1 0xD0 SHL PUSH1 0x20 DUP3 ADD MSTORE PUSH1 0x7 SWAP1 PUSH3 0x79 SWAP1 DUP3 PUSH3 0x1B7 JUMP JUMPDEST POP PUSH1 0x4 NOT PUSH1 0x8 SSTORE PUSH3 0x18D85D PUSH1 0xEA SHL PUSH1 0x9 SSTORE CALLVALUE DUP1 ISZERO PUSH3 0x97 JUMPI PUSH1 0x0 DUP1 REVERT JUMPDEST POP PUSH3 0x287 JUMP JUMPDEST PUSH4 0x4E487B71 PUSH1 0xE0 SHL PUSH1 0x0 MSTORE PUSH1 0x41 PUSH1 0x4 MSTORE PUSH1 0x24 PUSH1 0x0 REVERT JUMPDEST PUSH4 0x4E487B71 PUSH1 0xE0 SHL PUSH1 0x0 MSTORE PUSH1 0x22 PUSH1 0x4 MSTORE PUSH1 0x24 PUSH1 0x0 REVERT JUMPDEST PUSH1 0x2 DUP2 DIV PUSH1 0x1 DUP3 AND DUP1 PUSH3 0xDF JUMPI PUSH1 0x7F DUP3 AND SWAP2 POP JUMPDEST PUSH1 0x20 DUP3 LT DUP2 SUB PUSH3 0xF4 JUMPI PUSH3 0xF4 PUSH3 0xB4 JUMP JUMPDEST POP SWAP2 SWAP1 POP JUMP JUMPDEST PUSH1 0x0 PUSH3 0x10B PUSH3 0x108 DUP4 DUP2 JUMP JUMPDEST SWAP1 JUMP JUMPDEST SWAP3 SWAP2 POP POP JUMP JUMPDEST PUSH3 0x11C DUP4 PUSH3 0xFA JUMP JUMPDEST DUP2 SLOAD PUSH1 0x8 DUP5 MUL DUP3 DUP2 SHL PUSH1 0x0 NOT SWAP1 SWAP2 SHL SWAP1 DUP2 AND SWAP1 NOT SWAP1 SWAP2 AND OR DUP3 SSTORE POP POP POP POP JUMP JUMPDEST PUSH1 0x0 PUSH3 0x14B DUP2 DUP5 DUP5 PUSH3 0x111 JUMP JUMPDEST POP POP POP JUMP JUMPDEST DUP2 DUP2 LT ISZERO PUSH3 0x16F JUMPI PUSH3 0x166 PUSH1 0x0 DUP3 PUSH3 0x13C JUMP JUMPDEST PUSH1 0x1 ADD PUSH3 0x150 JUMP JUMPDEST POP POP JUMP JUMPDEST PUSH1 0x1F DUP3 GT ISZERO PUSH3 0x14B JUMPI PUSH1 0x0 DUP2 DUP2 MSTORE PUSH1 0x20 SWAP1 KECCAK256 PUSH1 0x20 PUSH1 0x1F DUP6 ADD DIV DUP2 ADD PUSH1 0x20 DUP6 LT ISZERO PUSH3 0x19C JUMPI POP DUP1 JUMPDEST PUSH3 0x1B0 PUSH1 0x20 PUSH1 0x1F DUP7 ADD DIV DUP4 ADD DUP3 PUSH3 0x150 JUMP JUMPDEST POP POP POP POP POP JUMP JUMPDEST DUP2 MLOAD PUSH1 0x1 PUSH1 0x1 PUSH1 0x40 SHL SUB DUP2 GT ISZERO PUSH3 0x1D3 JUMPI PUSH3 0x1D3 PUSH3 0x9E JUMP JUMPDEST PUSH3 0x1DF DUP3 SLOAD PUSH3 0xCA JUMP JUMPDEST PUSH3 0x1EC DUP3 DUP3 DUP6 PUSH3 0x173 JUMP JUMPDEST PUSH1 0x20 PUSH1 0x1F DUP4 GT PUSH1 0x1 DUP2 EQ PUSH3 0x223 JUMPI PUSH1 0x0 DUP5 ISZERO PUSH3 0x20A JUMPI POP DUP6 DUP3 ADD MLOAD JUMPDEST PUSH1 0x0 NOT PUSH1 0x8 DUP7 MUL SHR NOT DUP2 AND PUSH1 0x2 DUP7 MUL OR DUP7 SSTORE POP PUSH3 0x27F JUMP JUMPDEST PUSH1 0x0 DUP6 DUP2 MSTORE PUSH1 0x20 DUP2 KECCAK256 PUSH1 0x1F NOT DUP7 AND SWAP2 JUMPDEST DUP3 DUP2 LT ISZERO PUSH3 0x255 JUMPI DUP9 DUP6 ADD MLOAD DUP3 SSTORE PUSH1 0x20 SWAP5 DUP6 ADD SWAP5 PUSH1 0x1 SWAP1 SWAP3 ADD SWAP2 ADD PUSH3 0x233 JUMP JUMPDEST DUP7 DUP4 LT ISZERO PUSH3 0x272 JUMPI DUP5 DUP10 ADD MLOAD PUSH1 0x0 NOT PUSH1 0x1F DUP10 AND PUSH1 0x8 MUL SHR NOT AND DUP3 SSTORE JUMPDEST PUSH1 0x1 PUSH1 0x2 DUP9 MUL ADD DUP9 SSTORE POP POP POP JUMPDEST POP POP POP POP POP POP JUMP JUMPDEST PUSH2 0x74E DUP1 PUSH3 0x297 PUSH1 0x0 CODECOPY PUSH1 0x0 RETURN INVALID PUSH1 0x80 PUSH1 0x40 MSTORE CALLVALUE DUP1 ISZERO PUSH2 0x10 JUMPI PUSH1 0x0 DUP1 REVERT JUMPDEST POP PUSH1 0x4 CALLDATASIZE LT PUSH2 0x88 JUMPI PUSH1 0x0 CALLDATALOAD PUSH1 0xE0 SHR DUP1 PUSH4 0x6F2938E8 GT PUSH2 0x5B JUMPI DUP1 PUSH4 0x6F2938E8 EQ PUSH2 0xE6 JUMPI DUP1 PUSH4 0x75BF7EED EQ PUSH2 0xF9 JUMPI DUP1 PUSH4 0x77EC2B55 EQ PUSH2 0x10C JUMPI DUP1 PUSH4 0x92FA9DA3 EQ PUSH2 0x114 JUMPI PUSH1 0x0 DUP1 REVERT JUMPDEST DUP1 PUSH4 0x2E64CEC1 EQ PUSH2 0x8D JUMPI DUP1 PUSH4 0x4237C65B EQ PUSH2 0xA7 JUMPI DUP1 PUSH4 0x6057361D EQ PUSH2 0xB0 JUMPI DUP1 PUSH4 0x6C992AEC EQ PUSH2 0xC5 JUMPI JUMPDEST PUSH1 0x0 DUP1 REVERT JUMPDEST PUSH1 0x0 SLOAD JUMPDEST PUSH1 0x40 MLOAD PUSH2 0x9E SWAP2 SWAP1 PUSH2 0x2C8 JUMP JUMPDEST PUSH1 0x40 MLOAD DUP1 SWAP2 SUB SWAP1 RETURN JUMPDEST PUSH2 0x91 PUSH1 0x0 SLOAD DUP2 JUMP JUMPDEST PUSH2 0xC3 PUSH2 0xBE CALLDATASIZE PUSH1 0x4 PUSH2 0x2DB JUMP JUMPDEST PUSH1 0x0 SSTORE JUMP JUMPDEST STOP JUMPDEST PUSH2 0xD8 PUSH2 0xD3 CALLDATASIZE PUSH1 0x4 PUSH2 0x2DB JUMP JUMPDEST PUSH2 0x13F JUMP JUMPDEST PUSH1 0x40 MLOAD PUSH2 0x9E SWAP3 SWAP2 SWAP1 PUSH2 0x35A JUMP JUMPDEST PUSH2 0x91 PUSH2 0xF4 CALLDATASIZE PUSH1 0x4 PUSH2 0x2DB JUMP JUMPDEST PUSH2 0x1F7 JUMP JUMPDEST PUSH2 0xC3 PUSH2 0x107 CALLDATASIZE PUSH1 0x4 PUSH2 0x46D JUMP JUMPDEST PUSH2 0x20A JUMP JUMPDEST PUSH2 0xD8 PUSH2 0x2B4 JUMP JUMPDEST PUSH2 0x91 PUSH2 0x122 CALLDATASIZE PUSH1 0x4 PUSH2 0x4C4 JUMP JUMPDEST DUP1 MLOAD PUSH1 0x20 DUP2 DUP4 ADD DUP2 ADD DUP1 MLOAD PUSH1 0x4 DUP3 MSTORE SWAP3 DUP3 ADD SWAP2 SWAP1 SWAP4 ADD KECCAK256 SWAP2 MSTORE SLOAD DUP2 JUMP JUMPDEST PUSH1 0x3 DUP2 DUP2 SLOAD DUP2 LT PUSH2 0x14F JUMPI PUSH1 0x0 DUP1 REVERT JUMPDEST PUSH1 0x0 SWAP2 DUP3 MSTORE PUSH1 0x20 SWAP1 SWAP2 KECCAK256 PUSH1 0x2 SWAP1 SWAP2 MUL ADD DUP1 SLOAD PUSH1 0x1 DUP3 ADD DUP1 SLOAD SWAP2 SWAP4 POP SWAP1 PUSH2 0x174 SWAP1 PUSH2 0x515 JUMP JUMPDEST DUP1 PUSH1 0x1F ADD PUSH1 0x20 DUP1 SWAP2 DIV MUL PUSH1 0x20 ADD PUSH1 0x40 MLOAD SWAP1 DUP2 ADD PUSH1 0x40 MSTORE DUP1 SWAP3 SWAP2 SWAP1 DUP2 DUP2 MSTORE PUSH1 0x20 ADD DUP3 DUP1 SLOAD PUSH2 0x1A0 SWAP1 PUSH2 0x515 JUMP JUMPDEST DUP1 ISZERO PUSH2 0x1ED JUMPI DUP1 PUSH1 0x1F LT PUSH2 0x1C2 JUMPI PUSH2 0x100 DUP1 DUP4 SLOAD DIV MUL DUP4 MSTORE SWAP2 PUSH1 0x20 ADD SWAP2 PUSH2 0x1ED JUMP JUMPDEST DUP3 ADD SWAP2 SWAP1 PUSH1 0x0 MSTORE PUSH1 0x20 PUSH1 0x0 KECCAK256 SWAP1 JUMPDEST DUP2 SLOAD DUP2 MSTORE SWAP1 PUSH1 0x1 ADD SWAP1 PUSH1 0x20 ADD DUP1 DUP4 GT PUSH2 0x1D0 JUMPI DUP3 SWAP1 SUB PUSH1 0x1F AND DUP3 ADD SWAP2 JUMPDEST POP POP POP POP POP SWAP1 POP DUP3 JUMP JUMPDEST PUSH1 0x0 PUSH2 0x204 DUP3 PUSH1 0x2 PUSH2 0x557 JUMP JUMPDEST SWAP3 SWAP2 POP POP JUMP JUMPDEST PUSH1 0x40 DUP1 MLOAD DUP1 DUP3 ADD SWAP1 SWAP2 MSTORE DUP2 DUP2 MSTORE PUSH1 0x20 DUP2 ADD DUP4 DUP2 MSTORE PUSH1 0x3 DUP1 SLOAD PUSH1 0x1 DUP2 ADD DUP3 SSTORE PUSH1 0x0 SWAP2 SWAP1 SWAP2 MSTORE DUP3 MLOAD PUSH1 0x2 SWAP1 SWAP2 MUL PUSH32 0xC2575A0E9E593C00F959F8C92F12DB2869C3395A3B0502D05E2516446F71F85B DUP2 ADD SWAP2 DUP3 SSTORE SWAP2 MLOAD SWAP1 SWAP2 PUSH32 0xC2575A0E9E593C00F959F8C92F12DB2869C3395A3B0502D05E2516446F71F85C ADD SWAP1 PUSH2 0x28C SWAP1 DUP3 PUSH2 0x61F JUMP JUMPDEST POP POP POP DUP1 PUSH1 0x4 DUP4 PUSH1 0x40 MLOAD PUSH2 0x2A0 SWAP2 SWAP1 PUSH2 0x705 JUMP JUMPDEST SWAP1 DUP2 MSTORE PUSH1 0x40 MLOAD SWAP1 DUP2 SWAP1 SUB PUSH1 0x20 ADD SWAP1 KECCAK256 SSTORE POP POP JUMP JUMPDEST PUSH1 0x1 DUP1 SLOAD PUSH1 0x2 DUP1 SLOAD SWAP2 SWAP3 SWAP2 PUSH2 0x174 SWAP1 PUSH2 0x515 JUMP JUMPDEST DUP2 DUP2 MSTORE PUSH1 0x20 DUP2 ADD PUSH2 0x204 JUMP JUMPDEST DUP1 CALLDATALOAD PUSH2 0x204 JUMP JUMPDEST PUSH1 0x0 PUSH1 0x20 DUP3 DUP5 SUB SLT ISZERO PUSH2 0x2F0 JUMPI PUSH2 0x2F0 PUSH1 0x0 DUP1 REVERT JUMPDEST PUSH1 0x0 PUSH2 0x2FC DUP5 DUP5 PUSH2 0x2D4 JUMP JUMPDEST SWAP5 SWAP4 POP POP POP POP JUMP JUMPDEST PUSH1 0x0 JUMPDEST DUP4 DUP2 LT ISZERO PUSH2 0x31F JUMPI DUP2 DUP2 ADD MLOAD DUP4 DUP3 ADD MSTORE PUSH1 0x20 ADD PUSH2 0x307 JUMP JUMPDEST POP POP PUSH1 0x0 SWAP2 ADD MSTORE JUMP JUMPDEST PUSH1 0x0 PUSH2 0x332 DUP3 MLOAD SWAP1 JUMP JUMPDEST DUP1 DUP5 MSTORE PUSH1 0x20 DUP5 ADD SWAP4 POP PUSH2 0x349 DUP2 DUP6 PUSH1 0x20 DUP7 ADD PUSH2 0x304 JUMP JUMPDEST PUSH1 0x1F ADD PUSH1 0x1F NOT AND SWAP3 SWAP1 SWAP3 ADD SWAP3 SWAP2 POP POP JUMP JUMPDEST DUP3 DUP2 MSTORE PUSH1 0x40 PUSH1 0x20 DUP3 ADD DUP2 SWAP1 MSTORE DUP2 ADD PUSH2 0x2FC DUP2 DUP5 PUSH2 0x328 JUMP JUMPDEST PUSH4 0x4E487B71 PUSH1 0xE0 SHL PUSH1 0x0 MSTORE PUSH1 0x41 PUSH1 0x4 MSTORE PUSH1 0x24 PUSH1 0x0 REVERT JUMPDEST PUSH1 0x1F NOT PUSH1 0x1F DUP4 ADD AND DUP2 ADD DUP2 DUP2 LT PUSH8 0xFFFFFFFFFFFFFFFF DUP3 GT OR ISZERO PUSH2 0x3AE JUMPI PUSH2 0x3AE PUSH2 0x372 JUMP JUMPDEST PUSH1 0x40 MSTORE POP POP JUMP JUMPDEST PUSH1 0x0 PUSH2 0x3C0 PUSH1 0x40 MLOAD SWAP1 JUMP JUMPDEST SWAP1 POP PUSH2 0x3CC DUP3 DUP3 PUSH2 0x388 JUMP JUMPDEST SWAP2 SWAP1 POP JUMP JUMPDEST PUSH1 0x0 PUSH8 0xFFFFFFFFFFFFFFFF DUP3 GT ISZERO PUSH2 0x3EB JUMPI PUSH2 0x3EB PUSH2 0x372 JUMP JUMPDEST PUSH1 0x1F NOT PUSH1 0x1F DUP4 ADD AND PUSH1 0x20 ADD SWAP3 SWAP2 POP POP JUMP JUMPDEST DUP3 DUP2 DUP4 CALLDATACOPY POP PUSH1 0x0 SWAP2 ADD MSTORE JUMP JUMPDEST PUSH1 0x0 PUSH2 0x41B PUSH2 0x416 DUP5 PUSH2 0x3D1 JUMP JUMPDEST PUSH2 0x3B5 JUMP JUMPDEST SWAP1 POP DUP3 DUP2 MSTORE PUSH1 0x20 DUP2 ADD DUP5 DUP5 DUP5 ADD GT ISZERO PUSH2 0x436 JUMPI PUSH2 0x436 PUSH1 0x0 DUP1 REVERT JUMPDEST PUSH2 0x441 DUP5 DUP3 DUP6 PUSH2 0x3FC JUMP JUMPDEST POP SWAP4 SWAP3 POP POP POP JUMP JUMPDEST PUSH1 0x0 DUP3 PUSH1 0x1F DUP4 ADD SLT PUSH2 0x45D JUMPI PUSH2 0x45D PUSH1 0x0 DUP1 REVERT JUMPDEST DUP2 CALLDATALOAD PUSH2 0x2FC DUP5 DUP3 PUSH1 0x20 DUP7 ADD PUSH2 0x408 JUMP JUMPDEST PUSH1 0x0 DUP1 PUSH1 0x40 DUP4 DUP6 SUB SLT ISZERO PUSH2 0x483 JUMPI PUSH2 0x483 PUSH1 0x0 DUP1 REVERT JUMPDEST DUP3 CALLDATALOAD PUSH8 0xFFFFFFFFFFFFFFFF DUP2 GT ISZERO PUSH2 0x49D JUMPI PUSH2 0x49D PUSH1 0x0 DUP1 REVERT JUMPDEST PUSH2 0x4A9 DUP6 DUP3 DUP7 ADD PUSH2 0x449 JUMP JUMPDEST SWAP3 POP POP PUSH1 0x20 PUSH2 0x4BA DUP6 DUP3 DUP7 ADD PUSH2 0x2D4 JUMP JUMPDEST SWAP2 POP POP SWAP3 POP SWAP3 SWAP1 POP JUMP JUMPDEST PUSH1 0x0 PUSH1 0x20 DUP3 DUP5 SUB SLT ISZERO PUSH2 0x4D9 JUMPI PUSH2 0x4D9 PUSH1 0x0 DUP1 REVERT JUMPDEST DUP2 CALLDATALOAD PUSH8 0xFFFFFFFFFFFFFFFF DUP2 GT ISZERO PUSH2 0x4F3 JUMPI PUSH2 0x4F3 PUSH1 0x0 DUP1 REVERT JUMPDEST PUSH2 0x2FC DUP5 DUP3 DUP6 ADD PUSH2 0x449 JUMP JUMPDEST PUSH4 0x4E487B71 PUSH1 0xE0 SHL PUSH1 0x0 MSTORE PUSH1 0x22 PUSH1 0x4 MSTORE PUSH1 0x24 PUSH1 0x0 REVERT JUMPDEST PUSH1 0x2 DUP2 DIV PUSH1 0x1 DUP3 AND DUP1 PUSH2 0x529 JUMPI PUSH1 0x7F DUP3 AND SWAP2 POP JUMPDEST PUSH1 0x20 DUP3 LT DUP2 SUB PUSH2 0x53B JUMPI PUSH2 0x53B PUSH2 0x4FF JUMP JUMPDEST POP SWAP2 SWAP1 POP JUMP JUMPDEST PUSH4 0x4E487B71 PUSH1 0xE0 SHL PUSH1 0x0 MSTORE PUSH1 0x11 PUSH1 0x4 MSTORE PUSH1 0x24 PUSH1 0x0 REVERT JUMPDEST DUP2 DUP2 MUL DUP1 DUP3 ISZERO DUP4 DUP3 DIV DUP6 EQ OR PUSH2 0x56F JUMPI PUSH2 0x56F PUSH2 0x541 JUMP JUMPDEST POP SWAP3 SWAP2 POP POP JUMP JUMPDEST PUSH1 0x0 PUSH2 0x204 PUSH2 0x582 DUP4 DUP2 JUMP JUMPDEST SWAP1 JUMP JUMPDEST PUSH2 0x58E DUP4 PUSH2 0x576 JUMP JUMPDEST DUP2 SLOAD PUSH1 0x8 DUP5 MUL DUP3 DUP2 SHL PUSH1 0x0 NOT SWAP1 SWAP2 SHL SWAP1 DUP2 AND SWAP1 NOT SWAP1 SWAP2 AND OR DUP3 SSTORE POP POP POP POP JUMP JUMPDEST PUSH1 0x0 PUSH2 0x5BB DUP2 DUP5 DUP5 PUSH2 0x585 JUMP JUMPDEST POP POP POP JUMP JUMPDEST DUP2 DUP2 LT ISZERO PUSH2 0x5DB JUMPI PUSH2 0x5D3 PUSH1 0x0 DUP3 PUSH2 0x5AE JUMP JUMPDEST PUSH1 0x1 ADD PUSH2 0x5C0 JUMP JUMPDEST POP POP JUMP JUMPDEST PUSH1 0x1F DUP3 GT ISZERO PUSH2 0x5BB JUMPI PUSH1 0x0 DUP2 DUP2 MSTORE PUSH1 0x20 SWAP1 KECCAK256 PUSH1 0x20 PUSH1 0x1F DUP6 ADD DIV DUP2 ADD PUSH1 0x20 DUP6 LT ISZERO PUSH2 0x606 JUMPI POP DUP1 JUMPDEST PUSH2 0x618 PUSH1 0x20 PUSH1 0x1F DUP7 ADD DIV DUP4 ADD DUP3 PUSH2 0x5C0 JUMP JUMPDEST POP POP POP POP POP JUMP JUMPDEST DUP2 MLOAD PUSH8 0xFFFFFFFFFFFFFFFF DUP2 GT ISZERO PUSH2 0x639 JUMPI PUSH2 0x639 PUSH2 0x372 JUMP JUMPDEST PUSH2 0x643 DUP3 SLOAD PUSH2 0x515 JUMP JUMPDEST PUSH2 0x64E DUP3 DUP3 DUP6 PUSH2 0x5DF JUMP JUMPDEST PUSH1 0x20 PUSH1 0x1F DUP4 GT PUSH1 0x1 DUP2 EQ PUSH2 0x682 JUMPI PUSH1 0x0 DUP5 ISZERO PUSH2 0x66A JUMPI POP DUP6 DUP3 ADD MLOAD JUMPDEST PUSH1 0x0 NOT PUSH1 0x8 DUP7 MUL SHR NOT DUP2 AND PUSH1 0x2 DUP7 MUL OR DUP7 SSTORE POP PUSH2 0x6DB JUMP JUMPDEST PUSH1 0x0 DUP6 DUP2 MSTORE PUSH1 0x20 DUP2 KECCAK256 PUSH1 0x1F NOT DUP7 AND SWAP2 JUMPDEST DUP3 DUP2 LT ISZERO PUSH2 0x6B2 JUMPI DUP9 DUP6 ADD MLOAD DUP3 SSTORE PUSH1 0x20 SWAP5 DUP6 ADD SWAP5 PUSH1 0x1 SWAP1 SWAP3 ADD SWAP2 ADD PUSH2 0x692 JUMP JUMPDEST DUP7 DUP4 LT ISZERO PUSH2 0x6CE JUMPI DUP5 DUP10 ADD MLOAD PUSH1 0x0 NOT PUSH1 0x1F DUP10 AND PUSH1 0x8 MUL SHR NOT AND DUP3 SSTORE JUMPDEST PUSH1 0x1 PUSH1 0x2 DUP9 MUL ADD DUP9 SSTORE POP POP POP JUMPDEST POP POP POP POP POP POP JUMP JUMPDEST PUSH1 0x0 PUSH2 0x6ED DUP3 MLOAD SWAP1 JUMP JUMPDEST PUSH2 0x6FB DUP2 DUP6 PUSH1 0x20 DUP7 ADD PUSH2 0x304 JUMP JUMPDEST SWAP3 SWAP1 SWAP3 ADD SWAP3 SWAP2 POP POP JUMP JUMPDEST PUSH1 0x0 PUSH2 0x711 DUP3 DUP5 PUSH2 0x6E3 JUMP JUMPDEST SWAP4 SWAP3 POP POP POP JUMP INVALID LOG2 PUSH5 0x6970667358 0x22 SLT KECCAK256 0x21 EXTCODEHASH 0x4B PUSH13 0xD1E08247A0A3F0E4872495556F 0x28 BLOCKHASH 0xC7 NUMBER CALLDATASIZE JUMPI JUMPI JUMPI 0xAD BASEFEE 0xE2 CODESIZE 0xBF SWAP2 0xAC PUSH5 0x736F6C6343 STOP ADDMOD GT STOP CALLER LOG2 PUSH5 0x6970667358 0x22 SLT KECCAK256 SGT CALLVALUE LOG4 REVERT PUSH14 0xCD807A012C33068265C2B00E96BA 0xE3 PUSH28 0xB2A9B2AE2B4A4FCA032FB164736F6C63430008110033000000000000 "},"gasEstimates":{"creation":{"codeDepositCost":"695400","executionCost":"728","totalCost":"696128"},"external":{"createStore()":"infinite","sfGet(uint256)":"infinite","sfStore(uint256,uint256)":"infinite","storedArray(uint256)":"infinite"}},"methodIdentifiers":{"createStore()":"fb122ac8","sfGet(uint256)":"c5f19c20","sfStore(uint256,uint256)":"1563700f","storedArray(uint256)":"b70d134a"}},"storageLayout":{"storage":[{"astId":791,"contract":"contracts/storageFactory.sol:StorFact","label":"storedArray","offset":0,"slot":"0","type":"t_array(t_contract(Stored)946)dyn_storage"}],"types":{"t_array(t_contract(Stored)946)dyn_storage":{"base":"t_contract(Stored)946","encoding":"dynamic_array","label":"contract Stored[]","numberOfBytes":"32"},"t_contract(Stored)946":{"encoding":"inplace","label":"contract Stored","numberOfBytes":"20"}}},"userdoc":{"kind":"user","methods":{},"version":1}}}}