{"contracts/safeMath.sol":{"safeMathTest":{"abi":[{"inputs":[],"name":"increment","outputs":[],"stateMutability":"nonpayable","type":"function"}],"evm":{"bytecode":{"linkReferences":{},"object":"608060405260ff6000806101000a81548160ff021916908360ff160217905550348015602a57600080fd5b50609e806100396000396000f3fe6080604052348015600f57600080fd5b506004361060285760003560e01c8063d09de08a14602d575b600080fd5b60336035565b005b60008081819054906101000a900460ff168092919060010191906101000a81548160ff021916908360ff1602179055505056fea2646970667358221220f237b3012c2d0f9d9f06bebfd87aaa79c2166f9ce1a4d0f310b08f6dd43823fe64736f6c63430006060033","opcodes":"PUSH1 0x80 PUSH1 0x40 MSTORE PUSH1 0xFF PUSH1 0x0 DUP1 PUSH2 0x100 EXP DUP2 SLOAD DUP2 PUSH1 0xFF MUL NOT AND SWAP1 DUP4 PUSH1 0xFF AND MUL OR SWAP1 SSTORE POP CALLVALUE DUP1 ISZERO PUSH1 0x2A JUMPI PUSH1 0x0 DUP1 REVERT JUMPDEST POP PUSH1 0x9E DUP1 PUSH2 0x39 PUSH1 0x0 CODECOPY PUSH1 0x0 RETURN INVALID PUSH1 0x80 PUSH1 0x40 MSTORE CALLVALUE DUP1 ISZERO PUSH1 0xF JUMPI PUSH1 0x0 DUP1 REVERT JUMPDEST POP PUSH1 0x4 CALLDATASIZE LT PUSH1 0x28 JUMPI PUSH1 0x0 CALLDATALOAD PUSH1 0xE0 SHR DUP1 PUSH4 0xD09DE08A EQ PUSH1 0x2D JUMPI JUMPDEST PUSH1 0x0 DUP1 REVERT JUMPDEST PUSH1 0x33 PUSH1 0x35 JUMP JUMPDEST STOP JUMPDEST PUSH1 0x0 DUP1 DUP2 DUP2 SWAP1 SLOAD SWAP1 PUSH2 0x100 EXP SWAP1 DIV PUSH1 0xFF AND DUP1 SWAP3 SWAP2 SWAP1 PUSH1 0x1 ADD SWAP2 SWAP1 PUSH2 0x100 EXP DUP2 SLOAD DUP2 PUSH1 0xFF MUL NOT AND SWAP1 DUP4 PUSH1 0xFF AND MUL OR SWAP1 SSTORE POP POP JUMP INVALID LOG2 PUSH5 0x6970667358 0x22 SLT KECCAK256 CALLCODE CALLDATACOPY 0xB3 ADD 0x2C 0x2D 0xF SWAP14 SWAP16 MOD 0xBE 0xBF 0xD8 PUSH27 0xAA79C2166F9CE1A4D0F310B08F6DD43823FE64736F6C6343000606 STOP CALLER "},"methodIdentifiers":{"increment()":"d09de08a"}}}}}