{"contracts/fundMe.sol":{"FundMe":{"abi":[{"inputs":[{"internalType":"address","name":"_priceFeedAddress","type":"address"}],"stateMutability":"nonpayable","type":"constructor"},{"inputs":[],"name":"FundMe__NotOwner","type":"error"},{"stateMutability":"payable","type":"fallback"},{"inputs":[],"name":"MINUSD","outputs":[{"internalType":"uint256","name":"","type":"uint256"}],"stateMutability":"view","type":"function"},{"inputs":[{"internalType":"address","name":"_newOwner","type":"address"}],"name":"changeOwner","outputs":[],"stateMutability":"nonpayable","type":"function"},{"inputs":[],"name":"fund","outputs":[],"stateMutability":"payable","type":"function"},{"inputs":[{"internalType":"address","name":"_funder","type":"address"}],"name":"getFunderToAmo","outputs":[{"internalType":"uint256","name":"","type":"uint256"}],"stateMutability":"view","type":"function"},{"inputs":[{"internalType":"uint256","name":"idx","type":"uint256"}],"name":"getFunders","outputs":[{"internalType":"address","name":"","type":"address"}],"stateMutability":"view","type":"function"},{"inputs":[],"name":"getOwner","outputs":[{"internalType":"address","name":"","type":"address"}],"stateMutability":"view","type":"function"},{"inputs":[],"name":"getPriceFeed","outputs":[{"internalType":"contract AggregatorV3Interface","name":"","type":"address"}],"stateMutability":"view","type":"function"},{"inputs":[],"name":"wdraw","outputs":[],"stateMutability":"nonpayable","type":"function"},{"stateMutability":"payable","type":"receive"}],"devdoc":{"kind":"dev","methods":{},"version":1},"evm":{"bytecode":{"linkReferences":{},"object":"608060405234801561001057600080fd5b5060405161094038038061094083398101604081905261002f91610097565b60008054336001600160a01b031991821617909155600280549091166001600160a01b03929092169190911790556100c0565b60006001600160a01b0382165b92915050565b61007e81610062565b811461008957600080fd5b50565b805161006f81610075565b6000602082840312156100ac576100ac600080fd5b60006100b8848461008c565b949350505050565b610871806100cf6000396000f3fe60806040526004361061007f5760003560e01c8063a6f9dae11161004e578063a6f9dae11461013f578063b60d42881461015f578063bcc57b0d14610167578063ccadfaf21461019d5761008e565b80633a7b6c741461009c5780634dc93616146100d2578063893d20e8146100fb5780639e87a5cd146101195761008e565b3661008e5761008c6101b2565b005b341561008c5761008c6101b2565b3480156100a857600080fd5b506100bc6100b7366004610599565b61024c565b6040516100c991906105e2565b60405180910390f35b3480156100de57600080fd5b506100ee671bc16d674ec8000081565b6040516100c991906105f6565b34801561010757600080fd5b506000546001600160a01b03166100bc565b34801561012557600080fd5b506002546001600160a01b03166040516100c99190610623565b34801561014b57600080fd5b5061008c61015a366004610645565b61027c565b61008c6101b2565b34801561017357600080fd5b506100ee610182366004610645565b6001600160a01b031660009081526003602052604090205490565b3480156101a957600080fd5b5061008c6102c9565b600254671bc16d674ec80000906101d39034906001600160a01b0316610449565b10156101fa5760405162461bcd60e51b81526004016101f190610691565b60405180910390fd5b33600081815260036020526040812034905560018054808201825591527fb10e2d527612073b26eecdfd717e6a320cf44b4afac2b0732d9fcbe2b7fa0cf60180546001600160a01b0319169091179055565b600060018281548110610261576102616106a1565b6000918252602090912001546001600160a01b031692915050565b6000546001600160a01b031633146102a75760405163579610db60e01b815260040160405180910390fd5b600080546001600160a01b0319166001600160a01b0392909216919091179055565b6000546001600160a01b031633146102f45760405163579610db60e01b815260040160405180910390fd5b6000336001600160a01b03164760405161030d906106b7565b60006040518083038185875af1925050503d806000811461034a576040519150601f19603f3d011682016040523d82523d6000602084013e61034f565b606091505b50509050806103705760405162461bcd60e51b81526004016101f1906106e1565b600060018054806020026020016040519081016040528092919081815260200182805480156103c857602002820191906000526020600020905b81546001600160a01b031681526001909101906020018083116103aa575b5050505050905060005b81518110156104265760008282815181106103ef576103ef6106a1565b6020908102919091018101516001600160a01b0316600090815260039091526040812055508061041e81610707565b9150506103d2565b50604080516000815260208101918290525161044491600191610504565b505050565b60008061045583610481565b90506000670de0b6b3a764000061046c8684610721565b6104769190610756565b925050505b92915050565b600080826001600160a01b031663feaf968c6040518163ffffffff1660e01b815260040160a060405180830381865afa1580156104c2573d6000803e3d6000fd5b505050506040513d601f19601f820116820180604052508101906104e69190610792565b505050915050806402540be4006104fd919061080a565b9392505050565b828054828255906000526020600020908101928215610559579160200282015b8281111561055957825182546001600160a01b0319166001600160a01b03909116178255602090920191600190910190610524565b50610565929150610569565b5090565b5b80821115610565576000815560010161056a565b805b811461058b57600080fd5b50565b803561047b8161057e565b6000602082840312156105ae576105ae600080fd5b60006105ba848461058e565b949350505050565b60006001600160a01b03821661047b565b6105dc816105c2565b82525050565b6020810161047b82846105d3565b806105dc565b6020810161047b82846105f0565b600061047b826105c2565b600061047b82610604565b6105dc8161060f565b6020810161047b828461061a565b610580816105c2565b803561047b81610631565b60006020828403121561065a5761065a600080fd5b60006105ba848461063a565b6011815260006020820170135bdc9948115512081c995c5d5a5c9959607a1b815291505b5060200190565b6020808252810161047b81610666565b634e487b7160e01b600052603260045260246000fd5b60008161047b565b600b81526000602082016a14d95b990819985a5b195960aa1b8152915061068a565b6020808252810161047b816106bf565b634e487b7160e01b600052601160045260246000fd5b6000600019820361071a5761071a6106f1565b5060010190565b818102808215838204851417610739576107396106f1565b5092915050565b634e487b7160e01b600052601260045260246000fd5b60008261076557610765610740565b500490565b69ffffffffffffffffffff8116610580565b805161047b8161076a565b805161047b8161057e565b600080600080600060a086880312156107ad576107ad600080fd5b60006107b9888861077c565b95505060206107ca88828901610787565b94505060406107db88828901610787565b93505060606107ec88828901610787565b92505060806107fd8882890161077c565b9150509295509295909350565b8181028060008312600160ff1b85141615610827576108276106f1565b8282058414831517610739576107396106f156fea26469706673582212202681fe87b31e5a67cd95ced6f7aaf03c07fcdb33b800059a856ec1f0387395c464736f6c63430008110033","opcodes":"PUSH1 0x80 PUSH1 0x40 MSTORE CALLVALUE DUP1 ISZERO PUSH2 0x10 JUMPI PUSH1 0x0 DUP1 REVERT JUMPDEST POP PUSH1 0x40 MLOAD PUSH2 0x940 CODESIZE SUB DUP1 PUSH2 0x940 DUP4 CODECOPY DUP2 ADD PUSH1 0x40 DUP2 SWAP1 MSTORE PUSH2 0x2F SWAP2 PUSH2 0x97 JUMP JUMPDEST PUSH1 0x0 DUP1 SLOAD CALLER PUSH1 0x1 PUSH1 0x1 PUSH1 0xA0 SHL SUB NOT SWAP2 DUP3 AND OR SWAP1 SWAP2 SSTORE PUSH1 0x2 DUP1 SLOAD SWAP1 SWAP2 AND PUSH1 0x1 PUSH1 0x1 PUSH1 0xA0 SHL SUB SWAP3 SWAP1 SWAP3 AND SWAP2 SWAP1 SWAP2 OR SWAP1 SSTORE PUSH2 0xC0 JUMP JUMPDEST PUSH1 0x0 PUSH1 0x1 PUSH1 0x1 PUSH1 0xA0 SHL SUB DUP3 AND JUMPDEST SWAP3 SWAP2 POP POP JUMP JUMPDEST PUSH2 0x7E DUP2 PUSH2 0x62 JUMP JUMPDEST DUP2 EQ PUSH2 0x89 JUMPI PUSH1 0x0 DUP1 REVERT JUMPDEST POP JUMP JUMPDEST DUP1 MLOAD PUSH2 0x6F DUP2 PUSH2 0x75 JUMP JUMPDEST PUSH1 0x0 PUSH1 0x20 DUP3 DUP5 SUB SLT ISZERO PUSH2 0xAC JUMPI PUSH2 0xAC PUSH1 0x0 DUP1 REVERT JUMPDEST PUSH1 0x0 PUSH2 0xB8 DUP5 DUP5 PUSH2 0x8C JUMP JUMPDEST SWAP5 SWAP4 POP POP POP POP JUMP JUMPDEST PUSH2 0x871 DUP1 PUSH2 0xCF PUSH1 0x0 CODECOPY PUSH1 0x0 RETURN INVALID PUSH1 0x80 PUSH1 0x40 MSTORE PUSH1 0x4 CALLDATASIZE LT PUSH2 0x7F JUMPI PUSH1 0x0 CALLDATALOAD PUSH1 0xE0 SHR DUP1 PUSH4 0xA6F9DAE1 GT PUSH2 0x4E JUMPI DUP1 PUSH4 0xA6F9DAE1 EQ PUSH2 0x13F JUMPI DUP1 PUSH4 0xB60D4288 EQ PUSH2 0x15F JUMPI DUP1 PUSH4 0xBCC57B0D EQ PUSH2 0x167 JUMPI DUP1 PUSH4 0xCCADFAF2 EQ PUSH2 0x19D JUMPI PUSH2 0x8E JUMP JUMPDEST DUP1 PUSH4 0x3A7B6C74 EQ PUSH2 0x9C JUMPI DUP1 PUSH4 0x4DC93616 EQ PUSH2 0xD2 JUMPI DUP1 PUSH4 0x893D20E8 EQ PUSH2 0xFB JUMPI DUP1 PUSH4 0x9E87A5CD EQ PUSH2 0x119 JUMPI PUSH2 0x8E JUMP JUMPDEST CALLDATASIZE PUSH2 0x8E JUMPI PUSH2 0x8C PUSH2 0x1B2 JUMP JUMPDEST STOP JUMPDEST CALLVALUE ISZERO PUSH2 0x8C JUMPI PUSH2 0x8C PUSH2 0x1B2 JUMP JUMPDEST CALLVALUE DUP1 ISZERO PUSH2 0xA8 JUMPI PUSH1 0x0 DUP1 REVERT JUMPDEST POP PUSH2 0xBC PUSH2 0xB7 CALLDATASIZE PUSH1 0x4 PUSH2 0x599 JUMP JUMPDEST PUSH2 0x24C JUMP JUMPDEST PUSH1 0x40 MLOAD PUSH2 0xC9 SWAP2 SWAP1 PUSH2 0x5E2 JUMP JUMPDEST PUSH1 0x40 MLOAD DUP1 SWAP2 SUB SWAP1 RETURN JUMPDEST CALLVALUE DUP1 ISZERO PUSH2 0xDE JUMPI PUSH1 0x0 DUP1 REVERT JUMPDEST POP PUSH2 0xEE PUSH8 0x1BC16D674EC80000 DUP2 JUMP JUMPDEST PUSH1 0x40 MLOAD PUSH2 0xC9 SWAP2 SWAP1 PUSH2 0x5F6 JUMP JUMPDEST CALLVALUE DUP1 ISZERO PUSH2 0x107 JUMPI PUSH1 0x0 DUP1 REVERT JUMPDEST POP PUSH1 0x0 SLOAD PUSH1 0x1 PUSH1 0x1 PUSH1 0xA0 SHL SUB AND PUSH2 0xBC JUMP JUMPDEST CALLVALUE DUP1 ISZERO PUSH2 0x125 JUMPI PUSH1 0x0 DUP1 REVERT JUMPDEST POP PUSH1 0x2 SLOAD PUSH1 0x1 PUSH1 0x1 PUSH1 0xA0 SHL SUB AND PUSH1 0x40 MLOAD PUSH2 0xC9 SWAP2 SWAP1 PUSH2 0x623 JUMP JUMPDEST CALLVALUE DUP1 ISZERO PUSH2 0x14B JUMPI PUSH1 0x0 DUP1 REVERT JUMPDEST POP PUSH2 0x8C PUSH2 0x15A CALLDATASIZE PUSH1 0x4 PUSH2 0x645 JUMP JUMPDEST PUSH2 0x27C JUMP JUMPDEST PUSH2 0x8C PUSH2 0x1B2 JUMP JUMPDEST CALLVALUE DUP1 ISZERO PUSH2 0x173 JUMPI PUSH1 0x0 DUP1 REVERT JUMPDEST POP PUSH2 0xEE PUSH2 0x182 CALLDATASIZE PUSH1 0x4 PUSH2 0x645 JUMP JUMPDEST PUSH1 0x1 PUSH1 0x1 PUSH1 0xA0 SHL SUB AND PUSH1 0x0 SWAP1 DUP2 MSTORE PUSH1 0x3 PUSH1 0x20 MSTORE PUSH1 0x40 SWAP1 KECCAK256 SLOAD SWAP1 JUMP JUMPDEST CALLVALUE DUP1 ISZERO PUSH2 0x1A9 JUMPI PUSH1 0x0 DUP1 REVERT JUMPDEST POP PUSH2 0x8C PUSH2 0x2C9 JUMP JUMPDEST PUSH1 0x2 SLOAD PUSH8 0x1BC16D674EC80000 SWAP1 PUSH2 0x1D3 SWAP1 CALLVALUE SWAP1 PUSH1 0x1 PUSH1 0x1 PUSH1 0xA0 SHL SUB AND PUSH2 0x449 JUMP JUMPDEST LT ISZERO PUSH2 0x1FA JUMPI PUSH1 0x40 MLOAD PUSH3 0x461BCD PUSH1 0xE5 SHL DUP2 MSTORE PUSH1 0x4 ADD PUSH2 0x1F1 SWAP1 PUSH2 0x691 JUMP JUMPDEST PUSH1 0x40 MLOAD DUP1 SWAP2 SUB SWAP1 REVERT JUMPDEST CALLER PUSH1 0x0 DUP2 DUP2 MSTORE PUSH1 0x3 PUSH1 0x20 MSTORE PUSH1 0x40 DUP2 KECCAK256 CALLVALUE SWAP1 SSTORE PUSH1 0x1 DUP1 SLOAD DUP1 DUP3 ADD DUP3 SSTORE SWAP2 MSTORE PUSH32 0xB10E2D527612073B26EECDFD717E6A320CF44B4AFAC2B0732D9FCBE2B7FA0CF6 ADD DUP1 SLOAD PUSH1 0x1 PUSH1 0x1 PUSH1 0xA0 SHL SUB NOT AND SWAP1 SWAP2 OR SWAP1 SSTORE JUMP JUMPDEST PUSH1 0x0 PUSH1 0x1 DUP3 DUP2 SLOAD DUP2 LT PUSH2 0x261 JUMPI PUSH2 0x261 PUSH2 0x6A1 JUMP JUMPDEST PUSH1 0x0 SWAP2 DUP3 MSTORE PUSH1 0x20 SWAP1 SWAP2 KECCAK256 ADD SLOAD PUSH1 0x1 PUSH1 0x1 PUSH1 0xA0 SHL SUB AND SWAP3 SWAP2 POP POP JUMP JUMPDEST PUSH1 0x0 SLOAD PUSH1 0x1 PUSH1 0x1 PUSH1 0xA0 SHL SUB AND CALLER EQ PUSH2 0x2A7 JUMPI PUSH1 0x40 MLOAD PUSH4 0x579610DB PUSH1 0xE0 SHL DUP2 MSTORE PUSH1 0x4 ADD PUSH1 0x40 MLOAD DUP1 SWAP2 SUB SWAP1 REVERT JUMPDEST PUSH1 0x0 DUP1 SLOAD PUSH1 0x1 PUSH1 0x1 PUSH1 0xA0 SHL SUB NOT AND PUSH1 0x1 PUSH1 0x1 PUSH1 0xA0 SHL SUB SWAP3 SWAP1 SWAP3 AND SWAP2 SWAP1 SWAP2 OR SWAP1 SSTORE JUMP JUMPDEST PUSH1 0x0 SLOAD PUSH1 0x1 PUSH1 0x1 PUSH1 0xA0 SHL SUB AND CALLER EQ PUSH2 0x2F4 JUMPI PUSH1 0x40 MLOAD PUSH4 0x579610DB PUSH1 0xE0 SHL DUP2 MSTORE PUSH1 0x4 ADD PUSH1 0x40 MLOAD DUP1 SWAP2 SUB SWAP1 REVERT JUMPDEST PUSH1 0x0 CALLER PUSH1 0x1 PUSH1 0x1 PUSH1 0xA0 SHL SUB AND SELFBALANCE PUSH1 0x40 MLOAD PUSH2 0x30D SWAP1 PUSH2 0x6B7 JUMP JUMPDEST PUSH1 0x0 PUSH1 0x40 MLOAD DUP1 DUP4 SUB DUP2 DUP6 DUP8 GAS CALL SWAP3 POP POP POP RETURNDATASIZE DUP1 PUSH1 0x0 DUP2 EQ PUSH2 0x34A JUMPI PUSH1 0x40 MLOAD SWAP2 POP PUSH1 0x1F NOT PUSH1 0x3F RETURNDATASIZE ADD AND DUP3 ADD PUSH1 0x40 MSTORE RETURNDATASIZE DUP3 MSTORE RETURNDATASIZE PUSH1 0x0 PUSH1 0x20 DUP5 ADD RETURNDATACOPY PUSH2 0x34F JUMP JUMPDEST PUSH1 0x60 SWAP2 POP JUMPDEST POP POP SWAP1 POP DUP1 PUSH2 0x370 JUMPI PUSH1 0x40 MLOAD PUSH3 0x461BCD PUSH1 0xE5 SHL DUP2 MSTORE PUSH1 0x4 ADD PUSH2 0x1F1 SWAP1 PUSH2 0x6E1 JUMP JUMPDEST PUSH1 0x0 PUSH1 0x1 DUP1 SLOAD DUP1 PUSH1 0x20 MUL PUSH1 0x20 ADD PUSH1 0x40 MLOAD SWAP1 DUP2 ADD PUSH1 0x40 MSTORE DUP1 SWAP3 SWAP2 SWAP1 DUP2 DUP2 MSTORE PUSH1 0x20 ADD DUP3 DUP1 SLOAD DUP1 ISZERO PUSH2 0x3C8 JUMPI PUSH1 0x20 MUL DUP3 ADD SWAP2 SWAP1 PUSH1 0x0 MSTORE PUSH1 0x20 PUSH1 0x0 KECCAK256 SWAP1 JUMPDEST DUP2 SLOAD PUSH1 0x1 PUSH1 0x1 PUSH1 0xA0 SHL SUB AND DUP2 MSTORE PUSH1 0x1 SWAP1 SWAP2 ADD SWAP1 PUSH1 0x20 ADD DUP1 DUP4 GT PUSH2 0x3AA JUMPI JUMPDEST POP POP POP POP POP SWAP1 POP PUSH1 0x0 JUMPDEST DUP2 MLOAD DUP2 LT ISZERO PUSH2 0x426 JUMPI PUSH1 0x0 DUP3 DUP3 DUP2 MLOAD DUP2 LT PUSH2 0x3EF JUMPI PUSH2 0x3EF PUSH2 0x6A1 JUMP JUMPDEST PUSH1 0x20 SWAP1 DUP2 MUL SWAP2 SWAP1 SWAP2 ADD DUP2 ADD MLOAD PUSH1 0x1 PUSH1 0x1 PUSH1 0xA0 SHL SUB AND PUSH1 0x0 SWAP1 DUP2 MSTORE PUSH1 0x3 SWAP1 SWAP2 MSTORE PUSH1 0x40 DUP2 KECCAK256 SSTORE POP DUP1 PUSH2 0x41E DUP2 PUSH2 0x707 JUMP JUMPDEST SWAP2 POP POP PUSH2 0x3D2 JUMP JUMPDEST POP PUSH1 0x40 DUP1 MLOAD PUSH1 0x0 DUP2 MSTORE PUSH1 0x20 DUP2 ADD SWAP2 DUP3 SWAP1 MSTORE MLOAD PUSH2 0x444 SWAP2 PUSH1 0x1 SWAP2 PUSH2 0x504 JUMP JUMPDEST POP POP POP JUMP JUMPDEST PUSH1 0x0 DUP1 PUSH2 0x455 DUP4 PUSH2 0x481 JUMP JUMPDEST SWAP1 POP PUSH1 0x0 PUSH8 0xDE0B6B3A7640000 PUSH2 0x46C DUP7 DUP5 PUSH2 0x721 JUMP JUMPDEST PUSH2 0x476 SWAP2 SWAP1 PUSH2 0x756 JUMP JUMPDEST SWAP3 POP POP POP JUMPDEST SWAP3 SWAP2 POP POP JUMP JUMPDEST PUSH1 0x0 DUP1 DUP3 PUSH1 0x1 PUSH1 0x1 PUSH1 0xA0 SHL SUB AND PUSH4 0xFEAF968C PUSH1 0x40 MLOAD DUP2 PUSH4 0xFFFFFFFF AND PUSH1 0xE0 SHL DUP2 MSTORE PUSH1 0x4 ADD PUSH1 0xA0 PUSH1 0x40 MLOAD DUP1 DUP4 SUB DUP2 DUP7 GAS STATICCALL ISZERO DUP1 ISZERO PUSH2 0x4C2 JUMPI RETURNDATASIZE PUSH1 0x0 DUP1 RETURNDATACOPY RETURNDATASIZE PUSH1 0x0 REVERT JUMPDEST POP POP POP POP PUSH1 0x40 MLOAD RETURNDATASIZE PUSH1 0x1F NOT PUSH1 0x1F DUP3 ADD AND DUP3 ADD DUP1 PUSH1 0x40 MSTORE POP DUP2 ADD SWAP1 PUSH2 0x4E6 SWAP2 SWAP1 PUSH2 0x792 JUMP JUMPDEST POP POP POP SWAP2 POP POP DUP1 PUSH5 0x2540BE400 PUSH2 0x4FD SWAP2 SWAP1 PUSH2 0x80A JUMP JUMPDEST SWAP4 SWAP3 POP POP POP JUMP JUMPDEST DUP3 DUP1 SLOAD DUP3 DUP3 SSTORE SWAP1 PUSH1 0x0 MSTORE PUSH1 0x20 PUSH1 0x0 KECCAK256 SWAP1 DUP2 ADD SWAP3 DUP3 ISZERO PUSH2 0x559 JUMPI SWAP2 PUSH1 0x20 MUL DUP3 ADD JUMPDEST DUP3 DUP2 GT ISZERO PUSH2 0x559 JUMPI DUP3 MLOAD DUP3 SLOAD PUSH1 0x1 PUSH1 0x1 PUSH1 0xA0 SHL SUB NOT AND PUSH1 0x1 PUSH1 0x1 PUSH1 0xA0 SHL SUB SWAP1 SWAP2 AND OR DUP3 SSTORE PUSH1 0x20 SWAP1 SWAP3 ADD SWAP2 PUSH1 0x1 SWAP1 SWAP2 ADD SWAP1 PUSH2 0x524 JUMP JUMPDEST POP PUSH2 0x565 SWAP3 SWAP2 POP PUSH2 0x569 JUMP JUMPDEST POP SWAP1 JUMP JUMPDEST JUMPDEST DUP1 DUP3 GT ISZERO PUSH2 0x565 JUMPI PUSH1 0x0 DUP2 SSTORE PUSH1 0x1 ADD PUSH2 0x56A JUMP JUMPDEST DUP1 JUMPDEST DUP2 EQ PUSH2 0x58B JUMPI PUSH1 0x0 DUP1 REVERT JUMPDEST POP JUMP JUMPDEST DUP1 CALLDATALOAD PUSH2 0x47B DUP2 PUSH2 0x57E JUMP JUMPDEST PUSH1 0x0 PUSH1 0x20 DUP3 DUP5 SUB SLT ISZERO PUSH2 0x5AE JUMPI PUSH2 0x5AE PUSH1 0x0 DUP1 REVERT JUMPDEST PUSH1 0x0 PUSH2 0x5BA DUP5 DUP5 PUSH2 0x58E JUMP JUMPDEST SWAP5 SWAP4 POP POP POP POP JUMP JUMPDEST PUSH1 0x0 PUSH1 0x1 PUSH1 0x1 PUSH1 0xA0 SHL SUB DUP3 AND PUSH2 0x47B JUMP JUMPDEST PUSH2 0x5DC DUP2 PUSH2 0x5C2 JUMP JUMPDEST DUP3 MSTORE POP POP JUMP JUMPDEST PUSH1 0x20 DUP2 ADD PUSH2 0x47B DUP3 DUP5 PUSH2 0x5D3 JUMP JUMPDEST DUP1 PUSH2 0x5DC JUMP JUMPDEST PUSH1 0x20 DUP2 ADD PUSH2 0x47B DUP3 DUP5 PUSH2 0x5F0 JUMP JUMPDEST PUSH1 0x0 PUSH2 0x47B DUP3 PUSH2 0x5C2 JUMP JUMPDEST PUSH1 0x0 PUSH2 0x47B DUP3 PUSH2 0x604 JUMP JUMPDEST PUSH2 0x5DC DUP2 PUSH2 0x60F JUMP JUMPDEST PUSH1 0x20 DUP2 ADD PUSH2 0x47B DUP3 DUP5 PUSH2 0x61A JUMP JUMPDEST PUSH2 0x580 DUP2 PUSH2 0x5C2 JUMP JUMPDEST DUP1 CALLDATALOAD PUSH2 0x47B DUP2 PUSH2 0x631 JUMP JUMPDEST PUSH1 0x0 PUSH1 0x20 DUP3 DUP5 SUB SLT ISZERO PUSH2 0x65A JUMPI PUSH2 0x65A PUSH1 0x0 DUP1 REVERT JUMPDEST PUSH1 0x0 PUSH2 0x5BA DUP5 DUP5 PUSH2 0x63A JUMP JUMPDEST PUSH1 0x11 DUP2 MSTORE PUSH1 0x0 PUSH1 0x20 DUP3 ADD PUSH17 0x135BDC9948115512081C995C5D5A5C9959 PUSH1 0x7A SHL DUP2 MSTORE SWAP2 POP JUMPDEST POP PUSH1 0x20 ADD SWAP1 JUMP JUMPDEST PUSH1 0x20 DUP1 DUP3 MSTORE DUP2 ADD PUSH2 0x47B DUP2 PUSH2 0x666 JUMP JUMPDEST PUSH4 0x4E487B71 PUSH1 0xE0 SHL PUSH1 0x0 MSTORE PUSH1 0x32 PUSH1 0x4 MSTORE PUSH1 0x24 PUSH1 0x0 REVERT JUMPDEST PUSH1 0x0 DUP2 PUSH2 0x47B JUMP JUMPDEST PUSH1 0xB DUP2 MSTORE PUSH1 0x0 PUSH1 0x20 DUP3 ADD PUSH11 0x14D95B990819985A5B1959 PUSH1 0xAA SHL DUP2 MSTORE SWAP2 POP PUSH2 0x68A JUMP JUMPDEST PUSH1 0x20 DUP1 DUP3 MSTORE DUP2 ADD PUSH2 0x47B DUP2 PUSH2 0x6BF JUMP JUMPDEST PUSH4 0x4E487B71 PUSH1 0xE0 SHL PUSH1 0x0 MSTORE PUSH1 0x11 PUSH1 0x4 MSTORE PUSH1 0x24 PUSH1 0x0 REVERT JUMPDEST PUSH1 0x0 PUSH1 0x0 NOT DUP3 SUB PUSH2 0x71A JUMPI PUSH2 0x71A PUSH2 0x6F1 JUMP JUMPDEST POP PUSH1 0x1 ADD SWAP1 JUMP JUMPDEST DUP2 DUP2 MUL DUP1 DUP3 ISZERO DUP4 DUP3 DIV DUP6 EQ OR PUSH2 0x739 JUMPI PUSH2 0x739 PUSH2 0x6F1 JUMP JUMPDEST POP SWAP3 SWAP2 POP POP JUMP JUMPDEST PUSH4 0x4E487B71 PUSH1 0xE0 SHL PUSH1 0x0 MSTORE PUSH1 0x12 PUSH1 0x4 MSTORE PUSH1 0x24 PUSH1 0x0 REVERT JUMPDEST PUSH1 0x0 DUP3 PUSH2 0x765 JUMPI PUSH2 0x765 PUSH2 0x740 JUMP JUMPDEST POP DIV SWAP1 JUMP JUMPDEST PUSH10 0xFFFFFFFFFFFFFFFFFFFF DUP2 AND PUSH2 0x580 JUMP JUMPDEST DUP1 MLOAD PUSH2 0x47B DUP2 PUSH2 0x76A JUMP JUMPDEST DUP1 MLOAD PUSH2 0x47B DUP2 PUSH2 0x57E JUMP JUMPDEST PUSH1 0x0 DUP1 PUSH1 0x0 DUP1 PUSH1 0x0 PUSH1 0xA0 DUP7 DUP9 SUB SLT ISZERO PUSH2 0x7AD JUMPI PUSH2 0x7AD PUSH1 0x0 DUP1 REVERT JUMPDEST PUSH1 0x0 PUSH2 0x7B9 DUP9 DUP9 PUSH2 0x77C JUMP JUMPDEST SWAP6 POP POP PUSH1 0x20 PUSH2 0x7CA DUP9 DUP3 DUP10 ADD PUSH2 0x787 JUMP JUMPDEST SWAP5 POP POP PUSH1 0x40 PUSH2 0x7DB DUP9 DUP3 DUP10 ADD PUSH2 0x787 JUMP JUMPDEST SWAP4 POP POP PUSH1 0x60 PUSH2 0x7EC DUP9 DUP3 DUP10 ADD PUSH2 0x787 JUMP JUMPDEST SWAP3 POP POP PUSH1 0x80 PUSH2 0x7FD DUP9 DUP3 DUP10 ADD PUSH2 0x77C JUMP JUMPDEST SWAP2 POP POP SWAP3 SWAP6 POP SWAP3 SWAP6 SWAP1 SWAP4 POP JUMP JUMPDEST DUP2 DUP2 MUL DUP1 PUSH1 0x0 DUP4 SLT PUSH1 0x1 PUSH1 0xFF SHL DUP6 EQ AND ISZERO PUSH2 0x827 JUMPI PUSH2 0x827 PUSH2 0x6F1 JUMP JUMPDEST DUP3 DUP3 SDIV DUP5 EQ DUP4 ISZERO OR PUSH2 0x739 JUMPI PUSH2 0x739 PUSH2 0x6F1 JUMP INVALID LOG2 PUSH5 0x6970667358 0x22 SLT KECCAK256 0x26 DUP2 INVALID DUP8 0xB3 0x1E GAS PUSH8 0xCD95CED6F7AAF03C SMOD 0xFC 0xDB CALLER 0xB8 STOP SDIV SWAP11 DUP6 PUSH15 0xC1F0387395C464736F6C6343000811 STOP CALLER "},"gasEstimates":{"creation":{"codeDepositCost":"432200","executionCost":"infinite","totalCost":"infinite"},"external":{"":"infinite","MINUSD()":"295","changeOwner(address)":"infinite","fund()":"infinite","getFunderToAmo(address)":"infinite","getFunders(uint256)":"infinite","getOwner()":"infinite","getPriceFeed()":"infinite","wdraw()":"infinite"}},"methodIdentifiers":{"MINUSD()":"4dc93616","changeOwner(address)":"a6f9dae1","fund()":"b60d4288","getFunderToAmo(address)":"bcc57b0d","getFunders(uint256)":"3a7b6c74","getOwner()":"893d20e8","getPriceFeed()":"9e87a5cd","wdraw()":"ccadfaf2"}},"storageLayout":{"storage":[{"astId":56,"contract":"contracts/fundMe.sol:FundMe","label":"i_owner","offset":0,"slot":"0","type":"t_address"},{"astId":59,"contract":"contracts/fundMe.sol:FundMe","label":"s_funders","offset":0,"slot":"1","type":"t_array(t_address)dyn_storage"},{"astId":62,"contract":"contracts/fundMe.sol:FundMe","label":"s_priceFeed","offset":0,"slot":"2","type":"t_contract(AggregatorV3Interface)45"},{"astId":66,"contract":"contracts/fundMe.sol:FundMe","label":"s_funderToAmo","offset":0,"slot":"3","type":"t_mapping(t_address,t_uint256)"}],"types":{"t_address":{"encoding":"inplace","label":"address","numberOfBytes":"20"},"t_array(t_address)dyn_storage":{"base":"t_address","encoding":"dynamic_array","label":"address[]","numberOfBytes":"32"},"t_contract(AggregatorV3Interface)45":{"encoding":"inplace","label":"contract AggregatorV3Interface","numberOfBytes":"20"},"t_mapping(t_address,t_uint256)":{"encoding":"mapping","key":"t_address","label":"mapping(address => uint256)","numberOfBytes":"32","value":"t_uint256"},"t_uint256":{"encoding":"inplace","label":"uint256","numberOfBytes":"32"}}},"userdoc":{"kind":"user","methods":{},"version":1}}}}