{"contracts/store.sol":{"stored":{"abi":[{"inputs":[],"name":"Num","outputs":[{"internalType":"uint256","name":"","type":"uint256"}],"stateMutability":"view","type":"function"},{"inputs":[{"internalType":"string","name":"_name","type":"string"},{"internalType":"uint256","name":"_num","type":"uint256"}],"name":"addpers","outputs":[],"stateMutability":"nonpayable","type":"function"},{"inputs":[{"internalType":"uint256","name":"_Num","type":"uint256"}],"name":"math","outputs":[{"internalType":"uint256","name":"","type":"uint256"}],"stateMutability":"pure","type":"function"},{"inputs":[{"internalType":"string","name":"","type":"string"}],"name":"nameToNum","outputs":[{"internalType":"uint256","name":"","type":"uint256"}],"stateMutability":"view","type":"function"},{"inputs":[],"name":"person","outputs":[{"internalType":"uint256","name":"num","type":"uint256"},{"internalType":"string","name":"name","type":"string"}],"stateMutability":"view","type":"function"},{"inputs":[{"internalType":"uint256","name":"","type":"uint256"}],"name":"pueblo","outputs":[{"internalType":"uint256","name":"num","type":"uint256"},{"internalType":"string","name":"name","type":"string"}],"stateMutability":"view","type":"function"},{"inputs":[],"name":"retrieve","outputs":[{"internalType":"uint256","name":"","type":"uint256"}],"stateMutability":"view","type":"function"},{"inputs":[{"internalType":"uint256","name":"_Num","type":"uint256"}],"name":"store","outputs":[],"stateMutability":"nonpayable","type":"function"}],"evm":{"bytecode":{"linkReferences":{},"object":"60806040526040518060400160405280600281526020016040518060400160405280600781526020017f7061747269636b000000000000000000000000000000000000000000000000008152508152506001600082015181600001556020820151816001019081620000729190620003b1565b505050600580556001600660006101000a81548160ff0219169083151502179055506040518060400160405280600681526020017f737472696e67000000000000000000000000000000000000000000000000000081525060079081620000da9190620003b1565b507ffffffffffffffffffffffffffffffffffffffffffffffffffffffffffffffffb6008557f63617400000000000000000000000000000000000000000000000000000000006009553480156200013057600080fd5b5062000498565b600081519050919050565b7f4e487b7100000000000000000000000000000000000000000000000000000000600052604160045260246000fd5b7f4e487b7100000000000000000000000000000000000000000000000000000000600052602260045260246000fd5b60006002820490506001821680620001b957607f821691505b602082108103620001cf57620001ce62000171565b5b50919050565b60008190508160005260206000209050919050565b60006020601f8301049050919050565b600082821b905092915050565b600060088302620002397fffffffffffffffffffffffffffffffffffffffffffffffffffffffffffffffff82620001fa565b620002458683620001fa565b95508019841693508086168417925050509392505050565b6000819050919050565b6000819050919050565b6000620002926200028c62000286846200025d565b62000267565b6200025d565b9050919050565b6000819050919050565b620002ae8362000271565b620002c6620002bd8262000299565b84845462000207565b825550505050565b600090565b620002dd620002ce565b620002ea818484620002a3565b505050565b5b81811015620003125762000306600082620002d3565b600181019050620002f0565b5050565b601f82111562000361576200032b81620001d5565b6200033684620001ea565b8101602085101562000346578190505b6200035e6200035585620001ea565b830182620002ef565b50505b505050565b600082821c905092915050565b6000620003866000198460080262000366565b1980831691505092915050565b6000620003a1838362000373565b9150826002028217905092915050565b620003bc8262000137565b67ffffffffffffffff811115620003d857620003d762000142565b5b620003e48254620001a0565b620003f182828562000316565b600060209050601f83116001811462000429576000841562000414578287015190505b62000420858262000393565b86555062000490565b601f1984166200043986620001d5565b60005b8281101562000463578489015182556001820191506020850194506020810190506200043c565b868310156200048357848901516200047f601f89168262000373565b8355505b6001600288020188555050505b505050505050565b610b0080620004a86000396000f3fe608060405234801561001057600080fd5b50600436106100885760003560e01c80636f2938e81161005b5780636f2938e81461011657806375bf7eed1461014657806377ec2b551461016257806392fa9da31461018157610088565b80632e64cec11461008d5780634237c65b146100ab5780636057361d146100c95780636c992aec146100e5575b600080fd5b6100956101b1565b6040516100a29190610406565b60405180910390f35b6100b36101ba565b6040516100c09190610406565b60405180910390f35b6100e360048036038101906100de9190610461565b6101c0565b005b6100ff60048036038101906100fa9190610461565b6101ca565b60405161010d92919061051e565b60405180910390f35b610130600480360381019061012b9190610461565b610286565b60405161013d9190610406565b60405180910390f35b610160600480360381019061015b9190610683565b61029c565b005b61016a610325565b60405161017892919061051e565b60405180910390f35b61019b600480360381019061019691906106df565b6103bf565b6040516101a89190610406565b60405180910390f35b60008054905090565b60005481565b8060008190555050565b600381815481106101da57600080fd5b906000526020600020906002020160009150905080600001549080600101805461020390610757565b80601f016020809104026020016040519081016040528092919081815260200182805461022f90610757565b801561027c5780601f106102515761010080835404028352916020019161027c565b820191906000526020600020905b81548152906001019060200180831161025f57829003601f168201915b5050505050905082565b600060028261029591906107b7565b9050919050565b600360405180604001604052808381526020018481525090806001815401808255809150506001900390600052602060002090600202016000909190919091506000820151816000015560208201518160010190816102fb91906109a5565b5050508060048360405161030f9190610ab3565b9081526020016040518091039020819055505050565b600180600001549080600101805461033c90610757565b80601f016020809104026020016040519081016040528092919081815260200182805461036890610757565b80156103b55780601f1061038a576101008083540402835291602001916103b5565b820191906000526020600020905b81548152906001019060200180831161039857829003601f168201915b5050505050905082565b6004818051602081018201805184825260208301602085012081835280955050505050506000915090505481565b6000819050919050565b610400816103ed565b82525050565b600060208201905061041b60008301846103f7565b92915050565b6000604051905090565b600080fd5b600080fd5b61043e816103ed565b811461044957600080fd5b50565b60008135905061045b81610435565b92915050565b6000602082840312156104775761047661042b565b5b60006104858482850161044c565b91505092915050565b600081519050919050565b600082825260208201905092915050565b60005b838110156104c85780820151818401526020810190506104ad565b60008484015250505050565b6000601f19601f8301169050919050565b60006104f08261048e565b6104fa8185610499565b935061050a8185602086016104aa565b610513816104d4565b840191505092915050565b600060408201905061053360008301856103f7565b818103602083015261054581846104e5565b90509392505050565b600080fd5b600080fd5b7f4e487b7100000000000000000000000000000000000000000000000000000000600052604160045260246000fd5b610590826104d4565b810181811067ffffffffffffffff821117156105af576105ae610558565b5b80604052505050565b60006105c2610421565b90506105ce8282610587565b919050565b600067ffffffffffffffff8211156105ee576105ed610558565b5b6105f7826104d4565b9050602081019050919050565b82818337600083830152505050565b6000610626610621846105d3565b6105b8565b90508281526020810184848401111561064257610641610553565b5b61064d848285610604565b509392505050565b600082601f83011261066a5761066961054e565b5b813561067a848260208601610613565b91505092915050565b6000806040838503121561069a5761069961042b565b5b600083013567ffffffffffffffff8111156106b8576106b7610430565b5b6106c485828601610655565b92505060206106d58582860161044c565b9150509250929050565b6000602082840312156106f5576106f461042b565b5b600082013567ffffffffffffffff81111561071357610712610430565b5b61071f84828501610655565b91505092915050565b7f4e487b7100000000000000000000000000000000000000000000000000000000600052602260045260246000fd5b6000600282049050600182168061076f57607f821691505b60208210810361078257610781610728565b5b50919050565b7f4e487b7100000000000000000000000000000000000000000000000000000000600052601160045260246000fd5b60006107c2826103ed565b91506107cd836103ed565b92508282026107db816103ed565b915082820484148315176107f2576107f1610788565b5b5092915050565b60008190508160005260206000209050919050565b60006020601f8301049050919050565b600082821b905092915050565b60006008830261085b7fffffffffffffffffffffffffffffffffffffffffffffffffffffffffffffffff8261081e565b610865868361081e565b95508019841693508086168417925050509392505050565b6000819050919050565b60006108a261089d610898846103ed565b61087d565b6103ed565b9050919050565b6000819050919050565b6108bc83610887565b6108d06108c8826108a9565b84845461082b565b825550505050565b600090565b6108e56108d8565b6108f08184846108b3565b505050565b5b81811015610914576109096000826108dd565b6001810190506108f6565b5050565b601f8211156109595761092a816107f9565b6109338461080e565b81016020851015610942578190505b61095661094e8561080e565b8301826108f5565b50505b505050565b600082821c905092915050565b600061097c6000198460080261095e565b1980831691505092915050565b6000610995838361096b565b9150826002028217905092915050565b6109ae8261048e565b67ffffffffffffffff8111156109c7576109c6610558565b5b6109d18254610757565b6109dc828285610918565b600060209050601f831160018114610a0f57600084156109fd578287015190505b610a078582610989565b865550610a6f565b601f198416610a1d866107f9565b60005b82811015610a4557848901518255600182019150602085019450602081019050610a20565b86831015610a625784890151610a5e601f89168261096b565b8355505b6001600288020188555050505b505050505050565b600081905092915050565b6000610a8d8261048e565b610a978185610a77565b9350610aa78185602086016104aa565b80840191505092915050565b6000610abf8284610a82565b91508190509291505056fea2646970667358221220f554901cba1b7e112edfc6652f1c4befccec4744c84809f92a836e63a98aff3064736f6c63430008110033","opcodes":"PUSH1 0x80 PUSH1 0x40 MSTORE PUSH1 0x40 MLOAD DUP1 PUSH1 0x40 ADD PUSH1 0x40 MSTORE DUP1 PUSH1 0x2 DUP2 MSTORE PUSH1 0x20 ADD PUSH1 0x40 MLOAD DUP1 PUSH1 0x40 ADD PUSH1 0x40 MSTORE DUP1 PUSH1 0x7 DUP2 MSTORE PUSH1 0x20 ADD PUSH32 0x7061747269636B00000000000000000000000000000000000000000000000000 DUP2 MSTORE POP DUP2 MSTORE POP PUSH1 0x1 PUSH1 0x0 DUP3 ADD MLOAD DUP2 PUSH1 0x0 ADD SSTORE PUSH1 0x20 DUP3 ADD MLOAD DUP2 PUSH1 0x1 ADD SWAP1 DUP2 PUSH3 0x72 SWAP2 SWAP1 PUSH3 0x3B1 JUMP JUMPDEST POP POP POP PUSH1 0x5 DUP1 SSTORE PUSH1 0x1 PUSH1 0x6 PUSH1 0x0 PUSH2 0x100 EXP DUP2 SLOAD DUP2 PUSH1 0xFF MUL NOT AND SWAP1 DUP4 ISZERO ISZERO MUL OR SWAP1 SSTORE POP PUSH1 0x40 MLOAD DUP1 PUSH1 0x40 ADD PUSH1 0x40 MSTORE DUP1 PUSH1 0x6 DUP2 MSTORE PUSH1 0x20 ADD PUSH32 0x737472696E670000000000000000000000000000000000000000000000000000 DUP2 MSTORE POP PUSH1 0x7 SWAP1 DUP2 PUSH3 0xDA SWAP2 SWAP1 PUSH3 0x3B1 JUMP JUMPDEST POP PUSH32 0xFFFFFFFFFFFFFFFFFFFFFFFFFFFFFFFFFFFFFFFFFFFFFFFFFFFFFFFFFFFFFFFB PUSH1 0x8 SSTORE PUSH32 0x6361740000000000000000000000000000000000000000000000000000000000 PUSH1 0x9 SSTORE CALLVALUE DUP1 ISZERO PUSH3 0x130 JUMPI PUSH1 0x0 DUP1 REVERT JUMPDEST POP PUSH3 0x498 JUMP JUMPDEST PUSH1 0x0 DUP2 MLOAD SWAP1 POP SWAP2 SWAP1 POP JUMP JUMPDEST PUSH32 0x4E487B7100000000000000000000000000000000000000000000000000000000 PUSH1 0x0 MSTORE PUSH1 0x41 PUSH1 0x4 MSTORE PUSH1 0x24 PUSH1 0x0 REVERT JUMPDEST PUSH32 0x4E487B7100000000000000000000000000000000000000000000000000000000 PUSH1 0x0 MSTORE PUSH1 0x22 PUSH1 0x4 MSTORE PUSH1 0x24 PUSH1 0x0 REVERT JUMPDEST PUSH1 0x0 PUSH1 0x2 DUP3 DIV SWAP1 POP PUSH1 0x1 DUP3 AND DUP1 PUSH3 0x1B9 JUMPI PUSH1 0x7F DUP3 AND SWAP2 POP JUMPDEST PUSH1 0x20 DUP3 LT DUP2 SUB PUSH3 0x1CF JUMPI PUSH3 0x1CE PUSH3 0x171 JUMP JUMPDEST JUMPDEST POP SWAP2 SWAP1 POP JUMP JUMPDEST PUSH1 0x0 DUP2 SWAP1 POP DUP2 PUSH1 0x0 MSTORE PUSH1 0x20 PUSH1 0x0 KECCAK256 SWAP1 POP SWAP2 SWAP1 POP JUMP JUMPDEST PUSH1 0x0 PUSH1 0x20 PUSH1 0x1F DUP4 ADD DIV SWAP1 POP SWAP2 SWAP1 POP JUMP JUMPDEST PUSH1 0x0 DUP3 DUP3 SHL SWAP1 POP SWAP3 SWAP2 POP POP JUMP JUMPDEST PUSH1 0x0 PUSH1 0x8 DUP4 MUL PUSH3 0x239 PUSH32 0xFFFFFFFFFFFFFFFFFFFFFFFFFFFFFFFFFFFFFFFFFFFFFFFFFFFFFFFFFFFFFFFF DUP3 PUSH3 0x1FA JUMP JUMPDEST PUSH3 0x245 DUP7 DUP4 PUSH3 0x1FA JUMP JUMPDEST SWAP6 POP DUP1 NOT DUP5 AND SWAP4 POP DUP1 DUP7 AND DUP5 OR SWAP3 POP POP POP SWAP4 SWAP3 POP POP POP JUMP JUMPDEST PUSH1 0x0 DUP2 SWAP1 POP SWAP2 SWAP1 POP JUMP JUMPDEST PUSH1 0x0 DUP2 SWAP1 POP SWAP2 SWAP1 POP JUMP JUMPDEST PUSH1 0x0 PUSH3 0x292 PUSH3 0x28C PUSH3 0x286 DUP5 PUSH3 0x25D JUMP JUMPDEST PUSH3 0x267 JUMP JUMPDEST PUSH3 0x25D JUMP JUMPDEST SWAP1 POP SWAP2 SWAP1 POP JUMP JUMPDEST PUSH1 0x0 DUP2 SWAP1 POP SWAP2 SWAP1 POP JUMP JUMPDEST PUSH3 0x2AE DUP4 PUSH3 0x271 JUMP JUMPDEST PUSH3 0x2C6 PUSH3 0x2BD DUP3 PUSH3 0x299 JUMP JUMPDEST DUP5 DUP5 SLOAD PUSH3 0x207 JUMP JUMPDEST DUP3 SSTORE POP POP POP POP JUMP JUMPDEST PUSH1 0x0 SWAP1 JUMP JUMPDEST PUSH3 0x2DD PUSH3 0x2CE JUMP JUMPDEST PUSH3 0x2EA DUP2 DUP5 DUP5 PUSH3 0x2A3 JUMP JUMPDEST POP POP POP JUMP JUMPDEST JUMPDEST DUP2 DUP2 LT ISZERO PUSH3 0x312 JUMPI PUSH3 0x306 PUSH1 0x0 DUP3 PUSH3 0x2D3 JUMP JUMPDEST PUSH1 0x1 DUP2 ADD SWAP1 POP PUSH3 0x2F0 JUMP JUMPDEST POP POP JUMP JUMPDEST PUSH1 0x1F DUP3 GT ISZERO PUSH3 0x361 JUMPI PUSH3 0x32B DUP2 PUSH3 0x1D5 JUMP JUMPDEST PUSH3 0x336 DUP5 PUSH3 0x1EA JUMP JUMPDEST DUP2 ADD PUSH1 0x20 DUP6 LT ISZERO PUSH3 0x346 JUMPI DUP2 SWAP1 POP JUMPDEST PUSH3 0x35E PUSH3 0x355 DUP6 PUSH3 0x1EA JUMP JUMPDEST DUP4 ADD DUP3 PUSH3 0x2EF JUMP JUMPDEST POP POP JUMPDEST POP POP POP JUMP JUMPDEST PUSH1 0x0 DUP3 DUP3 SHR SWAP1 POP SWAP3 SWAP2 POP POP JUMP JUMPDEST PUSH1 0x0 PUSH3 0x386 PUSH1 0x0 NOT DUP5 PUSH1 0x8 MUL PUSH3 0x366 JUMP JUMPDEST NOT DUP1 DUP4 AND SWAP2 POP POP SWAP3 SWAP2 POP POP JUMP JUMPDEST PUSH1 0x0 PUSH3 0x3A1 DUP4 DUP4 PUSH3 0x373 JUMP JUMPDEST SWAP2 POP DUP3 PUSH1 0x2 MUL DUP3 OR SWAP1 POP SWAP3 SWAP2 POP POP JUMP JUMPDEST PUSH3 0x3BC DUP3 PUSH3 0x137 JUMP JUMPDEST PUSH8 0xFFFFFFFFFFFFFFFF DUP2 GT ISZERO PUSH3 0x3D8 JUMPI PUSH3 0x3D7 PUSH3 0x142 JUMP JUMPDEST JUMPDEST PUSH3 0x3E4 DUP3 SLOAD PUSH3 0x1A0 JUMP JUMPDEST PUSH3 0x3F1 DUP3 DUP3 DUP6 PUSH3 0x316 JUMP JUMPDEST PUSH1 0x0 PUSH1 0x20 SWAP1 POP PUSH1 0x1F DUP4 GT PUSH1 0x1 DUP2 EQ PUSH3 0x429 JUMPI PUSH1 0x0 DUP5 ISZERO PUSH3 0x414 JUMPI DUP3 DUP8 ADD MLOAD SWAP1 POP JUMPDEST PUSH3 0x420 DUP6 DUP3 PUSH3 0x393 JUMP JUMPDEST DUP7 SSTORE POP PUSH3 0x490 JUMP JUMPDEST PUSH1 0x1F NOT DUP5 AND PUSH3 0x439 DUP7 PUSH3 0x1D5 JUMP JUMPDEST PUSH1 0x0 JUMPDEST DUP3 DUP2 LT ISZERO PUSH3 0x463 JUMPI DUP5 DUP10 ADD MLOAD DUP3 SSTORE PUSH1 0x1 DUP3 ADD SWAP2 POP PUSH1 0x20 DUP6 ADD SWAP5 POP PUSH1 0x20 DUP2 ADD SWAP1 POP PUSH3 0x43C JUMP JUMPDEST DUP7 DUP4 LT ISZERO PUSH3 0x483 JUMPI DUP5 DUP10 ADD MLOAD PUSH3 0x47F PUSH1 0x1F DUP10 AND DUP3 PUSH3 0x373 JUMP JUMPDEST DUP4 SSTORE POP JUMPDEST PUSH1 0x1 PUSH1 0x2 DUP9 MUL ADD DUP9 SSTORE POP POP POP JUMPDEST POP POP POP POP POP POP JUMP JUMPDEST PUSH2 0xB00 DUP1 PUSH3 0x4A8 PUSH1 0x0 CODECOPY PUSH1 0x0 RETURN INVALID PUSH1 0x80 PUSH1 0x40 MSTORE CALLVALUE DUP1 ISZERO PUSH2 0x10 JUMPI PUSH1 0x0 DUP1 REVERT JUMPDEST POP PUSH1 0x4 CALLDATASIZE LT PUSH2 0x88 JUMPI PUSH1 0x0 CALLDATALOAD PUSH1 0xE0 SHR DUP1 PUSH4 0x6F2938E8 GT PUSH2 0x5B JUMPI DUP1 PUSH4 0x6F2938E8 EQ PUSH2 0x116 JUMPI DUP1 PUSH4 0x75BF7EED EQ PUSH2 0x146 JUMPI DUP1 PUSH4 0x77EC2B55 EQ PUSH2 0x162 JUMPI DUP1 PUSH4 0x92FA9DA3 EQ PUSH2 0x181 JUMPI PUSH2 0x88 JUMP JUMPDEST DUP1 PUSH4 0x2E64CEC1 EQ PUSH2 0x8D JUMPI DUP1 PUSH4 0x4237C65B EQ PUSH2 0xAB JUMPI DUP1 PUSH4 0x6057361D EQ PUSH2 0xC9 JUMPI DUP1 PUSH4 0x6C992AEC EQ PUSH2 0xE5 JUMPI JUMPDEST PUSH1 0x0 DUP1 REVERT JUMPDEST PUSH2 0x95 PUSH2 0x1B1 JUMP JUMPDEST PUSH1 0x40 MLOAD PUSH2 0xA2 SWAP2 SWAP1 PUSH2 0x406 JUMP JUMPDEST PUSH1 0x40 MLOAD DUP1 SWAP2 SUB SWAP1 RETURN JUMPDEST PUSH2 0xB3 PUSH2 0x1BA JUMP JUMPDEST PUSH1 0x40 MLOAD PUSH2 0xC0 SWAP2 SWAP1 PUSH2 0x406 JUMP JUMPDEST PUSH1 0x40 MLOAD DUP1 SWAP2 SUB SWAP1 RETURN JUMPDEST PUSH2 0xE3 PUSH1 0x4 DUP1 CALLDATASIZE SUB DUP2 ADD SWAP1 PUSH2 0xDE SWAP2 SWAP1 PUSH2 0x461 JUMP JUMPDEST PUSH2 0x1C0 JUMP JUMPDEST STOP JUMPDEST PUSH2 0xFF PUSH1 0x4 DUP1 CALLDATASIZE SUB DUP2 ADD SWAP1 PUSH2 0xFA SWAP2 SWAP1 PUSH2 0x461 JUMP JUMPDEST PUSH2 0x1CA JUMP JUMPDEST PUSH1 0x40 MLOAD PUSH2 0x10D SWAP3 SWAP2 SWAP1 PUSH2 0x51E JUMP JUMPDEST PUSH1 0x40 MLOAD DUP1 SWAP2 SUB SWAP1 RETURN JUMPDEST PUSH2 0x130 PUSH1 0x4 DUP1 CALLDATASIZE SUB DUP2 ADD SWAP1 PUSH2 0x12B SWAP2 SWAP1 PUSH2 0x461 JUMP JUMPDEST PUSH2 0x286 JUMP JUMPDEST PUSH1 0x40 MLOAD PUSH2 0x13D SWAP2 SWAP1 PUSH2 0x406 JUMP JUMPDEST PUSH1 0x40 MLOAD DUP1 SWAP2 SUB SWAP1 RETURN JUMPDEST PUSH2 0x160 PUSH1 0x4 DUP1 CALLDATASIZE SUB DUP2 ADD SWAP1 PUSH2 0x15B SWAP2 SWAP1 PUSH2 0x683 JUMP JUMPDEST PUSH2 0x29C JUMP JUMPDEST STOP JUMPDEST PUSH2 0x16A PUSH2 0x325 JUMP JUMPDEST PUSH1 0x40 MLOAD PUSH2 0x178 SWAP3 SWAP2 SWAP1 PUSH2 0x51E JUMP JUMPDEST PUSH1 0x40 MLOAD DUP1 SWAP2 SUB SWAP1 RETURN JUMPDEST PUSH2 0x19B PUSH1 0x4 DUP1 CALLDATASIZE SUB DUP2 ADD SWAP1 PUSH2 0x196 SWAP2 SWAP1 PUSH2 0x6DF JUMP JUMPDEST PUSH2 0x3BF JUMP JUMPDEST PUSH1 0x40 MLOAD PUSH2 0x1A8 SWAP2 SWAP1 PUSH2 0x406 JUMP JUMPDEST PUSH1 0x40 MLOAD DUP1 SWAP2 SUB SWAP1 RETURN JUMPDEST PUSH1 0x0 DUP1 SLOAD SWAP1 POP SWAP1 JUMP JUMPDEST PUSH1 0x0 SLOAD DUP2 JUMP JUMPDEST DUP1 PUSH1 0x0 DUP2 SWAP1 SSTORE POP POP JUMP JUMPDEST PUSH1 0x3 DUP2 DUP2 SLOAD DUP2 LT PUSH2 0x1DA JUMPI PUSH1 0x0 DUP1 REVERT JUMPDEST SWAP1 PUSH1 0x0 MSTORE PUSH1 0x20 PUSH1 0x0 KECCAK256 SWAP1 PUSH1 0x2 MUL ADD PUSH1 0x0 SWAP2 POP SWAP1 POP DUP1 PUSH1 0x0 ADD SLOAD SWAP1 DUP1 PUSH1 0x1 ADD DUP1 SLOAD PUSH2 0x203 SWAP1 PUSH2 0x757 JUMP JUMPDEST DUP1 PUSH1 0x1F ADD PUSH1 0x20 DUP1 SWAP2 DIV MUL PUSH1 0x20 ADD PUSH1 0x40 MLOAD SWAP1 DUP2 ADD PUSH1 0x40 MSTORE DUP1 SWAP3 SWAP2 SWAP1 DUP2 DUP2 MSTORE PUSH1 0x20 ADD DUP3 DUP1 SLOAD PUSH2 0x22F SWAP1 PUSH2 0x757 JUMP JUMPDEST DUP1 ISZERO PUSH2 0x27C JUMPI DUP1 PUSH1 0x1F LT PUSH2 0x251 JUMPI PUSH2 0x100 DUP1 DUP4 SLOAD DIV MUL DUP4 MSTORE SWAP2 PUSH1 0x20 ADD SWAP2 PUSH2 0x27C JUMP JUMPDEST DUP3 ADD SWAP2 SWAP1 PUSH1 0x0 MSTORE PUSH1 0x20 PUSH1 0x0 KECCAK256 SWAP1 JUMPDEST DUP2 SLOAD DUP2 MSTORE SWAP1 PUSH1 0x1 ADD SWAP1 PUSH1 0x20 ADD DUP1 DUP4 GT PUSH2 0x25F JUMPI DUP3 SWAP1 SUB PUSH1 0x1F AND DUP3 ADD SWAP2 JUMPDEST POP POP POP POP POP SWAP1 POP DUP3 JUMP JUMPDEST PUSH1 0x0 PUSH1 0x2 DUP3 PUSH2 0x295 SWAP2 SWAP1 PUSH2 0x7B7 JUMP JUMPDEST SWAP1 POP SWAP2 SWAP1 POP JUMP JUMPDEST PUSH1 0x3 PUSH1 0x40 MLOAD DUP1 PUSH1 0x40 ADD PUSH1 0x40 MSTORE DUP1 DUP4 DUP2 MSTORE PUSH1 0x20 ADD DUP5 DUP2 MSTORE POP SWAP1 DUP1 PUSH1 0x1 DUP2 SLOAD ADD DUP1 DUP3 SSTORE DUP1 SWAP2 POP POP PUSH1 0x1 SWAP1 SUB SWAP1 PUSH1 0x0 MSTORE PUSH1 0x20 PUSH1 0x0 KECCAK256 SWAP1 PUSH1 0x2 MUL ADD PUSH1 0x0 SWAP1 SWAP2 SWAP1 SWAP2 SWAP1 SWAP2 POP PUSH1 0x0 DUP3 ADD MLOAD DUP2 PUSH1 0x0 ADD SSTORE PUSH1 0x20 DUP3 ADD MLOAD DUP2 PUSH1 0x1 ADD SWAP1 DUP2 PUSH2 0x2FB SWAP2 SWAP1 PUSH2 0x9A5 JUMP JUMPDEST POP POP POP DUP1 PUSH1 0x4 DUP4 PUSH1 0x40 MLOAD PUSH2 0x30F SWAP2 SWAP1 PUSH2 0xAB3 JUMP JUMPDEST SWAP1 DUP2 MSTORE PUSH1 0x20 ADD PUSH1 0x40 MLOAD DUP1 SWAP2 SUB SWAP1 KECCAK256 DUP2 SWAP1 SSTORE POP POP POP JUMP JUMPDEST PUSH1 0x1 DUP1 PUSH1 0x0 ADD SLOAD SWAP1 DUP1 PUSH1 0x1 ADD DUP1 SLOAD PUSH2 0x33C SWAP1 PUSH2 0x757 JUMP JUMPDEST DUP1 PUSH1 0x1F ADD PUSH1 0x20 DUP1 SWAP2 DIV MUL PUSH1 0x20 ADD PUSH1 0x40 MLOAD SWAP1 DUP2 ADD PUSH1 0x40 MSTORE DUP1 SWAP3 SWAP2 SWAP1 DUP2 DUP2 MSTORE PUSH1 0x20 ADD DUP3 DUP1 SLOAD PUSH2 0x368 SWAP1 PUSH2 0x757 JUMP JUMPDEST DUP1 ISZERO PUSH2 0x3B5 JUMPI DUP1 PUSH1 0x1F LT PUSH2 0x38A JUMPI PUSH2 0x100 DUP1 DUP4 SLOAD DIV MUL DUP4 MSTORE SWAP2 PUSH1 0x20 ADD SWAP2 PUSH2 0x3B5 JUMP JUMPDEST DUP3 ADD SWAP2 SWAP1 PUSH1 0x0 MSTORE PUSH1 0x20 PUSH1 0x0 KECCAK256 SWAP1 JUMPDEST DUP2 SLOAD DUP2 MSTORE SWAP1 PUSH1 0x1 ADD SWAP1 PUSH1 0x20 ADD DUP1 DUP4 GT PUSH2 0x398 JUMPI DUP3 SWAP1 SUB PUSH1 0x1F AND DUP3 ADD SWAP2 JUMPDEST POP POP POP POP POP SWAP1 POP DUP3 JUMP JUMPDEST PUSH1 0x4 DUP2 DUP1 MLOAD PUSH1 0x20 DUP2 ADD DUP3 ADD DUP1 MLOAD DUP5 DUP3 MSTORE PUSH1 0x20 DUP4 ADD PUSH1 0x20 DUP6 ADD KECCAK256 DUP2 DUP4 MSTORE DUP1 SWAP6 POP POP POP POP POP POP PUSH1 0x0 SWAP2 POP SWAP1 POP SLOAD DUP2 JUMP JUMPDEST PUSH1 0x0 DUP2 SWAP1 POP SWAP2 SWAP1 POP JUMP JUMPDEST PUSH2 0x400 DUP2 PUSH2 0x3ED JUMP JUMPDEST DUP3 MSTORE POP POP JUMP JUMPDEST PUSH1 0x0 PUSH1 0x20 DUP3 ADD SWAP1 POP PUSH2 0x41B PUSH1 0x0 DUP4 ADD DUP5 PUSH2 0x3F7 JUMP JUMPDEST SWAP3 SWAP2 POP POP JUMP JUMPDEST PUSH1 0x0 PUSH1 0x40 MLOAD SWAP1 POP SWAP1 JUMP JUMPDEST PUSH1 0x0 DUP1 REVERT JUMPDEST PUSH1 0x0 DUP1 REVERT JUMPDEST PUSH2 0x43E DUP2 PUSH2 0x3ED JUMP JUMPDEST DUP2 EQ PUSH2 0x449 JUMPI PUSH1 0x0 DUP1 REVERT JUMPDEST POP JUMP JUMPDEST PUSH1 0x0 DUP2 CALLDATALOAD SWAP1 POP PUSH2 0x45B DUP2 PUSH2 0x435 JUMP JUMPDEST SWAP3 SWAP2 POP POP JUMP JUMPDEST PUSH1 0x0 PUSH1 0x20 DUP3 DUP5 SUB SLT ISZERO PUSH2 0x477 JUMPI PUSH2 0x476 PUSH2 0x42B JUMP JUMPDEST JUMPDEST PUSH1 0x0 PUSH2 0x485 DUP5 DUP3 DUP6 ADD PUSH2 0x44C JUMP JUMPDEST SWAP2 POP POP SWAP3 SWAP2 POP POP JUMP JUMPDEST PUSH1 0x0 DUP2 MLOAD SWAP1 POP SWAP2 SWAP1 POP JUMP JUMPDEST PUSH1 0x0 DUP3 DUP3 MSTORE PUSH1 0x20 DUP3 ADD SWAP1 POP SWAP3 SWAP2 POP POP JUMP JUMPDEST PUSH1 0x0 JUMPDEST DUP4 DUP2 LT ISZERO PUSH2 0x4C8 JUMPI DUP1 DUP3 ADD MLOAD DUP2 DUP5 ADD MSTORE PUSH1 0x20 DUP2 ADD SWAP1 POP PUSH2 0x4AD JUMP JUMPDEST PUSH1 0x0 DUP5 DUP5 ADD MSTORE POP POP POP POP JUMP JUMPDEST PUSH1 0x0 PUSH1 0x1F NOT PUSH1 0x1F DUP4 ADD AND SWAP1 POP SWAP2 SWAP1 POP JUMP JUMPDEST PUSH1 0x0 PUSH2 0x4F0 DUP3 PUSH2 0x48E JUMP JUMPDEST PUSH2 0x4FA DUP2 DUP6 PUSH2 0x499 JUMP JUMPDEST SWAP4 POP PUSH2 0x50A DUP2 DUP6 PUSH1 0x20 DUP7 ADD PUSH2 0x4AA JUMP JUMPDEST PUSH2 0x513 DUP2 PUSH2 0x4D4 JUMP JUMPDEST DUP5 ADD SWAP2 POP POP SWAP3 SWAP2 POP POP JUMP JUMPDEST PUSH1 0x0 PUSH1 0x40 DUP3 ADD SWAP1 POP PUSH2 0x533 PUSH1 0x0 DUP4 ADD DUP6 PUSH2 0x3F7 JUMP JUMPDEST DUP2 DUP2 SUB PUSH1 0x20 DUP4 ADD MSTORE PUSH2 0x545 DUP2 DUP5 PUSH2 0x4E5 JUMP JUMPDEST SWAP1 POP SWAP4 SWAP3 POP POP POP JUMP JUMPDEST PUSH1 0x0 DUP1 REVERT JUMPDEST PUSH1 0x0 DUP1 REVERT JUMPDEST PUSH32 0x4E487B7100000000000000000000000000000000000000000000000000000000 PUSH1 0x0 MSTORE PUSH1 0x41 PUSH1 0x4 MSTORE PUSH1 0x24 PUSH1 0x0 REVERT JUMPDEST PUSH2 0x590 DUP3 PUSH2 0x4D4 JUMP JUMPDEST DUP2 ADD DUP2 DUP2 LT PUSH8 0xFFFFFFFFFFFFFFFF DUP3 GT OR ISZERO PUSH2 0x5AF JUMPI PUSH2 0x5AE PUSH2 0x558 JUMP JUMPDEST JUMPDEST DUP1 PUSH1 0x40 MSTORE POP POP POP JUMP JUMPDEST PUSH1 0x0 PUSH2 0x5C2 PUSH2 0x421 JUMP JUMPDEST SWAP1 POP PUSH2 0x5CE DUP3 DUP3 PUSH2 0x587 JUMP JUMPDEST SWAP2 SWAP1 POP JUMP JUMPDEST PUSH1 0x0 PUSH8 0xFFFFFFFFFFFFFFFF DUP3 GT ISZERO PUSH2 0x5EE JUMPI PUSH2 0x5ED PUSH2 0x558 JUMP JUMPDEST JUMPDEST PUSH2 0x5F7 DUP3 PUSH2 0x4D4 JUMP JUMPDEST SWAP1 POP PUSH1 0x20 DUP2 ADD SWAP1 POP SWAP2 SWAP1 POP JUMP JUMPDEST DUP3 DUP2 DUP4 CALLDATACOPY PUSH1 0x0 DUP4 DUP4 ADD MSTORE POP POP POP JUMP JUMPDEST PUSH1 0x0 PUSH2 0x626 PUSH2 0x621 DUP5 PUSH2 0x5D3 JUMP JUMPDEST PUSH2 0x5B8 JUMP JUMPDEST SWAP1 POP DUP3 DUP2 MSTORE PUSH1 0x20 DUP2 ADD DUP5 DUP5 DUP5 ADD GT ISZERO PUSH2 0x642 JUMPI PUSH2 0x641 PUSH2 0x553 JUMP JUMPDEST JUMPDEST PUSH2 0x64D DUP5 DUP3 DUP6 PUSH2 0x604 JUMP JUMPDEST POP SWAP4 SWAP3 POP POP POP JUMP JUMPDEST PUSH1 0x0 DUP3 PUSH1 0x1F DUP4 ADD SLT PUSH2 0x66A JUMPI PUSH2 0x669 PUSH2 0x54E JUMP JUMPDEST JUMPDEST DUP2 CALLDATALOAD PUSH2 0x67A DUP5 DUP3 PUSH1 0x20 DUP7 ADD PUSH2 0x613 JUMP JUMPDEST SWAP2 POP POP SWAP3 SWAP2 POP POP JUMP JUMPDEST PUSH1 0x0 DUP1 PUSH1 0x40 DUP4 DUP6 SUB SLT ISZERO PUSH2 0x69A JUMPI PUSH2 0x699 PUSH2 0x42B JUMP JUMPDEST JUMPDEST PUSH1 0x0 DUP4 ADD CALLDATALOAD PUSH8 0xFFFFFFFFFFFFFFFF DUP2 GT ISZERO PUSH2 0x6B8 JUMPI PUSH2 0x6B7 PUSH2 0x430 JUMP JUMPDEST JUMPDEST PUSH2 0x6C4 DUP6 DUP3 DUP7 ADD PUSH2 0x655 JUMP JUMPDEST SWAP3 POP POP PUSH1 0x20 PUSH2 0x6D5 DUP6 DUP3 DUP7 ADD PUSH2 0x44C JUMP JUMPDEST SWAP2 POP POP SWAP3 POP SWAP3 SWAP1 POP JUMP JUMPDEST PUSH1 0x0 PUSH1 0x20 DUP3 DUP5 SUB SLT ISZERO PUSH2 0x6F5 JUMPI PUSH2 0x6F4 PUSH2 0x42B JUMP JUMPDEST JUMPDEST PUSH1 0x0 DUP3 ADD CALLDATALOAD PUSH8 0xFFFFFFFFFFFFFFFF DUP2 GT ISZERO PUSH2 0x713 JUMPI PUSH2 0x712 PUSH2 0x430 JUMP JUMPDEST JUMPDEST PUSH2 0x71F DUP5 DUP3 DUP6 ADD PUSH2 0x655 JUMP JUMPDEST SWAP2 POP POP SWAP3 SWAP2 POP POP JUMP JUMPDEST PUSH32 0x4E487B7100000000000000000000000000000000000000000000000000000000 PUSH1 0x0 MSTORE PUSH1 0x22 PUSH1 0x4 MSTORE PUSH1 0x24 PUSH1 0x0 REVERT JUMPDEST PUSH1 0x0 PUSH1 0x2 DUP3 DIV SWAP1 POP PUSH1 0x1 DUP3 AND DUP1 PUSH2 0x76F JUMPI PUSH1 0x7F DUP3 AND SWAP2 POP JUMPDEST PUSH1 0x20 DUP3 LT DUP2 SUB PUSH2 0x782 JUMPI PUSH2 0x781 PUSH2 0x728 JUMP JUMPDEST JUMPDEST POP SWAP2 SWAP1 POP JUMP JUMPDEST PUSH32 0x4E487B7100000000000000000000000000000000000000000000000000000000 PUSH1 0x0 MSTORE PUSH1 0x11 PUSH1 0x4 MSTORE PUSH1 0x24 PUSH1 0x0 REVERT JUMPDEST PUSH1 0x0 PUSH2 0x7C2 DUP3 PUSH2 0x3ED JUMP JUMPDEST SWAP2 POP PUSH2 0x7CD DUP4 PUSH2 0x3ED JUMP JUMPDEST SWAP3 POP DUP3 DUP3 MUL PUSH2 0x7DB DUP2 PUSH2 0x3ED JUMP JUMPDEST SWAP2 POP DUP3 DUP3 DIV DUP5 EQ DUP4 ISZERO OR PUSH2 0x7F2 JUMPI PUSH2 0x7F1 PUSH2 0x788 JUMP JUMPDEST JUMPDEST POP SWAP3 SWAP2 POP POP JUMP JUMPDEST PUSH1 0x0 DUP2 SWAP1 POP DUP2 PUSH1 0x0 MSTORE PUSH1 0x20 PUSH1 0x0 KECCAK256 SWAP1 POP SWAP2 SWAP1 POP JUMP JUMPDEST PUSH1 0x0 PUSH1 0x20 PUSH1 0x1F DUP4 ADD DIV SWAP1 POP SWAP2 SWAP1 POP JUMP JUMPDEST PUSH1 0x0 DUP3 DUP3 SHL SWAP1 POP SWAP3 SWAP2 POP POP JUMP JUMPDEST PUSH1 0x0 PUSH1 0x8 DUP4 MUL PUSH2 0x85B PUSH32 0xFFFFFFFFFFFFFFFFFFFFFFFFFFFFFFFFFFFFFFFFFFFFFFFFFFFFFFFFFFFFFFFF DUP3 PUSH2 0x81E JUMP JUMPDEST PUSH2 0x865 DUP7 DUP4 PUSH2 0x81E JUMP JUMPDEST SWAP6 POP DUP1 NOT DUP5 AND SWAP4 POP DUP1 DUP7 AND DUP5 OR SWAP3 POP POP POP SWAP4 SWAP3 POP POP POP JUMP JUMPDEST PUSH1 0x0 DUP2 SWAP1 POP SWAP2 SWAP1 POP JUMP JUMPDEST PUSH1 0x0 PUSH2 0x8A2 PUSH2 0x89D PUSH2 0x898 DUP5 PUSH2 0x3ED JUMP JUMPDEST PUSH2 0x87D JUMP JUMPDEST PUSH2 0x3ED JUMP JUMPDEST SWAP1 POP SWAP2 SWAP1 POP JUMP JUMPDEST PUSH1 0x0 DUP2 SWAP1 POP SWAP2 SWAP1 POP JUMP JUMPDEST PUSH2 0x8BC DUP4 PUSH2 0x887 JUMP JUMPDEST PUSH2 0x8D0 PUSH2 0x8C8 DUP3 PUSH2 0x8A9 JUMP JUMPDEST DUP5 DUP5 SLOAD PUSH2 0x82B JUMP JUMPDEST DUP3 SSTORE POP POP POP POP JUMP JUMPDEST PUSH1 0x0 SWAP1 JUMP JUMPDEST PUSH2 0x8E5 PUSH2 0x8D8 JUMP JUMPDEST PUSH2 0x8F0 DUP2 DUP5 DUP5 PUSH2 0x8B3 JUMP JUMPDEST POP POP POP JUMP JUMPDEST JUMPDEST DUP2 DUP2 LT ISZERO PUSH2 0x914 JUMPI PUSH2 0x909 PUSH1 0x0 DUP3 PUSH2 0x8DD JUMP JUMPDEST PUSH1 0x1 DUP2 ADD SWAP1 POP PUSH2 0x8F6 JUMP JUMPDEST POP POP JUMP JUMPDEST PUSH1 0x1F DUP3 GT ISZERO PUSH2 0x959 JUMPI PUSH2 0x92A DUP2 PUSH2 0x7F9 JUMP JUMPDEST PUSH2 0x933 DUP5 PUSH2 0x80E JUMP JUMPDEST DUP2 ADD PUSH1 0x20 DUP6 LT ISZERO PUSH2 0x942 JUMPI DUP2 SWAP1 POP JUMPDEST PUSH2 0x956 PUSH2 0x94E DUP6 PUSH2 0x80E JUMP JUMPDEST DUP4 ADD DUP3 PUSH2 0x8F5 JUMP JUMPDEST POP POP JUMPDEST POP POP POP JUMP JUMPDEST PUSH1 0x0 DUP3 DUP3 SHR SWAP1 POP SWAP3 SWAP2 POP POP JUMP JUMPDEST PUSH1 0x0 PUSH2 0x97C PUSH1 0x0 NOT DUP5 PUSH1 0x8 MUL PUSH2 0x95E JUMP JUMPDEST NOT DUP1 DUP4 AND SWAP2 POP POP SWAP3 SWAP2 POP POP JUMP JUMPDEST PUSH1 0x0 PUSH2 0x995 DUP4 DUP4 PUSH2 0x96B JUMP JUMPDEST SWAP2 POP DUP3 PUSH1 0x2 MUL DUP3 OR SWAP1 POP SWAP3 SWAP2 POP POP JUMP JUMPDEST PUSH2 0x9AE DUP3 PUSH2 0x48E JUMP JUMPDEST PUSH8 0xFFFFFFFFFFFFFFFF DUP2 GT ISZERO PUSH2 0x9C7 JUMPI PUSH2 0x9C6 PUSH2 0x558 JUMP JUMPDEST JUMPDEST PUSH2 0x9D1 DUP3 SLOAD PUSH2 0x757 JUMP JUMPDEST PUSH2 0x9DC DUP3 DUP3 DUP6 PUSH2 0x918 JUMP JUMPDEST PUSH1 0x0 PUSH1 0x20 SWAP1 POP PUSH1 0x1F DUP4 GT PUSH1 0x1 DUP2 EQ PUSH2 0xA0F JUMPI PUSH1 0x0 DUP5 ISZERO PUSH2 0x9FD JUMPI DUP3 DUP8 ADD MLOAD SWAP1 POP JUMPDEST PUSH2 0xA07 DUP6 DUP3 PUSH2 0x989 JUMP JUMPDEST DUP7 SSTORE POP PUSH2 0xA6F JUMP JUMPDEST PUSH1 0x1F NOT DUP5 AND PUSH2 0xA1D DUP7 PUSH2 0x7F9 JUMP JUMPDEST PUSH1 0x0 JUMPDEST DUP3 DUP2 LT ISZERO PUSH2 0xA45 JUMPI DUP5 DUP10 ADD MLOAD DUP3 SSTORE PUSH1 0x1 DUP3 ADD SWAP2 POP PUSH1 0x20 DUP6 ADD SWAP5 POP PUSH1 0x20 DUP2 ADD SWAP1 POP PUSH2 0xA20 JUMP JUMPDEST DUP7 DUP4 LT ISZERO PUSH2 0xA62 JUMPI DUP5 DUP10 ADD MLOAD PUSH2 0xA5E PUSH1 0x1F DUP10 AND DUP3 PUSH2 0x96B JUMP JUMPDEST DUP4 SSTORE POP JUMPDEST PUSH1 0x1 PUSH1 0x2 DUP9 MUL ADD DUP9 SSTORE POP POP POP JUMPDEST POP POP POP POP POP POP JUMP JUMPDEST PUSH1 0x0 DUP2 SWAP1 POP SWAP3 SWAP2 POP POP JUMP JUMPDEST PUSH1 0x0 PUSH2 0xA8D DUP3 PUSH2 0x48E JUMP JUMPDEST PUSH2 0xA97 DUP2 DUP6 PUSH2 0xA77 JUMP JUMPDEST SWAP4 POP PUSH2 0xAA7 DUP2 DUP6 PUSH1 0x20 DUP7 ADD PUSH2 0x4AA JUMP JUMPDEST DUP1 DUP5 ADD SWAP2 POP POP SWAP3 SWAP2 POP POP JUMP JUMPDEST PUSH1 0x0 PUSH2 0xABF DUP3 DUP5 PUSH2 0xA82 JUMP JUMPDEST SWAP2 POP DUP2 SWAP1 POP SWAP3 SWAP2 POP POP JUMP INVALID LOG2 PUSH5 0x6970667358 0x22 SLT KECCAK256 CREATE2 SLOAD SWAP1 SHR 0xBA SHL PUSH31 0x112EDFC6652F1C4BEFCCEC4744C84809F92A836E63A98AFF3064736F6C6343 STOP ADDMOD GT STOP CALLER "},"methodIdentifiers":{"Num()":"4237c65b","addpers(string,uint256)":"75bf7eed","math(uint256)":"6f2938e8","nameToNum(string)":"92fa9da3","person()":"77ec2b55","pueblo(uint256)":"6c992aec","retrieve()":"2e64cec1","store(uint256)":"6057361d"}}}}}