{"contracts/fundMe.sol":{"FundMe":{"abi":[{"inputs":[{"internalType":"address","name":"_priceFeedAddress","type":"address"}],"stateMutability":"nonpayable","type":"constructor"},{"inputs":[],"name":"FundMe__NotOwner","type":"error"},{"stateMutability":"payable","type":"fallback"},{"inputs":[],"name":"MINUSD","outputs":[{"internalType":"uint256","name":"","type":"uint256"}],"stateMutability":"view","type":"function"},{"inputs":[{"internalType":"address","name":"_newOwner","type":"address"}],"name":"changeOwner","outputs":[],"stateMutability":"nonpayable","type":"function"},{"inputs":[],"name":"fund","outputs":[],"stateMutability":"payable","type":"function"},{"inputs":[{"internalType":"address","name":"_funder","type":"address"}],"name":"getFunderToAmo","outputs":[{"internalType":"uint256","name":"","type":"uint256"}],"stateMutability":"view","type":"function"},{"inputs":[{"internalType":"uint256","name":"idx","type":"uint256"}],"name":"getFunders","outputs":[{"internalType":"address","name":"","type":"address"}],"stateMutability":"view","type":"function"},{"inputs":[],"name":"getOwner","outputs":[{"internalType":"address","name":"","type":"address"}],"stateMutability":"view","type":"function"},{"inputs":[],"name":"getPriceFeed","outputs":[{"internalType":"contract AggregatorV3Interface","name":"","type":"address"}],"stateMutability":"view","type":"function"},{"inputs":[],"name":"wdraw","outputs":[],"stateMutability":"nonpayable","type":"function"},{"stateMutability":"payable","type":"receive"}],"devdoc":{"kind":"dev","methods":{},"version":1},"evm":{"bytecode":{"linkReferences":{},"object":"608060405234801561001057600080fd5b5060405161093238038061093283398101604081905261002f91610097565b60008054336001600160a01b031991821617909155600280549091166001600160a01b03929092169190911790556100c0565b60006001600160a01b0382165b92915050565b61007e81610062565b811461008957600080fd5b50565b805161006f81610075565b6000602082840312156100ac576100ac600080fd5b60006100b8848461008c565b949350505050565b610863806100cf6000396000f3fe60806040526004361061007f5760003560e01c8063a6f9dae11161004e578063a6f9dae114610139578063b60d42881461008e578063bcc57b0d14610159578063ccadfaf21461018f5761008e565b80633a7b6c74146100965780634dc93616146100cc578063893d20e8146100f55780639e87a5cd146101135761008e565b3661008e5761008c6101a4565b005b61008c6101a4565b3480156100a257600080fd5b506100b66100b136600461058b565b61023e565b6040516100c391906105d4565b60405180910390f35b3480156100d857600080fd5b506100e8671bc16d674ec8000081565b6040516100c391906105e8565b34801561010157600080fd5b506000546001600160a01b03166100b6565b34801561011f57600080fd5b506002546001600160a01b03166040516100c39190610615565b34801561014557600080fd5b5061008c610154366004610637565b61026e565b34801561016557600080fd5b506100e8610174366004610637565b6001600160a01b031660009081526003602052604090205490565b34801561019b57600080fd5b5061008c6102bb565b600254671bc16d674ec80000906101c59034906001600160a01b031661043b565b10156101ec5760405162461bcd60e51b81526004016101e390610683565b60405180910390fd5b33600081815260036020526040812034905560018054808201825591527fb10e2d527612073b26eecdfd717e6a320cf44b4afac2b0732d9fcbe2b7fa0cf60180546001600160a01b0319169091179055565b60006001828154811061025357610253610693565b6000918252602090912001546001600160a01b031692915050565b6000546001600160a01b031633146102995760405163579610db60e01b815260040160405180910390fd5b600080546001600160a01b0319166001600160a01b0392909216919091179055565b6000546001600160a01b031633146102e65760405163579610db60e01b815260040160405180910390fd5b6000336001600160a01b0316476040516102ff906106a9565b60006040518083038185875af1925050503d806000811461033c576040519150601f19603f3d011682016040523d82523d6000602084013e610341565b606091505b50509050806103625760405162461bcd60e51b81526004016101e3906106d3565b600060018054806020026020016040519081016040528092919081815260200182805480156103ba57602002820191906000526020600020905b81546001600160a01b0316815260019091019060200180831161039c575b5050505050905060005b81518110156104185760008282815181106103e1576103e1610693565b6020908102919091018101516001600160a01b03166000908152600390915260408120555080610410816106f9565b9150506103c4565b506040805160008152602081019182905251610436916001916104f6565b505050565b60008061044783610473565b90506000670de0b6b3a764000061045e8684610713565b6104689190610748565b925050505b92915050565b600080826001600160a01b031663feaf968c6040518163ffffffff1660e01b815260040160a060405180830381865afa1580156104b4573d6000803e3d6000fd5b505050506040513d601f19601f820116820180604052508101906104d89190610784565b505050915050806402540be4006104ef91906107fc565b9392505050565b82805482825590600052602060002090810192821561054b579160200282015b8281111561054b57825182546001600160a01b0319166001600160a01b03909116178255602090920191600190910190610516565b5061055792915061055b565b5090565b5b80821115610557576000815560010161055c565b805b811461057d57600080fd5b50565b803561046d81610570565b6000602082840312156105a0576105a0600080fd5b60006105ac8484610580565b949350505050565b60006001600160a01b03821661046d565b6105ce816105b4565b82525050565b6020810161046d82846105c5565b806105ce565b6020810161046d82846105e2565b600061046d826105b4565b600061046d826105f6565b6105ce81610601565b6020810161046d828461060c565b610572816105b4565b803561046d81610623565b60006020828403121561064c5761064c600080fd5b60006105ac848461062c565b6011815260006020820170135bdc9948115512081c995c5d5a5c9959607a1b815291505b5060200190565b6020808252810161046d81610658565b634e487b7160e01b600052603260045260246000fd5b60008161046d565b600b81526000602082016a14d95b990819985a5b195960aa1b8152915061067c565b6020808252810161046d816106b1565b634e487b7160e01b600052601160045260246000fd5b6000600019820361070c5761070c6106e3565b5060010190565b81810280821583820485141761072b5761072b6106e3565b5092915050565b634e487b7160e01b600052601260045260246000fd5b60008261075757610757610732565b500490565b69ffffffffffffffffffff8116610572565b805161046d8161075c565b805161046d81610570565b600080600080600060a0868803121561079f5761079f600080fd5b60006107ab888861076e565b95505060206107bc88828901610779565b94505060406107cd88828901610779565b93505060606107de88828901610779565b92505060806107ef8882890161076e565b9150509295509295909350565b8181028060008312600160ff1b85141615610819576108196106e3565b828205841483151761072b5761072b6106e356fea264697066735822122065516c913f98eafd845e23195831e7d2761154cdbab3973e15dcd7431c15611b64736f6c63430008110033","opcodes":"PUSH1 0x80 PUSH1 0x40 MSTORE CALLVALUE DUP1 ISZERO PUSH2 0x10 JUMPI PUSH1 0x0 DUP1 REVERT JUMPDEST POP PUSH1 0x40 MLOAD PUSH2 0x932 CODESIZE SUB DUP1 PUSH2 0x932 DUP4 CODECOPY DUP2 ADD PUSH1 0x40 DUP2 SWAP1 MSTORE PUSH2 0x2F SWAP2 PUSH2 0x97 JUMP JUMPDEST PUSH1 0x0 DUP1 SLOAD CALLER PUSH1 0x1 PUSH1 0x1 PUSH1 0xA0 SHL SUB NOT SWAP2 DUP3 AND OR SWAP1 SWAP2 SSTORE PUSH1 0x2 DUP1 SLOAD SWAP1 SWAP2 AND PUSH1 0x1 PUSH1 0x1 PUSH1 0xA0 SHL SUB SWAP3 SWAP1 SWAP3 AND SWAP2 SWAP1 SWAP2 OR SWAP1 SSTORE PUSH2 0xC0 JUMP JUMPDEST PUSH1 0x0 PUSH1 0x1 PUSH1 0x1 PUSH1 0xA0 SHL SUB DUP3 AND JUMPDEST SWAP3 SWAP2 POP POP JUMP JUMPDEST PUSH2 0x7E DUP2 PUSH2 0x62 JUMP JUMPDEST DUP2 EQ PUSH2 0x89 JUMPI PUSH1 0x0 DUP1 REVERT JUMPDEST POP JUMP JUMPDEST DUP1 MLOAD PUSH2 0x6F DUP2 PUSH2 0x75 JUMP JUMPDEST PUSH1 0x0 PUSH1 0x20 DUP3 DUP5 SUB SLT ISZERO PUSH2 0xAC JUMPI PUSH2 0xAC PUSH1 0x0 DUP1 REVERT JUMPDEST PUSH1 0x0 PUSH2 0xB8 DUP5 DUP5 PUSH2 0x8C JUMP JUMPDEST SWAP5 SWAP4 POP POP POP POP JUMP JUMPDEST PUSH2 0x863 DUP1 PUSH2 0xCF PUSH1 0x0 CODECOPY PUSH1 0x0 RETURN INVALID PUSH1 0x80 PUSH1 0x40 MSTORE PUSH1 0x4 CALLDATASIZE LT PUSH2 0x7F JUMPI PUSH1 0x0 CALLDATALOAD PUSH1 0xE0 SHR DUP1 PUSH4 0xA6F9DAE1 GT PUSH2 0x4E JUMPI DUP1 PUSH4 0xA6F9DAE1 EQ PUSH2 0x139 JUMPI DUP1 PUSH4 0xB60D4288 EQ PUSH2 0x8E JUMPI DUP1 PUSH4 0xBCC57B0D EQ PUSH2 0x159 JUMPI DUP1 PUSH4 0xCCADFAF2 EQ PUSH2 0x18F JUMPI PUSH2 0x8E JUMP JUMPDEST DUP1 PUSH4 0x3A7B6C74 EQ PUSH2 0x96 JUMPI DUP1 PUSH4 0x4DC93616 EQ PUSH2 0xCC JUMPI DUP1 PUSH4 0x893D20E8 EQ PUSH2 0xF5 JUMPI DUP1 PUSH4 0x9E87A5CD EQ PUSH2 0x113 JUMPI PUSH2 0x8E JUMP JUMPDEST CALLDATASIZE PUSH2 0x8E JUMPI PUSH2 0x8C PUSH2 0x1A4 JUMP JUMPDEST STOP JUMPDEST PUSH2 0x8C PUSH2 0x1A4 JUMP JUMPDEST CALLVALUE DUP1 ISZERO PUSH2 0xA2 JUMPI PUSH1 0x0 DUP1 REVERT JUMPDEST POP PUSH2 0xB6 PUSH2 0xB1 CALLDATASIZE PUSH1 0x4 PUSH2 0x58B JUMP JUMPDEST PUSH2 0x23E JUMP JUMPDEST PUSH1 0x40 MLOAD PUSH2 0xC3 SWAP2 SWAP1 PUSH2 0x5D4 JUMP JUMPDEST PUSH1 0x40 MLOAD DUP1 SWAP2 SUB SWAP1 RETURN JUMPDEST CALLVALUE DUP1 ISZERO PUSH2 0xD8 JUMPI PUSH1 0x0 DUP1 REVERT JUMPDEST POP PUSH2 0xE8 PUSH8 0x1BC16D674EC80000 DUP2 JUMP JUMPDEST PUSH1 0x40 MLOAD PUSH2 0xC3 SWAP2 SWAP1 PUSH2 0x5E8 JUMP JUMPDEST CALLVALUE DUP1 ISZERO PUSH2 0x101 JUMPI PUSH1 0x0 DUP1 REVERT JUMPDEST POP PUSH1 0x0 SLOAD PUSH1 0x1 PUSH1 0x1 PUSH1 0xA0 SHL SUB AND PUSH2 0xB6 JUMP JUMPDEST CALLVALUE DUP1 ISZERO PUSH2 0x11F JUMPI PUSH1 0x0 DUP1 REVERT JUMPDEST POP PUSH1 0x2 SLOAD PUSH1 0x1 PUSH1 0x1 PUSH1 0xA0 SHL SUB AND PUSH1 0x40 MLOAD PUSH2 0xC3 SWAP2 SWAP1 PUSH2 0x615 JUMP JUMPDEST CALLVALUE DUP1 ISZERO PUSH2 0x145 JUMPI PUSH1 0x0 DUP1 REVERT JUMPDEST POP PUSH2 0x8C PUSH2 0x154 CALLDATASIZE PUSH1 0x4 PUSH2 0x637 JUMP JUMPDEST PUSH2 0x26E JUMP JUMPDEST CALLVALUE DUP1 ISZERO PUSH2 0x165 JUMPI PUSH1 0x0 DUP1 REVERT JUMPDEST POP PUSH2 0xE8 PUSH2 0x174 CALLDATASIZE PUSH1 0x4 PUSH2 0x637 JUMP JUMPDEST PUSH1 0x1 PUSH1 0x1 PUSH1 0xA0 SHL SUB AND PUSH1 0x0 SWAP1 DUP2 MSTORE PUSH1 0x3 PUSH1 0x20 MSTORE PUSH1 0x40 SWAP1 KECCAK256 SLOAD SWAP1 JUMP JUMPDEST CALLVALUE DUP1 ISZERO PUSH2 0x19B JUMPI PUSH1 0x0 DUP1 REVERT JUMPDEST POP PUSH2 0x8C PUSH2 0x2BB JUMP JUMPDEST PUSH1 0x2 SLOAD PUSH8 0x1BC16D674EC80000 SWAP1 PUSH2 0x1C5 SWAP1 CALLVALUE SWAP1 PUSH1 0x1 PUSH1 0x1 PUSH1 0xA0 SHL SUB AND PUSH2 0x43B JUMP JUMPDEST LT ISZERO PUSH2 0x1EC JUMPI PUSH1 0x40 MLOAD PUSH3 0x461BCD PUSH1 0xE5 SHL DUP2 MSTORE PUSH1 0x4 ADD PUSH2 0x1E3 SWAP1 PUSH2 0x683 JUMP JUMPDEST PUSH1 0x40 MLOAD DUP1 SWAP2 SUB SWAP1 REVERT JUMPDEST CALLER PUSH1 0x0 DUP2 DUP2 MSTORE PUSH1 0x3 PUSH1 0x20 MSTORE PUSH1 0x40 DUP2 KECCAK256 CALLVALUE SWAP1 SSTORE PUSH1 0x1 DUP1 SLOAD DUP1 DUP3 ADD DUP3 SSTORE SWAP2 MSTORE PUSH32 0xB10E2D527612073B26EECDFD717E6A320CF44B4AFAC2B0732D9FCBE2B7FA0CF6 ADD DUP1 SLOAD PUSH1 0x1 PUSH1 0x1 PUSH1 0xA0 SHL SUB NOT AND SWAP1 SWAP2 OR SWAP1 SSTORE JUMP JUMPDEST PUSH1 0x0 PUSH1 0x1 DUP3 DUP2 SLOAD DUP2 LT PUSH2 0x253 JUMPI PUSH2 0x253 PUSH2 0x693 JUMP JUMPDEST PUSH1 0x0 SWAP2 DUP3 MSTORE PUSH1 0x20 SWAP1 SWAP2 KECCAK256 ADD SLOAD PUSH1 0x1 PUSH1 0x1 PUSH1 0xA0 SHL SUB AND SWAP3 SWAP2 POP POP JUMP JUMPDEST PUSH1 0x0 SLOAD PUSH1 0x1 PUSH1 0x1 PUSH1 0xA0 SHL SUB AND CALLER EQ PUSH2 0x299 JUMPI PUSH1 0x40 MLOAD PUSH4 0x579610DB PUSH1 0xE0 SHL DUP2 MSTORE PUSH1 0x4 ADD PUSH1 0x40 MLOAD DUP1 SWAP2 SUB SWAP1 REVERT JUMPDEST PUSH1 0x0 DUP1 SLOAD PUSH1 0x1 PUSH1 0x1 PUSH1 0xA0 SHL SUB NOT AND PUSH1 0x1 PUSH1 0x1 PUSH1 0xA0 SHL SUB SWAP3 SWAP1 SWAP3 AND SWAP2 SWAP1 SWAP2 OR SWAP1 SSTORE JUMP JUMPDEST PUSH1 0x0 SLOAD PUSH1 0x1 PUSH1 0x1 PUSH1 0xA0 SHL SUB AND CALLER EQ PUSH2 0x2E6 JUMPI PUSH1 0x40 MLOAD PUSH4 0x579610DB PUSH1 0xE0 SHL DUP2 MSTORE PUSH1 0x4 ADD PUSH1 0x40 MLOAD DUP1 SWAP2 SUB SWAP1 REVERT JUMPDEST PUSH1 0x0 CALLER PUSH1 0x1 PUSH1 0x1 PUSH1 0xA0 SHL SUB AND SELFBALANCE PUSH1 0x40 MLOAD PUSH2 0x2FF SWAP1 PUSH2 0x6A9 JUMP JUMPDEST PUSH1 0x0 PUSH1 0x40 MLOAD DUP1 DUP4 SUB DUP2 DUP6 DUP8 GAS CALL SWAP3 POP POP POP RETURNDATASIZE DUP1 PUSH1 0x0 DUP2 EQ PUSH2 0x33C JUMPI PUSH1 0x40 MLOAD SWAP2 POP PUSH1 0x1F NOT PUSH1 0x3F RETURNDATASIZE ADD AND DUP3 ADD PUSH1 0x40 MSTORE RETURNDATASIZE DUP3 MSTORE RETURNDATASIZE PUSH1 0x0 PUSH1 0x20 DUP5 ADD RETURNDATACOPY PUSH2 0x341 JUMP JUMPDEST PUSH1 0x60 SWAP2 POP JUMPDEST POP POP SWAP1 POP DUP1 PUSH2 0x362 JUMPI PUSH1 0x40 MLOAD PUSH3 0x461BCD PUSH1 0xE5 SHL DUP2 MSTORE PUSH1 0x4 ADD PUSH2 0x1E3 SWAP1 PUSH2 0x6D3 JUMP JUMPDEST PUSH1 0x0 PUSH1 0x1 DUP1 SLOAD DUP1 PUSH1 0x20 MUL PUSH1 0x20 ADD PUSH1 0x40 MLOAD SWAP1 DUP2 ADD PUSH1 0x40 MSTORE DUP1 SWAP3 SWAP2 SWAP1 DUP2 DUP2 MSTORE PUSH1 0x20 ADD DUP3 DUP1 SLOAD DUP1 ISZERO PUSH2 0x3BA JUMPI PUSH1 0x20 MUL DUP3 ADD SWAP2 SWAP1 PUSH1 0x0 MSTORE PUSH1 0x20 PUSH1 0x0 KECCAK256 SWAP1 JUMPDEST DUP2 SLOAD PUSH1 0x1 PUSH1 0x1 PUSH1 0xA0 SHL SUB AND DUP2 MSTORE PUSH1 0x1 SWAP1 SWAP2 ADD SWAP1 PUSH1 0x20 ADD DUP1 DUP4 GT PUSH2 0x39C JUMPI JUMPDEST POP POP POP POP POP SWAP1 POP PUSH1 0x0 JUMPDEST DUP2 MLOAD DUP2 LT ISZERO PUSH2 0x418 JUMPI PUSH1 0x0 DUP3 DUP3 DUP2 MLOAD DUP2 LT PUSH2 0x3E1 JUMPI PUSH2 0x3E1 PUSH2 0x693 JUMP JUMPDEST PUSH1 0x20 SWAP1 DUP2 MUL SWAP2 SWAP1 SWAP2 ADD DUP2 ADD MLOAD PUSH1 0x1 PUSH1 0x1 PUSH1 0xA0 SHL SUB AND PUSH1 0x0 SWAP1 DUP2 MSTORE PUSH1 0x3 SWAP1 SWAP2 MSTORE PUSH1 0x40 DUP2 KECCAK256 SSTORE POP DUP1 PUSH2 0x410 DUP2 PUSH2 0x6F9 JUMP JUMPDEST SWAP2 POP POP PUSH2 0x3C4 JUMP JUMPDEST POP PUSH1 0x40 DUP1 MLOAD PUSH1 0x0 DUP2 MSTORE PUSH1 0x20 DUP2 ADD SWAP2 DUP3 SWAP1 MSTORE MLOAD PUSH2 0x436 SWAP2 PUSH1 0x1 SWAP2 PUSH2 0x4F6 JUMP JUMPDEST POP POP POP JUMP JUMPDEST PUSH1 0x0 DUP1 PUSH2 0x447 DUP4 PUSH2 0x473 JUMP JUMPDEST SWAP1 POP PUSH1 0x0 PUSH8 0xDE0B6B3A7640000 PUSH2 0x45E DUP7 DUP5 PUSH2 0x713 JUMP JUMPDEST PUSH2 0x468 SWAP2 SWAP1 PUSH2 0x748 JUMP JUMPDEST SWAP3 POP POP POP JUMPDEST SWAP3 SWAP2 POP POP JUMP JUMPDEST PUSH1 0x0 DUP1 DUP3 PUSH1 0x1 PUSH1 0x1 PUSH1 0xA0 SHL SUB AND PUSH4 0xFEAF968C PUSH1 0x40 MLOAD DUP2 PUSH4 0xFFFFFFFF AND PUSH1 0xE0 SHL DUP2 MSTORE PUSH1 0x4 ADD PUSH1 0xA0 PUSH1 0x40 MLOAD DUP1 DUP4 SUB DUP2 DUP7 GAS STATICCALL ISZERO DUP1 ISZERO PUSH2 0x4B4 JUMPI RETURNDATASIZE PUSH1 0x0 DUP1 RETURNDATACOPY RETURNDATASIZE PUSH1 0x0 REVERT JUMPDEST POP POP POP POP PUSH1 0x40 MLOAD RETURNDATASIZE PUSH1 0x1F NOT PUSH1 0x1F DUP3 ADD AND DUP3 ADD DUP1 PUSH1 0x40 MSTORE POP DUP2 ADD SWAP1 PUSH2 0x4D8 SWAP2 SWAP1 PUSH2 0x784 JUMP JUMPDEST POP POP POP SWAP2 POP POP DUP1 PUSH5 0x2540BE400 PUSH2 0x4EF SWAP2 SWAP1 PUSH2 0x7FC JUMP JUMPDEST SWAP4 SWAP3 POP POP POP JUMP JUMPDEST DUP3 DUP1 SLOAD DUP3 DUP3 SSTORE SWAP1 PUSH1 0x0 MSTORE PUSH1 0x20 PUSH1 0x0 KECCAK256 SWAP1 DUP2 ADD SWAP3 DUP3 ISZERO PUSH2 0x54B JUMPI SWAP2 PUSH1 0x20 MUL DUP3 ADD JUMPDEST DUP3 DUP2 GT ISZERO PUSH2 0x54B JUMPI DUP3 MLOAD DUP3 SLOAD PUSH1 0x1 PUSH1 0x1 PUSH1 0xA0 SHL SUB NOT AND PUSH1 0x1 PUSH1 0x1 PUSH1 0xA0 SHL SUB SWAP1 SWAP2 AND OR DUP3 SSTORE PUSH1 0x20 SWAP1 SWAP3 ADD SWAP2 PUSH1 0x1 SWAP1 SWAP2 ADD SWAP1 PUSH2 0x516 JUMP JUMPDEST POP PUSH2 0x557 SWAP3 SWAP2 POP PUSH2 0x55B JUMP JUMPDEST POP SWAP1 JUMP JUMPDEST JUMPDEST DUP1 DUP3 GT ISZERO PUSH2 0x557 JUMPI PUSH1 0x0 DUP2 SSTORE PUSH1 0x1 ADD PUSH2 0x55C JUMP JUMPDEST DUP1 JUMPDEST DUP2 EQ PUSH2 0x57D JUMPI PUSH1 0x0 DUP1 REVERT JUMPDEST POP JUMP JUMPDEST DUP1 CALLDATALOAD PUSH2 0x46D DUP2 PUSH2 0x570 JUMP JUMPDEST PUSH1 0x0 PUSH1 0x20 DUP3 DUP5 SUB SLT ISZERO PUSH2 0x5A0 JUMPI PUSH2 0x5A0 PUSH1 0x0 DUP1 REVERT JUMPDEST PUSH1 0x0 PUSH2 0x5AC DUP5 DUP5 PUSH2 0x580 JUMP JUMPDEST SWAP5 SWAP4 POP POP POP POP JUMP JUMPDEST PUSH1 0x0 PUSH1 0x1 PUSH1 0x1 PUSH1 0xA0 SHL SUB DUP3 AND PUSH2 0x46D JUMP JUMPDEST PUSH2 0x5CE DUP2 PUSH2 0x5B4 JUMP JUMPDEST DUP3 MSTORE POP POP JUMP JUMPDEST PUSH1 0x20 DUP2 ADD PUSH2 0x46D DUP3 DUP5 PUSH2 0x5C5 JUMP JUMPDEST DUP1 PUSH2 0x5CE JUMP JUMPDEST PUSH1 0x20 DUP2 ADD PUSH2 0x46D DUP3 DUP5 PUSH2 0x5E2 JUMP JUMPDEST PUSH1 0x0 PUSH2 0x46D DUP3 PUSH2 0x5B4 JUMP JUMPDEST PUSH1 0x0 PUSH2 0x46D DUP3 PUSH2 0x5F6 JUMP JUMPDEST PUSH2 0x5CE DUP2 PUSH2 0x601 JUMP JUMPDEST PUSH1 0x20 DUP2 ADD PUSH2 0x46D DUP3 DUP5 PUSH2 0x60C JUMP JUMPDEST PUSH2 0x572 DUP2 PUSH2 0x5B4 JUMP JUMPDEST DUP1 CALLDATALOAD PUSH2 0x46D DUP2 PUSH2 0x623 JUMP JUMPDEST PUSH1 0x0 PUSH1 0x20 DUP3 DUP5 SUB SLT ISZERO PUSH2 0x64C JUMPI PUSH2 0x64C PUSH1 0x0 DUP1 REVERT JUMPDEST PUSH1 0x0 PUSH2 0x5AC DUP5 DUP5 PUSH2 0x62C JUMP JUMPDEST PUSH1 0x11 DUP2 MSTORE PUSH1 0x0 PUSH1 0x20 DUP3 ADD PUSH17 0x135BDC9948115512081C995C5D5A5C9959 PUSH1 0x7A SHL DUP2 MSTORE SWAP2 POP JUMPDEST POP PUSH1 0x20 ADD SWAP1 JUMP JUMPDEST PUSH1 0x20 DUP1 DUP3 MSTORE DUP2 ADD PUSH2 0x46D DUP2 PUSH2 0x658 JUMP JUMPDEST PUSH4 0x4E487B71 PUSH1 0xE0 SHL PUSH1 0x0 MSTORE PUSH1 0x32 PUSH1 0x4 MSTORE PUSH1 0x24 PUSH1 0x0 REVERT JUMPDEST PUSH1 0x0 DUP2 PUSH2 0x46D JUMP JUMPDEST PUSH1 0xB DUP2 MSTORE PUSH1 0x0 PUSH1 0x20 DUP3 ADD PUSH11 0x14D95B990819985A5B1959 PUSH1 0xAA SHL DUP2 MSTORE SWAP2 POP PUSH2 0x67C JUMP JUMPDEST PUSH1 0x20 DUP1 DUP3 MSTORE DUP2 ADD PUSH2 0x46D DUP2 PUSH2 0x6B1 JUMP JUMPDEST PUSH4 0x4E487B71 PUSH1 0xE0 SHL PUSH1 0x0 MSTORE PUSH1 0x11 PUSH1 0x4 MSTORE PUSH1 0x24 PUSH1 0x0 REVERT JUMPDEST PUSH1 0x0 PUSH1 0x0 NOT DUP3 SUB PUSH2 0x70C JUMPI PUSH2 0x70C PUSH2 0x6E3 JUMP JUMPDEST POP PUSH1 0x1 ADD SWAP1 JUMP JUMPDEST DUP2 DUP2 MUL DUP1 DUP3 ISZERO DUP4 DUP3 DIV DUP6 EQ OR PUSH2 0x72B JUMPI PUSH2 0x72B PUSH2 0x6E3 JUMP JUMPDEST POP SWAP3 SWAP2 POP POP JUMP JUMPDEST PUSH4 0x4E487B71 PUSH1 0xE0 SHL PUSH1 0x0 MSTORE PUSH1 0x12 PUSH1 0x4 MSTORE PUSH1 0x24 PUSH1 0x0 REVERT JUMPDEST PUSH1 0x0 DUP3 PUSH2 0x757 JUMPI PUSH2 0x757 PUSH2 0x732 JUMP JUMPDEST POP DIV SWAP1 JUMP JUMPDEST PUSH10 0xFFFFFFFFFFFFFFFFFFFF DUP2 AND PUSH2 0x572 JUMP JUMPDEST DUP1 MLOAD PUSH2 0x46D DUP2 PUSH2 0x75C JUMP JUMPDEST DUP1 MLOAD PUSH2 0x46D DUP2 PUSH2 0x570 JUMP JUMPDEST PUSH1 0x0 DUP1 PUSH1 0x0 DUP1 PUSH1 0x0 PUSH1 0xA0 DUP7 DUP9 SUB SLT ISZERO PUSH2 0x79F JUMPI PUSH2 0x79F PUSH1 0x0 DUP1 REVERT JUMPDEST PUSH1 0x0 PUSH2 0x7AB DUP9 DUP9 PUSH2 0x76E JUMP JUMPDEST SWAP6 POP POP PUSH1 0x20 PUSH2 0x7BC DUP9 DUP3 DUP10 ADD PUSH2 0x779 JUMP JUMPDEST SWAP5 POP POP PUSH1 0x40 PUSH2 0x7CD DUP9 DUP3 DUP10 ADD PUSH2 0x779 JUMP JUMPDEST SWAP4 POP POP PUSH1 0x60 PUSH2 0x7DE DUP9 DUP3 DUP10 ADD PUSH2 0x779 JUMP JUMPDEST SWAP3 POP POP PUSH1 0x80 PUSH2 0x7EF DUP9 DUP3 DUP10 ADD PUSH2 0x76E JUMP JUMPDEST SWAP2 POP POP SWAP3 SWAP6 POP SWAP3 SWAP6 SWAP1 SWAP4 POP JUMP JUMPDEST DUP2 DUP2 MUL DUP1 PUSH1 0x0 DUP4 SLT PUSH1 0x1 PUSH1 0xFF SHL DUP6 EQ AND ISZERO PUSH2 0x819 JUMPI PUSH2 0x819 PUSH2 0x6E3 JUMP JUMPDEST DUP3 DUP3 SDIV DUP5 EQ DUP4 ISZERO OR PUSH2 0x72B JUMPI PUSH2 0x72B PUSH2 0x6E3 JUMP INVALID LOG2 PUSH5 0x6970667358 0x22 SLT KECCAK256 PUSH6 0x516C913F98EA REVERT DUP5 0x5E 0x23 NOT PC BALANCE 0xE7 0xD2 PUSH23 0x1154CDBAB3973E15DCD7431C15611B64736F6C63430008 GT STOP CALLER "},"gasEstimates":{"creation":{"codeDepositCost":"429400","executionCost":"infinite","totalCost":"infinite"},"external":{"":"infinite","MINUSD()":"295","changeOwner(address)":"infinite","fund()":"infinite","getFunderToAmo(address)":"infinite","getFunders(uint256)":"infinite","getOwner()":"infinite","getPriceFeed()":"infinite","wdraw()":"infinite"}},"methodIdentifiers":{"MINUSD()":"4dc93616","changeOwner(address)":"a6f9dae1","fund()":"b60d4288","getFunderToAmo(address)":"bcc57b0d","getFunders(uint256)":"3a7b6c74","getOwner()":"893d20e8","getPriceFeed()":"9e87a5cd","wdraw()":"ccadfaf2"}},"storageLayout":{"storage":[{"astId":556,"contract":"contracts/fundMe.sol:FundMe","label":"i_owner","offset":0,"slot":"0","type":"t_address"},{"astId":559,"contract":"contracts/fundMe.sol:FundMe","label":"s_funders","offset":0,"slot":"1","type":"t_array(t_address)dyn_storage"},{"astId":562,"contract":"contracts/fundMe.sol:FundMe","label":"s_priceFeed","offset":0,"slot":"2","type":"t_contract(AggregatorV3Interface)45"},{"astId":566,"contract":"contracts/fundMe.sol:FundMe","label":"s_funderToAmo","offset":0,"slot":"3","type":"t_mapping(t_address,t_uint256)"}],"types":{"t_address":{"encoding":"inplace","label":"address","numberOfBytes":"20"},"t_array(t_address)dyn_storage":{"base":"t_address","encoding":"dynamic_array","label":"address[]","numberOfBytes":"32"},"t_contract(AggregatorV3Interface)45":{"encoding":"inplace","label":"contract AggregatorV3Interface","numberOfBytes":"20"},"t_mapping(t_address,t_uint256)":{"encoding":"mapping","key":"t_address","label":"mapping(address => uint256)","numberOfBytes":"32","value":"t_uint256"},"t_uint256":{"encoding":"inplace","label":"uint256","numberOfBytes":"32"}}},"userdoc":{"kind":"user","methods":{},"version":1}}}}