{"contracts/fundMe.sol":{"FundMe":{"abi":[{"inputs":[{"internalType":"address","name":"_priceFeedAddress","type":"address"}],"stateMutability":"nonpayable","type":"constructor"},{"inputs":[{"internalType":"address","name":"_newOwner","type":"address"}],"name":"changeOwner","outputs":[],"stateMutability":"nonpayable","type":"function"},{"inputs":[],"name":"fund","outputs":[],"stateMutability":"payable","type":"function"},{"inputs":[{"internalType":"address","name":"","type":"address"}],"name":"funderToAmo","outputs":[{"internalType":"uint256","name":"","type":"uint256"}],"stateMutability":"view","type":"function"},{"inputs":[{"internalType":"uint256","name":"","type":"uint256"}],"name":"funders","outputs":[{"internalType":"address","name":"","type":"address"}],"stateMutability":"view","type":"function"},{"inputs":[],"name":"minUSD","outputs":[{"internalType":"uint256","name":"","type":"uint256"}],"stateMutability":"view","type":"function"},{"inputs":[],"name":"owner","outputs":[{"internalType":"address","name":"","type":"address"}],"stateMutability":"view","type":"function"},{"inputs":[],"name":"wdraw","outputs":[],"stateMutability":"nonpayable","type":"function"}],"evm":{"bytecode":{"linkReferences":{},"object":"608060405234801561001057600080fd5b5060405161089938038061089983398101604081905261002f91610097565b60008054336001600160a01b031991821617909155600280549091166001600160a01b03929092169190911790556100c0565b60006001600160a01b0382165b92915050565b61007e81610062565b811461008957600080fd5b50565b805161006f81610075565b6000602082840312156100ac576100ac600080fd5b60006100b8848461008c565b949350505050565b6107ca806100cf6000396000f3fe6080604052600436106100705760003560e01c8063b60d42881161004e578063b60d428814610107578063ccadfaf21461010f578063dc0d3dff14610124578063dc992aa01461014457600080fd5b80638da5cb5b146100755780639d9ef3e7146100ab578063a6f9dae1146100e5575b600080fd5b34801561008157600080fd5b50600054610095906001600160a01b031681565b6040516100a291906104e4565b60405180910390f35b3480156100b757600080fd5b506100d86100c6366004610514565b60036020526000908152604090205481565b6040516100a29190610543565b3480156100f157600080fd5b50610105610100366004610514565b610160565b005b6101056101b5565b34801561011b57600080fd5b50610105610246565b34801561013057600080fd5b5061009561013f366004610562565b610365565b34801561015057600080fd5b506100d8671bc16d674ec8000081565b6000546001600160a01b031633146101935760405162461bcd60e51b815260040161018a906105b2565b60405180910390fd5b600080546001600160a01b0319166001600160a01b0392909216919091179055565b600254671bc16d674ec80000906101d69034906001600160a01b031661038f565b10156101f45760405162461bcd60e51b815260040161018a906105ea565b33600081815260036020526040812034905560018054808201825591527fb10e2d527612073b26eecdfd717e6a320cf44b4afac2b0732d9fcbe2b7fa0cf60180546001600160a01b0319169091179055565b6000546001600160a01b031633146102705760405162461bcd60e51b815260040161018a906105b2565b6000336001600160a01b031647604051610289906105fa565b60006040518083038185875af1925050503d80600081146102c6576040519150601f19603f3d011682016040523d82523d6000602084013e6102cb565b606091505b50509050806102ec5760405162461bcd60e51b815260040161018a90610624565b60005b6001548110156103435760006001828154811061030e5761030e610634565b60009182526020808320909101546001600160a01b03168252600390526040812055508061033b81610660565b9150506102ef565b5060408051600081526020810191829052516103619160019161044a565b5050565b6001818154811061037557600080fd5b6000918252602090912001546001600160a01b0316905081565b60008061039b836103c7565b90506000670de0b6b3a76400006103b2868461067a565b6103bc91906106af565b925050505b92915050565b600080826001600160a01b031663feaf968c6040518163ffffffff1660e01b815260040160a060405180830381865afa158015610408573d6000803e3d6000fd5b505050506040513d601f19601f8201168201806040525081019061042c91906106eb565b505050915050806402540be4006104439190610763565b9392505050565b82805482825590600052602060002090810192821561049f579160200282015b8281111561049f57825182546001600160a01b0319166001600160a01b0390911617825560209092019160019091019061046a565b506104ab9291506104af565b5090565b5b808211156104ab57600081556001016104b0565b60006001600160a01b0382166103c1565b6104de816104c4565b82525050565b602081016103c182846104d5565b6104fb816104c4565b811461050657600080fd5b50565b80356103c1816104f2565b60006020828403121561052957610529600080fd5b60006105358484610509565b949350505050565b806104de565b602081016103c1828461053d565b806104fb565b80356103c181610551565b60006020828403121561057757610577600080fd5b60006105358484610557565b60158152600060208201742cb7ba9030b932903737ba103a34329037bbb732b960591b815291505b5060200190565b602080825281016103c181610583565b6011815260006020820170135bdc9948115512081c995c5d5a5c9959607a1b815291506105ab565b602080825281016103c1816105c2565b6000816103c1565b600b81526000602082016a14d95b990819985a5b195960aa1b815291506105ab565b602080825281016103c181610602565b634e487b7160e01b600052603260045260246000fd5b634e487b7160e01b600052601160045260246000fd5b600060001982036106735761067361064a565b5060010190565b8181028082158382048514176106925761069261064a565b5092915050565b634e487b7160e01b600052601260045260246000fd5b6000826106be576106be610699565b500490565b69ffffffffffffffffffff81166104fb565b80516103c1816106c3565b80516103c181610551565b600080600080600060a0868803121561070657610706600080fd5b600061071288886106d5565b9550506020610723888289016106e0565b9450506040610734888289016106e0565b9350506060610745888289016106e0565b9250506080610756888289016106d5565b9150509295509295909350565b8181028060008312600160ff1b851416156107805761078061064a565b82820584148315176106925761069261064a56fea2646970667358221220209847bcb557fd0f407925c60e084f048e924ac275f57f3ae2497993a308969064736f6c63430008110033","opcodes":"PUSH1 0x80 PUSH1 0x40 MSTORE CALLVALUE DUP1 ISZERO PUSH2 0x10 JUMPI PUSH1 0x0 DUP1 REVERT JUMPDEST POP PUSH1 0x40 MLOAD PUSH2 0x899 CODESIZE SUB DUP1 PUSH2 0x899 DUP4 CODECOPY DUP2 ADD PUSH1 0x40 DUP2 SWAP1 MSTORE PUSH2 0x2F SWAP2 PUSH2 0x97 JUMP JUMPDEST PUSH1 0x0 DUP1 SLOAD CALLER PUSH1 0x1 PUSH1 0x1 PUSH1 0xA0 SHL SUB NOT SWAP2 DUP3 AND OR SWAP1 SWAP2 SSTORE PUSH1 0x2 DUP1 SLOAD SWAP1 SWAP2 AND PUSH1 0x1 PUSH1 0x1 PUSH1 0xA0 SHL SUB SWAP3 SWAP1 SWAP3 AND SWAP2 SWAP1 SWAP2 OR SWAP1 SSTORE PUSH2 0xC0 JUMP JUMPDEST PUSH1 0x0 PUSH1 0x1 PUSH1 0x1 PUSH1 0xA0 SHL SUB DUP3 AND JUMPDEST SWAP3 SWAP2 POP POP JUMP JUMPDEST PUSH2 0x7E DUP2 PUSH2 0x62 JUMP JUMPDEST DUP2 EQ PUSH2 0x89 JUMPI PUSH1 0x0 DUP1 REVERT JUMPDEST POP JUMP JUMPDEST DUP1 MLOAD PUSH2 0x6F DUP2 PUSH2 0x75 JUMP JUMPDEST PUSH1 0x0 PUSH1 0x20 DUP3 DUP5 SUB SLT ISZERO PUSH2 0xAC JUMPI PUSH2 0xAC PUSH1 0x0 DUP1 REVERT JUMPDEST PUSH1 0x0 PUSH2 0xB8 DUP5 DUP5 PUSH2 0x8C JUMP JUMPDEST SWAP5 SWAP4 POP POP POP POP JUMP JUMPDEST PUSH2 0x7CA DUP1 PUSH2 0xCF PUSH1 0x0 CODECOPY PUSH1 0x0 RETURN INVALID PUSH1 0x80 PUSH1 0x40 MSTORE PUSH1 0x4 CALLDATASIZE LT PUSH2 0x70 JUMPI PUSH1 0x0 CALLDATALOAD PUSH1 0xE0 SHR DUP1 PUSH4 0xB60D4288 GT PUSH2 0x4E JUMPI DUP1 PUSH4 0xB60D4288 EQ PUSH2 0x107 JUMPI DUP1 PUSH4 0xCCADFAF2 EQ PUSH2 0x10F JUMPI DUP1 PUSH4 0xDC0D3DFF EQ PUSH2 0x124 JUMPI DUP1 PUSH4 0xDC992AA0 EQ PUSH2 0x144 JUMPI PUSH1 0x0 DUP1 REVERT JUMPDEST DUP1 PUSH4 0x8DA5CB5B EQ PUSH2 0x75 JUMPI DUP1 PUSH4 0x9D9EF3E7 EQ PUSH2 0xAB JUMPI DUP1 PUSH4 0xA6F9DAE1 EQ PUSH2 0xE5 JUMPI JUMPDEST PUSH1 0x0 DUP1 REVERT JUMPDEST CALLVALUE DUP1 ISZERO PUSH2 0x81 JUMPI PUSH1 0x0 DUP1 REVERT JUMPDEST POP PUSH1 0x0 SLOAD PUSH2 0x95 SWAP1 PUSH1 0x1 PUSH1 0x1 PUSH1 0xA0 SHL SUB AND DUP2 JUMP JUMPDEST PUSH1 0x40 MLOAD PUSH2 0xA2 SWAP2 SWAP1 PUSH2 0x4E4 JUMP JUMPDEST PUSH1 0x40 MLOAD DUP1 SWAP2 SUB SWAP1 RETURN JUMPDEST CALLVALUE DUP1 ISZERO PUSH2 0xB7 JUMPI PUSH1 0x0 DUP1 REVERT JUMPDEST POP PUSH2 0xD8 PUSH2 0xC6 CALLDATASIZE PUSH1 0x4 PUSH2 0x514 JUMP JUMPDEST PUSH1 0x3 PUSH1 0x20 MSTORE PUSH1 0x0 SWAP1 DUP2 MSTORE PUSH1 0x40 SWAP1 KECCAK256 SLOAD DUP2 JUMP JUMPDEST PUSH1 0x40 MLOAD PUSH2 0xA2 SWAP2 SWAP1 PUSH2 0x543 JUMP JUMPDEST CALLVALUE DUP1 ISZERO PUSH2 0xF1 JUMPI PUSH1 0x0 DUP1 REVERT JUMPDEST POP PUSH2 0x105 PUSH2 0x100 CALLDATASIZE PUSH1 0x4 PUSH2 0x514 JUMP JUMPDEST PUSH2 0x160 JUMP JUMPDEST STOP JUMPDEST PUSH2 0x105 PUSH2 0x1B5 JUMP JUMPDEST CALLVALUE DUP1 ISZERO PUSH2 0x11B JUMPI PUSH1 0x0 DUP1 REVERT JUMPDEST POP PUSH2 0x105 PUSH2 0x246 JUMP JUMPDEST CALLVALUE DUP1 ISZERO PUSH2 0x130 JUMPI PUSH1 0x0 DUP1 REVERT JUMPDEST POP PUSH2 0x95 PUSH2 0x13F CALLDATASIZE PUSH1 0x4 PUSH2 0x562 JUMP JUMPDEST PUSH2 0x365 JUMP JUMPDEST CALLVALUE DUP1 ISZERO PUSH2 0x150 JUMPI PUSH1 0x0 DUP1 REVERT JUMPDEST POP PUSH2 0xD8 PUSH8 0x1BC16D674EC80000 DUP2 JUMP JUMPDEST PUSH1 0x0 SLOAD PUSH1 0x1 PUSH1 0x1 PUSH1 0xA0 SHL SUB AND CALLER EQ PUSH2 0x193 JUMPI PUSH1 0x40 MLOAD PUSH3 0x461BCD PUSH1 0xE5 SHL DUP2 MSTORE PUSH1 0x4 ADD PUSH2 0x18A SWAP1 PUSH2 0x5B2 JUMP JUMPDEST PUSH1 0x40 MLOAD DUP1 SWAP2 SUB SWAP1 REVERT JUMPDEST PUSH1 0x0 DUP1 SLOAD PUSH1 0x1 PUSH1 0x1 PUSH1 0xA0 SHL SUB NOT AND PUSH1 0x1 PUSH1 0x1 PUSH1 0xA0 SHL SUB SWAP3 SWAP1 SWAP3 AND SWAP2 SWAP1 SWAP2 OR SWAP1 SSTORE JUMP JUMPDEST PUSH1 0x2 SLOAD PUSH8 0x1BC16D674EC80000 SWAP1 PUSH2 0x1D6 SWAP1 CALLVALUE SWAP1 PUSH1 0x1 PUSH1 0x1 PUSH1 0xA0 SHL SUB AND PUSH2 0x38F JUMP JUMPDEST LT ISZERO PUSH2 0x1F4 JUMPI PUSH1 0x40 MLOAD PUSH3 0x461BCD PUSH1 0xE5 SHL DUP2 MSTORE PUSH1 0x4 ADD PUSH2 0x18A SWAP1 PUSH2 0x5EA JUMP JUMPDEST CALLER PUSH1 0x0 DUP2 DUP2 MSTORE PUSH1 0x3 PUSH1 0x20 MSTORE PUSH1 0x40 DUP2 KECCAK256 CALLVALUE SWAP1 SSTORE PUSH1 0x1 DUP1 SLOAD DUP1 DUP3 ADD DUP3 SSTORE SWAP2 MSTORE PUSH32 0xB10E2D527612073B26EECDFD717E6A320CF44B4AFAC2B0732D9FCBE2B7FA0CF6 ADD DUP1 SLOAD PUSH1 0x1 PUSH1 0x1 PUSH1 0xA0 SHL SUB NOT AND SWAP1 SWAP2 OR SWAP1 SSTORE JUMP JUMPDEST PUSH1 0x0 SLOAD PUSH1 0x1 PUSH1 0x1 PUSH1 0xA0 SHL SUB AND CALLER EQ PUSH2 0x270 JUMPI PUSH1 0x40 MLOAD PUSH3 0x461BCD PUSH1 0xE5 SHL DUP2 MSTORE PUSH1 0x4 ADD PUSH2 0x18A SWAP1 PUSH2 0x5B2 JUMP JUMPDEST PUSH1 0x0 CALLER PUSH1 0x1 PUSH1 0x1 PUSH1 0xA0 SHL SUB AND SELFBALANCE PUSH1 0x40 MLOAD PUSH2 0x289 SWAP1 PUSH2 0x5FA JUMP JUMPDEST PUSH1 0x0 PUSH1 0x40 MLOAD DUP1 DUP4 SUB DUP2 DUP6 DUP8 GAS CALL SWAP3 POP POP POP RETURNDATASIZE DUP1 PUSH1 0x0 DUP2 EQ PUSH2 0x2C6 JUMPI PUSH1 0x40 MLOAD SWAP2 POP PUSH1 0x1F NOT PUSH1 0x3F RETURNDATASIZE ADD AND DUP3 ADD PUSH1 0x40 MSTORE RETURNDATASIZE DUP3 MSTORE RETURNDATASIZE PUSH1 0x0 PUSH1 0x20 DUP5 ADD RETURNDATACOPY PUSH2 0x2CB JUMP JUMPDEST PUSH1 0x60 SWAP2 POP JUMPDEST POP POP SWAP1 POP DUP1 PUSH2 0x2EC JUMPI PUSH1 0x40 MLOAD PUSH3 0x461BCD PUSH1 0xE5 SHL DUP2 MSTORE PUSH1 0x4 ADD PUSH2 0x18A SWAP1 PUSH2 0x624 JUMP JUMPDEST PUSH1 0x0 JUMPDEST PUSH1 0x1 SLOAD DUP2 LT ISZERO PUSH2 0x343 JUMPI PUSH1 0x0 PUSH1 0x1 DUP3 DUP2 SLOAD DUP2 LT PUSH2 0x30E JUMPI PUSH2 0x30E PUSH2 0x634 JUMP JUMPDEST PUSH1 0x0 SWAP2 DUP3 MSTORE PUSH1 0x20 DUP1 DUP4 KECCAK256 SWAP1 SWAP2 ADD SLOAD PUSH1 0x1 PUSH1 0x1 PUSH1 0xA0 SHL SUB AND DUP3 MSTORE PUSH1 0x3 SWAP1 MSTORE PUSH1 0x40 DUP2 KECCAK256 SSTORE POP DUP1 PUSH2 0x33B DUP2 PUSH2 0x660 JUMP JUMPDEST SWAP2 POP POP PUSH2 0x2EF JUMP JUMPDEST POP PUSH1 0x40 DUP1 MLOAD PUSH1 0x0 DUP2 MSTORE PUSH1 0x20 DUP2 ADD SWAP2 DUP3 SWAP1 MSTORE MLOAD PUSH2 0x361 SWAP2 PUSH1 0x1 SWAP2 PUSH2 0x44A JUMP JUMPDEST POP POP JUMP JUMPDEST PUSH1 0x1 DUP2 DUP2 SLOAD DUP2 LT PUSH2 0x375 JUMPI PUSH1 0x0 DUP1 REVERT JUMPDEST PUSH1 0x0 SWAP2 DUP3 MSTORE PUSH1 0x20 SWAP1 SWAP2 KECCAK256 ADD SLOAD PUSH1 0x1 PUSH1 0x1 PUSH1 0xA0 SHL SUB AND SWAP1 POP DUP2 JUMP JUMPDEST PUSH1 0x0 DUP1 PUSH2 0x39B DUP4 PUSH2 0x3C7 JUMP JUMPDEST SWAP1 POP PUSH1 0x0 PUSH8 0xDE0B6B3A7640000 PUSH2 0x3B2 DUP7 DUP5 PUSH2 0x67A JUMP JUMPDEST PUSH2 0x3BC SWAP2 SWAP1 PUSH2 0x6AF JUMP JUMPDEST SWAP3 POP POP POP JUMPDEST SWAP3 SWAP2 POP POP JUMP JUMPDEST PUSH1 0x0 DUP1 DUP3 PUSH1 0x1 PUSH1 0x1 PUSH1 0xA0 SHL SUB AND PUSH4 0xFEAF968C PUSH1 0x40 MLOAD DUP2 PUSH4 0xFFFFFFFF AND PUSH1 0xE0 SHL DUP2 MSTORE PUSH1 0x4 ADD PUSH1 0xA0 PUSH1 0x40 MLOAD DUP1 DUP4 SUB DUP2 DUP7 GAS STATICCALL ISZERO DUP1 ISZERO PUSH2 0x408 JUMPI RETURNDATASIZE PUSH1 0x0 DUP1 RETURNDATACOPY RETURNDATASIZE PUSH1 0x0 REVERT JUMPDEST POP POP POP POP PUSH1 0x40 MLOAD RETURNDATASIZE PUSH1 0x1F NOT PUSH1 0x1F DUP3 ADD AND DUP3 ADD DUP1 PUSH1 0x40 MSTORE POP DUP2 ADD SWAP1 PUSH2 0x42C SWAP2 SWAP1 PUSH2 0x6EB JUMP JUMPDEST POP POP POP SWAP2 POP POP DUP1 PUSH5 0x2540BE400 PUSH2 0x443 SWAP2 SWAP1 PUSH2 0x763 JUMP JUMPDEST SWAP4 SWAP3 POP POP POP JUMP JUMPDEST DUP3 DUP1 SLOAD DUP3 DUP3 SSTORE SWAP1 PUSH1 0x0 MSTORE PUSH1 0x20 PUSH1 0x0 KECCAK256 SWAP1 DUP2 ADD SWAP3 DUP3 ISZERO PUSH2 0x49F JUMPI SWAP2 PUSH1 0x20 MUL DUP3 ADD JUMPDEST DUP3 DUP2 GT ISZERO PUSH2 0x49F JUMPI DUP3 MLOAD DUP3 SLOAD PUSH1 0x1 PUSH1 0x1 PUSH1 0xA0 SHL SUB NOT AND PUSH1 0x1 PUSH1 0x1 PUSH1 0xA0 SHL SUB SWAP1 SWAP2 AND OR DUP3 SSTORE PUSH1 0x20 SWAP1 SWAP3 ADD SWAP2 PUSH1 0x1 SWAP1 SWAP2 ADD SWAP1 PUSH2 0x46A JUMP JUMPDEST POP PUSH2 0x4AB SWAP3 SWAP2 POP PUSH2 0x4AF JUMP JUMPDEST POP SWAP1 JUMP JUMPDEST JUMPDEST DUP1 DUP3 GT ISZERO PUSH2 0x4AB JUMPI PUSH1 0x0 DUP2 SSTORE PUSH1 0x1 ADD PUSH2 0x4B0 JUMP JUMPDEST PUSH1 0x0 PUSH1 0x1 PUSH1 0x1 PUSH1 0xA0 SHL SUB DUP3 AND PUSH2 0x3C1 JUMP JUMPDEST PUSH2 0x4DE DUP2 PUSH2 0x4C4 JUMP JUMPDEST DUP3 MSTORE POP POP JUMP JUMPDEST PUSH1 0x20 DUP2 ADD PUSH2 0x3C1 DUP3 DUP5 PUSH2 0x4D5 JUMP JUMPDEST PUSH2 0x4FB DUP2 PUSH2 0x4C4 JUMP JUMPDEST DUP2 EQ PUSH2 0x506 JUMPI PUSH1 0x0 DUP1 REVERT JUMPDEST POP JUMP JUMPDEST DUP1 CALLDATALOAD PUSH2 0x3C1 DUP2 PUSH2 0x4F2 JUMP JUMPDEST PUSH1 0x0 PUSH1 0x20 DUP3 DUP5 SUB SLT ISZERO PUSH2 0x529 JUMPI PUSH2 0x529 PUSH1 0x0 DUP1 REVERT JUMPDEST PUSH1 0x0 PUSH2 0x535 DUP5 DUP5 PUSH2 0x509 JUMP JUMPDEST SWAP5 SWAP4 POP POP POP POP JUMP JUMPDEST DUP1 PUSH2 0x4DE JUMP JUMPDEST PUSH1 0x20 DUP2 ADD PUSH2 0x3C1 DUP3 DUP5 PUSH2 0x53D JUMP JUMPDEST DUP1 PUSH2 0x4FB JUMP JUMPDEST DUP1 CALLDATALOAD PUSH2 0x3C1 DUP2 PUSH2 0x551 JUMP JUMPDEST PUSH1 0x0 PUSH1 0x20 DUP3 DUP5 SUB SLT ISZERO PUSH2 0x577 JUMPI PUSH2 0x577 PUSH1 0x0 DUP1 REVERT JUMPDEST PUSH1 0x0 PUSH2 0x535 DUP5 DUP5 PUSH2 0x557 JUMP JUMPDEST PUSH1 0x15 DUP2 MSTORE PUSH1 0x0 PUSH1 0x20 DUP3 ADD PUSH21 0x2CB7BA9030B932903737BA103A34329037BBB732B9 PUSH1 0x59 SHL DUP2 MSTORE SWAP2 POP JUMPDEST POP PUSH1 0x20 ADD SWAP1 JUMP JUMPDEST PUSH1 0x20 DUP1 DUP3 MSTORE DUP2 ADD PUSH2 0x3C1 DUP2 PUSH2 0x583 JUMP JUMPDEST PUSH1 0x11 DUP2 MSTORE PUSH1 0x0 PUSH1 0x20 DUP3 ADD PUSH17 0x135BDC9948115512081C995C5D5A5C9959 PUSH1 0x7A SHL DUP2 MSTORE SWAP2 POP PUSH2 0x5AB JUMP JUMPDEST PUSH1 0x20 DUP1 DUP3 MSTORE DUP2 ADD PUSH2 0x3C1 DUP2 PUSH2 0x5C2 JUMP JUMPDEST PUSH1 0x0 DUP2 PUSH2 0x3C1 JUMP JUMPDEST PUSH1 0xB DUP2 MSTORE PUSH1 0x0 PUSH1 0x20 DUP3 ADD PUSH11 0x14D95B990819985A5B1959 PUSH1 0xAA SHL DUP2 MSTORE SWAP2 POP PUSH2 0x5AB JUMP JUMPDEST PUSH1 0x20 DUP1 DUP3 MSTORE DUP2 ADD PUSH2 0x3C1 DUP2 PUSH2 0x602 JUMP JUMPDEST PUSH4 0x4E487B71 PUSH1 0xE0 SHL PUSH1 0x0 MSTORE PUSH1 0x32 PUSH1 0x4 MSTORE PUSH1 0x24 PUSH1 0x0 REVERT JUMPDEST PUSH4 0x4E487B71 PUSH1 0xE0 SHL PUSH1 0x0 MSTORE PUSH1 0x11 PUSH1 0x4 MSTORE PUSH1 0x24 PUSH1 0x0 REVERT JUMPDEST PUSH1 0x0 PUSH1 0x0 NOT DUP3 SUB PUSH2 0x673 JUMPI PUSH2 0x673 PUSH2 0x64A JUMP JUMPDEST POP PUSH1 0x1 ADD SWAP1 JUMP JUMPDEST DUP2 DUP2 MUL DUP1 DUP3 ISZERO DUP4 DUP3 DIV DUP6 EQ OR PUSH2 0x692 JUMPI PUSH2 0x692 PUSH2 0x64A JUMP JUMPDEST POP SWAP3 SWAP2 POP POP JUMP JUMPDEST PUSH4 0x4E487B71 PUSH1 0xE0 SHL PUSH1 0x0 MSTORE PUSH1 0x12 PUSH1 0x4 MSTORE PUSH1 0x24 PUSH1 0x0 REVERT JUMPDEST PUSH1 0x0 DUP3 PUSH2 0x6BE JUMPI PUSH2 0x6BE PUSH2 0x699 JUMP JUMPDEST POP DIV SWAP1 JUMP JUMPDEST PUSH10 0xFFFFFFFFFFFFFFFFFFFF DUP2 AND PUSH2 0x4FB JUMP JUMPDEST DUP1 MLOAD PUSH2 0x3C1 DUP2 PUSH2 0x6C3 JUMP JUMPDEST DUP1 MLOAD PUSH2 0x3C1 DUP2 PUSH2 0x551 JUMP JUMPDEST PUSH1 0x0 DUP1 PUSH1 0x0 DUP1 PUSH1 0x0 PUSH1 0xA0 DUP7 DUP9 SUB SLT ISZERO PUSH2 0x706 JUMPI PUSH2 0x706 PUSH1 0x0 DUP1 REVERT JUMPDEST PUSH1 0x0 PUSH2 0x712 DUP9 DUP9 PUSH2 0x6D5 JUMP JUMPDEST SWAP6 POP POP PUSH1 0x20 PUSH2 0x723 DUP9 DUP3 DUP10 ADD PUSH2 0x6E0 JUMP JUMPDEST SWAP5 POP POP PUSH1 0x40 PUSH2 0x734 DUP9 DUP3 DUP10 ADD PUSH2 0x6E0 JUMP JUMPDEST SWAP4 POP POP PUSH1 0x60 PUSH2 0x745 DUP9 DUP3 DUP10 ADD PUSH2 0x6E0 JUMP JUMPDEST SWAP3 POP POP PUSH1 0x80 PUSH2 0x756 DUP9 DUP3 DUP10 ADD PUSH2 0x6D5 JUMP JUMPDEST SWAP2 POP POP SWAP3 SWAP6 POP SWAP3 SWAP6 SWAP1 SWAP4 POP JUMP JUMPDEST DUP2 DUP2 MUL DUP1 PUSH1 0x0 DUP4 SLT PUSH1 0x1 PUSH1 0xFF SHL DUP6 EQ AND ISZERO PUSH2 0x780 JUMPI PUSH2 0x780 PUSH2 0x64A JUMP JUMPDEST DUP3 DUP3 SDIV DUP5 EQ DUP4 ISZERO OR PUSH2 0x692 JUMPI PUSH2 0x692 PUSH2 0x64A JUMP INVALID LOG2 PUSH5 0x6970667358 0x22 SLT KECCAK256 KECCAK256 SWAP9 SELFBALANCE 0xBC 0xB5 JUMPI REVERT 0xF BLOCKHASH PUSH26 0x25C60E084F048E924AC275F57F3AE2497993A308969064736F6C PUSH4 0x43000811 STOP CALLER "},"methodIdentifiers":{"changeOwner(address)":"a6f9dae1","fund()":"b60d4288","funderToAmo(address)":"9d9ef3e7","funders(uint256)":"dc0d3dff","minUSD()":"dc992aa0","owner()":"8da5cb5b","wdraw()":"ccadfaf2"}}}}}