{
  "_format": "hh-sol-artifact-1",
  "contractName": "FundMe",
  "sourceName": "contracts/fundMe.sol",
  "abi": [
    {
      "inputs": [],
      "stateMutability": "nonpayable",
      "type": "constructor"
    },
    {
      "inputs": [
        {
          "internalType": "address",
          "name": "",
          "type": "address"
        }
      ],
      "name": "addrToAmo",
      "outputs": [
        {
          "internalType": "uint256",
          "name": "",
          "type": "uint256"
        }
      ],
      "stateMutability": "view",
      "type": "function"
    },
    {
      "inputs": [],
      "name": "fund",
      "outputs": [],
      "stateMutability": "payable",
      "type": "function"
    },
    {
      "inputs": [
        {
          "internalType": "uint256",
          "name": "",
          "type": "uint256"
        }
      ],
      "name": "funders",
      "outputs": [
        {
          "internalType": "address",
          "name": "",
          "type": "address"
        }
      ],
      "stateMutability": "view",
      "type": "function"
    },
    {
      "inputs": [],
      "name": "getPrice",
      "outputs": [
        {
          "internalType": "uint256",
          "name": "",
          "type": "uint256"
        }
      ],
      "stateMutability": "view",
      "type": "function"
    },
    {
      "inputs": [
        {
          "internalType": "uint256",
          "name": "_ethAmo",
          "type": "uint256"
        }
      ],
      "name": "getRate",
      "outputs": [
        {
          "internalType": "uint256",
          "name": "",
          "type": "uint256"
        }
      ],
      "stateMutability": "view",
      "type": "function"
    },
    {
      "inputs": [],
      "name": "getVer",
      "outputs": [
        {
          "internalType": "uint256",
          "name": "",
          "type": "uint256"
        }
      ],
      "stateMutability": "view",
      "type": "function"
    },
    {
      "inputs": [],
      "name": "owner",
      "outputs": [
        {
          "internalType": "address",
          "name": "",
          "type": "address"
        }
      ],
      "stateMutability": "view",
      "type": "function"
    },
    {
      "inputs": [],
      "name": "wdraw",
      "outputs": [],
      "stateMutability": "payable",
      "type": "function"
    }
  ],
  "bytecode": "0x608060405234801561001057600080fd5b5033600260006101000a81548173ffffffffffffffffffffffffffffffffffffffff021916908373ffffffffffffffffffffffffffffffffffffffff16021790555061086c806100616000396000f3fe60806040526004361061007b5760003560e01c806398d5fdca1161004e57806398d5fdca146101b6578063b60d4288146101e1578063ccadfaf2146101eb578063dc0d3dff146101f55761007b565b806356ecd1131461008057806357764094146100e55780638793ad55146101345780638da5cb5b1461015f575b600080fd5b34801561008c57600080fd5b506100cf600480360360208110156100a357600080fd5b81019080803573ffffffffffffffffffffffffffffffffffffffff169060200190929190505050610270565b6040518082815260200191505060405180910390f35b3480156100f157600080fd5b5061011e6004803603602081101561010857600080fd5b8101908080359060200190929190505050610288565b6040518082815260200191505060405180910390f35b34801561014057600080fd5b506101496102b3565b6040518082815260200191505060405180910390f35b34801561016b57600080fd5b50610174610354565b604051808273ffffffffffffffffffffffffffffffffffffffff1673ffffffffffffffffffffffffffffffffffffffff16815260200191505060405180910390f35b3480156101c257600080fd5b506101cb61037a565b6040518082815260200191505060405180910390f35b6101e961044d565b005b6101f361058a565b005b34801561020157600080fd5b5061022e6004803603602081101561021857600080fd5b810190808035906020019092919050505061072d565b604051808273ffffffffffffffffffffffffffffffffffffffff1673ffffffffffffffffffffffffffffffffffffffff16815260200191505060405180910390f35b60006020528060005260406000206000915090505481565b60008061029361037a565b905060006305f5e100848302816102a657fe5b0490508092505050919050565b600080738a753747a1fa494ec906ce90e9f37563a8af630e90508073ffffffffffffffffffffffffffffffffffffffff166354fd4d506040518163ffffffff1660e01b815260040160206040518083038186803b15801561031357600080fd5b505afa158015610327573d6000803e3d6000fd5b505050506040513d602081101561033d57600080fd5b810190808051906020019092919050505091505090565b600260009054906101000a900473ffffffffffffffffffffffffffffffffffffffff1681565b600080738a753747a1fa494ec906ce90e9f37563a8af630e905060008173ffffffffffffffffffffffffffffffffffffffff1663feaf968c6040518163ffffffff1660e01b815260040160a06040518083038186803b1580156103dc57600080fd5b505afa1580156103f0573d6000803e3d6000fd5b505050506040513d60a081101561040657600080fd5b810190808051906020019092919080519060200190929190805190602001909291908051906020019092919080519060200190929190505050505050915050809250505090565b6000674563918244f4000090508061046434610288565b10156104d8576040517f08c379a00000000000000000000000000000000000000000000000000000000081526004018080602001828103825260118152602001807f4d6f72652045544820726571756972656400000000000000000000000000000081525060200191505060405180910390fd5b346000803373ffffffffffffffffffffffffffffffffffffffff1673ffffffffffffffffffffffffffffffffffffffff168152602001908152602001600020600082825401925050819055506001339080600181540180825580915050600190039060005260206000200160009091909190916101000a81548173ffffffffffffffffffffffffffffffffffffffff021916908373ffffffffffffffffffffffffffffffffffffffff16021790555050565b600260009054906101000a900473ffffffffffffffffffffffffffffffffffffffff1673ffffffffffffffffffffffffffffffffffffffff163373ffffffffffffffffffffffffffffffffffffffff16146105e457600080fd5b3373ffffffffffffffffffffffffffffffffffffffff166108fc479081150290604051600060405180830381858888f1935050505015801561062a573d6000803e3d6000fd5b5060008090505b6001805490508110156106cc5760006001828154811061064d57fe5b9060005260206000200160009054906101000a900473ffffffffffffffffffffffffffffffffffffffff16905060008060008373ffffffffffffffffffffffffffffffffffffffff1673ffffffffffffffffffffffffffffffffffffffff16815260200190815260200160002081905550508080600101915050610631565b50600067ffffffffffffffff811180156106e557600080fd5b506040519080825280602002602001820160405280156107145781602001602082028036833780820191505090505b506001908051906020019061072a929190610769565b50565b6001818154811061073a57fe5b906000526020600020016000915054906101000a900473ffffffffffffffffffffffffffffffffffffffff1681565b8280548282559060005260206000209081019282156107e2579160200282015b828111156107e15782518260006101000a81548173ffffffffffffffffffffffffffffffffffffffff021916908373ffffffffffffffffffffffffffffffffffffffff16021790555091602001919060010190610789565b5b5090506107ef91906107f3565b5090565b61083391905b8082111561082f57600081816101000a81549073ffffffffffffffffffffffffffffffffffffffff0219169055506001016107f9565b5090565b9056fea2646970667358221220ada6af33725a38ad78dc8a60e7daa3264e0f23e0b91e925bdde79ef5e46a7b8c64736f6c63430006060033",
  "linkReferences": {},
  "deployedLinkReferences": {}
}