{
  "_format": "hh-sol-artifact-1",
  "contractName": "FundMe",
  "sourceName": "contracts/fundMe.sol",
  "abi": [
    {
      "inputs": [
        {
          "internalType": "address",
          "name": "_priceFeedAddress",
          "type": "address"
        }
      ],
      "stateMutability": "nonpayable",
      "type": "constructor"
    },
    {
      "inputs": [
        {
          "internalType": "address",
          "name": "_newOwner",
          "type": "address"
        }
      ],
      "name": "changeOwner",
      "outputs": [],
      "stateMutability": "nonpayable",
      "type": "function"
    },
    {
      "inputs": [],
      "name": "fund",
      "outputs": [],
      "stateMutability": "payable",
      "type": "function"
    },
    {
      "inputs": [
        {
          "internalType": "address",
          "name": "",
          "type": "address"
        }
      ],
      "name": "funderToAmo",
      "outputs": [
        {
          "internalType": "uint256",
          "name": "",
          "type": "uint256"
        }
      ],
      "stateMutability": "view",
      "type": "function"
    },
    {
      "inputs": [
        {
          "internalType": "uint256",
          "name": "",
          "type": "uint256"
        }
      ],
      "name": "funders",
      "outputs": [
        {
          "internalType": "address",
          "name": "",
          "type": "address"
        }
      ],
      "stateMutability": "view",
      "type": "function"
    },
    {
      "inputs": [],
      "name": "minUSD",
      "outputs": [
        {
          "internalType": "uint256",
          "name": "",
          "type": "uint256"
        }
      ],
      "stateMutability": "view",
      "type": "function"
    },
    {
      "inputs": [],
      "name": "owner",
      "outputs": [
        {
          "internalType": "address",
          "name": "",
          "type": "address"
        }
      ],
      "stateMutability": "view",
      "type": "function"
    },
    {
      "inputs": [],
      "name": "wdraw",
      "outputs": [],
      "stateMutability": "nonpayable",
      "type": "function"
    }
  ],
  "bytecode": "0x608060405234801561001057600080fd5b5060405161089938038061089983398101604081905261002f91610097565b60008054336001600160a01b031991821617909155600280549091166001600160a01b03929092169190911790556100c0565b60006001600160a01b0382165b92915050565b61007e81610062565b811461008957600080fd5b50565b805161006f81610075565b6000602082840312156100ac576100ac600080fd5b60006100b8848461008c565b949350505050565b6107ca806100cf6000396000f3fe6080604052600436106100705760003560e01c8063b60d42881161004e578063b60d428814610107578063ccadfaf21461010f578063dc0d3dff14610124578063dc992aa01461014457600080fd5b80638da5cb5b146100755780639d9ef3e7146100ab578063a6f9dae1146100e5575b600080fd5b34801561008157600080fd5b50600054610095906001600160a01b031681565b6040516100a291906104e4565b60405180910390f35b3480156100b757600080fd5b506100d86100c6366004610514565b60036020526000908152604090205481565b6040516100a29190610543565b3480156100f157600080fd5b50610105610100366004610514565b610160565b005b6101056101b5565b34801561011b57600080fd5b50610105610246565b34801561013057600080fd5b5061009561013f366004610562565b610365565b34801561015057600080fd5b506100d8671bc16d674ec8000081565b6000546001600160a01b031633146101935760405162461bcd60e51b815260040161018a906105b2565b60405180910390fd5b600080546001600160a01b0319166001600160a01b0392909216919091179055565b600254671bc16d674ec80000906101d69034906001600160a01b031661038f565b10156101f45760405162461bcd60e51b815260040161018a906105ea565b33600081815260036020526040812034905560018054808201825591527fb10e2d527612073b26eecdfd717e6a320cf44b4afac2b0732d9fcbe2b7fa0cf60180546001600160a01b0319169091179055565b6000546001600160a01b031633146102705760405162461bcd60e51b815260040161018a906105b2565b6000336001600160a01b031647604051610289906105fa565b60006040518083038185875af1925050503d80600081146102c6576040519150601f19603f3d011682016040523d82523d6000602084013e6102cb565b606091505b50509050806102ec5760405162461bcd60e51b815260040161018a90610624565b60005b6001548110156103435760006001828154811061030e5761030e610634565b60009182526020808320909101546001600160a01b03168252600390526040812055508061033b81610660565b9150506102ef565b5060408051600081526020810191829052516103619160019161044a565b5050565b6001818154811061037557600080fd5b6000918252602090912001546001600160a01b0316905081565b60008061039b836103c7565b90506000670de0b6b3a76400006103b2868461067a565b6103bc91906106af565b925050505b92915050565b600080826001600160a01b031663feaf968c6040518163ffffffff1660e01b815260040160a060405180830381865afa158015610408573d6000803e3d6000fd5b505050506040513d601f19601f8201168201806040525081019061042c91906106eb565b505050915050806402540be4006104439190610763565b9392505050565b82805482825590600052602060002090810192821561049f579160200282015b8281111561049f57825182546001600160a01b0319166001600160a01b0390911617825560209092019160019091019061046a565b506104ab9291506104af565b5090565b5b808211156104ab57600081556001016104b0565b60006001600160a01b0382166103c1565b6104de816104c4565b82525050565b602081016103c182846104d5565b6104fb816104c4565b811461050657600080fd5b50565b80356103c1816104f2565b60006020828403121561052957610529600080fd5b60006105358484610509565b949350505050565b806104de565b602081016103c1828461053d565b806104fb565b80356103c181610551565b60006020828403121561057757610577600080fd5b60006105358484610557565b60158152600060208201742cb7ba9030b932903737ba103a34329037bbb732b960591b815291505b5060200190565b602080825281016103c181610583565b6011815260006020820170135bdc9948115512081c995c5d5a5c9959607a1b815291506105ab565b602080825281016103c1816105c2565b6000816103c1565b600b81526000602082016a14d95b990819985a5b195960aa1b815291506105ab565b602080825281016103c181610602565b634e487b7160e01b600052603260045260246000fd5b634e487b7160e01b600052601160045260246000fd5b600060001982036106735761067361064a565b5060010190565b8181028082158382048514176106925761069261064a565b5092915050565b634e487b7160e01b600052601260045260246000fd5b6000826106be576106be610699565b500490565b69ffffffffffffffffffff81166104fb565b80516103c1816106c3565b80516103c181610551565b600080600080600060a0868803121561070657610706600080fd5b600061071288886106d5565b9550506020610723888289016106e0565b9450506040610734888289016106e0565b9350506060610745888289016106e0565b9250506080610756888289016106d5565b9150509295509295909350565b8181028060008312600160ff1b851416156107805761078061064a565b82820584148315176106925761069261064a56fea2646970667358221220209847bcb557fd0f407925c60e084f048e924ac275f57f3ae2497993a308969064736f6c63430008110033",
  "linkReferences": {},
  "deployedLinkReferences": {}
}