{
  "_format": "hh-sol-artifact-1",
  "contractName": "FundMe",
  "sourceName": "contracts/fundMe.sol",
  "abi": [
    {
      "inputs": [
        {
          "internalType": "address",
          "name": "_priceFeedAddress",
          "type": "address"
        }
      ],
      "stateMutability": "nonpayable",
      "type": "constructor"
    },
    {
      "inputs": [],
      "name": "fundMe_notOwner",
      "type": "error"
    },
    {
      "stateMutability": "payable",
      "type": "fallback"
    },
    {
      "inputs": [],
      "name": "MINUSD",
      "outputs": [
        {
          "internalType": "uint256",
          "name": "",
          "type": "uint256"
        }
      ],
      "stateMutability": "view",
      "type": "function"
    },
    {
      "inputs": [
        {
          "internalType": "address",
          "name": "_newOwner",
          "type": "address"
        }
      ],
      "name": "changeOwner",
      "outputs": [],
      "stateMutability": "nonpayable",
      "type": "function"
    },
    {
      "inputs": [],
      "name": "fund",
      "outputs": [],
      "stateMutability": "payable",
      "type": "function"
    },
    {
      "inputs": [
        {
          "internalType": "address",
          "name": "",
          "type": "address"
        }
      ],
      "name": "funderToAmo",
      "outputs": [
        {
          "internalType": "uint256",
          "name": "",
          "type": "uint256"
        }
      ],
      "stateMutability": "view",
      "type": "function"
    },
    {
      "inputs": [
        {
          "internalType": "uint256",
          "name": "",
          "type": "uint256"
        }
      ],
      "name": "funders",
      "outputs": [
        {
          "internalType": "address",
          "name": "",
          "type": "address"
        }
      ],
      "stateMutability": "view",
      "type": "function"
    },
    {
      "inputs": [],
      "name": "owner",
      "outputs": [
        {
          "internalType": "address",
          "name": "",
          "type": "address"
        }
      ],
      "stateMutability": "view",
      "type": "function"
    },
    {
      "inputs": [],
      "name": "priceFeed",
      "outputs": [
        {
          "internalType": "contract AggregatorV3Interface",
          "name": "",
          "type": "address"
        }
      ],
      "stateMutability": "view",
      "type": "function"
    },
    {
      "inputs": [],
      "name": "wdraw",
      "outputs": [],
      "stateMutability": "nonpayable",
      "type": "function"
    },
    {
      "stateMutability": "payable",
      "type": "receive"
    }
  ],
  "bytecode": "0x608060405234801561001057600080fd5b506040516108cc3803806108cc83398101604081905261002f91610097565b60008054336001600160a01b031991821617909155600280549091166001600160a01b03929092169190911790556100c0565b60006001600160a01b0382165b92915050565b61007e81610062565b811461008957600080fd5b50565b805161006f81610075565b6000602082840312156100ac576100ac600080fd5b60006100b8848461008c565b949350505050565b6107fd806100cf6000396000f3fe60806040526004361061007f5760003560e01c8063a6f9dae11161004e578063a6f9dae11461014f578063b60d42881461008e578063ccadfaf21461016f578063dc0d3dff146101845761008e565b80634dc9361614610096578063741bef1a146100c85780638da5cb5b146100f55780639d9ef3e7146101225761008e565b3661008e5761008c6101a4565b005b61008c6101a4565b3480156100a257600080fd5b506100b2671bc16d674ec8000081565b6040516100bf9190610512565b60405180910390f35b3480156100d457600080fd5b506002546100e8906001600160a01b031681565b6040516100bf9190610550565b34801561010157600080fd5b50600054610115906001600160a01b031681565b6040516100bf9190610567565b34801561012e57600080fd5b506100b261013d366004610597565b60036020526000908152604090205481565b34801561015b57600080fd5b5061008c61016a366004610597565b61023e565b34801561017b57600080fd5b5061008c61028b565b34801561019057600080fd5b5061011561019f3660046105d1565b6103ab565b600254671bc16d674ec80000906101c59034906001600160a01b03166103d5565b10156101ec5760405162461bcd60e51b81526004016101e39061061d565b60405180910390fd5b33600081815260036020526040812034905560018054808201825591527fb10e2d527612073b26eecdfd717e6a320cf44b4afac2b0732d9fcbe2b7fa0cf60180546001600160a01b0319169091179055565b6000546001600160a01b0316331461026957604051637865a61b60e11b815260040160405180910390fd5b600080546001600160a01b0319166001600160a01b0392909216919091179055565b6000546001600160a01b031633146102b657604051637865a61b60e11b815260040160405180910390fd5b6000336001600160a01b0316476040516102cf9061062d565b60006040518083038185875af1925050503d806000811461030c576040519150601f19603f3d011682016040523d82523d6000602084013e610311565b606091505b50509050806103325760405162461bcd60e51b81526004016101e390610657565b60005b6001548110156103895760006001828154811061035457610354610667565b60009182526020808320909101546001600160a01b03168252600390526040812055508061038181610693565b915050610335565b5060408051600081526020810191829052516103a791600191610490565b5050565b600181815481106103bb57600080fd5b6000918252602090912001546001600160a01b0316905081565b6000806103e18361040d565b90506000670de0b6b3a76400006103f886846106ad565b61040291906106e2565b925050505b92915050565b600080826001600160a01b031663feaf968c6040518163ffffffff1660e01b815260040160a060405180830381865afa15801561044e573d6000803e3d6000fd5b505050506040513d601f19601f82011682018060405250810190610472919061071e565b505050915050806402540be4006104899190610796565b9392505050565b8280548282559060005260206000209081019282156104e5579160200282015b828111156104e557825182546001600160a01b0319166001600160a01b039091161782556020909201916001909101906104b0565b506104f19291506104f5565b5090565b5b808211156104f157600081556001016104f6565b805b82525050565b60208101610407828461050a565b60006001600160a01b038216610407565b600061040782610520565b600061040782610531565b61050c8161053c565b602081016104078284610547565b61050c81610520565b60208101610407828461055e565b61057e81610520565b811461058957600080fd5b50565b803561040781610575565b6000602082840312156105ac576105ac600080fd5b60006105b8848461058c565b949350505050565b8061057e565b8035610407816105c0565b6000602082840312156105e6576105e6600080fd5b60006105b884846105c6565b6011815260006020820170135bdc9948115512081c995c5d5a5c9959607a1b815291505b5060200190565b60208082528101610407816105f2565b600081610407565b600b81526000602082016a14d95b990819985a5b195960aa1b81529150610616565b6020808252810161040781610635565b634e487b7160e01b600052603260045260246000fd5b634e487b7160e01b600052601160045260246000fd5b600060001982036106a6576106a661067d565b5060010190565b8181028082158382048514176106c5576106c561067d565b5092915050565b634e487b7160e01b600052601260045260246000fd5b6000826106f1576106f16106cc565b500490565b69ffffffffffffffffffff811661057e565b8051610407816106f6565b8051610407816105c0565b600080600080600060a0868803121561073957610739600080fd5b60006107458888610708565b955050602061075688828901610713565b945050604061076788828901610713565b935050606061077888828901610713565b925050608061078988828901610708565b9150509295509295909350565b8181028060008312600160ff1b851416156107b3576107b361067d565b82820584148315176106c5576106c561067d56fea2646970667358221220f24f36f5001dde232b922cb481f47a6d158da9845fa8acb6ab9095a1896f0f5e64736f6c63430008110033",
  "linkReferences": {},
  "deployedLinkReferences": {}
}