{
  "address": "0xc7eDF132912152cA20009Ccb406769616662e2A9",
  "abi": [
    {
      "inputs": [
        {
          "internalType": "address",
          "name": "_priceFeedAddress",
          "type": "address"
        }
      ],
      "stateMutability": "nonpayable",
      "type": "constructor"
    },
    {
      "inputs": [],
      "name": "FundMe__NotOwner",
      "type": "error"
    },
    {
      "stateMutability": "payable",
      "type": "fallback"
    },
    {
      "inputs": [],
      "name": "MINUSD",
      "outputs": [
        {
          "internalType": "uint256",
          "name": "",
          "type": "uint256"
        }
      ],
      "stateMutability": "view",
      "type": "function"
    },
    {
      "inputs": [
        {
          "internalType": "address",
          "name": "_newOwner",
          "type": "address"
        }
      ],
      "name": "changeOwner",
      "outputs": [],
      "stateMutability": "nonpayable",
      "type": "function"
    },
    {
      "inputs": [],
      "name": "fund",
      "outputs": [],
      "stateMutability": "payable",
      "type": "function"
    },
    {
      "inputs": [
        {
          "internalType": "address",
          "name": "_funder",
          "type": "address"
        }
      ],
      "name": "getFunderToAmo",
      "outputs": [
        {
          "internalType": "uint256",
          "name": "",
          "type": "uint256"
        }
      ],
      "stateMutability": "view",
      "type": "function"
    },
    {
      "inputs": [
        {
          "internalType": "uint256",
          "name": "idx",
          "type": "uint256"
        }
      ],
      "name": "getFunders",
      "outputs": [
        {
          "internalType": "address",
          "name": "",
          "type": "address"
        }
      ],
      "stateMutability": "view",
      "type": "function"
    },
    {
      "inputs": [],
      "name": "getOwner",
      "outputs": [
        {
          "internalType": "address",
          "name": "",
          "type": "address"
        }
      ],
      "stateMutability": "view",
      "type": "function"
    },
    {
      "inputs": [],
      "name": "getPriceFeed",
      "outputs": [
        {
          "internalType": "contract AggregatorV3Interface",
          "name": "",
          "type": "address"
        }
      ],
      "stateMutability": "view",
      "type": "function"
    },
    {
      "inputs": [],
      "name": "wdraw",
      "outputs": [],
      "stateMutability": "nonpayable",
      "type": "function"
    },
    {
      "stateMutability": "payable",
      "type": "receive"
    }
  ],
  "transactionHash": "0x5cf1975210b20192a44b90912f6ad55024de7fc100915f1786227e95b7fbb8f1",
  "args": [
    "0xE2B5Dd2C516860cB7e9a16dB6613578C142c1669"
  ],
  "numDeployments": 1,
  "solcInputHash": "c6bca96de89e33fc8cdc9652895a7315",
  "bytecode": "0x608060405234801561001057600080fd5b5060405161093238038061093283398101604081905261002f91610097565b60008054336001600160a01b031991821617909155600280549091166001600160a01b03929092169190911790556100c0565b60006001600160a01b0382165b92915050565b61007e81610062565b811461008957600080fd5b50565b805161006f81610075565b6000602082840312156100ac576100ac600080fd5b60006100b8848461008c565b949350505050565b610863806100cf6000396000f3fe60806040526004361061007f5760003560e01c8063a6f9dae11161004e578063a6f9dae114610139578063b60d42881461008e578063bcc57b0d14610159578063ccadfaf21461018f5761008e565b80633a7b6c74146100965780634dc93616146100cc578063893d20e8146100f55780639e87a5cd146101135761008e565b3661008e5761008c6101a4565b005b61008c6101a4565b3480156100a257600080fd5b506100b66100b136600461058b565b61023e565b6040516100c391906105d4565b60405180910390f35b3480156100d857600080fd5b506100e8671bc16d674ec8000081565b6040516100c391906105e8565b34801561010157600080fd5b506000546001600160a01b03166100b6565b34801561011f57600080fd5b506002546001600160a01b03166040516100c39190610615565b34801561014557600080fd5b5061008c610154366004610637565b61026e565b34801561016557600080fd5b506100e8610174366004610637565b6001600160a01b031660009081526003602052604090205490565b34801561019b57600080fd5b5061008c6102bb565b600254671bc16d674ec80000906101c59034906001600160a01b031661043b565b10156101ec5760405162461bcd60e51b81526004016101e390610683565b60405180910390fd5b33600081815260036020526040812034905560018054808201825591527fb10e2d527612073b26eecdfd717e6a320cf44b4afac2b0732d9fcbe2b7fa0cf60180546001600160a01b0319169091179055565b60006001828154811061025357610253610693565b6000918252602090912001546001600160a01b031692915050565b6000546001600160a01b031633146102995760405163579610db60e01b815260040160405180910390fd5b600080546001600160a01b0319166001600160a01b0392909216919091179055565b6000546001600160a01b031633146102e65760405163579610db60e01b815260040160405180910390fd5b6000336001600160a01b0316476040516102ff906106a9565b60006040518083038185875af1925050503d806000811461033c576040519150601f19603f3d011682016040523d82523d6000602084013e610341565b606091505b50509050806103625760405162461bcd60e51b81526004016101e3906106d3565b600060018054806020026020016040519081016040528092919081815260200182805480156103ba57602002820191906000526020600020905b81546001600160a01b0316815260019091019060200180831161039c575b5050505050905060005b81518110156104185760008282815181106103e1576103e1610693565b6020908102919091018101516001600160a01b03166000908152600390915260408120555080610410816106f9565b9150506103c4565b506040805160008152602081019182905251610436916001916104f6565b505050565b60008061044783610473565b90506000670de0b6b3a764000061045e8684610713565b6104689190610748565b925050505b92915050565b600080826001600160a01b031663feaf968c6040518163ffffffff1660e01b815260040160a060405180830381865afa1580156104b4573d6000803e3d6000fd5b505050506040513d601f19601f820116820180604052508101906104d89190610784565b505050915050806402540be4006104ef91906107fc565b9392505050565b82805482825590600052602060002090810192821561054b579160200282015b8281111561054b57825182546001600160a01b0319166001600160a01b03909116178255602090920191600190910190610516565b5061055792915061055b565b5090565b5b80821115610557576000815560010161055c565b805b811461057d57600080fd5b50565b803561046d81610570565b6000602082840312156105a0576105a0600080fd5b60006105ac8484610580565b949350505050565b60006001600160a01b03821661046d565b6105ce816105b4565b82525050565b6020810161046d82846105c5565b806105ce565b6020810161046d82846105e2565b600061046d826105b4565b600061046d826105f6565b6105ce81610601565b6020810161046d828461060c565b610572816105b4565b803561046d81610623565b60006020828403121561064c5761064c600080fd5b60006105ac848461062c565b6011815260006020820170135bdc9948115512081c995c5d5a5c9959607a1b815291505b5060200190565b6020808252810161046d81610658565b634e487b7160e01b600052603260045260246000fd5b60008161046d565b600b81526000602082016a14d95b990819985a5b195960aa1b8152915061067c565b6020808252810161046d816106b1565b634e487b7160e01b600052601160045260246000fd5b6000600019820361070c5761070c6106e3565b5060010190565b81810280821583820485141761072b5761072b6106e3565b5092915050565b634e487b7160e01b600052601260045260246000fd5b60008261075757610757610732565b500490565b69ffffffffffffffffffff8116610572565b805161046d8161075c565b805161046d81610570565b600080600080600060a0868803121561079f5761079f600080fd5b60006107ab888861076e565b95505060206107bc88828901610779565b94505060406107cd88828901610779565b93505060606107de88828901610779565b92505060806107ef8882890161076e565b9150509295509295909350565b8181028060008312600160ff1b85141615610819576108196106e3565b828205841483151761072b5761072b6106e356fea264697066735822122065516c913f98eafd845e23195831e7d2761154cdbab3973e15dcd7431c15611b64736f6c63430008110033",
  "devdoc": {
    "kind": "dev",
    "methods": {},
    "version": 1
  },
  "userdoc": {
    "kind": "user",
    "methods": {},
    "version": 1
  },
  "storageLayout": {
    "storage": [
      {
        "astId": 56,
        "contract": "contracts/fundMe.sol:FundMe",
        "label": "i_owner",
        "offset": 0,
        "slot": "0",
        "type": "t_address"
      },
      {
        "astId": 59,
        "contract": "contracts/fundMe.sol:FundMe",
        "label": "s_funders",
        "offset": 0,
        "slot": "1",
        "type": "t_array(t_address)dyn_storage"
      },
      {
        "astId": 62,
        "contract": "contracts/fundMe.sol:FundMe",
        "label": "s_priceFeed",
        "offset": 0,
        "slot": "2",
        "type": "t_contract(AggregatorV3Interface)45"
      },
      {
        "astId": 66,
        "contract": "contracts/fundMe.sol:FundMe",
        "label": "s_funderToAmo",
        "offset": 0,
        "slot": "3",
        "type": "t_mapping(t_address,t_uint256)"
      }
    ],
    "types": {
      "t_address": {
        "encoding": "inplace",
        "label": "address",
        "numberOfBytes": "20"
      },
      "t_array(t_address)dyn_storage": {
        "base": "t_address",
        "encoding": "dynamic_array",
        "label": "address[]",
        "numberOfBytes": "32"
      },
      "t_contract(AggregatorV3Interface)45": {
        "encoding": "inplace",
        "label": "contract AggregatorV3Interface",
        "numberOfBytes": "20"
      },
      "t_mapping(t_address,t_uint256)": {
        "encoding": "mapping",
        "key": "t_address",
        "label": "mapping(address => uint256)",
        "numberOfBytes": "32",
        "value": "t_uint256"
      },
      "t_uint256": {
        "encoding": "inplace",
        "label": "uint256",
        "numberOfBytes": "32"
      }
    }
  }
}