{
  "_format": "hh-sol-artifact-1",
  "contractName": "bigNum",
  "sourceName": "contracts/safeMath.sol",
  "abi": [
    {
      "inputs": [],
      "name": "getPrice",
      "outputs": [
        {
          "internalType": "uint256",
          "name": "",
          "type": "uint256"
        }
      ],
      "stateMutability": "view",
      "type": "function"
    },
    {
      "inputs": [
        {
          "internalType": "uint256",
          "name": "_ethAmo",
          "type": "uint256"
        }
      ],
      "name": "getRate",
      "outputs": [
        {
          "internalType": "uint256",
          "name": "",
          "type": "uint256"
        }
      ],
      "stateMutability": "view",
      "type": "function"
    }
  ],
  "bytecode": "0x608060405234801561001057600080fd5b506101d3806100206000396000f3fe608060405234801561001057600080fd5b50600436106100365760003560e01c8063577640941461003b57806398d5fdca1461007d575b600080fd5b6100676004803603602081101561005157600080fd5b810190808035906020019092919050505061009b565b6040518082815260200191505060405180910390f35b6100856100ca565b6040518082815260200191505060405180910390f35b6000806100a66100ca565b90506000670de0b6b3a7640000848302816100bd57fe5b0490508092505050919050565b600080738a753747a1fa494ec906ce90e9f37563a8af630e905060008173ffffffffffffffffffffffffffffffffffffffff1663feaf968c6040518163ffffffff1660e01b815260040160a06040518083038186803b15801561012c57600080fd5b505afa158015610140573d6000803e3d6000fd5b505050506040513d60a081101561015657600080fd5b81019080805190602001909291908051906020019092919080519060200190929190805190602001909291908051906020019092919050505050505091505080925050509056fea26469706673582212206986692183a9668c576a926613f616a7140d5d683abe8c1542069678ec80622364736f6c63430006060033",
  "linkReferences": {},
  "deployedLinkReferences": {}
}