{
  "_format": "hh-sol-artifact-1",
  "contractName": "safeMathTest",
  "sourceName": "contracts/safeMath.sol",
  "abi": [
    {
      "inputs": [],
      "name": "increment",
      "outputs": [],
      "stateMutability": "nonpayable",
      "type": "function"
    }
  ],
  "bytecode": "0x608060405260ff6000806101000a81548160ff021916908360ff160217905550348015602a57600080fd5b50609e806100396000396000f3fe6080604052348015600f57600080fd5b506004361060285760003560e01c8063d09de08a14602d575b600080fd5b60336035565b005b60008081819054906101000a900460ff168092919060010191906101000a81548160ff021916908360ff1602179055505056fea2646970667358221220f237b3012c2d0f9d9f06bebfd87aaa79c2166f9ce1a4d0f310b08f6dd43823fe64736f6c63430006060033",
  "linkReferences": {},
  "deployedLinkReferences": {}
}