{
  "_format": "hh-sol-artifact-1",
  "contractName": "safeMathTest",
  "sourceName": "contracts/safeMath.sol",
  "abi": [
    {
      "inputs": [],
      "name": "increment",
      "outputs": [],
      "stateMutability": "nonpayable",
      "type": "function"
    }
  ],
  "bytecode": "0x60806040526000805460ff191660ff17905534801561001d57600080fd5b5060c68061002c6000396000f3fe6080604052348015600f57600080fd5b506004361060285760003560e01c8063d09de08a14602d575b600080fd5b60336035565b005b6000805460ff1690806045836076565b91906101000a81548160ff021916908360ff16021790555050565b634e487b7160e01b600052601160045260246000fd5b60ff16600060fe19820160895760896060565b506001019056fea2646970667358221220a678a617794cafd3e1b3d553feeece346655c0493f88e290a1f930d6b316152a64736f6c63430008110033",
  "linkReferences": {},
  "deployedLinkReferences": {}
}