{
	"blockchain/contracts/fundMe.sol": {
		"FundMe": {
			"abi": [
				{
					"inputs": [
						{
							"internalType": "address",
							"name": "_priceFeedAddress",
							"type": "address"
						}
					],
					"stateMutability": "nonpayable",
					"type": "constructor"
				},
				{
					"inputs": [
						{
							"internalType": "address",
							"name": "_newOwner",
							"type": "address"
						}
					],
					"name": "changeOwner",
					"outputs": [],
					"stateMutability": "nonpayable",
					"type": "function"
				},
				{
					"inputs": [],
					"name": "fund",
					"outputs": [],
					"stateMutability": "payable",
					"type": "function"
				},
				{
					"inputs": [
						{
							"internalType": "address",
							"name": "",
							"type": "address"
						}
					],
					"name": "funderToAmo",
					"outputs": [
						{
							"internalType": "uint256",
							"name": "",
							"type": "uint256"
						}
					],
					"stateMutability": "view",
					"type": "function"
				},
				{
					"inputs": [
						{
							"internalType": "uint256",
							"name": "",
							"type": "uint256"
						}
					],
					"name": "funders",
					"outputs": [
						{
							"internalType": "address",
							"name": "",
							"type": "address"
						}
					],
					"stateMutability": "view",
					"type": "function"
				},
				{
					"inputs": [],
					"name": "minUSD",
					"outputs": [
						{
							"internalType": "uint256",
							"name": "",
							"type": "uint256"
						}
					],
					"stateMutability": "view",
					"type": "function"
				},
				{
					"inputs": [],
					"name": "owner",
					"outputs": [
						{
							"internalType": "address",
							"name": "",
							"type": "address"
						}
					],
					"stateMutability": "view",
					"type": "function"
				},
				{
					"inputs": [],
					"name": "wdraw",
					"outputs": [],
					"stateMutability": "nonpayable",
					"type": "function"
				}
			],
			"devdoc": {
				"kind": "dev",
				"methods": {},
				"version": 1
			},
			"evm": {
				"assembly": "    /* \"blockchain/contracts/fundMe.sol\":434:4149  contract FundMe {\r... */\n  mstore(0x40, 0x80)\n    /* \"blockchain/contracts/fundMe.sol\":1028:1222  constructor(address _priceFeedAddress) {\r... */\n  callvalue\n  dup1\n  iszero\n  tag_1\n  jumpi\n  0x00\n  dup1\n  revert\ntag_1:\n  pop\n  mload(0x40)\n  sub(codesize, bytecodeSize)\n  dup1\n  bytecodeSize\n  dup4\n  codecopy\n  dup2\n  dup2\n  add\n  0x40\n  mstore\n  dup2\n  add\n  swap1\n  tag_2\n  swap2\n  swap1\n  tag_3\n  jump\t// in\ntag_2:\n    /* \"blockchain/contracts/fundMe.sol\":1141:1151  msg.sender */\n  caller\n    /* \"blockchain/contracts/fundMe.sol\":1133:1138  owner */\n  0x00\n  dup1\n    /* \"blockchain/contracts/fundMe.sol\":1133:1151  owner = msg.sender */\n  0x0100\n  exp\n  dup2\n  sload\n  dup2\n  0xffffffffffffffffffffffffffffffffffffffff\n  mul\n  not\n  and\n  swap1\n  dup4\n  0xffffffffffffffffffffffffffffffffffffffff\n  and\n  mul\n  or\n  swap1\n  sstore\n  pop\n    /* \"blockchain/contracts/fundMe.sol\":1196:1213  _priceFeedAddress */\n  dup1\n    /* \"blockchain/contracts/fundMe.sol\":1162:1171  priceFeed */\n  0x02\n  0x00\n    /* \"blockchain/contracts/fundMe.sol\":1162:1214  priceFeed = AggregatorV3Interface(_priceFeedAddress) */\n  0x0100\n  exp\n  dup2\n  sload\n  dup2\n  0xffffffffffffffffffffffffffffffffffffffff\n  mul\n  not\n  and\n  swap1\n  dup4\n  0xffffffffffffffffffffffffffffffffffffffff\n  and\n  mul\n  or\n  swap1\n  sstore\n  pop\n    /* \"blockchain/contracts/fundMe.sol\":1028:1222  constructor(address _priceFeedAddress) {\r... */\n  pop\n    /* \"blockchain/contracts/fundMe.sol\":434:4149  contract FundMe {\r... */\n  jump(tag_6)\n    /* \"#utility.yul\":7:150   */\ntag_8:\n    /* \"#utility.yul\":64:69   */\n  0x00\n    /* \"#utility.yul\":95:101   */\n  dup2\n    /* \"#utility.yul\":89:102   */\n  mload\n    /* \"#utility.yul\":80:102   */\n  swap1\n  pop\n    /* \"#utility.yul\":111:144   */\n  tag_10\n    /* \"#utility.yul\":138:143   */\n  dup2\n    /* \"#utility.yul\":111:144   */\n  tag_11\n  jump\t// in\ntag_10:\n    /* \"#utility.yul\":7:150   */\n  swap3\n  swap2\n  pop\n  pop\n  jump\t// out\n    /* \"#utility.yul\":156:507   */\ntag_3:\n    /* \"#utility.yul\":226:232   */\n  0x00\n    /* \"#utility.yul\":275:277   */\n  0x20\n    /* \"#utility.yul\":263:272   */\n  dup3\n    /* \"#utility.yul\":254:261   */\n  dup5\n    /* \"#utility.yul\":250:273   */\n  sub\n    /* \"#utility.yul\":246:278   */\n  slt\n    /* \"#utility.yul\":243:362   */\n  iszero\n  tag_13\n  jumpi\n    /* \"#utility.yul\":281:360   */\n  tag_14\n  tag_15\n  jump\t// in\ntag_14:\n    /* \"#utility.yul\":243:362   */\ntag_13:\n    /* \"#utility.yul\":401:402   */\n  0x00\n    /* \"#utility.yul\":426:490   */\n  tag_16\n    /* \"#utility.yul\":482:489   */\n  dup5\n    /* \"#utility.yul\":473:479   */\n  dup3\n    /* \"#utility.yul\":462:471   */\n  dup6\n    /* \"#utility.yul\":458:480   */\n  add\n    /* \"#utility.yul\":426:490   */\n  tag_8\n  jump\t// in\ntag_16:\n    /* \"#utility.yul\":416:490   */\n  swap2\n  pop\n    /* \"#utility.yul\":372:500   */\n  pop\n    /* \"#utility.yul\":156:507   */\n  swap3\n  swap2\n  pop\n  pop\n  jump\t// out\n    /* \"#utility.yul\":594:690   */\ntag_19:\n    /* \"#utility.yul\":631:638   */\n  0x00\n    /* \"#utility.yul\":660:684   */\n  tag_21\n    /* \"#utility.yul\":678:683   */\n  dup3\n    /* \"#utility.yul\":660:684   */\n  tag_22\n  jump\t// in\ntag_21:\n    /* \"#utility.yul\":649:684   */\n  swap1\n  pop\n    /* \"#utility.yul\":594:690   */\n  swap2\n  swap1\n  pop\n  jump\t// out\n    /* \"#utility.yul\":696:822   */\ntag_22:\n    /* \"#utility.yul\":733:740   */\n  0x00\n    /* \"#utility.yul\":773:815   */\n  0xffffffffffffffffffffffffffffffffffffffff\n    /* \"#utility.yul\":766:771   */\n  dup3\n    /* \"#utility.yul\":762:816   */\n  and\n    /* \"#utility.yul\":751:816   */\n  swap1\n  pop\n    /* \"#utility.yul\":696:822   */\n  swap2\n  swap1\n  pop\n  jump\t// out\n    /* \"#utility.yul\":951:1068   */\ntag_15:\n    /* \"#utility.yul\":1060:1061   */\n  0x00\n    /* \"#utility.yul\":1057:1058   */\n  dup1\n    /* \"#utility.yul\":1050:1062   */\n  revert\n    /* \"#utility.yul\":1074:1196   */\ntag_11:\n    /* \"#utility.yul\":1147:1171   */\n  tag_28\n    /* \"#utility.yul\":1165:1170   */\n  dup2\n    /* \"#utility.yul\":1147:1171   */\n  tag_19\n  jump\t// in\ntag_28:\n    /* \"#utility.yul\":1140:1145   */\n  dup2\n    /* \"#utility.yul\":1137:1172   */\n  eq\n    /* \"#utility.yul\":1127:1190   */\n  tag_29\n  jumpi\n    /* \"#utility.yul\":1186:1187   */\n  0x00\n    /* \"#utility.yul\":1183:1184   */\n  dup1\n    /* \"#utility.yul\":1176:1188   */\n  revert\n    /* \"#utility.yul\":1127:1190   */\ntag_29:\n    /* \"#utility.yul\":1074:1196   */\n  pop\n  jump\t// out\n    /* \"blockchain/contracts/fundMe.sol\":434:4149  contract FundMe {\r... */\ntag_6:\n  dataSize(sub_0)\n  dup1\n  dataOffset(sub_0)\n  0x00\n  codecopy\n  0x00\n  return\nstop\n\nsub_0: assembly {\n        /* \"blockchain/contracts/fundMe.sol\":434:4149  contract FundMe {\r... */\n      mstore(0x40, 0x80)\n      jumpi(tag_1, lt(calldatasize, 0x04))\n      shr(0xe0, calldataload(0x00))\n      dup1\n      0xb60d4288\n      gt\n      tag_9\n      jumpi\n      dup1\n      0xb60d4288\n      eq\n      tag_5\n      jumpi\n      dup1\n      0xccadfaf2\n      eq\n      tag_6\n      jumpi\n      dup1\n      0xdc0d3dff\n      eq\n      tag_7\n      jumpi\n      dup1\n      0xdc992aa0\n      eq\n      tag_8\n      jumpi\n      jump(tag_1)\n    tag_9:\n      dup1\n      0x8da5cb5b\n      eq\n      tag_2\n      jumpi\n      dup1\n      0x9d9ef3e7\n      eq\n      tag_3\n      jumpi\n      dup1\n      0xa6f9dae1\n      eq\n      tag_4\n      jumpi\n    tag_1:\n      0x00\n      dup1\n      revert\n        /* \"blockchain/contracts/fundMe.sol\":568:588  address public owner */\n    tag_2:\n      callvalue\n      dup1\n      iszero\n      tag_10\n      jumpi\n      0x00\n      dup1\n      revert\n    tag_10:\n      pop\n      tag_11\n      tag_12\n      jump\t// in\n    tag_11:\n      mload(0x40)\n      tag_13\n      swap2\n      swap1\n      tag_14\n      jump\t// in\n    tag_13:\n      mload(0x40)\n      dup1\n      swap2\n      sub\n      swap1\n      return\n        /* \"blockchain/contracts/fundMe.sol\":682:728  mapping(address => uint256) public funderToAmo */\n    tag_3:\n      callvalue\n      dup1\n      iszero\n      tag_15\n      jumpi\n      0x00\n      dup1\n      revert\n    tag_15:\n      pop\n      tag_16\n      0x04\n      dup1\n      calldatasize\n      sub\n      dup2\n      add\n      swap1\n      tag_17\n      swap2\n      swap1\n      tag_18\n      jump\t// in\n    tag_17:\n      tag_19\n      jump\t// in\n    tag_16:\n      mload(0x40)\n      tag_20\n      swap2\n      swap1\n      tag_21\n      jump\t// in\n    tag_20:\n      mload(0x40)\n      dup1\n      swap2\n      sub\n      swap1\n      return\n        /* \"blockchain/contracts/fundMe.sol\":3230:3323  function changeOwner(address _newOwner) onlyOwner public {\r... */\n    tag_4:\n      callvalue\n      dup1\n      iszero\n      tag_22\n      jumpi\n      0x00\n      dup1\n      revert\n    tag_22:\n      pop\n      tag_23\n      0x04\n      dup1\n      calldatasize\n      sub\n      dup2\n      add\n      swap1\n      tag_24\n      swap2\n      swap1\n      tag_18\n      jump\t// in\n    tag_24:\n      tag_25\n      jump\t// in\n    tag_23:\n      stop\n        /* \"blockchain/contracts/fundMe.sol\":1286:1932  function fund() public payable {\r... */\n    tag_5:\n      tag_26\n      tag_27\n      jump\t// in\n    tag_26:\n      stop\n        /* \"blockchain/contracts/fundMe.sol\":2209:3222  function wdraw() onlyOwner public {\r... */\n    tag_6:\n      callvalue\n      dup1\n      iszero\n      tag_28\n      jumpi\n      0x00\n      dup1\n      revert\n    tag_28:\n      pop\n      tag_29\n      tag_30\n      jump\t// in\n    tag_29:\n      stop\n        /* \"blockchain/contracts/fundMe.sol\":597:621  address[] public funders */\n    tag_7:\n      callvalue\n      dup1\n      iszero\n      tag_31\n      jumpi\n      0x00\n      dup1\n      revert\n    tag_31:\n      pop\n      tag_32\n      0x04\n      dup1\n      calldatasize\n      sub\n      dup2\n      add\n      swap1\n      tag_33\n      swap2\n      swap1\n      tag_34\n      jump\t// in\n    tag_33:\n      tag_35\n      jump\t// in\n    tag_32:\n      mload(0x40)\n      tag_36\n      swap2\n      swap1\n      tag_14\n      jump\t// in\n    tag_36:\n      mload(0x40)\n      dup1\n      swap2\n      sub\n      swap1\n      return\n        /* \"blockchain/contracts/fundMe.sol\":791:843  uint256 public constant minUSD = 2000000000000000000 */\n    tag_8:\n      callvalue\n      dup1\n      iszero\n      tag_37\n      jumpi\n      0x00\n      dup1\n      revert\n    tag_37:\n      pop\n      tag_38\n      tag_39\n      jump\t// in\n    tag_38:\n      mload(0x40)\n      tag_40\n      swap2\n      swap1\n      tag_21\n      jump\t// in\n    tag_40:\n      mload(0x40)\n      dup1\n      swap2\n      sub\n      swap1\n      return\n        /* \"blockchain/contracts/fundMe.sol\":568:588  address public owner */\n    tag_12:\n      0x00\n      dup1\n      sload\n      swap1\n      0x0100\n      exp\n      swap1\n      div\n      0xffffffffffffffffffffffffffffffffffffffff\n      and\n      dup2\n      jump\t// out\n        /* \"blockchain/contracts/fundMe.sol\":682:728  mapping(address => uint256) public funderToAmo */\n    tag_19:\n      mstore(0x20, 0x03)\n      dup1\n      0x00\n      mstore\n      keccak256(0x00, 0x40)\n      0x00\n      swap2\n      pop\n      swap1\n      pop\n      sload\n      dup2\n      jump\t// out\n        /* \"blockchain/contracts/fundMe.sol\":3230:3323  function changeOwner(address _newOwner) onlyOwner public {\r... */\n    tag_25:\n        /* \"blockchain/contracts/fundMe.sol\":2051:2056  owner */\n      0x00\n      dup1\n      sload\n      swap1\n      0x0100\n      exp\n      swap1\n      div\n      0xffffffffffffffffffffffffffffffffffffffff\n      and\n        /* \"blockchain/contracts/fundMe.sol\":2037:2056  msg.sender == owner */\n      0xffffffffffffffffffffffffffffffffffffffff\n      and\n        /* \"blockchain/contracts/fundMe.sol\":2037:2047  msg.sender */\n      caller\n        /* \"blockchain/contracts/fundMe.sol\":2037:2056  msg.sender == owner */\n      0xffffffffffffffffffffffffffffffffffffffff\n      and\n      eq\n        /* \"blockchain/contracts/fundMe.sol\":2015:2109  require(\r... */\n      tag_42\n      jumpi\n      mload(0x40)\n      0x08c379a000000000000000000000000000000000000000000000000000000000\n      dup2\n      mstore\n      0x04\n      add\n      tag_43\n      swap1\n      tag_44\n      jump\t// in\n    tag_43:\n      mload(0x40)\n      dup1\n      swap2\n      sub\n      swap1\n      revert\n    tag_42:\n        /* \"blockchain/contracts/fundMe.sol\":3306:3315  _newOwner */\n      dup1\n        /* \"blockchain/contracts/fundMe.sol\":3298:3303  owner */\n      0x00\n      dup1\n        /* \"blockchain/contracts/fundMe.sol\":3298:3315  owner = _newOwner */\n      0x0100\n      exp\n      dup2\n      sload\n      dup2\n      0xffffffffffffffffffffffffffffffffffffffff\n      mul\n      not\n      and\n      swap1\n      dup4\n      0xffffffffffffffffffffffffffffffffffffffff\n      and\n      mul\n      or\n      swap1\n      sstore\n      pop\n        /* \"blockchain/contracts/fundMe.sol\":3230:3323  function changeOwner(address _newOwner) onlyOwner public {\r... */\n      pop\n      jump\t// out\n        /* \"blockchain/contracts/fundMe.sol\":1286:1932  function fund() public payable {\r... */\n    tag_27:\n        /* \"blockchain/contracts/fundMe.sol\":824:843  2000000000000000000 */\n      0x1bc16d674ec80000\n        /* \"blockchain/contracts/fundMe.sol\":1660:1691  msg.value.valueInUSD(priceFeed) */\n      tag_47\n        /* \"blockchain/contracts/fundMe.sol\":1681:1690  priceFeed */\n      0x02\n      0x00\n      swap1\n      sload\n      swap1\n      0x0100\n      exp\n      swap1\n      div\n      0xffffffffffffffffffffffffffffffffffffffff\n      and\n        /* \"blockchain/contracts/fundMe.sol\":1660:1669  msg.value */\n      callvalue\n        /* \"blockchain/contracts/fundMe.sol\":1660:1680  msg.value.valueInUSD */\n      tag_48\n      swap1\n        /* \"blockchain/contracts/fundMe.sol\":1660:1691  msg.value.valueInUSD(priceFeed) */\n      swap2\n      swap1\n      0xffffffff\n      and\n      jump\t// in\n    tag_47:\n        /* \"blockchain/contracts/fundMe.sol\":1660:1701  msg.value.valueInUSD(priceFeed) >= minUSD */\n      lt\n      iszero\n        /* \"blockchain/contracts/fundMe.sol\":1519:1814  require(\r... */\n      tag_49\n      jumpi\n      mload(0x40)\n      0x08c379a000000000000000000000000000000000000000000000000000000000\n      dup2\n      mstore\n      0x04\n      add\n      tag_50\n      swap1\n      tag_51\n      jump\t// in\n    tag_50:\n      mload(0x40)\n      dup1\n      swap2\n      sub\n      swap1\n      revert\n    tag_49:\n        /* \"blockchain/contracts/fundMe.sol\":1853:1862  msg.value */\n      callvalue\n        /* \"blockchain/contracts/fundMe.sol\":1827:1838  funderToAmo */\n      0x03\n        /* \"blockchain/contracts/fundMe.sol\":1827:1850  funderToAmo[msg.sender] */\n      0x00\n        /* \"blockchain/contracts/fundMe.sol\":1839:1849  msg.sender */\n      caller\n        /* \"blockchain/contracts/fundMe.sol\":1827:1850  funderToAmo[msg.sender] */\n      0xffffffffffffffffffffffffffffffffffffffff\n      and\n      0xffffffffffffffffffffffffffffffffffffffff\n      and\n      dup2\n      mstore\n      0x20\n      add\n      swap1\n      dup2\n      mstore\n      0x20\n      add\n      0x00\n      keccak256\n        /* \"blockchain/contracts/fundMe.sol\":1827:1862  funderToAmo[msg.sender] = msg.value */\n      dup2\n      swap1\n      sstore\n      pop\n        /* \"blockchain/contracts/fundMe.sol\":1875:1882  funders */\n      0x01\n        /* \"blockchain/contracts/fundMe.sol\":1888:1898  msg.sender */\n      caller\n        /* \"blockchain/contracts/fundMe.sol\":1875:1899  funders.push(msg.sender) */\n      swap1\n      dup1\n      0x01\n      dup2\n      sload\n      add\n      dup1\n      dup3\n      sstore\n      dup1\n      swap2\n      pop\n      pop\n      0x01\n      swap1\n      sub\n      swap1\n      0x00\n      mstore\n      keccak256(0x00, 0x20)\n      add\n      0x00\n      swap1\n      swap2\n      swap1\n      swap2\n      swap1\n      swap2\n      0x0100\n      exp\n      dup2\n      sload\n      dup2\n      0xffffffffffffffffffffffffffffffffffffffff\n      mul\n      not\n      and\n      swap1\n      dup4\n      0xffffffffffffffffffffffffffffffffffffffff\n      and\n      mul\n      or\n      swap1\n      sstore\n      pop\n        /* \"blockchain/contracts/fundMe.sol\":1286:1932  function fund() public payable {\r... */\n      jump\t// out\n        /* \"blockchain/contracts/fundMe.sol\":2209:3222  function wdraw() onlyOwner public {\r... */\n    tag_30:\n        /* \"blockchain/contracts/fundMe.sol\":2051:2056  owner */\n      0x00\n      dup1\n      sload\n      swap1\n      0x0100\n      exp\n      swap1\n      div\n      0xffffffffffffffffffffffffffffffffffffffff\n      and\n        /* \"blockchain/contracts/fundMe.sol\":2037:2056  msg.sender == owner */\n      0xffffffffffffffffffffffffffffffffffffffff\n      and\n        /* \"blockchain/contracts/fundMe.sol\":2037:2047  msg.sender */\n      caller\n        /* \"blockchain/contracts/fundMe.sol\":2037:2056  msg.sender == owner */\n      0xffffffffffffffffffffffffffffffffffffffff\n      and\n      eq\n        /* \"blockchain/contracts/fundMe.sol\":2015:2109  require(\r... */\n      tag_54\n      jumpi\n      mload(0x40)\n      0x08c379a000000000000000000000000000000000000000000000000000000000\n      dup2\n      mstore\n      0x04\n      add\n      tag_55\n      swap1\n      tag_44\n      jump\t// in\n    tag_55:\n      mload(0x40)\n      dup1\n      swap2\n      sub\n      swap1\n      revert\n    tag_54:\n        /* \"blockchain/contracts/fundMe.sol\":2709:2721  bool success */\n      0x00\n        /* \"blockchain/contracts/fundMe.sol\":2734:2744  msg.sender */\n      caller\n        /* \"blockchain/contracts/fundMe.sol\":2726:2750  payable(msg.sender).call */\n      0xffffffffffffffffffffffffffffffffffffffff\n      and\n        /* \"blockchain/contracts/fundMe.sol\":2758:2779  address(this).balance */\n      selfbalance\n        /* \"blockchain/contracts/fundMe.sol\":2726:2784  payable(msg.sender).call{value: address(this).balance}(\"\") */\n      mload(0x40)\n      tag_57\n      swap1\n      tag_58\n      jump\t// in\n    tag_57:\n      0x00\n      mload(0x40)\n      dup1\n      dup4\n      sub\n      dup2\n      dup6\n      dup8\n      gas\n      call\n      swap3\n      pop\n      pop\n      pop\n      returndatasize\n      dup1\n      0x00\n      dup2\n      eq\n      tag_61\n      jumpi\n      mload(0x40)\n      swap2\n      pop\n      and(add(returndatasize, 0x3f), not(0x1f))\n      dup3\n      add\n      0x40\n      mstore\n      returndatasize\n      dup3\n      mstore\n      returndatasize\n      0x00\n      0x20\n      dup5\n      add\n      returndatacopy\n      jump(tag_60)\n    tag_61:\n      0x60\n      swap2\n      pop\n    tag_60:\n      pop\n        /* \"blockchain/contracts/fundMe.sol\":2708:2784  (bool success,) = payable(msg.sender).call{value: address(this).balance}(\"\") */\n      pop\n      swap1\n      pop\n        /* \"blockchain/contracts/fundMe.sol\":2905:2912  success */\n      dup1\n        /* \"blockchain/contracts/fundMe.sol\":2883:2951  require(\r... */\n      tag_62\n      jumpi\n      mload(0x40)\n      0x08c379a000000000000000000000000000000000000000000000000000000000\n      dup2\n      mstore\n      0x04\n      add\n      tag_63\n      swap1\n      tag_64\n      jump\t// in\n    tag_63:\n      mload(0x40)\n      dup1\n      swap2\n      sub\n      swap1\n      revert\n    tag_62:\n        /* \"blockchain/contracts/fundMe.sol\":2979:2996  uint256 funderInd */\n      0x00\n        /* \"blockchain/contracts/fundMe.sol\":2974:3138  for (uint256 funderInd=0; funderInd<funders.length; funderInd++){\r... */\n    tag_65:\n        /* \"blockchain/contracts/fundMe.sol\":3010:3017  funders */\n      0x01\n        /* \"blockchain/contracts/fundMe.sol\":3010:3024  funders.length */\n      dup1\n      sload\n      swap1\n      pop\n        /* \"blockchain/contracts/fundMe.sol\":3000:3009  funderInd */\n      dup2\n        /* \"blockchain/contracts/fundMe.sol\":3000:3024  funderInd<funders.length */\n      lt\n        /* \"blockchain/contracts/fundMe.sol\":2974:3138  for (uint256 funderInd=0; funderInd<funders.length; funderInd++){\r... */\n      iszero\n      tag_66\n      jumpi\n        /* \"blockchain/contracts/fundMe.sol\":3053:3067  address funder */\n      0x00\n        /* \"blockchain/contracts/fundMe.sol\":3070:3077  funders */\n      0x01\n        /* \"blockchain/contracts/fundMe.sol\":3078:3087  funderInd */\n      dup3\n        /* \"blockchain/contracts/fundMe.sol\":3070:3088  funders[funderInd] */\n      dup2\n      sload\n      dup2\n      lt\n      tag_68\n      jumpi\n      tag_69\n      tag_70\n      jump\t// in\n    tag_69:\n    tag_68:\n      swap1\n      0x00\n      mstore\n      keccak256(0x00, 0x20)\n      add\n      0x00\n      swap1\n      sload\n      swap1\n      0x0100\n      exp\n      swap1\n      div\n      0xffffffffffffffffffffffffffffffffffffffff\n      and\n        /* \"blockchain/contracts/fundMe.sol\":3053:3088  address funder = funders[funderInd] */\n      swap1\n      pop\n        /* \"blockchain/contracts/fundMe.sol\":3125:3126  0 */\n      0x00\n        /* \"blockchain/contracts/fundMe.sol\":3103:3114  funderToAmo */\n      0x03\n        /* \"blockchain/contracts/fundMe.sol\":3103:3122  funderToAmo[funder] */\n      0x00\n        /* \"blockchain/contracts/fundMe.sol\":3115:3121  funder */\n      dup4\n        /* \"blockchain/contracts/fundMe.sol\":3103:3122  funderToAmo[funder] */\n      0xffffffffffffffffffffffffffffffffffffffff\n      and\n      0xffffffffffffffffffffffffffffffffffffffff\n      and\n      dup2\n      mstore\n      0x20\n      add\n      swap1\n      dup2\n      mstore\n      0x20\n      add\n      0x00\n      keccak256\n        /* \"blockchain/contracts/fundMe.sol\":3103:3126  funderToAmo[funder] = 0 */\n      dup2\n      swap1\n      sstore\n      pop\n        /* \"blockchain/contracts/fundMe.sol\":3038:3138  {\r... */\n      pop\n        /* \"blockchain/contracts/fundMe.sol\":3026:3037  funderInd++ */\n      dup1\n      dup1\n      tag_72\n      swap1\n      tag_73\n      jump\t// in\n    tag_72:\n      swap2\n      pop\n      pop\n        /* \"blockchain/contracts/fundMe.sol\":2974:3138  for (uint256 funderInd=0; funderInd<funders.length; funderInd++){\r... */\n      jump(tag_65)\n    tag_66:\n      pop\n        /* \"blockchain/contracts/fundMe.sol\":3212:3213  0 */\n      0x00\n        /* \"blockchain/contracts/fundMe.sol\":3198:3214  new address[](0) */\n      0xffffffffffffffff\n      dup2\n      gt\n      iszero\n      tag_74\n      jumpi\n      tag_75\n      tag_76\n      jump\t// in\n    tag_75:\n    tag_74:\n      mload(0x40)\n      swap1\n      dup1\n      dup3\n      mstore\n      dup1\n      0x20\n      mul\n      0x20\n      add\n      dup3\n      add\n      0x40\n      mstore\n      dup1\n      iszero\n      tag_77\n      jumpi\n      dup2\n      0x20\n      add\n      0x20\n      dup3\n      mul\n      dup1\n      calldatasize\n      dup4\n      calldatacopy\n      dup1\n      dup3\n      add\n      swap2\n      pop\n      pop\n      swap1\n      pop\n    tag_77:\n      pop\n        /* \"blockchain/contracts/fundMe.sol\":3188:3195  funders */\n      0x01\n        /* \"blockchain/contracts/fundMe.sol\":3188:3214  funders = new address[](0) */\n      swap1\n      dup1\n      mload\n      swap1\n      0x20\n      add\n      swap1\n      tag_78\n      swap3\n      swap2\n      swap1\n      tag_79\n      jump\t// in\n    tag_78:\n      pop\n        /* \"blockchain/contracts/fundMe.sol\":2243:3222  {\r... */\n      pop\n        /* \"blockchain/contracts/fundMe.sol\":2209:3222  function wdraw() onlyOwner public {\r... */\n      jump\t// out\n        /* \"blockchain/contracts/fundMe.sol\":597:621  address[] public funders */\n    tag_35:\n      0x01\n      dup2\n      dup2\n      sload\n      dup2\n      lt\n      tag_80\n      jumpi\n      0x00\n      dup1\n      revert\n    tag_80:\n      swap1\n      0x00\n      mstore\n      keccak256(0x00, 0x20)\n      add\n      0x00\n      swap2\n      pop\n      sload\n      swap1\n      0x0100\n      exp\n      swap1\n      div\n      0xffffffffffffffffffffffffffffffffffffffff\n      and\n      dup2\n      jump\t// out\n        /* \"blockchain/contracts/fundMe.sol\":791:843  uint256 public constant minUSD = 2000000000000000000 */\n    tag_39:\n        /* \"blockchain/contracts/fundMe.sol\":824:843  2000000000000000000 */\n      0x1bc16d674ec80000\n        /* \"blockchain/contracts/fundMe.sol\":791:843  uint256 public constant minUSD = 2000000000000000000 */\n      dup2\n      jump\t// out\n        /* \"blockchain/contracts/priceConverter.sol\":952:1335  function valueInUSD(uint256 ethAmount, AggregatorV3Interface priceFeed)... */\n    tag_48:\n        /* \"blockchain/contracts/priceConverter.sol\":1059:1066  uint256 */\n      0x00\n        /* \"blockchain/contracts/priceConverter.sol\":1076:1092  uint256 ethPrice */\n      dup1\n        /* \"blockchain/contracts/priceConverter.sol\":1095:1114  ethToUSD(priceFeed) */\n      tag_83\n        /* \"blockchain/contracts/priceConverter.sol\":1104:1113  priceFeed */\n      dup4\n        /* \"blockchain/contracts/priceConverter.sol\":1095:1103  ethToUSD */\n      tag_84\n        /* \"blockchain/contracts/priceConverter.sol\":1095:1114  ethToUSD(priceFeed) */\n      jump\t// in\n    tag_83:\n        /* \"blockchain/contracts/priceConverter.sol\":1076:1114  uint256 ethPrice = ethToUSD(priceFeed) */\n      swap1\n      pop\n        /* \"blockchain/contracts/priceConverter.sol\":1159:1181  uint256 ethAmountInUsd */\n      0x00\n        /* \"blockchain/contracts/priceConverter.sol\":1209:1228  1000000000000000000 */\n      0x0de0b6b3a7640000\n        /* \"blockchain/contracts/priceConverter.sol\":1196:1205  ethAmount */\n      dup6\n        /* \"blockchain/contracts/priceConverter.sol\":1185:1193  ethPrice */\n      dup4\n        /* \"blockchain/contracts/priceConverter.sol\":1185:1205  ethPrice * ethAmount */\n      tag_85\n      swap2\n      swap1\n      tag_86\n      jump\t// in\n    tag_85:\n        /* \"blockchain/contracts/priceConverter.sol\":1184:1228  (ethPrice * ethAmount) / 1000000000000000000 */\n      tag_87\n      swap2\n      swap1\n      tag_88\n      jump\t// in\n    tag_87:\n        /* \"blockchain/contracts/priceConverter.sol\":1159:1228  uint256 ethAmountInUsd = (ethPrice * ethAmount) / 1000000000000000000 */\n      swap1\n      pop\n        /* \"blockchain/contracts/priceConverter.sol\":1316:1330  ethAmountInUsd */\n      dup1\n        /* \"blockchain/contracts/priceConverter.sol\":1309:1330  return ethAmountInUsd */\n      swap3\n      pop\n      pop\n      pop\n        /* \"blockchain/contracts/priceConverter.sol\":952:1335  function valueInUSD(uint256 ethAmount, AggregatorV3Interface priceFeed)... */\n      swap3\n      swap2\n      pop\n      pop\n      jump\t// out\n        /* \"blockchain/contracts/priceConverter.sol\":420:752  function ethToUSD(AggregatorV3Interface priceFeed)... */\n    tag_84:\n        /* \"blockchain/contracts/priceConverter.sol\":506:513  uint256 */\n      0x00\n        /* \"blockchain/contracts/priceConverter.sol\":560:573  int256 answer */\n      dup1\n        /* \"blockchain/contracts/priceConverter.sol\":583:592  priceFeed */\n      dup3\n        /* \"blockchain/contracts/priceConverter.sol\":583:608  priceFeed.latestRoundData */\n      0xffffffffffffffffffffffffffffffffffffffff\n      and\n      0xfeaf968c\n        /* \"blockchain/contracts/priceConverter.sol\":583:610  priceFeed.latestRoundData() */\n      mload(0x40)\n      dup2\n      0xffffffff\n      and\n      0xe0\n      shl\n      dup2\n      mstore\n      0x04\n      add\n      0xa0\n      mload(0x40)\n      dup1\n      dup4\n      sub\n      dup2\n      dup7\n      dup1\n      extcodesize\n      iszero\n      dup1\n      iszero\n      tag_90\n      jumpi\n      0x00\n      dup1\n      revert\n    tag_90:\n      pop\n      gas\n      staticcall\n      iszero\n      dup1\n      iszero\n      tag_92\n      jumpi\n      returndatasize\n      0x00\n      dup1\n      returndatacopy\n      revert(0x00, returndatasize)\n    tag_92:\n      pop\n      pop\n      pop\n      pop\n      mload(0x40)\n      returndatasize\n      not(0x1f)\n      0x1f\n      dup3\n      add\n      and\n      dup3\n      add\n      dup1\n      0x40\n      mstore\n      pop\n      dup2\n      add\n      swap1\n      tag_93\n      swap2\n      swap1\n      tag_94\n      jump\t// in\n    tag_93:\n        /* \"blockchain/contracts/priceConverter.sol\":557:610  (, int256 answer, , , ) = priceFeed.latestRoundData() */\n      pop\n      pop\n      pop\n      swap2\n      pop\n      pop\n        /* \"blockchain/contracts/priceConverter.sol\":735:746  10000000000 */\n      0x02540be400\n        /* \"blockchain/contracts/priceConverter.sol\":726:732  answer */\n      dup2\n        /* \"blockchain/contracts/priceConverter.sol\":726:746  answer * 10000000000 */\n      tag_95\n      swap2\n      swap1\n      tag_96\n      jump\t// in\n    tag_95:\n        /* \"blockchain/contracts/priceConverter.sol\":711:747  return uint256(answer * 10000000000) */\n      swap2\n      pop\n      pop\n        /* \"blockchain/contracts/priceConverter.sol\":420:752  function ethToUSD(AggregatorV3Interface priceFeed)... */\n      swap2\n      swap1\n      pop\n      jump\t// out\n    tag_79:\n      dup3\n      dup1\n      sload\n      dup3\n      dup3\n      sstore\n      swap1\n      0x00\n      mstore\n      keccak256(0x00, 0x20)\n      swap1\n      dup2\n      add\n      swap3\n      dup3\n      iszero\n      tag_97\n      jumpi\n      swap2\n      0x20\n      mul\n      dup3\n      add\n    tag_98:\n      dup3\n      dup2\n      gt\n      iszero\n      tag_99\n      jumpi\n      dup3\n      mload\n      dup3\n      exp(0x0100, 0x00)\n      dup2\n      sload\n      dup2\n      0xffffffffffffffffffffffffffffffffffffffff\n      mul\n      not\n      and\n      swap1\n      dup4\n      0xffffffffffffffffffffffffffffffffffffffff\n      and\n      mul\n      or\n      swap1\n      sstore\n      pop\n      swap2\n      0x20\n      add\n      swap2\n      swap1\n      0x01\n      add\n      swap1\n      jump(tag_98)\n    tag_99:\n    tag_97:\n      pop\n      swap1\n      pop\n      tag_100\n      swap2\n      swap1\n      tag_101\n      jump\t// in\n    tag_100:\n      pop\n      swap1\n      jump\t// out\n    tag_101:\n    tag_102:\n      dup1\n      dup3\n      gt\n      iszero\n      tag_103\n      jumpi\n      0x00\n      dup2\n      0x00\n      swap1\n      sstore\n      pop\n      0x01\n      add\n      jump(tag_102)\n    tag_103:\n      pop\n      swap1\n      jump\t// out\n        /* \"#utility.yul\":7:146   */\n    tag_105:\n        /* \"#utility.yul\":53:58   */\n      0x00\n        /* \"#utility.yul\":91:97   */\n      dup2\n        /* \"#utility.yul\":78:98   */\n      calldataload\n        /* \"#utility.yul\":69:98   */\n      swap1\n      pop\n        /* \"#utility.yul\":107:140   */\n      tag_107\n        /* \"#utility.yul\":134:139   */\n      dup2\n        /* \"#utility.yul\":107:140   */\n      tag_108\n      jump\t// in\n    tag_107:\n        /* \"#utility.yul\":7:146   */\n      swap3\n      swap2\n      pop\n      pop\n      jump\t// out\n        /* \"#utility.yul\":152:293   */\n    tag_109:\n        /* \"#utility.yul\":208:213   */\n      0x00\n        /* \"#utility.yul\":239:245   */\n      dup2\n        /* \"#utility.yul\":233:246   */\n      mload\n        /* \"#utility.yul\":224:246   */\n      swap1\n      pop\n        /* \"#utility.yul\":255:287   */\n      tag_111\n        /* \"#utility.yul\":281:286   */\n      dup2\n        /* \"#utility.yul\":255:287   */\n      tag_112\n      jump\t// in\n    tag_111:\n        /* \"#utility.yul\":152:293   */\n      swap3\n      swap2\n      pop\n      pop\n      jump\t// out\n        /* \"#utility.yul\":299:438   */\n    tag_113:\n        /* \"#utility.yul\":345:350   */\n      0x00\n        /* \"#utility.yul\":383:389   */\n      dup2\n        /* \"#utility.yul\":370:390   */\n      calldataload\n        /* \"#utility.yul\":361:390   */\n      swap1\n      pop\n        /* \"#utility.yul\":399:432   */\n      tag_115\n        /* \"#utility.yul\":426:431   */\n      dup2\n        /* \"#utility.yul\":399:432   */\n      tag_116\n      jump\t// in\n    tag_115:\n        /* \"#utility.yul\":299:438   */\n      swap3\n      swap2\n      pop\n      pop\n      jump\t// out\n        /* \"#utility.yul\":444:587   */\n    tag_117:\n        /* \"#utility.yul\":501:506   */\n      0x00\n        /* \"#utility.yul\":532:538   */\n      dup2\n        /* \"#utility.yul\":526:539   */\n      mload\n        /* \"#utility.yul\":517:539   */\n      swap1\n      pop\n        /* \"#utility.yul\":548:581   */\n      tag_119\n        /* \"#utility.yul\":575:580   */\n      dup2\n        /* \"#utility.yul\":548:581   */\n      tag_116\n      jump\t// in\n    tag_119:\n        /* \"#utility.yul\":444:587   */\n      swap3\n      swap2\n      pop\n      pop\n      jump\t// out\n        /* \"#utility.yul\":593:734   */\n    tag_120:\n        /* \"#utility.yul\":649:654   */\n      0x00\n        /* \"#utility.yul\":680:686   */\n      dup2\n        /* \"#utility.yul\":674:687   */\n      mload\n        /* \"#utility.yul\":665:687   */\n      swap1\n      pop\n        /* \"#utility.yul\":696:728   */\n      tag_122\n        /* \"#utility.yul\":722:727   */\n      dup2\n        /* \"#utility.yul\":696:728   */\n      tag_123\n      jump\t// in\n    tag_122:\n        /* \"#utility.yul\":593:734   */\n      swap3\n      swap2\n      pop\n      pop\n      jump\t// out\n        /* \"#utility.yul\":740:1069   */\n    tag_18:\n        /* \"#utility.yul\":799:805   */\n      0x00\n        /* \"#utility.yul\":848:850   */\n      0x20\n        /* \"#utility.yul\":836:845   */\n      dup3\n        /* \"#utility.yul\":827:834   */\n      dup5\n        /* \"#utility.yul\":823:846   */\n      sub\n        /* \"#utility.yul\":819:851   */\n      slt\n        /* \"#utility.yul\":816:935   */\n      iszero\n      tag_125\n      jumpi\n        /* \"#utility.yul\":854:933   */\n      tag_126\n      tag_127\n      jump\t// in\n    tag_126:\n        /* \"#utility.yul\":816:935   */\n    tag_125:\n        /* \"#utility.yul\":974:975   */\n      0x00\n        /* \"#utility.yul\":999:1052   */\n      tag_128\n        /* \"#utility.yul\":1044:1051   */\n      dup5\n        /* \"#utility.yul\":1035:1041   */\n      dup3\n        /* \"#utility.yul\":1024:1033   */\n      dup6\n        /* \"#utility.yul\":1020:1042   */\n      add\n        /* \"#utility.yul\":999:1052   */\n      tag_105\n      jump\t// in\n    tag_128:\n        /* \"#utility.yul\":989:1052   */\n      swap2\n      pop\n        /* \"#utility.yul\":945:1062   */\n      pop\n        /* \"#utility.yul\":740:1069   */\n      swap3\n      swap2\n      pop\n      pop\n      jump\t// out\n        /* \"#utility.yul\":1075:1404   */\n    tag_34:\n        /* \"#utility.yul\":1134:1140   */\n      0x00\n        /* \"#utility.yul\":1183:1185   */\n      0x20\n        /* \"#utility.yul\":1171:1180   */\n      dup3\n        /* \"#utility.yul\":1162:1169   */\n      dup5\n        /* \"#utility.yul\":1158:1181   */\n      sub\n        /* \"#utility.yul\":1154:1186   */\n      slt\n        /* \"#utility.yul\":1151:1270   */\n      iszero\n      tag_130\n      jumpi\n        /* \"#utility.yul\":1189:1268   */\n      tag_131\n      tag_127\n      jump\t// in\n    tag_131:\n        /* \"#utility.yul\":1151:1270   */\n    tag_130:\n        /* \"#utility.yul\":1309:1310   */\n      0x00\n        /* \"#utility.yul\":1334:1387   */\n      tag_132\n        /* \"#utility.yul\":1379:1386   */\n      dup5\n        /* \"#utility.yul\":1370:1376   */\n      dup3\n        /* \"#utility.yul\":1359:1368   */\n      dup6\n        /* \"#utility.yul\":1355:1377   */\n      add\n        /* \"#utility.yul\":1334:1387   */\n      tag_113\n      jump\t// in\n    tag_132:\n        /* \"#utility.yul\":1324:1387   */\n      swap2\n      pop\n        /* \"#utility.yul\":1280:1397   */\n      pop\n        /* \"#utility.yul\":1075:1404   */\n      swap3\n      swap2\n      pop\n      pop\n      jump\t// out\n        /* \"#utility.yul\":1410:2381   */\n    tag_94:\n        /* \"#utility.yul\":1513:1519   */\n      0x00\n        /* \"#utility.yul\":1521:1527   */\n      dup1\n        /* \"#utility.yul\":1529:1535   */\n      0x00\n        /* \"#utility.yul\":1537:1543   */\n      dup1\n        /* \"#utility.yul\":1545:1551   */\n      0x00\n        /* \"#utility.yul\":1594:1597   */\n      0xa0\n        /* \"#utility.yul\":1582:1591   */\n      dup7\n        /* \"#utility.yul\":1573:1580   */\n      dup9\n        /* \"#utility.yul\":1569:1592   */\n      sub\n        /* \"#utility.yul\":1565:1598   */\n      slt\n        /* \"#utility.yul\":1562:1682   */\n      iszero\n      tag_134\n      jumpi\n        /* \"#utility.yul\":1601:1680   */\n      tag_135\n      tag_127\n      jump\t// in\n    tag_135:\n        /* \"#utility.yul\":1562:1682   */\n    tag_134:\n        /* \"#utility.yul\":1721:1722   */\n      0x00\n        /* \"#utility.yul\":1746:1809   */\n      tag_136\n        /* \"#utility.yul\":1801:1808   */\n      dup9\n        /* \"#utility.yul\":1792:1798   */\n      dup3\n        /* \"#utility.yul\":1781:1790   */\n      dup10\n        /* \"#utility.yul\":1777:1799   */\n      add\n        /* \"#utility.yul\":1746:1809   */\n      tag_120\n      jump\t// in\n    tag_136:\n        /* \"#utility.yul\":1736:1809   */\n      swap6\n      pop\n        /* \"#utility.yul\":1692:1819   */\n      pop\n        /* \"#utility.yul\":1858:1860   */\n      0x20\n        /* \"#utility.yul\":1884:1947   */\n      tag_137\n        /* \"#utility.yul\":1939:1946   */\n      dup9\n        /* \"#utility.yul\":1930:1936   */\n      dup3\n        /* \"#utility.yul\":1919:1928   */\n      dup10\n        /* \"#utility.yul\":1915:1937   */\n      add\n        /* \"#utility.yul\":1884:1947   */\n      tag_109\n      jump\t// in\n    tag_137:\n        /* \"#utility.yul\":1874:1947   */\n      swap5\n      pop\n        /* \"#utility.yul\":1829:1957   */\n      pop\n        /* \"#utility.yul\":1996:1998   */\n      0x40\n        /* \"#utility.yul\":2022:2086   */\n      tag_138\n        /* \"#utility.yul\":2078:2085   */\n      dup9\n        /* \"#utility.yul\":2069:2075   */\n      dup3\n        /* \"#utility.yul\":2058:2067   */\n      dup10\n        /* \"#utility.yul\":2054:2076   */\n      add\n        /* \"#utility.yul\":2022:2086   */\n      tag_117\n      jump\t// in\n    tag_138:\n        /* \"#utility.yul\":2012:2086   */\n      swap4\n      pop\n        /* \"#utility.yul\":1967:2096   */\n      pop\n        /* \"#utility.yul\":2135:2137   */\n      0x60\n        /* \"#utility.yul\":2161:2225   */\n      tag_139\n        /* \"#utility.yul\":2217:2224   */\n      dup9\n        /* \"#utility.yul\":2208:2214   */\n      dup3\n        /* \"#utility.yul\":2197:2206   */\n      dup10\n        /* \"#utility.yul\":2193:2215   */\n      add\n        /* \"#utility.yul\":2161:2225   */\n      tag_117\n      jump\t// in\n    tag_139:\n        /* \"#utility.yul\":2151:2225   */\n      swap3\n      pop\n        /* \"#utility.yul\":2106:2235   */\n      pop\n        /* \"#utility.yul\":2274:2277   */\n      0x80\n        /* \"#utility.yul\":2301:2364   */\n      tag_140\n        /* \"#utility.yul\":2356:2363   */\n      dup9\n        /* \"#utility.yul\":2347:2353   */\n      dup3\n        /* \"#utility.yul\":2336:2345   */\n      dup10\n        /* \"#utility.yul\":2332:2354   */\n      add\n        /* \"#utility.yul\":2301:2364   */\n      tag_120\n      jump\t// in\n    tag_140:\n        /* \"#utility.yul\":2291:2364   */\n      swap2\n      pop\n        /* \"#utility.yul\":2245:2374   */\n      pop\n        /* \"#utility.yul\":1410:2381   */\n      swap3\n      swap6\n      pop\n      swap3\n      swap6\n      swap1\n      swap4\n      pop\n      jump\t// out\n        /* \"#utility.yul\":2387:2505   */\n    tag_141:\n        /* \"#utility.yul\":2474:2498   */\n      tag_143\n        /* \"#utility.yul\":2492:2497   */\n      dup2\n        /* \"#utility.yul\":2474:2498   */\n      tag_144\n      jump\t// in\n    tag_143:\n        /* \"#utility.yul\":2469:2472   */\n      dup3\n        /* \"#utility.yul\":2462:2499   */\n      mstore\n        /* \"#utility.yul\":2387:2505   */\n      pop\n      pop\n      jump\t// out\n        /* \"#utility.yul\":2511:2877   */\n    tag_145:\n        /* \"#utility.yul\":2653:2656   */\n      0x00\n        /* \"#utility.yul\":2674:2741   */\n      tag_147\n        /* \"#utility.yul\":2738:2740   */\n      0x15\n        /* \"#utility.yul\":2733:2736   */\n      dup4\n        /* \"#utility.yul\":2674:2741   */\n      tag_148\n      jump\t// in\n    tag_147:\n        /* \"#utility.yul\":2667:2741   */\n      swap2\n      pop\n        /* \"#utility.yul\":2750:2843   */\n      tag_149\n        /* \"#utility.yul\":2839:2842   */\n      dup3\n        /* \"#utility.yul\":2750:2843   */\n      tag_150\n      jump\t// in\n    tag_149:\n        /* \"#utility.yul\":2868:2870   */\n      0x20\n        /* \"#utility.yul\":2863:2866   */\n      dup3\n        /* \"#utility.yul\":2859:2871   */\n      add\n        /* \"#utility.yul\":2852:2871   */\n      swap1\n      pop\n        /* \"#utility.yul\":2511:2877   */\n      swap2\n      swap1\n      pop\n      jump\t// out\n        /* \"#utility.yul\":2883:3249   */\n    tag_151:\n        /* \"#utility.yul\":3025:3028   */\n      0x00\n        /* \"#utility.yul\":3046:3113   */\n      tag_153\n        /* \"#utility.yul\":3110:3112   */\n      0x11\n        /* \"#utility.yul\":3105:3108   */\n      dup4\n        /* \"#utility.yul\":3046:3113   */\n      tag_148\n      jump\t// in\n    tag_153:\n        /* \"#utility.yul\":3039:3113   */\n      swap2\n      pop\n        /* \"#utility.yul\":3122:3215   */\n      tag_154\n        /* \"#utility.yul\":3211:3214   */\n      dup3\n        /* \"#utility.yul\":3122:3215   */\n      tag_155\n      jump\t// in\n    tag_154:\n        /* \"#utility.yul\":3240:3242   */\n      0x20\n        /* \"#utility.yul\":3235:3238   */\n      dup3\n        /* \"#utility.yul\":3231:3243   */\n      add\n        /* \"#utility.yul\":3224:3243   */\n      swap1\n      pop\n        /* \"#utility.yul\":2883:3249   */\n      swap2\n      swap1\n      pop\n      jump\t// out\n        /* \"#utility.yul\":3255:3621   */\n    tag_156:\n        /* \"#utility.yul\":3397:3400   */\n      0x00\n        /* \"#utility.yul\":3418:3485   */\n      tag_158\n        /* \"#utility.yul\":3482:3484   */\n      0x0b\n        /* \"#utility.yul\":3477:3480   */\n      dup4\n        /* \"#utility.yul\":3418:3485   */\n      tag_148\n      jump\t// in\n    tag_158:\n        /* \"#utility.yul\":3411:3485   */\n      swap2\n      pop\n        /* \"#utility.yul\":3494:3587   */\n      tag_159\n        /* \"#utility.yul\":3583:3586   */\n      dup3\n        /* \"#utility.yul\":3494:3587   */\n      tag_160\n      jump\t// in\n    tag_159:\n        /* \"#utility.yul\":3612:3614   */\n      0x20\n        /* \"#utility.yul\":3607:3610   */\n      dup3\n        /* \"#utility.yul\":3603:3615   */\n      add\n        /* \"#utility.yul\":3596:3615   */\n      swap1\n      pop\n        /* \"#utility.yul\":3255:3621   */\n      swap2\n      swap1\n      pop\n      jump\t// out\n        /* \"#utility.yul\":3627:4025   */\n    tag_161:\n        /* \"#utility.yul\":3786:3789   */\n      0x00\n        /* \"#utility.yul\":3807:3890   */\n      tag_163\n        /* \"#utility.yul\":3888:3889   */\n      0x00\n        /* \"#utility.yul\":3883:3886   */\n      dup4\n        /* \"#utility.yul\":3807:3890   */\n      tag_164\n      jump\t// in\n    tag_163:\n        /* \"#utility.yul\":3800:3890   */\n      swap2\n      pop\n        /* \"#utility.yul\":3899:3992   */\n      tag_165\n        /* \"#utility.yul\":3988:3991   */\n      dup3\n        /* \"#utility.yul\":3899:3992   */\n      tag_166\n      jump\t// in\n    tag_165:\n        /* \"#utility.yul\":4017:4018   */\n      0x00\n        /* \"#utility.yul\":4012:4015   */\n      dup3\n        /* \"#utility.yul\":4008:4019   */\n      add\n        /* \"#utility.yul\":4001:4019   */\n      swap1\n      pop\n        /* \"#utility.yul\":3627:4025   */\n      swap2\n      swap1\n      pop\n      jump\t// out\n        /* \"#utility.yul\":4031:4149   */\n    tag_167:\n        /* \"#utility.yul\":4118:4142   */\n      tag_169\n        /* \"#utility.yul\":4136:4141   */\n      dup2\n        /* \"#utility.yul\":4118:4142   */\n      tag_170\n      jump\t// in\n    tag_169:\n        /* \"#utility.yul\":4113:4116   */\n      dup3\n        /* \"#utility.yul\":4106:4143   */\n      mstore\n        /* \"#utility.yul\":4031:4149   */\n      pop\n      pop\n      jump\t// out\n        /* \"#utility.yul\":4155:4534   */\n    tag_58:\n        /* \"#utility.yul\":4339:4342   */\n      0x00\n        /* \"#utility.yul\":4361:4508   */\n      tag_172\n        /* \"#utility.yul\":4504:4507   */\n      dup3\n        /* \"#utility.yul\":4361:4508   */\n      tag_161\n      jump\t// in\n    tag_172:\n        /* \"#utility.yul\":4354:4508   */\n      swap2\n      pop\n        /* \"#utility.yul\":4525:4528   */\n      dup2\n        /* \"#utility.yul\":4518:4528   */\n      swap1\n      pop\n        /* \"#utility.yul\":4155:4534   */\n      swap2\n      swap1\n      pop\n      jump\t// out\n        /* \"#utility.yul\":4540:4762   */\n    tag_14:\n        /* \"#utility.yul\":4633:4637   */\n      0x00\n        /* \"#utility.yul\":4671:4673   */\n      0x20\n        /* \"#utility.yul\":4660:4669   */\n      dup3\n        /* \"#utility.yul\":4656:4674   */\n      add\n        /* \"#utility.yul\":4648:4674   */\n      swap1\n      pop\n        /* \"#utility.yul\":4684:4755   */\n      tag_174\n        /* \"#utility.yul\":4752:4753   */\n      0x00\n        /* \"#utility.yul\":4741:4750   */\n      dup4\n        /* \"#utility.yul\":4737:4754   */\n      add\n        /* \"#utility.yul\":4728:4734   */\n      dup5\n        /* \"#utility.yul\":4684:4755   */\n      tag_141\n      jump\t// in\n    tag_174:\n        /* \"#utility.yul\":4540:4762   */\n      swap3\n      swap2\n      pop\n      pop\n      jump\t// out\n        /* \"#utility.yul\":4768:5187   */\n    tag_44:\n        /* \"#utility.yul\":4934:4938   */\n      0x00\n        /* \"#utility.yul\":4972:4974   */\n      0x20\n        /* \"#utility.yul\":4961:4970   */\n      dup3\n        /* \"#utility.yul\":4957:4975   */\n      add\n        /* \"#utility.yul\":4949:4975   */\n      swap1\n      pop\n        /* \"#utility.yul\":5021:5030   */\n      dup2\n        /* \"#utility.yul\":5015:5019   */\n      dup2\n        /* \"#utility.yul\":5011:5031   */\n      sub\n        /* \"#utility.yul\":5007:5008   */\n      0x00\n        /* \"#utility.yul\":4996:5005   */\n      dup4\n        /* \"#utility.yul\":4992:5009   */\n      add\n        /* \"#utility.yul\":4985:5032   */\n      mstore\n        /* \"#utility.yul\":5049:5180   */\n      tag_176\n        /* \"#utility.yul\":5175:5179   */\n      dup2\n        /* \"#utility.yul\":5049:5180   */\n      tag_145\n      jump\t// in\n    tag_176:\n        /* \"#utility.yul\":5041:5180   */\n      swap1\n      pop\n        /* \"#utility.yul\":4768:5187   */\n      swap2\n      swap1\n      pop\n      jump\t// out\n        /* \"#utility.yul\":5193:5612   */\n    tag_51:\n        /* \"#utility.yul\":5359:5363   */\n      0x00\n        /* \"#utility.yul\":5397:5399   */\n      0x20\n        /* \"#utility.yul\":5386:5395   */\n      dup3\n        /* \"#utility.yul\":5382:5400   */\n      add\n        /* \"#utility.yul\":5374:5400   */\n      swap1\n      pop\n        /* \"#utility.yul\":5446:5455   */\n      dup2\n        /* \"#utility.yul\":5440:5444   */\n      dup2\n        /* \"#utility.yul\":5436:5456   */\n      sub\n        /* \"#utility.yul\":5432:5433   */\n      0x00\n        /* \"#utility.yul\":5421:5430   */\n      dup4\n        /* \"#utility.yul\":5417:5434   */\n      add\n        /* \"#utility.yul\":5410:5457   */\n      mstore\n        /* \"#utility.yul\":5474:5605   */\n      tag_178\n        /* \"#utility.yul\":5600:5604   */\n      dup2\n        /* \"#utility.yul\":5474:5605   */\n      tag_151\n      jump\t// in\n    tag_178:\n        /* \"#utility.yul\":5466:5605   */\n      swap1\n      pop\n        /* \"#utility.yul\":5193:5612   */\n      swap2\n      swap1\n      pop\n      jump\t// out\n        /* \"#utility.yul\":5618:6037   */\n    tag_64:\n        /* \"#utility.yul\":5784:5788   */\n      0x00\n        /* \"#utility.yul\":5822:5824   */\n      0x20\n        /* \"#utility.yul\":5811:5820   */\n      dup3\n        /* \"#utility.yul\":5807:5825   */\n      add\n        /* \"#utility.yul\":5799:5825   */\n      swap1\n      pop\n        /* \"#utility.yul\":5871:5880   */\n      dup2\n        /* \"#utility.yul\":5865:5869   */\n      dup2\n        /* \"#utility.yul\":5861:5881   */\n      sub\n        /* \"#utility.yul\":5857:5858   */\n      0x00\n        /* \"#utility.yul\":5846:5855   */\n      dup4\n        /* \"#utility.yul\":5842:5859   */\n      add\n        /* \"#utility.yul\":5835:5882   */\n      mstore\n        /* \"#utility.yul\":5899:6030   */\n      tag_180\n        /* \"#utility.yul\":6025:6029   */\n      dup2\n        /* \"#utility.yul\":5899:6030   */\n      tag_156\n      jump\t// in\n    tag_180:\n        /* \"#utility.yul\":5891:6030   */\n      swap1\n      pop\n        /* \"#utility.yul\":5618:6037   */\n      swap2\n      swap1\n      pop\n      jump\t// out\n        /* \"#utility.yul\":6043:6265   */\n    tag_21:\n        /* \"#utility.yul\":6136:6140   */\n      0x00\n        /* \"#utility.yul\":6174:6176   */\n      0x20\n        /* \"#utility.yul\":6163:6172   */\n      dup3\n        /* \"#utility.yul\":6159:6177   */\n      add\n        /* \"#utility.yul\":6151:6177   */\n      swap1\n      pop\n        /* \"#utility.yul\":6187:6258   */\n      tag_182\n        /* \"#utility.yul\":6255:6256   */\n      0x00\n        /* \"#utility.yul\":6244:6253   */\n      dup4\n        /* \"#utility.yul\":6240:6257   */\n      add\n        /* \"#utility.yul\":6231:6237   */\n      dup5\n        /* \"#utility.yul\":6187:6258   */\n      tag_167\n      jump\t// in\n    tag_182:\n        /* \"#utility.yul\":6043:6265   */\n      swap3\n      swap2\n      pop\n      pop\n      jump\t// out\n        /* \"#utility.yul\":6352:6499   */\n    tag_164:\n        /* \"#utility.yul\":6453:6464   */\n      0x00\n        /* \"#utility.yul\":6490:6493   */\n      dup2\n        /* \"#utility.yul\":6475:6493   */\n      swap1\n      pop\n        /* \"#utility.yul\":6352:6499   */\n      swap3\n      swap2\n      pop\n      pop\n      jump\t// out\n        /* \"#utility.yul\":6505:6674   */\n    tag_148:\n        /* \"#utility.yul\":6589:6600   */\n      0x00\n        /* \"#utility.yul\":6623:6629   */\n      dup3\n        /* \"#utility.yul\":6618:6621   */\n      dup3\n        /* \"#utility.yul\":6611:6630   */\n      mstore\n        /* \"#utility.yul\":6663:6667   */\n      0x20\n        /* \"#utility.yul\":6658:6661   */\n      dup3\n        /* \"#utility.yul\":6654:6668   */\n      add\n        /* \"#utility.yul\":6639:6668   */\n      swap1\n      pop\n        /* \"#utility.yul\":6505:6674   */\n      swap3\n      swap2\n      pop\n      pop\n      jump\t// out\n        /* \"#utility.yul\":6680:6865   */\n    tag_88:\n        /* \"#utility.yul\":6720:6721   */\n      0x00\n        /* \"#utility.yul\":6737:6757   */\n      tag_188\n        /* \"#utility.yul\":6755:6756   */\n      dup3\n        /* \"#utility.yul\":6737:6757   */\n      tag_170\n      jump\t// in\n    tag_188:\n        /* \"#utility.yul\":6732:6757   */\n      swap2\n      pop\n        /* \"#utility.yul\":6771:6791   */\n      tag_189\n        /* \"#utility.yul\":6789:6790   */\n      dup4\n        /* \"#utility.yul\":6771:6791   */\n      tag_170\n      jump\t// in\n    tag_189:\n        /* \"#utility.yul\":6766:6791   */\n      swap3\n      pop\n        /* \"#utility.yul\":6810:6811   */\n      dup3\n        /* \"#utility.yul\":6800:6835   */\n      tag_190\n      jumpi\n        /* \"#utility.yul\":6815:6833   */\n      tag_191\n      tag_192\n      jump\t// in\n    tag_191:\n        /* \"#utility.yul\":6800:6835   */\n    tag_190:\n        /* \"#utility.yul\":6857:6858   */\n      dup3\n        /* \"#utility.yul\":6854:6855   */\n      dup3\n        /* \"#utility.yul\":6850:6859   */\n      div\n        /* \"#utility.yul\":6845:6859   */\n      swap1\n      pop\n        /* \"#utility.yul\":6680:6865   */\n      swap3\n      swap2\n      pop\n      pop\n      jump\t// out\n        /* \"#utility.yul\":6871:7862   */\n    tag_96:\n        /* \"#utility.yul\":6910:6917   */\n      0x00\n        /* \"#utility.yul\":6933:6952   */\n      tag_194\n        /* \"#utility.yul\":6950:6951   */\n      dup3\n        /* \"#utility.yul\":6933:6952   */\n      tag_195\n      jump\t// in\n    tag_194:\n        /* \"#utility.yul\":6928:6952   */\n      swap2\n      pop\n        /* \"#utility.yul\":6966:6985   */\n      tag_196\n        /* \"#utility.yul\":6983:6984   */\n      dup4\n        /* \"#utility.yul\":6966:6985   */\n      tag_195\n      jump\t// in\n    tag_196:\n        /* \"#utility.yul\":6961:6985   */\n      swap3\n      pop\n        /* \"#utility.yul\":7167:7168   */\n      dup3\n        /* \"#utility.yul\":7099:7165   */\n      0x7fffffffffffffffffffffffffffffffffffffffffffffffffffffffffffffff\n        /* \"#utility.yul\":7095:7169   */\n      div\n        /* \"#utility.yul\":7092:7093   */\n      dup3\n        /* \"#utility.yul\":7089:7170   */\n      gt\n        /* \"#utility.yul\":7084:7085   */\n      0x00\n        /* \"#utility.yul\":7081:7082   */\n      dup5\n        /* \"#utility.yul\":7077:7086   */\n      sgt\n        /* \"#utility.yul\":7073:7074   */\n      0x00\n        /* \"#utility.yul\":7070:7071   */\n      dup5\n        /* \"#utility.yul\":7066:7075   */\n      sgt\n        /* \"#utility.yul\":7062:7087   */\n      and\n        /* \"#utility.yul\":7058:7171   */\n      and\n        /* \"#utility.yul\":7055:7194   */\n      iszero\n      tag_197\n      jumpi\n        /* \"#utility.yul\":7174:7192   */\n      tag_198\n      tag_199\n      jump\t// in\n    tag_198:\n        /* \"#utility.yul\":7055:7194   */\n    tag_197:\n        /* \"#utility.yul\":7378:7379   */\n      dup2\n        /* \"#utility.yul\":7310:7376   */\n      0x8000000000000000000000000000000000000000000000000000000000000000\n        /* \"#utility.yul\":7305:7380   */\n      sdiv\n        /* \"#utility.yul\":7302:7303   */\n      dup4\n        /* \"#utility.yul\":7298:7381   */\n      slt\n        /* \"#utility.yul\":7293:7294   */\n      0x00\n        /* \"#utility.yul\":7290:7291   */\n      dup5\n        /* \"#utility.yul\":7286:7295   */\n      slt\n        /* \"#utility.yul\":7282:7283   */\n      0x00\n        /* \"#utility.yul\":7279:7280   */\n      dup5\n        /* \"#utility.yul\":7275:7284   */\n      sgt\n        /* \"#utility.yul\":7271:7296   */\n      and\n        /* \"#utility.yul\":7267:7382   */\n      and\n        /* \"#utility.yul\":7264:7405   */\n      iszero\n      tag_200\n      jumpi\n        /* \"#utility.yul\":7385:7403   */\n      tag_201\n      tag_199\n      jump\t// in\n    tag_201:\n        /* \"#utility.yul\":7264:7405   */\n    tag_200:\n        /* \"#utility.yul\":7589:7590   */\n      dup3\n        /* \"#utility.yul\":7521:7587   */\n      0x8000000000000000000000000000000000000000000000000000000000000000\n        /* \"#utility.yul\":7516:7591   */\n      sdiv\n        /* \"#utility.yul\":7513:7514   */\n      dup3\n        /* \"#utility.yul\":7509:7592   */\n      slt\n        /* \"#utility.yul\":7504:7505   */\n      0x00\n        /* \"#utility.yul\":7501:7502   */\n      dup5\n        /* \"#utility.yul\":7497:7506   */\n      sgt\n        /* \"#utility.yul\":7493:7494   */\n      0x00\n        /* \"#utility.yul\":7490:7491   */\n      dup5\n        /* \"#utility.yul\":7486:7495   */\n      slt\n        /* \"#utility.yul\":7482:7507   */\n      and\n        /* \"#utility.yul\":7478:7593   */\n      and\n        /* \"#utility.yul\":7475:7616   */\n      iszero\n      tag_202\n      jumpi\n        /* \"#utility.yul\":7596:7614   */\n      tag_203\n      tag_199\n      jump\t// in\n    tag_203:\n        /* \"#utility.yul\":7475:7616   */\n    tag_202:\n        /* \"#utility.yul\":7799:7800   */\n      dup3\n        /* \"#utility.yul\":7731:7797   */\n      0x7fffffffffffffffffffffffffffffffffffffffffffffffffffffffffffffff\n        /* \"#utility.yul\":7726:7801   */\n      sdiv\n        /* \"#utility.yul\":7723:7724   */\n      dup3\n        /* \"#utility.yul\":7719:7802   */\n      slt\n        /* \"#utility.yul\":7714:7715   */\n      0x00\n        /* \"#utility.yul\":7711:7712   */\n      dup5\n        /* \"#utility.yul\":7707:7716   */\n      slt\n        /* \"#utility.yul\":7703:7704   */\n      0x00\n        /* \"#utility.yul\":7700:7701   */\n      dup5\n        /* \"#utility.yul\":7696:7705   */\n      slt\n        /* \"#utility.yul\":7692:7717   */\n      and\n        /* \"#utility.yul\":7688:7803   */\n      and\n        /* \"#utility.yul\":7685:7826   */\n      iszero\n      tag_204\n      jumpi\n        /* \"#utility.yul\":7806:7824   */\n      tag_205\n      tag_199\n      jump\t// in\n    tag_205:\n        /* \"#utility.yul\":7685:7826   */\n    tag_204:\n        /* \"#utility.yul\":7854:7855   */\n      dup3\n        /* \"#utility.yul\":7851:7852   */\n      dup3\n        /* \"#utility.yul\":7847:7856   */\n      mul\n        /* \"#utility.yul\":7836:7856   */\n      swap1\n      pop\n        /* \"#utility.yul\":6871:7862   */\n      swap3\n      swap2\n      pop\n      pop\n      jump\t// out\n        /* \"#utility.yul\":7868:8216   */\n    tag_86:\n        /* \"#utility.yul\":7908:7915   */\n      0x00\n        /* \"#utility.yul\":7931:7951   */\n      tag_207\n        /* \"#utility.yul\":7949:7950   */\n      dup3\n        /* \"#utility.yul\":7931:7951   */\n      tag_170\n      jump\t// in\n    tag_207:\n        /* \"#utility.yul\":7926:7951   */\n      swap2\n      pop\n        /* \"#utility.yul\":7965:7985   */\n      tag_208\n        /* \"#utility.yul\":7983:7984   */\n      dup4\n        /* \"#utility.yul\":7965:7985   */\n      tag_170\n      jump\t// in\n    tag_208:\n        /* \"#utility.yul\":7960:7985   */\n      swap3\n      pop\n        /* \"#utility.yul\":8153:8154   */\n      dup2\n        /* \"#utility.yul\":8085:8151   */\n      0xffffffffffffffffffffffffffffffffffffffffffffffffffffffffffffffff\n        /* \"#utility.yul\":8081:8155   */\n      div\n        /* \"#utility.yul\":8078:8079   */\n      dup4\n        /* \"#utility.yul\":8075:8156   */\n      gt\n        /* \"#utility.yul\":8070:8071   */\n      dup3\n        /* \"#utility.yul\":8063:8072   */\n      iszero\n        /* \"#utility.yul\":8056:8073   */\n      iszero\n        /* \"#utility.yul\":8052:8157   */\n      and\n        /* \"#utility.yul\":8049:8180   */\n      iszero\n      tag_209\n      jumpi\n        /* \"#utility.yul\":8160:8178   */\n      tag_210\n      tag_199\n      jump\t// in\n    tag_210:\n        /* \"#utility.yul\":8049:8180   */\n    tag_209:\n        /* \"#utility.yul\":8208:8209   */\n      dup3\n        /* \"#utility.yul\":8205:8206   */\n      dup3\n        /* \"#utility.yul\":8201:8210   */\n      mul\n        /* \"#utility.yul\":8190:8210   */\n      swap1\n      pop\n        /* \"#utility.yul\":7868:8216   */\n      swap3\n      swap2\n      pop\n      pop\n      jump\t// out\n        /* \"#utility.yul\":8222:8318   */\n    tag_144:\n        /* \"#utility.yul\":8259:8266   */\n      0x00\n        /* \"#utility.yul\":8288:8312   */\n      tag_212\n        /* \"#utility.yul\":8306:8311   */\n      dup3\n        /* \"#utility.yul\":8288:8312   */\n      tag_213\n      jump\t// in\n    tag_212:\n        /* \"#utility.yul\":8277:8312   */\n      swap1\n      pop\n        /* \"#utility.yul\":8222:8318   */\n      swap2\n      swap1\n      pop\n      jump\t// out\n        /* \"#utility.yul\":8324:8400   */\n    tag_195:\n        /* \"#utility.yul\":8360:8367   */\n      0x00\n        /* \"#utility.yul\":8389:8394   */\n      dup2\n        /* \"#utility.yul\":8378:8394   */\n      swap1\n      pop\n        /* \"#utility.yul\":8324:8400   */\n      swap2\n      swap1\n      pop\n      jump\t// out\n        /* \"#utility.yul\":8406:8532   */\n    tag_213:\n        /* \"#utility.yul\":8443:8450   */\n      0x00\n        /* \"#utility.yul\":8483:8525   */\n      0xffffffffffffffffffffffffffffffffffffffff\n        /* \"#utility.yul\":8476:8481   */\n      dup3\n        /* \"#utility.yul\":8472:8526   */\n      and\n        /* \"#utility.yul\":8461:8526   */\n      swap1\n      pop\n        /* \"#utility.yul\":8406:8532   */\n      swap2\n      swap1\n      pop\n      jump\t// out\n        /* \"#utility.yul\":8538:8615   */\n    tag_170:\n        /* \"#utility.yul\":8575:8582   */\n      0x00\n        /* \"#utility.yul\":8604:8609   */\n      dup2\n        /* \"#utility.yul\":8593:8609   */\n      swap1\n      pop\n        /* \"#utility.yul\":8538:8615   */\n      swap2\n      swap1\n      pop\n      jump\t// out\n        /* \"#utility.yul\":8621:8726   */\n    tag_217:\n        /* \"#utility.yul\":8657:8664   */\n      0x00\n        /* \"#utility.yul\":8697:8719   */\n      0xffffffffffffffffffff\n        /* \"#utility.yul\":8690:8695   */\n      dup3\n        /* \"#utility.yul\":8686:8720   */\n      and\n        /* \"#utility.yul\":8675:8720   */\n      swap1\n      pop\n        /* \"#utility.yul\":8621:8726   */\n      swap2\n      swap1\n      pop\n      jump\t// out\n        /* \"#utility.yul\":8732:8965   */\n    tag_73:\n        /* \"#utility.yul\":8771:8774   */\n      0x00\n        /* \"#utility.yul\":8794:8818   */\n      tag_220\n        /* \"#utility.yul\":8812:8817   */\n      dup3\n        /* \"#utility.yul\":8794:8818   */\n      tag_170\n      jump\t// in\n    tag_220:\n        /* \"#utility.yul\":8785:8818   */\n      swap2\n      pop\n        /* \"#utility.yul\":8840:8906   */\n      0xffffffffffffffffffffffffffffffffffffffffffffffffffffffffffffffff\n        /* \"#utility.yul\":8833:8838   */\n      dup3\n        /* \"#utility.yul\":8830:8907   */\n      eq\n        /* \"#utility.yul\":8827:8930   */\n      iszero\n      tag_221\n      jumpi\n        /* \"#utility.yul\":8910:8928   */\n      tag_222\n      tag_199\n      jump\t// in\n    tag_222:\n        /* \"#utility.yul\":8827:8930   */\n    tag_221:\n        /* \"#utility.yul\":8957:8958   */\n      0x01\n        /* \"#utility.yul\":8950:8955   */\n      dup3\n        /* \"#utility.yul\":8946:8959   */\n      add\n        /* \"#utility.yul\":8939:8959   */\n      swap1\n      pop\n        /* \"#utility.yul\":8732:8965   */\n      swap2\n      swap1\n      pop\n      jump\t// out\n        /* \"#utility.yul\":8971:9151   */\n    tag_199:\n        /* \"#utility.yul\":9019:9096   */\n      0x4e487b7100000000000000000000000000000000000000000000000000000000\n        /* \"#utility.yul\":9016:9017   */\n      0x00\n        /* \"#utility.yul\":9009:9097   */\n      mstore\n        /* \"#utility.yul\":9116:9120   */\n      0x11\n        /* \"#utility.yul\":9113:9114   */\n      0x04\n        /* \"#utility.yul\":9106:9121   */\n      mstore\n        /* \"#utility.yul\":9140:9144   */\n      0x24\n        /* \"#utility.yul\":9137:9138   */\n      0x00\n        /* \"#utility.yul\":9130:9145   */\n      revert\n        /* \"#utility.yul\":9157:9337   */\n    tag_192:\n        /* \"#utility.yul\":9205:9282   */\n      0x4e487b7100000000000000000000000000000000000000000000000000000000\n        /* \"#utility.yul\":9202:9203   */\n      0x00\n        /* \"#utility.yul\":9195:9283   */\n      mstore\n        /* \"#utility.yul\":9302:9306   */\n      0x12\n        /* \"#utility.yul\":9299:9300   */\n      0x04\n        /* \"#utility.yul\":9292:9307   */\n      mstore\n        /* \"#utility.yul\":9326:9330   */\n      0x24\n        /* \"#utility.yul\":9323:9324   */\n      0x00\n        /* \"#utility.yul\":9316:9331   */\n      revert\n        /* \"#utility.yul\":9343:9523   */\n    tag_70:\n        /* \"#utility.yul\":9391:9468   */\n      0x4e487b7100000000000000000000000000000000000000000000000000000000\n        /* \"#utility.yul\":9388:9389   */\n      0x00\n        /* \"#utility.yul\":9381:9469   */\n      mstore\n        /* \"#utility.yul\":9488:9492   */\n      0x32\n        /* \"#utility.yul\":9485:9486   */\n      0x04\n        /* \"#utility.yul\":9478:9493   */\n      mstore\n        /* \"#utility.yul\":9512:9516   */\n      0x24\n        /* \"#utility.yul\":9509:9510   */\n      0x00\n        /* \"#utility.yul\":9502:9517   */\n      revert\n        /* \"#utility.yul\":9529:9709   */\n    tag_76:\n        /* \"#utility.yul\":9577:9654   */\n      0x4e487b7100000000000000000000000000000000000000000000000000000000\n        /* \"#utility.yul\":9574:9575   */\n      0x00\n        /* \"#utility.yul\":9567:9655   */\n      mstore\n        /* \"#utility.yul\":9674:9678   */\n      0x41\n        /* \"#utility.yul\":9671:9672   */\n      0x04\n        /* \"#utility.yul\":9664:9679   */\n      mstore\n        /* \"#utility.yul\":9698:9702   */\n      0x24\n        /* \"#utility.yul\":9695:9696   */\n      0x00\n        /* \"#utility.yul\":9688:9703   */\n      revert\n        /* \"#utility.yul\":9838:9955   */\n    tag_127:\n        /* \"#utility.yul\":9947:9948   */\n      0x00\n        /* \"#utility.yul\":9944:9945   */\n      dup1\n        /* \"#utility.yul\":9937:9949   */\n      revert\n        /* \"#utility.yul\":9961:10132   */\n    tag_150:\n        /* \"#utility.yul\":10101:10124   */\n      0x596f7520617265206e6f7420746865206f776e65720000000000000000000000\n        /* \"#utility.yul\":10097:10098   */\n      0x00\n        /* \"#utility.yul\":10089:10095   */\n      dup3\n        /* \"#utility.yul\":10085:10099   */\n      add\n        /* \"#utility.yul\":10078:10125   */\n      mstore\n        /* \"#utility.yul\":9961:10132   */\n      pop\n      jump\t// out\n        /* \"#utility.yul\":10138:10305   */\n    tag_155:\n        /* \"#utility.yul\":10278:10297   */\n      0x4d6f726520455448207265717569726564000000000000000000000000000000\n        /* \"#utility.yul\":10274:10275   */\n      0x00\n        /* \"#utility.yul\":10266:10272   */\n      dup3\n        /* \"#utility.yul\":10262:10276   */\n      add\n        /* \"#utility.yul\":10255:10298   */\n      mstore\n        /* \"#utility.yul\":10138:10305   */\n      pop\n      jump\t// out\n        /* \"#utility.yul\":10311:10472   */\n    tag_160:\n        /* \"#utility.yul\":10451:10464   */\n      0x53656e64206661696c6564000000000000000000000000000000000000000000\n        /* \"#utility.yul\":10447:10448   */\n      0x00\n        /* \"#utility.yul\":10439:10445   */\n      dup3\n        /* \"#utility.yul\":10435:10449   */\n      add\n        /* \"#utility.yul\":10428:10465   */\n      mstore\n        /* \"#utility.yul\":10311:10472   */\n      pop\n      jump\t// out\n        /* \"#utility.yul\":10478:10592   */\n    tag_166:\n      pop\n      jump\t// out\n        /* \"#utility.yul\":10598:10720   */\n    tag_108:\n        /* \"#utility.yul\":10671:10695   */\n      tag_235\n        /* \"#utility.yul\":10689:10694   */\n      dup2\n        /* \"#utility.yul\":10671:10695   */\n      tag_144\n      jump\t// in\n    tag_235:\n        /* \"#utility.yul\":10664:10669   */\n      dup2\n        /* \"#utility.yul\":10661:10696   */\n      eq\n        /* \"#utility.yul\":10651:10714   */\n      tag_236\n      jumpi\n        /* \"#utility.yul\":10710:10711   */\n      0x00\n        /* \"#utility.yul\":10707:10708   */\n      dup1\n        /* \"#utility.yul\":10700:10712   */\n      revert\n        /* \"#utility.yul\":10651:10714   */\n    tag_236:\n        /* \"#utility.yul\":10598:10720   */\n      pop\n      jump\t// out\n        /* \"#utility.yul\":10726:10846   */\n    tag_112:\n        /* \"#utility.yul\":10798:10821   */\n      tag_238\n        /* \"#utility.yul\":10815:10820   */\n      dup2\n        /* \"#utility.yul\":10798:10821   */\n      tag_195\n      jump\t// in\n    tag_238:\n        /* \"#utility.yul\":10791:10796   */\n      dup2\n        /* \"#utility.yul\":10788:10822   */\n      eq\n        /* \"#utility.yul\":10778:10840   */\n      tag_239\n      jumpi\n        /* \"#utility.yul\":10836:10837   */\n      0x00\n        /* \"#utility.yul\":10833:10834   */\n      dup1\n        /* \"#utility.yul\":10826:10838   */\n      revert\n        /* \"#utility.yul\":10778:10840   */\n    tag_239:\n        /* \"#utility.yul\":10726:10846   */\n      pop\n      jump\t// out\n        /* \"#utility.yul\":10852:10974   */\n    tag_116:\n        /* \"#utility.yul\":10925:10949   */\n      tag_241\n        /* \"#utility.yul\":10943:10948   */\n      dup2\n        /* \"#utility.yul\":10925:10949   */\n      tag_170\n      jump\t// in\n    tag_241:\n        /* \"#utility.yul\":10918:10923   */\n      dup2\n        /* \"#utility.yul\":10915:10950   */\n      eq\n        /* \"#utility.yul\":10905:10968   */\n      tag_242\n      jumpi\n        /* \"#utility.yul\":10964:10965   */\n      0x00\n        /* \"#utility.yul\":10961:10962   */\n      dup1\n        /* \"#utility.yul\":10954:10966   */\n      revert\n        /* \"#utility.yul\":10905:10968   */\n    tag_242:\n        /* \"#utility.yul\":10852:10974   */\n      pop\n      jump\t// out\n        /* \"#utility.yul\":10980:11100   */\n    tag_123:\n        /* \"#utility.yul\":11052:11075   */\n      tag_244\n        /* \"#utility.yul\":11069:11074   */\n      dup2\n        /* \"#utility.yul\":11052:11075   */\n      tag_217\n      jump\t// in\n    tag_244:\n        /* \"#utility.yul\":11045:11050   */\n      dup2\n        /* \"#utility.yul\":11042:11076   */\n      eq\n        /* \"#utility.yul\":11032:11094   */\n      tag_245\n      jumpi\n        /* \"#utility.yul\":11090:11091   */\n      0x00\n        /* \"#utility.yul\":11087:11088   */\n      dup1\n        /* \"#utility.yul\":11080:11092   */\n      revert\n        /* \"#utility.yul\":11032:11094   */\n    tag_245:\n        /* \"#utility.yul\":10980:11100   */\n      pop\n      jump\t// out\n\n    auxdata: 0xa26469706673582212206077e39ddf14f65a9e9f4a626873ac37ee3816f4879faf4033f6cda8d9e9e1aa64736f6c63430008070033\n}\n",
				"bytecode": {
					"linkReferences": {},
					"object": "608060405234801561001057600080fd5b5060405162000ffe38038062000ffe833981810160405281019061003491906100d0565b336000806101000a81548173ffffffffffffffffffffffffffffffffffffffff021916908373ffffffffffffffffffffffffffffffffffffffff16021790555080600260006101000a81548173ffffffffffffffffffffffffffffffffffffffff021916908373ffffffffffffffffffffffffffffffffffffffff1602179055505061014b565b6000815190506100ca81610134565b92915050565b6000602082840312156100e6576100e561012f565b5b60006100f4848285016100bb565b91505092915050565b60006101088261010f565b9050919050565b600073ffffffffffffffffffffffffffffffffffffffff82169050919050565b600080fd5b61013d816100fd565b811461014857600080fd5b50565b610ea3806200015b6000396000f3fe6080604052600436106100705760003560e01c8063b60d42881161004e578063b60d428814610106578063ccadfaf214610110578063dc0d3dff14610127578063dc992aa01461016457610070565b80638da5cb5b146100755780639d9ef3e7146100a0578063a6f9dae1146100dd575b600080fd5b34801561008157600080fd5b5061008a61018f565b60405161009791906109d9565b60405180910390f35b3480156100ac57600080fd5b506100c760048036038101906100c29190610845565b6101b3565b6040516100d49190610a54565b60405180910390f35b3480156100e957600080fd5b5061010460048036038101906100ff9190610845565b6101cb565b005b61010e61029c565b005b34801561011c57600080fd5b506101256103c4565b005b34801561013357600080fd5b5061014e60048036038101906101499190610872565b61060e565b60405161015b91906109d9565b60405180910390f35b34801561017057600080fd5b5061017961064d565b6040516101869190610a54565b60405180910390f35b60008054906101000a900473ffffffffffffffffffffffffffffffffffffffff1681565b60036020528060005260406000206000915090505481565b60008054906101000a900473ffffffffffffffffffffffffffffffffffffffff1673ffffffffffffffffffffffffffffffffffffffff163373ffffffffffffffffffffffffffffffffffffffff1614610259576040517f08c379a0000000000000000000000000000000000000000000000000000000008152600401610250906109f4565b60405180910390fd5b806000806101000a81548173ffffffffffffffffffffffffffffffffffffffff021916908373ffffffffffffffffffffffffffffffffffffffff16021790555050565b671bc16d674ec800006102da600260009054906101000a900473ffffffffffffffffffffffffffffffffffffffff163461065990919063ffffffff16565b101561031b576040517f08c379a000000000000000000000000000000000000000000000000000000000815260040161031290610a14565b60405180910390fd5b34600360003373ffffffffffffffffffffffffffffffffffffffff1673ffffffffffffffffffffffffffffffffffffffff168152602001908152602001600020819055506001339080600181540180825580915050600190039060005260206000200160009091909190916101000a81548173ffffffffffffffffffffffffffffffffffffffff021916908373ffffffffffffffffffffffffffffffffffffffff160217905550565b60008054906101000a900473ffffffffffffffffffffffffffffffffffffffff1673ffffffffffffffffffffffffffffffffffffffff163373ffffffffffffffffffffffffffffffffffffffff1614610452576040517f08c379a0000000000000000000000000000000000000000000000000000000008152600401610449906109f4565b60405180910390fd5b60003373ffffffffffffffffffffffffffffffffffffffff1647604051610478906109c4565b60006040518083038185875af1925050503d80600081146104b5576040519150601f19603f3d011682016040523d82523d6000602084013e6104ba565b606091505b50509050806104fe576040517f08c379a00000000000000000000000000000000000000000000000000000000081526004016104f590610a34565b60405180910390fd5b60005b6001805490508110156105aa5760006001828154811061052457610523610d30565b5b9060005260206000200160009054906101000a900473ffffffffffffffffffffffffffffffffffffffff1690506000600360008373ffffffffffffffffffffffffffffffffffffffff1673ffffffffffffffffffffffffffffffffffffffff168152602001908152602001600020819055505080806105a290610c89565b915050610501565b50600067ffffffffffffffff8111156105c6576105c5610d5f565b5b6040519080825280602002602001820160405280156105f45781602001602082028036833780820191505090505b506001908051906020019061060a929190610735565b5050565b6001818154811061061e57600080fd5b906000526020600020016000915054906101000a900473ffffffffffffffffffffffffffffffffffffffff1681565b671bc16d674ec8000081565b60008061066583610695565b90506000670de0b6b3a7640000858361067e9190610bd3565b6106889190610a8b565b9050809250505092915050565b6000808273ffffffffffffffffffffffffffffffffffffffff1663feaf968c6040518163ffffffff1660e01b815260040160a06040518083038186803b1580156106de57600080fd5b505afa1580156106f2573d6000803e3d6000fd5b505050506040513d601f19601f82011682018060405250810190610716919061089f565b5050509150506402540be4008161072d9190610abc565b915050919050565b8280548282559060005260206000209081019282156107ae579160200282015b828111156107ad5782518260006101000a81548173ffffffffffffffffffffffffffffffffffffffff021916908373ffffffffffffffffffffffffffffffffffffffff16021790555091602001919060010190610755565b5b5090506107bb91906107bf565b5090565b5b808211156107d85760008160009055506001016107c0565b5090565b6000813590506107eb81610e11565b92915050565b60008151905061080081610e28565b92915050565b60008135905061081581610e3f565b92915050565b60008151905061082a81610e3f565b92915050565b60008151905061083f81610e56565b92915050565b60006020828403121561085b5761085a610d8e565b5b6000610869848285016107dc565b91505092915050565b60006020828403121561088857610887610d8e565b5b600061089684828501610806565b91505092915050565b600080600080600060a086880312156108bb576108ba610d8e565b5b60006108c988828901610830565b95505060206108da888289016107f1565b94505060406108eb8882890161081b565b93505060606108fc8882890161081b565b925050608061090d88828901610830565b9150509295509295909350565b61092381610c2d565b82525050565b6000610936601583610a7a565b915061094182610d93565b602082019050919050565b6000610959601183610a7a565b915061096482610dbc565b602082019050919050565b600061097c600b83610a7a565b915061098782610de5565b602082019050919050565b600061099f600083610a6f565b91506109aa82610e0e565b600082019050919050565b6109be81610c69565b82525050565b60006109cf82610992565b9150819050919050565b60006020820190506109ee600083018461091a565b92915050565b60006020820190508181036000830152610a0d81610929565b9050919050565b60006020820190508181036000830152610a2d8161094c565b9050919050565b60006020820190508181036000830152610a4d8161096f565b9050919050565b6000602082019050610a6960008301846109b5565b92915050565b600081905092915050565b600082825260208201905092915050565b6000610a9682610c69565b9150610aa183610c69565b925082610ab157610ab0610d01565b5b828204905092915050565b6000610ac782610c3f565b9150610ad283610c3f565b9250827f7fffffffffffffffffffffffffffffffffffffffffffffffffffffffffffffff0482116000841360008413161615610b1157610b10610cd2565b5b817f80000000000000000000000000000000000000000000000000000000000000000583126000841260008413161615610b4e57610b4d610cd2565b5b827f80000000000000000000000000000000000000000000000000000000000000000582126000841360008412161615610b8b57610b8a610cd2565b5b827f7fffffffffffffffffffffffffffffffffffffffffffffffffffffffffffffff0582126000841260008412161615610bc857610bc7610cd2565b5b828202905092915050565b6000610bde82610c69565b9150610be983610c69565b9250817fffffffffffffffffffffffffffffffffffffffffffffffffffffffffffffffff0483118215151615610c2257610c21610cd2565b5b828202905092915050565b6000610c3882610c49565b9050919050565b6000819050919050565b600073ffffffffffffffffffffffffffffffffffffffff82169050919050565b6000819050919050565b600069ffffffffffffffffffff82169050919050565b6000610c9482610c69565b91507fffffffffffffffffffffffffffffffffffffffffffffffffffffffffffffffff821415610cc757610cc6610cd2565b5b600182019050919050565b7f4e487b7100000000000000000000000000000000000000000000000000000000600052601160045260246000fd5b7f4e487b7100000000000000000000000000000000000000000000000000000000600052601260045260246000fd5b7f4e487b7100000000000000000000000000000000000000000000000000000000600052603260045260246000fd5b7f4e487b7100000000000000000000000000000000000000000000000000000000600052604160045260246000fd5b600080fd5b7f596f7520617265206e6f7420746865206f776e65720000000000000000000000600082015250565b7f4d6f726520455448207265717569726564000000000000000000000000000000600082015250565b7f53656e64206661696c6564000000000000000000000000000000000000000000600082015250565b50565b610e1a81610c2d565b8114610e2557600080fd5b50565b610e3181610c3f565b8114610e3c57600080fd5b50565b610e4881610c69565b8114610e5357600080fd5b50565b610e5f81610c73565b8114610e6a57600080fd5b5056fea26469706673582212206077e39ddf14f65a9e9f4a626873ac37ee3816f4879faf4033f6cda8d9e9e1aa64736f6c63430008070033",
					"opcodes": "PUSH1 0x80 PUSH1 0x40 MSTORE CALLVALUE DUP1 ISZERO PUSH2 0x10 JUMPI PUSH1 0x0 DUP1 REVERT JUMPDEST POP PUSH1 0x40 MLOAD PUSH3 0xFFE CODESIZE SUB DUP1 PUSH3 0xFFE DUP4 CODECOPY DUP2 DUP2 ADD PUSH1 0x40 MSTORE DUP2 ADD SWAP1 PUSH2 0x34 SWAP2 SWAP1 PUSH2 0xD0 JUMP JUMPDEST CALLER PUSH1 0x0 DUP1 PUSH2 0x100 EXP DUP2 SLOAD DUP2 PUSH20 0xFFFFFFFFFFFFFFFFFFFFFFFFFFFFFFFFFFFFFFFF MUL NOT AND SWAP1 DUP4 PUSH20 0xFFFFFFFFFFFFFFFFFFFFFFFFFFFFFFFFFFFFFFFF AND MUL OR SWAP1 SSTORE POP DUP1 PUSH1 0x2 PUSH1 0x0 PUSH2 0x100 EXP DUP2 SLOAD DUP2 PUSH20 0xFFFFFFFFFFFFFFFFFFFFFFFFFFFFFFFFFFFFFFFF MUL NOT AND SWAP1 DUP4 PUSH20 0xFFFFFFFFFFFFFFFFFFFFFFFFFFFFFFFFFFFFFFFF AND MUL OR SWAP1 SSTORE POP POP PUSH2 0x14B JUMP JUMPDEST PUSH1 0x0 DUP2 MLOAD SWAP1 POP PUSH2 0xCA DUP2 PUSH2 0x134 JUMP JUMPDEST SWAP3 SWAP2 POP POP JUMP JUMPDEST PUSH1 0x0 PUSH1 0x20 DUP3 DUP5 SUB SLT ISZERO PUSH2 0xE6 JUMPI PUSH2 0xE5 PUSH2 0x12F JUMP JUMPDEST JUMPDEST PUSH1 0x0 PUSH2 0xF4 DUP5 DUP3 DUP6 ADD PUSH2 0xBB JUMP JUMPDEST SWAP2 POP POP SWAP3 SWAP2 POP POP JUMP JUMPDEST PUSH1 0x0 PUSH2 0x108 DUP3 PUSH2 0x10F JUMP JUMPDEST SWAP1 POP SWAP2 SWAP1 POP JUMP JUMPDEST PUSH1 0x0 PUSH20 0xFFFFFFFFFFFFFFFFFFFFFFFFFFFFFFFFFFFFFFFF DUP3 AND SWAP1 POP SWAP2 SWAP1 POP JUMP JUMPDEST PUSH1 0x0 DUP1 REVERT JUMPDEST PUSH2 0x13D DUP2 PUSH2 0xFD JUMP JUMPDEST DUP2 EQ PUSH2 0x148 JUMPI PUSH1 0x0 DUP1 REVERT JUMPDEST POP JUMP JUMPDEST PUSH2 0xEA3 DUP1 PUSH3 0x15B PUSH1 0x0 CODECOPY PUSH1 0x0 RETURN INVALID PUSH1 0x80 PUSH1 0x40 MSTORE PUSH1 0x4 CALLDATASIZE LT PUSH2 0x70 JUMPI PUSH1 0x0 CALLDATALOAD PUSH1 0xE0 SHR DUP1 PUSH4 0xB60D4288 GT PUSH2 0x4E JUMPI DUP1 PUSH4 0xB60D4288 EQ PUSH2 0x106 JUMPI DUP1 PUSH4 0xCCADFAF2 EQ PUSH2 0x110 JUMPI DUP1 PUSH4 0xDC0D3DFF EQ PUSH2 0x127 JUMPI DUP1 PUSH4 0xDC992AA0 EQ PUSH2 0x164 JUMPI PUSH2 0x70 JUMP JUMPDEST DUP1 PUSH4 0x8DA5CB5B EQ PUSH2 0x75 JUMPI DUP1 PUSH4 0x9D9EF3E7 EQ PUSH2 0xA0 JUMPI DUP1 PUSH4 0xA6F9DAE1 EQ PUSH2 0xDD JUMPI JUMPDEST PUSH1 0x0 DUP1 REVERT JUMPDEST CALLVALUE DUP1 ISZERO PUSH2 0x81 JUMPI PUSH1 0x0 DUP1 REVERT JUMPDEST POP PUSH2 0x8A PUSH2 0x18F JUMP JUMPDEST PUSH1 0x40 MLOAD PUSH2 0x97 SWAP2 SWAP1 PUSH2 0x9D9 JUMP JUMPDEST PUSH1 0x40 MLOAD DUP1 SWAP2 SUB SWAP1 RETURN JUMPDEST CALLVALUE DUP1 ISZERO PUSH2 0xAC JUMPI PUSH1 0x0 DUP1 REVERT JUMPDEST POP PUSH2 0xC7 PUSH1 0x4 DUP1 CALLDATASIZE SUB DUP2 ADD SWAP1 PUSH2 0xC2 SWAP2 SWAP1 PUSH2 0x845 JUMP JUMPDEST PUSH2 0x1B3 JUMP JUMPDEST PUSH1 0x40 MLOAD PUSH2 0xD4 SWAP2 SWAP1 PUSH2 0xA54 JUMP JUMPDEST PUSH1 0x40 MLOAD DUP1 SWAP2 SUB SWAP1 RETURN JUMPDEST CALLVALUE DUP1 ISZERO PUSH2 0xE9 JUMPI PUSH1 0x0 DUP1 REVERT JUMPDEST POP PUSH2 0x104 PUSH1 0x4 DUP1 CALLDATASIZE SUB DUP2 ADD SWAP1 PUSH2 0xFF SWAP2 SWAP1 PUSH2 0x845 JUMP JUMPDEST PUSH2 0x1CB JUMP JUMPDEST STOP JUMPDEST PUSH2 0x10E PUSH2 0x29C JUMP JUMPDEST STOP JUMPDEST CALLVALUE DUP1 ISZERO PUSH2 0x11C JUMPI PUSH1 0x0 DUP1 REVERT JUMPDEST POP PUSH2 0x125 PUSH2 0x3C4 JUMP JUMPDEST STOP JUMPDEST CALLVALUE DUP1 ISZERO PUSH2 0x133 JUMPI PUSH1 0x0 DUP1 REVERT JUMPDEST POP PUSH2 0x14E PUSH1 0x4 DUP1 CALLDATASIZE SUB DUP2 ADD SWAP1 PUSH2 0x149 SWAP2 SWAP1 PUSH2 0x872 JUMP JUMPDEST PUSH2 0x60E JUMP JUMPDEST PUSH1 0x40 MLOAD PUSH2 0x15B SWAP2 SWAP1 PUSH2 0x9D9 JUMP JUMPDEST PUSH1 0x40 MLOAD DUP1 SWAP2 SUB SWAP1 RETURN JUMPDEST CALLVALUE DUP1 ISZERO PUSH2 0x170 JUMPI PUSH1 0x0 DUP1 REVERT JUMPDEST POP PUSH2 0x179 PUSH2 0x64D JUMP JUMPDEST PUSH1 0x40 MLOAD PUSH2 0x186 SWAP2 SWAP1 PUSH2 0xA54 JUMP JUMPDEST PUSH1 0x40 MLOAD DUP1 SWAP2 SUB SWAP1 RETURN JUMPDEST PUSH1 0x0 DUP1 SLOAD SWAP1 PUSH2 0x100 EXP SWAP1 DIV PUSH20 0xFFFFFFFFFFFFFFFFFFFFFFFFFFFFFFFFFFFFFFFF AND DUP2 JUMP JUMPDEST PUSH1 0x3 PUSH1 0x20 MSTORE DUP1 PUSH1 0x0 MSTORE PUSH1 0x40 PUSH1 0x0 KECCAK256 PUSH1 0x0 SWAP2 POP SWAP1 POP SLOAD DUP2 JUMP JUMPDEST PUSH1 0x0 DUP1 SLOAD SWAP1 PUSH2 0x100 EXP SWAP1 DIV PUSH20 0xFFFFFFFFFFFFFFFFFFFFFFFFFFFFFFFFFFFFFFFF AND PUSH20 0xFFFFFFFFFFFFFFFFFFFFFFFFFFFFFFFFFFFFFFFF AND CALLER PUSH20 0xFFFFFFFFFFFFFFFFFFFFFFFFFFFFFFFFFFFFFFFF AND EQ PUSH2 0x259 JUMPI PUSH1 0x40 MLOAD PUSH32 0x8C379A000000000000000000000000000000000000000000000000000000000 DUP2 MSTORE PUSH1 0x4 ADD PUSH2 0x250 SWAP1 PUSH2 0x9F4 JUMP JUMPDEST PUSH1 0x40 MLOAD DUP1 SWAP2 SUB SWAP1 REVERT JUMPDEST DUP1 PUSH1 0x0 DUP1 PUSH2 0x100 EXP DUP2 SLOAD DUP2 PUSH20 0xFFFFFFFFFFFFFFFFFFFFFFFFFFFFFFFFFFFFFFFF MUL NOT AND SWAP1 DUP4 PUSH20 0xFFFFFFFFFFFFFFFFFFFFFFFFFFFFFFFFFFFFFFFF AND MUL OR SWAP1 SSTORE POP POP JUMP JUMPDEST PUSH8 0x1BC16D674EC80000 PUSH2 0x2DA PUSH1 0x2 PUSH1 0x0 SWAP1 SLOAD SWAP1 PUSH2 0x100 EXP SWAP1 DIV PUSH20 0xFFFFFFFFFFFFFFFFFFFFFFFFFFFFFFFFFFFFFFFF AND CALLVALUE PUSH2 0x659 SWAP1 SWAP2 SWAP1 PUSH4 0xFFFFFFFF AND JUMP JUMPDEST LT ISZERO PUSH2 0x31B JUMPI PUSH1 0x40 MLOAD PUSH32 0x8C379A000000000000000000000000000000000000000000000000000000000 DUP2 MSTORE PUSH1 0x4 ADD PUSH2 0x312 SWAP1 PUSH2 0xA14 JUMP JUMPDEST PUSH1 0x40 MLOAD DUP1 SWAP2 SUB SWAP1 REVERT JUMPDEST CALLVALUE PUSH1 0x3 PUSH1 0x0 CALLER PUSH20 0xFFFFFFFFFFFFFFFFFFFFFFFFFFFFFFFFFFFFFFFF AND PUSH20 0xFFFFFFFFFFFFFFFFFFFFFFFFFFFFFFFFFFFFFFFF AND DUP2 MSTORE PUSH1 0x20 ADD SWAP1 DUP2 MSTORE PUSH1 0x20 ADD PUSH1 0x0 KECCAK256 DUP2 SWAP1 SSTORE POP PUSH1 0x1 CALLER SWAP1 DUP1 PUSH1 0x1 DUP2 SLOAD ADD DUP1 DUP3 SSTORE DUP1 SWAP2 POP POP PUSH1 0x1 SWAP1 SUB SWAP1 PUSH1 0x0 MSTORE PUSH1 0x20 PUSH1 0x0 KECCAK256 ADD PUSH1 0x0 SWAP1 SWAP2 SWAP1 SWAP2 SWAP1 SWAP2 PUSH2 0x100 EXP DUP2 SLOAD DUP2 PUSH20 0xFFFFFFFFFFFFFFFFFFFFFFFFFFFFFFFFFFFFFFFF MUL NOT AND SWAP1 DUP4 PUSH20 0xFFFFFFFFFFFFFFFFFFFFFFFFFFFFFFFFFFFFFFFF AND MUL OR SWAP1 SSTORE POP JUMP JUMPDEST PUSH1 0x0 DUP1 SLOAD SWAP1 PUSH2 0x100 EXP SWAP1 DIV PUSH20 0xFFFFFFFFFFFFFFFFFFFFFFFFFFFFFFFFFFFFFFFF AND PUSH20 0xFFFFFFFFFFFFFFFFFFFFFFFFFFFFFFFFFFFFFFFF AND CALLER PUSH20 0xFFFFFFFFFFFFFFFFFFFFFFFFFFFFFFFFFFFFFFFF AND EQ PUSH2 0x452 JUMPI PUSH1 0x40 MLOAD PUSH32 0x8C379A000000000000000000000000000000000000000000000000000000000 DUP2 MSTORE PUSH1 0x4 ADD PUSH2 0x449 SWAP1 PUSH2 0x9F4 JUMP JUMPDEST PUSH1 0x40 MLOAD DUP1 SWAP2 SUB SWAP1 REVERT JUMPDEST PUSH1 0x0 CALLER PUSH20 0xFFFFFFFFFFFFFFFFFFFFFFFFFFFFFFFFFFFFFFFF AND SELFBALANCE PUSH1 0x40 MLOAD PUSH2 0x478 SWAP1 PUSH2 0x9C4 JUMP JUMPDEST PUSH1 0x0 PUSH1 0x40 MLOAD DUP1 DUP4 SUB DUP2 DUP6 DUP8 GAS CALL SWAP3 POP POP POP RETURNDATASIZE DUP1 PUSH1 0x0 DUP2 EQ PUSH2 0x4B5 JUMPI PUSH1 0x40 MLOAD SWAP2 POP PUSH1 0x1F NOT PUSH1 0x3F RETURNDATASIZE ADD AND DUP3 ADD PUSH1 0x40 MSTORE RETURNDATASIZE DUP3 MSTORE RETURNDATASIZE PUSH1 0x0 PUSH1 0x20 DUP5 ADD RETURNDATACOPY PUSH2 0x4BA JUMP JUMPDEST PUSH1 0x60 SWAP2 POP JUMPDEST POP POP SWAP1 POP DUP1 PUSH2 0x4FE JUMPI PUSH1 0x40 MLOAD PUSH32 0x8C379A000000000000000000000000000000000000000000000000000000000 DUP2 MSTORE PUSH1 0x4 ADD PUSH2 0x4F5 SWAP1 PUSH2 0xA34 JUMP JUMPDEST PUSH1 0x40 MLOAD DUP1 SWAP2 SUB SWAP1 REVERT JUMPDEST PUSH1 0x0 JUMPDEST PUSH1 0x1 DUP1 SLOAD SWAP1 POP DUP2 LT ISZERO PUSH2 0x5AA JUMPI PUSH1 0x0 PUSH1 0x1 DUP3 DUP2 SLOAD DUP2 LT PUSH2 0x524 JUMPI PUSH2 0x523 PUSH2 0xD30 JUMP JUMPDEST JUMPDEST SWAP1 PUSH1 0x0 MSTORE PUSH1 0x20 PUSH1 0x0 KECCAK256 ADD PUSH1 0x0 SWAP1 SLOAD SWAP1 PUSH2 0x100 EXP SWAP1 DIV PUSH20 0xFFFFFFFFFFFFFFFFFFFFFFFFFFFFFFFFFFFFFFFF AND SWAP1 POP PUSH1 0x0 PUSH1 0x3 PUSH1 0x0 DUP4 PUSH20 0xFFFFFFFFFFFFFFFFFFFFFFFFFFFFFFFFFFFFFFFF AND PUSH20 0xFFFFFFFFFFFFFFFFFFFFFFFFFFFFFFFFFFFFFFFF AND DUP2 MSTORE PUSH1 0x20 ADD SWAP1 DUP2 MSTORE PUSH1 0x20 ADD PUSH1 0x0 KECCAK256 DUP2 SWAP1 SSTORE POP POP DUP1 DUP1 PUSH2 0x5A2 SWAP1 PUSH2 0xC89 JUMP JUMPDEST SWAP2 POP POP PUSH2 0x501 JUMP JUMPDEST POP PUSH1 0x0 PUSH8 0xFFFFFFFFFFFFFFFF DUP2 GT ISZERO PUSH2 0x5C6 JUMPI PUSH2 0x5C5 PUSH2 0xD5F JUMP JUMPDEST JUMPDEST PUSH1 0x40 MLOAD SWAP1 DUP1 DUP3 MSTORE DUP1 PUSH1 0x20 MUL PUSH1 0x20 ADD DUP3 ADD PUSH1 0x40 MSTORE DUP1 ISZERO PUSH2 0x5F4 JUMPI DUP2 PUSH1 0x20 ADD PUSH1 0x20 DUP3 MUL DUP1 CALLDATASIZE DUP4 CALLDATACOPY DUP1 DUP3 ADD SWAP2 POP POP SWAP1 POP JUMPDEST POP PUSH1 0x1 SWAP1 DUP1 MLOAD SWAP1 PUSH1 0x20 ADD SWAP1 PUSH2 0x60A SWAP3 SWAP2 SWAP1 PUSH2 0x735 JUMP JUMPDEST POP POP JUMP JUMPDEST PUSH1 0x1 DUP2 DUP2 SLOAD DUP2 LT PUSH2 0x61E JUMPI PUSH1 0x0 DUP1 REVERT JUMPDEST SWAP1 PUSH1 0x0 MSTORE PUSH1 0x20 PUSH1 0x0 KECCAK256 ADD PUSH1 0x0 SWAP2 POP SLOAD SWAP1 PUSH2 0x100 EXP SWAP1 DIV PUSH20 0xFFFFFFFFFFFFFFFFFFFFFFFFFFFFFFFFFFFFFFFF AND DUP2 JUMP JUMPDEST PUSH8 0x1BC16D674EC80000 DUP2 JUMP JUMPDEST PUSH1 0x0 DUP1 PUSH2 0x665 DUP4 PUSH2 0x695 JUMP JUMPDEST SWAP1 POP PUSH1 0x0 PUSH8 0xDE0B6B3A7640000 DUP6 DUP4 PUSH2 0x67E SWAP2 SWAP1 PUSH2 0xBD3 JUMP JUMPDEST PUSH2 0x688 SWAP2 SWAP1 PUSH2 0xA8B JUMP JUMPDEST SWAP1 POP DUP1 SWAP3 POP POP POP SWAP3 SWAP2 POP POP JUMP JUMPDEST PUSH1 0x0 DUP1 DUP3 PUSH20 0xFFFFFFFFFFFFFFFFFFFFFFFFFFFFFFFFFFFFFFFF AND PUSH4 0xFEAF968C PUSH1 0x40 MLOAD DUP2 PUSH4 0xFFFFFFFF AND PUSH1 0xE0 SHL DUP2 MSTORE PUSH1 0x4 ADD PUSH1 0xA0 PUSH1 0x40 MLOAD DUP1 DUP4 SUB DUP2 DUP7 DUP1 EXTCODESIZE ISZERO DUP1 ISZERO PUSH2 0x6DE JUMPI PUSH1 0x0 DUP1 REVERT JUMPDEST POP GAS STATICCALL ISZERO DUP1 ISZERO PUSH2 0x6F2 JUMPI RETURNDATASIZE PUSH1 0x0 DUP1 RETURNDATACOPY RETURNDATASIZE PUSH1 0x0 REVERT JUMPDEST POP POP POP POP PUSH1 0x40 MLOAD RETURNDATASIZE PUSH1 0x1F NOT PUSH1 0x1F DUP3 ADD AND DUP3 ADD DUP1 PUSH1 0x40 MSTORE POP DUP2 ADD SWAP1 PUSH2 0x716 SWAP2 SWAP1 PUSH2 0x89F JUMP JUMPDEST POP POP POP SWAP2 POP POP PUSH5 0x2540BE400 DUP2 PUSH2 0x72D SWAP2 SWAP1 PUSH2 0xABC JUMP JUMPDEST SWAP2 POP POP SWAP2 SWAP1 POP JUMP JUMPDEST DUP3 DUP1 SLOAD DUP3 DUP3 SSTORE SWAP1 PUSH1 0x0 MSTORE PUSH1 0x20 PUSH1 0x0 KECCAK256 SWAP1 DUP2 ADD SWAP3 DUP3 ISZERO PUSH2 0x7AE JUMPI SWAP2 PUSH1 0x20 MUL DUP3 ADD JUMPDEST DUP3 DUP2 GT ISZERO PUSH2 0x7AD JUMPI DUP3 MLOAD DUP3 PUSH1 0x0 PUSH2 0x100 EXP DUP2 SLOAD DUP2 PUSH20 0xFFFFFFFFFFFFFFFFFFFFFFFFFFFFFFFFFFFFFFFF MUL NOT AND SWAP1 DUP4 PUSH20 0xFFFFFFFFFFFFFFFFFFFFFFFFFFFFFFFFFFFFFFFF AND MUL OR SWAP1 SSTORE POP SWAP2 PUSH1 0x20 ADD SWAP2 SWAP1 PUSH1 0x1 ADD SWAP1 PUSH2 0x755 JUMP JUMPDEST JUMPDEST POP SWAP1 POP PUSH2 0x7BB SWAP2 SWAP1 PUSH2 0x7BF JUMP JUMPDEST POP SWAP1 JUMP JUMPDEST JUMPDEST DUP1 DUP3 GT ISZERO PUSH2 0x7D8 JUMPI PUSH1 0x0 DUP2 PUSH1 0x0 SWAP1 SSTORE POP PUSH1 0x1 ADD PUSH2 0x7C0 JUMP JUMPDEST POP SWAP1 JUMP JUMPDEST PUSH1 0x0 DUP2 CALLDATALOAD SWAP1 POP PUSH2 0x7EB DUP2 PUSH2 0xE11 JUMP JUMPDEST SWAP3 SWAP2 POP POP JUMP JUMPDEST PUSH1 0x0 DUP2 MLOAD SWAP1 POP PUSH2 0x800 DUP2 PUSH2 0xE28 JUMP JUMPDEST SWAP3 SWAP2 POP POP JUMP JUMPDEST PUSH1 0x0 DUP2 CALLDATALOAD SWAP1 POP PUSH2 0x815 DUP2 PUSH2 0xE3F JUMP JUMPDEST SWAP3 SWAP2 POP POP JUMP JUMPDEST PUSH1 0x0 DUP2 MLOAD SWAP1 POP PUSH2 0x82A DUP2 PUSH2 0xE3F JUMP JUMPDEST SWAP3 SWAP2 POP POP JUMP JUMPDEST PUSH1 0x0 DUP2 MLOAD SWAP1 POP PUSH2 0x83F DUP2 PUSH2 0xE56 JUMP JUMPDEST SWAP3 SWAP2 POP POP JUMP JUMPDEST PUSH1 0x0 PUSH1 0x20 DUP3 DUP5 SUB SLT ISZERO PUSH2 0x85B JUMPI PUSH2 0x85A PUSH2 0xD8E JUMP JUMPDEST JUMPDEST PUSH1 0x0 PUSH2 0x869 DUP5 DUP3 DUP6 ADD PUSH2 0x7DC JUMP JUMPDEST SWAP2 POP POP SWAP3 SWAP2 POP POP JUMP JUMPDEST PUSH1 0x0 PUSH1 0x20 DUP3 DUP5 SUB SLT ISZERO PUSH2 0x888 JUMPI PUSH2 0x887 PUSH2 0xD8E JUMP JUMPDEST JUMPDEST PUSH1 0x0 PUSH2 0x896 DUP5 DUP3 DUP6 ADD PUSH2 0x806 JUMP JUMPDEST SWAP2 POP POP SWAP3 SWAP2 POP POP JUMP JUMPDEST PUSH1 0x0 DUP1 PUSH1 0x0 DUP1 PUSH1 0x0 PUSH1 0xA0 DUP7 DUP9 SUB SLT ISZERO PUSH2 0x8BB JUMPI PUSH2 0x8BA PUSH2 0xD8E JUMP JUMPDEST JUMPDEST PUSH1 0x0 PUSH2 0x8C9 DUP9 DUP3 DUP10 ADD PUSH2 0x830 JUMP JUMPDEST SWAP6 POP POP PUSH1 0x20 PUSH2 0x8DA DUP9 DUP3 DUP10 ADD PUSH2 0x7F1 JUMP JUMPDEST SWAP5 POP POP PUSH1 0x40 PUSH2 0x8EB DUP9 DUP3 DUP10 ADD PUSH2 0x81B JUMP JUMPDEST SWAP4 POP POP PUSH1 0x60 PUSH2 0x8FC DUP9 DUP3 DUP10 ADD PUSH2 0x81B JUMP JUMPDEST SWAP3 POP POP PUSH1 0x80 PUSH2 0x90D DUP9 DUP3 DUP10 ADD PUSH2 0x830 JUMP JUMPDEST SWAP2 POP POP SWAP3 SWAP6 POP SWAP3 SWAP6 SWAP1 SWAP4 POP JUMP JUMPDEST PUSH2 0x923 DUP2 PUSH2 0xC2D JUMP JUMPDEST DUP3 MSTORE POP POP JUMP JUMPDEST PUSH1 0x0 PUSH2 0x936 PUSH1 0x15 DUP4 PUSH2 0xA7A JUMP JUMPDEST SWAP2 POP PUSH2 0x941 DUP3 PUSH2 0xD93 JUMP JUMPDEST PUSH1 0x20 DUP3 ADD SWAP1 POP SWAP2 SWAP1 POP JUMP JUMPDEST PUSH1 0x0 PUSH2 0x959 PUSH1 0x11 DUP4 PUSH2 0xA7A JUMP JUMPDEST SWAP2 POP PUSH2 0x964 DUP3 PUSH2 0xDBC JUMP JUMPDEST PUSH1 0x20 DUP3 ADD SWAP1 POP SWAP2 SWAP1 POP JUMP JUMPDEST PUSH1 0x0 PUSH2 0x97C PUSH1 0xB DUP4 PUSH2 0xA7A JUMP JUMPDEST SWAP2 POP PUSH2 0x987 DUP3 PUSH2 0xDE5 JUMP JUMPDEST PUSH1 0x20 DUP3 ADD SWAP1 POP SWAP2 SWAP1 POP JUMP JUMPDEST PUSH1 0x0 PUSH2 0x99F PUSH1 0x0 DUP4 PUSH2 0xA6F JUMP JUMPDEST SWAP2 POP PUSH2 0x9AA DUP3 PUSH2 0xE0E JUMP JUMPDEST PUSH1 0x0 DUP3 ADD SWAP1 POP SWAP2 SWAP1 POP JUMP JUMPDEST PUSH2 0x9BE DUP2 PUSH2 0xC69 JUMP JUMPDEST DUP3 MSTORE POP POP JUMP JUMPDEST PUSH1 0x0 PUSH2 0x9CF DUP3 PUSH2 0x992 JUMP JUMPDEST SWAP2 POP DUP2 SWAP1 POP SWAP2 SWAP1 POP JUMP JUMPDEST PUSH1 0x0 PUSH1 0x20 DUP3 ADD SWAP1 POP PUSH2 0x9EE PUSH1 0x0 DUP4 ADD DUP5 PUSH2 0x91A JUMP JUMPDEST SWAP3 SWAP2 POP POP JUMP JUMPDEST PUSH1 0x0 PUSH1 0x20 DUP3 ADD SWAP1 POP DUP2 DUP2 SUB PUSH1 0x0 DUP4 ADD MSTORE PUSH2 0xA0D DUP2 PUSH2 0x929 JUMP JUMPDEST SWAP1 POP SWAP2 SWAP1 POP JUMP JUMPDEST PUSH1 0x0 PUSH1 0x20 DUP3 ADD SWAP1 POP DUP2 DUP2 SUB PUSH1 0x0 DUP4 ADD MSTORE PUSH2 0xA2D DUP2 PUSH2 0x94C JUMP JUMPDEST SWAP1 POP SWAP2 SWAP1 POP JUMP JUMPDEST PUSH1 0x0 PUSH1 0x20 DUP3 ADD SWAP1 POP DUP2 DUP2 SUB PUSH1 0x0 DUP4 ADD MSTORE PUSH2 0xA4D DUP2 PUSH2 0x96F JUMP JUMPDEST SWAP1 POP SWAP2 SWAP1 POP JUMP JUMPDEST PUSH1 0x0 PUSH1 0x20 DUP3 ADD SWAP1 POP PUSH2 0xA69 PUSH1 0x0 DUP4 ADD DUP5 PUSH2 0x9B5 JUMP JUMPDEST SWAP3 SWAP2 POP POP JUMP JUMPDEST PUSH1 0x0 DUP2 SWAP1 POP SWAP3 SWAP2 POP POP JUMP JUMPDEST PUSH1 0x0 DUP3 DUP3 MSTORE PUSH1 0x20 DUP3 ADD SWAP1 POP SWAP3 SWAP2 POP POP JUMP JUMPDEST PUSH1 0x0 PUSH2 0xA96 DUP3 PUSH2 0xC69 JUMP JUMPDEST SWAP2 POP PUSH2 0xAA1 DUP4 PUSH2 0xC69 JUMP JUMPDEST SWAP3 POP DUP3 PUSH2 0xAB1 JUMPI PUSH2 0xAB0 PUSH2 0xD01 JUMP JUMPDEST JUMPDEST DUP3 DUP3 DIV SWAP1 POP SWAP3 SWAP2 POP POP JUMP JUMPDEST PUSH1 0x0 PUSH2 0xAC7 DUP3 PUSH2 0xC3F JUMP JUMPDEST SWAP2 POP PUSH2 0xAD2 DUP4 PUSH2 0xC3F JUMP JUMPDEST SWAP3 POP DUP3 PUSH32 0x7FFFFFFFFFFFFFFFFFFFFFFFFFFFFFFFFFFFFFFFFFFFFFFFFFFFFFFFFFFFFFFF DIV DUP3 GT PUSH1 0x0 DUP5 SGT PUSH1 0x0 DUP5 SGT AND AND ISZERO PUSH2 0xB11 JUMPI PUSH2 0xB10 PUSH2 0xCD2 JUMP JUMPDEST JUMPDEST DUP2 PUSH32 0x8000000000000000000000000000000000000000000000000000000000000000 SDIV DUP4 SLT PUSH1 0x0 DUP5 SLT PUSH1 0x0 DUP5 SGT AND AND ISZERO PUSH2 0xB4E JUMPI PUSH2 0xB4D PUSH2 0xCD2 JUMP JUMPDEST JUMPDEST DUP3 PUSH32 0x8000000000000000000000000000000000000000000000000000000000000000 SDIV DUP3 SLT PUSH1 0x0 DUP5 SGT PUSH1 0x0 DUP5 SLT AND AND ISZERO PUSH2 0xB8B JUMPI PUSH2 0xB8A PUSH2 0xCD2 JUMP JUMPDEST JUMPDEST DUP3 PUSH32 0x7FFFFFFFFFFFFFFFFFFFFFFFFFFFFFFFFFFFFFFFFFFFFFFFFFFFFFFFFFFFFFFF SDIV DUP3 SLT PUSH1 0x0 DUP5 SLT PUSH1 0x0 DUP5 SLT AND AND ISZERO PUSH2 0xBC8 JUMPI PUSH2 0xBC7 PUSH2 0xCD2 JUMP JUMPDEST JUMPDEST DUP3 DUP3 MUL SWAP1 POP SWAP3 SWAP2 POP POP JUMP JUMPDEST PUSH1 0x0 PUSH2 0xBDE DUP3 PUSH2 0xC69 JUMP JUMPDEST SWAP2 POP PUSH2 0xBE9 DUP4 PUSH2 0xC69 JUMP JUMPDEST SWAP3 POP DUP2 PUSH32 0xFFFFFFFFFFFFFFFFFFFFFFFFFFFFFFFFFFFFFFFFFFFFFFFFFFFFFFFFFFFFFFFF DIV DUP4 GT DUP3 ISZERO ISZERO AND ISZERO PUSH2 0xC22 JUMPI PUSH2 0xC21 PUSH2 0xCD2 JUMP JUMPDEST JUMPDEST DUP3 DUP3 MUL SWAP1 POP SWAP3 SWAP2 POP POP JUMP JUMPDEST PUSH1 0x0 PUSH2 0xC38 DUP3 PUSH2 0xC49 JUMP JUMPDEST SWAP1 POP SWAP2 SWAP1 POP JUMP JUMPDEST PUSH1 0x0 DUP2 SWAP1 POP SWAP2 SWAP1 POP JUMP JUMPDEST PUSH1 0x0 PUSH20 0xFFFFFFFFFFFFFFFFFFFFFFFFFFFFFFFFFFFFFFFF DUP3 AND SWAP1 POP SWAP2 SWAP1 POP JUMP JUMPDEST PUSH1 0x0 DUP2 SWAP1 POP SWAP2 SWAP1 POP JUMP JUMPDEST PUSH1 0x0 PUSH10 0xFFFFFFFFFFFFFFFFFFFF DUP3 AND SWAP1 POP SWAP2 SWAP1 POP JUMP JUMPDEST PUSH1 0x0 PUSH2 0xC94 DUP3 PUSH2 0xC69 JUMP JUMPDEST SWAP2 POP PUSH32 0xFFFFFFFFFFFFFFFFFFFFFFFFFFFFFFFFFFFFFFFFFFFFFFFFFFFFFFFFFFFFFFFF DUP3 EQ ISZERO PUSH2 0xCC7 JUMPI PUSH2 0xCC6 PUSH2 0xCD2 JUMP JUMPDEST JUMPDEST PUSH1 0x1 DUP3 ADD SWAP1 POP SWAP2 SWAP1 POP JUMP JUMPDEST PUSH32 0x4E487B7100000000000000000000000000000000000000000000000000000000 PUSH1 0x0 MSTORE PUSH1 0x11 PUSH1 0x4 MSTORE PUSH1 0x24 PUSH1 0x0 REVERT JUMPDEST PUSH32 0x4E487B7100000000000000000000000000000000000000000000000000000000 PUSH1 0x0 MSTORE PUSH1 0x12 PUSH1 0x4 MSTORE PUSH1 0x24 PUSH1 0x0 REVERT JUMPDEST PUSH32 0x4E487B7100000000000000000000000000000000000000000000000000000000 PUSH1 0x0 MSTORE PUSH1 0x32 PUSH1 0x4 MSTORE PUSH1 0x24 PUSH1 0x0 REVERT JUMPDEST PUSH32 0x4E487B7100000000000000000000000000000000000000000000000000000000 PUSH1 0x0 MSTORE PUSH1 0x41 PUSH1 0x4 MSTORE PUSH1 0x24 PUSH1 0x0 REVERT JUMPDEST PUSH1 0x0 DUP1 REVERT JUMPDEST PUSH32 0x596F7520617265206E6F7420746865206F776E65720000000000000000000000 PUSH1 0x0 DUP3 ADD MSTORE POP JUMP JUMPDEST PUSH32 0x4D6F726520455448207265717569726564000000000000000000000000000000 PUSH1 0x0 DUP3 ADD MSTORE POP JUMP JUMPDEST PUSH32 0x53656E64206661696C6564000000000000000000000000000000000000000000 PUSH1 0x0 DUP3 ADD MSTORE POP JUMP JUMPDEST POP JUMP JUMPDEST PUSH2 0xE1A DUP2 PUSH2 0xC2D JUMP JUMPDEST DUP2 EQ PUSH2 0xE25 JUMPI PUSH1 0x0 DUP1 REVERT JUMPDEST POP JUMP JUMPDEST PUSH2 0xE31 DUP2 PUSH2 0xC3F JUMP JUMPDEST DUP2 EQ PUSH2 0xE3C JUMPI PUSH1 0x0 DUP1 REVERT JUMPDEST POP JUMP JUMPDEST PUSH2 0xE48 DUP2 PUSH2 0xC69 JUMP JUMPDEST DUP2 EQ PUSH2 0xE53 JUMPI PUSH1 0x0 DUP1 REVERT JUMPDEST POP JUMP JUMPDEST PUSH2 0xE5F DUP2 PUSH2 0xC73 JUMP JUMPDEST DUP2 EQ PUSH2 0xE6A JUMPI PUSH1 0x0 DUP1 REVERT JUMPDEST POP JUMP INVALID LOG2 PUSH5 0x6970667358 0x22 SLT KECCAK256 PUSH1 0x77 0xE3 SWAP14 0xDF EQ 0xF6 GAS SWAP15 SWAP16 0x4A PUSH3 0x6873AC CALLDATACOPY 0xEE CODESIZE AND DELEGATECALL DUP8 SWAP16 0xAF BLOCKHASH CALLER 0xF6 0xCD 0xA8 0xD9 0xE9 0xE1 0xAA PUSH5 0x736F6C6343 STOP ADDMOD SMOD STOP CALLER "
				},
				"gasEstimates": {
					"creation": {
						"codeDepositCost": "749400",
						"executionCost": "infinite",
						"totalCost": "infinite"
					},
					"external": {
						"changeOwner(address)": "26934",
						"fund()": "infinite",
						"funderToAmo(address)": "2837",
						"funders(uint256)": "5000",
						"minUSD()": "395",
						"owner()": "2512",
						"wdraw()": "infinite"
					}
				},
				"methodIdentifiers": {
					"changeOwner(address)": "a6f9dae1",
					"fund()": "b60d4288",
					"funderToAmo(address)": "9d9ef3e7",
					"funders(uint256)": "dc0d3dff",
					"minUSD()": "dc992aa0",
					"owner()": "8da5cb5b",
					"wdraw()": "ccadfaf2"
				}
			},
			"storageLayout": {
				"storage": [
					{
						"astId": 54,
						"contract": "blockchain/contracts/fundMe.sol:FundMe",
						"label": "owner",
						"offset": 0,
						"slot": "0",
						"type": "t_address"
					},
					{
						"astId": 57,
						"contract": "blockchain/contracts/fundMe.sol:FundMe",
						"label": "funders",
						"offset": 0,
						"slot": "1",
						"type": "t_array(t_address)dyn_storage"
					},
					{
						"astId": 60,
						"contract": "blockchain/contracts/fundMe.sol:FundMe",
						"label": "priceFeed",
						"offset": 0,
						"slot": "2",
						"type": "t_contract(AggregatorV3Interface)45"
					},
					{
						"astId": 64,
						"contract": "blockchain/contracts/fundMe.sol:FundMe",
						"label": "funderToAmo",
						"offset": 0,
						"slot": "3",
						"type": "t_mapping(t_address,t_uint256)"
					}
				],
				"types": {
					"t_address": {
						"encoding": "inplace",
						"label": "address",
						"numberOfBytes": "20"
					},
					"t_array(t_address)dyn_storage": {
						"base": "t_address",
						"encoding": "dynamic_array",
						"label": "address[]",
						"numberOfBytes": "32"
					},
					"t_contract(AggregatorV3Interface)45": {
						"encoding": "inplace",
						"label": "contract AggregatorV3Interface",
						"numberOfBytes": "20"
					},
					"t_mapping(t_address,t_uint256)": {
						"encoding": "mapping",
						"key": "t_address",
						"label": "mapping(address => uint256)",
						"numberOfBytes": "32",
						"value": "t_uint256"
					},
					"t_uint256": {
						"encoding": "inplace",
						"label": "uint256",
						"numberOfBytes": "32"
					}
				}
			},
			"userdoc": {
				"kind": "user",
				"methods": {},
				"version": 1
			}
		}
	}
}