{
	"contracts/fundMe.sol": {
		"FundMe": {
			"abi": [
				{
					"inputs": [
						{
							"internalType": "address",
							"name": "_priceFeedAddress",
							"type": "address"
						}
					],
					"stateMutability": "nonpayable",
					"type": "constructor"
				},
				{
					"inputs": [],
					"name": "notOwner",
					"type": "error"
				},
				{
					"inputs": [],
					"name": "MINUSD",
					"outputs": [
						{
							"internalType": "uint256",
							"name": "",
							"type": "uint256"
						}
					],
					"stateMutability": "view",
					"type": "function"
				},
				{
					"inputs": [
						{
							"internalType": "address",
							"name": "_newOwner",
							"type": "address"
						}
					],
					"name": "changeOwner",
					"outputs": [],
					"stateMutability": "nonpayable",
					"type": "function"
				},
				{
					"inputs": [],
					"name": "fund",
					"outputs": [],
					"stateMutability": "payable",
					"type": "function"
				},
				{
					"inputs": [
						{
							"internalType": "address",
							"name": "",
							"type": "address"
						}
					],
					"name": "funderToAmo",
					"outputs": [
						{
							"internalType": "uint256",
							"name": "",
							"type": "uint256"
						}
					],
					"stateMutability": "view",
					"type": "function"
				},
				{
					"inputs": [
						{
							"internalType": "uint256",
							"name": "",
							"type": "uint256"
						}
					],
					"name": "funders",
					"outputs": [
						{
							"internalType": "address",
							"name": "",
							"type": "address"
						}
					],
					"stateMutability": "view",
					"type": "function"
				},
				{
					"inputs": [],
					"name": "owner",
					"outputs": [
						{
							"internalType": "address",
							"name": "",
							"type": "address"
						}
					],
					"stateMutability": "view",
					"type": "function"
				},
				{
					"inputs": [],
					"name": "wdraw",
					"outputs": [],
					"stateMutability": "nonpayable",
					"type": "function"
				}
			],
			"devdoc": {
				"kind": "dev",
				"methods": {},
				"version": 1
			},
			"evm": {
				"assembly": "    /* \"contracts/fundMe.sol\":537:4661  contract FundMe {\r... */\n  mstore(0x40, 0x80)\n    /* \"contracts/fundMe.sol\":1407:1601  constructor(address _priceFeedAddress) {\r... */\n  callvalue\n  dup1\n  iszero\n  tag_1\n  jumpi\n  0x00\n  dup1\n  revert\ntag_1:\n  pop\n  mload(0x40)\n  sub(codesize, bytecodeSize)\n  dup1\n  bytecodeSize\n  dup4\n  codecopy\n  dup2\n  dup2\n  add\n  0x40\n  mstore\n  dup2\n  add\n  swap1\n  tag_2\n  swap2\n  swap1\n  tag_3\n  jump\t// in\ntag_2:\n    /* \"contracts/fundMe.sol\":1520:1530  msg.sender */\n  caller\n    /* \"contracts/fundMe.sol\":1512:1517  owner */\n  0x00\n  dup1\n    /* \"contracts/fundMe.sol\":1512:1530  owner = msg.sender */\n  0x0100\n  exp\n  dup2\n  sload\n  dup2\n  0xffffffffffffffffffffffffffffffffffffffff\n  mul\n  not\n  and\n  swap1\n  dup4\n  0xffffffffffffffffffffffffffffffffffffffff\n  and\n  mul\n  or\n  swap1\n  sstore\n  pop\n    /* \"contracts/fundMe.sol\":1575:1592  _priceFeedAddress */\n  dup1\n    /* \"contracts/fundMe.sol\":1541:1550  priceFeed */\n  0x02\n  0x00\n    /* \"contracts/fundMe.sol\":1541:1593  priceFeed = AggregatorV3Interface(_priceFeedAddress) */\n  0x0100\n  exp\n  dup2\n  sload\n  dup2\n  0xffffffffffffffffffffffffffffffffffffffff\n  mul\n  not\n  and\n  swap1\n  dup4\n  0xffffffffffffffffffffffffffffffffffffffff\n  and\n  mul\n  or\n  swap1\n  sstore\n  pop\n    /* \"contracts/fundMe.sol\":1407:1601  constructor(address _priceFeedAddress) {\r... */\n  pop\n    /* \"contracts/fundMe.sol\":537:4661  contract FundMe {\r... */\n  jump(tag_6)\n    /* \"#utility.yul\":7:150   */\ntag_8:\n    /* \"#utility.yul\":64:69   */\n  0x00\n    /* \"#utility.yul\":95:101   */\n  dup2\n    /* \"#utility.yul\":89:102   */\n  mload\n    /* \"#utility.yul\":80:102   */\n  swap1\n  pop\n    /* \"#utility.yul\":111:144   */\n  tag_10\n    /* \"#utility.yul\":138:143   */\n  dup2\n    /* \"#utility.yul\":111:144   */\n  tag_11\n  jump\t// in\ntag_10:\n    /* \"#utility.yul\":7:150   */\n  swap3\n  swap2\n  pop\n  pop\n  jump\t// out\n    /* \"#utility.yul\":156:507   */\ntag_3:\n    /* \"#utility.yul\":226:232   */\n  0x00\n    /* \"#utility.yul\":275:277   */\n  0x20\n    /* \"#utility.yul\":263:272   */\n  dup3\n    /* \"#utility.yul\":254:261   */\n  dup5\n    /* \"#utility.yul\":250:273   */\n  sub\n    /* \"#utility.yul\":246:278   */\n  slt\n    /* \"#utility.yul\":243:362   */\n  iszero\n  tag_13\n  jumpi\n    /* \"#utility.yul\":281:360   */\n  tag_14\n  tag_15\n  jump\t// in\ntag_14:\n    /* \"#utility.yul\":243:362   */\ntag_13:\n    /* \"#utility.yul\":401:402   */\n  0x00\n    /* \"#utility.yul\":426:490   */\n  tag_16\n    /* \"#utility.yul\":482:489   */\n  dup5\n    /* \"#utility.yul\":473:479   */\n  dup3\n    /* \"#utility.yul\":462:471   */\n  dup6\n    /* \"#utility.yul\":458:480   */\n  add\n    /* \"#utility.yul\":426:490   */\n  tag_8\n  jump\t// in\ntag_16:\n    /* \"#utility.yul\":416:490   */\n  swap2\n  pop\n    /* \"#utility.yul\":372:500   */\n  pop\n    /* \"#utility.yul\":156:507   */\n  swap3\n  swap2\n  pop\n  pop\n  jump\t// out\n    /* \"#utility.yul\":594:690   */\ntag_19:\n    /* \"#utility.yul\":631:638   */\n  0x00\n    /* \"#utility.yul\":660:684   */\n  tag_21\n    /* \"#utility.yul\":678:683   */\n  dup3\n    /* \"#utility.yul\":660:684   */\n  tag_22\n  jump\t// in\ntag_21:\n    /* \"#utility.yul\":649:684   */\n  swap1\n  pop\n    /* \"#utility.yul\":594:690   */\n  swap2\n  swap1\n  pop\n  jump\t// out\n    /* \"#utility.yul\":696:822   */\ntag_22:\n    /* \"#utility.yul\":733:740   */\n  0x00\n    /* \"#utility.yul\":773:815   */\n  0xffffffffffffffffffffffffffffffffffffffff\n    /* \"#utility.yul\":766:771   */\n  dup3\n    /* \"#utility.yul\":762:816   */\n  and\n    /* \"#utility.yul\":751:816   */\n  swap1\n  pop\n    /* \"#utility.yul\":696:822   */\n  swap2\n  swap1\n  pop\n  jump\t// out\n    /* \"#utility.yul\":951:1068   */\ntag_15:\n    /* \"#utility.yul\":1060:1061   */\n  0x00\n    /* \"#utility.yul\":1057:1058   */\n  dup1\n    /* \"#utility.yul\":1050:1062   */\n  revert\n    /* \"#utility.yul\":1074:1196   */\ntag_11:\n    /* \"#utility.yul\":1147:1171   */\n  tag_28\n    /* \"#utility.yul\":1165:1170   */\n  dup2\n    /* \"#utility.yul\":1147:1171   */\n  tag_19\n  jump\t// in\ntag_28:\n    /* \"#utility.yul\":1140:1145   */\n  dup2\n    /* \"#utility.yul\":1137:1172   */\n  eq\n    /* \"#utility.yul\":1127:1190   */\n  tag_29\n  jumpi\n    /* \"#utility.yul\":1186:1187   */\n  0x00\n    /* \"#utility.yul\":1183:1184   */\n  dup1\n    /* \"#utility.yul\":1176:1188   */\n  revert\n    /* \"#utility.yul\":1127:1190   */\ntag_29:\n    /* \"#utility.yul\":1074:1196   */\n  pop\n  jump\t// out\n    /* \"contracts/fundMe.sol\":537:4661  contract FundMe {\r... */\ntag_6:\n  dataSize(sub_0)\n  dup1\n  dataOffset(sub_0)\n  0x00\n  codecopy\n  0x00\n  return\nstop\n\nsub_0: assembly {\n        /* \"contracts/fundMe.sol\":537:4661  contract FundMe {\r... */\n      mstore(0x40, 0x80)\n      jumpi(tag_1, lt(calldatasize, 0x04))\n      shr(0xe0, calldataload(0x00))\n      dup1\n      0xa6f9dae1\n      gt\n      tag_9\n      jumpi\n      dup1\n      0xa6f9dae1\n      eq\n      tag_5\n      jumpi\n      dup1\n      0xb60d4288\n      eq\n      tag_6\n      jumpi\n      dup1\n      0xccadfaf2\n      eq\n      tag_7\n      jumpi\n      dup1\n      0xdc0d3dff\n      eq\n      tag_8\n      jumpi\n      jump(tag_1)\n    tag_9:\n      dup1\n      0x4dc93616\n      eq\n      tag_2\n      jumpi\n      dup1\n      0x8da5cb5b\n      eq\n      tag_3\n      jumpi\n      dup1\n      0x9d9ef3e7\n      eq\n      tag_4\n      jumpi\n    tag_1:\n      0x00\n      dup1\n      revert\n        /* \"contracts/fundMe.sol\":1170:1222  uint256 public constant MINUSD = 2000000000000000000 */\n    tag_2:\n      callvalue\n      dup1\n      iszero\n      tag_10\n      jumpi\n      0x00\n      dup1\n      revert\n    tag_10:\n      pop\n      tag_11\n      tag_12\n      jump\t// in\n    tag_11:\n      mload(0x40)\n      tag_13\n      swap2\n      swap1\n      tag_14\n      jump\t// in\n    tag_13:\n      mload(0x40)\n      dup1\n      swap2\n      sub\n      swap1\n      return\n        /* \"contracts/fundMe.sol\":871:891  address public owner */\n    tag_3:\n      callvalue\n      dup1\n      iszero\n      tag_15\n      jumpi\n      0x00\n      dup1\n      revert\n    tag_15:\n      pop\n      tag_16\n      tag_17\n      jump\t// in\n    tag_16:\n      mload(0x40)\n      tag_18\n      swap2\n      swap1\n      tag_19\n      jump\t// in\n    tag_18:\n      mload(0x40)\n      dup1\n      swap2\n      sub\n      swap1\n      return\n        /* \"contracts/fundMe.sol\":985:1031  mapping(address => uint256) public funderToAmo */\n    tag_4:\n      callvalue\n      dup1\n      iszero\n      tag_20\n      jumpi\n      0x00\n      dup1\n      revert\n    tag_20:\n      pop\n      tag_21\n      0x04\n      dup1\n      calldatasize\n      sub\n      dup2\n      add\n      swap1\n      tag_22\n      swap2\n      swap1\n      tag_23\n      jump\t// in\n    tag_22:\n      tag_24\n      jump\t// in\n    tag_21:\n      mload(0x40)\n      tag_25\n      swap2\n      swap1\n      tag_14\n      jump\t// in\n    tag_25:\n      mload(0x40)\n      dup1\n      swap2\n      sub\n      swap1\n      return\n        /* \"contracts/fundMe.sol\":3742:3835  function changeOwner(address _newOwner) onlyOwner public {\r... */\n    tag_5:\n      callvalue\n      dup1\n      iszero\n      tag_26\n      jumpi\n      0x00\n      dup1\n      revert\n    tag_26:\n      pop\n      tag_27\n      0x04\n      dup1\n      calldatasize\n      sub\n      dup2\n      add\n      swap1\n      tag_28\n      swap2\n      swap1\n      tag_23\n      jump\t// in\n    tag_28:\n      tag_29\n      jump\t// in\n    tag_27:\n      stop\n        /* \"contracts/fundMe.sol\":1665:2311  function fund() public payable {\r... */\n    tag_6:\n      tag_30\n      tag_31\n      jump\t// in\n    tag_30:\n      stop\n        /* \"contracts/fundMe.sol\":2721:3734  function wdraw() onlyOwner public {\r... */\n    tag_7:\n      callvalue\n      dup1\n      iszero\n      tag_32\n      jumpi\n      0x00\n      dup1\n      revert\n    tag_32:\n      pop\n      tag_33\n      tag_34\n      jump\t// in\n    tag_33:\n      stop\n        /* \"contracts/fundMe.sol\":900:924  address[] public funders */\n    tag_8:\n      callvalue\n      dup1\n      iszero\n      tag_35\n      jumpi\n      0x00\n      dup1\n      revert\n    tag_35:\n      pop\n      tag_36\n      0x04\n      dup1\n      calldatasize\n      sub\n      dup2\n      add\n      swap1\n      tag_37\n      swap2\n      swap1\n      tag_38\n      jump\t// in\n    tag_37:\n      tag_39\n      jump\t// in\n    tag_36:\n      mload(0x40)\n      tag_40\n      swap2\n      swap1\n      tag_19\n      jump\t// in\n    tag_40:\n      mload(0x40)\n      dup1\n      swap2\n      sub\n      swap1\n      return\n        /* \"contracts/fundMe.sol\":1170:1222  uint256 public constant MINUSD = 2000000000000000000 */\n    tag_12:\n        /* \"contracts/fundMe.sol\":1203:1222  2000000000000000000 */\n      0x1bc16d674ec80000\n        /* \"contracts/fundMe.sol\":1170:1222  uint256 public constant MINUSD = 2000000000000000000 */\n      dup2\n      jump\t// out\n        /* \"contracts/fundMe.sol\":871:891  address public owner */\n    tag_17:\n      0x00\n      dup1\n      sload\n      swap1\n      0x0100\n      exp\n      swap1\n      div\n      0xffffffffffffffffffffffffffffffffffffffff\n      and\n      dup2\n      jump\t// out\n        /* \"contracts/fundMe.sol\":985:1031  mapping(address => uint256) public funderToAmo */\n    tag_24:\n      mstore(0x20, 0x03)\n      dup1\n      0x00\n      mstore\n      keccak256(0x00, 0x40)\n      0x00\n      swap2\n      pop\n      swap1\n      pop\n      sload\n      dup2\n      jump\t// out\n        /* \"contracts/fundMe.sol\":3742:3835  function changeOwner(address _newOwner) onlyOwner public {\r... */\n    tag_29:\n        /* \"contracts/fundMe.sol\":2543:2548  owner */\n      0x00\n      dup1\n      sload\n      swap1\n      0x0100\n      exp\n      swap1\n      div\n      0xffffffffffffffffffffffffffffffffffffffff\n      and\n        /* \"contracts/fundMe.sol\":2529:2548  msg.sender == owner */\n      0xffffffffffffffffffffffffffffffffffffffff\n      and\n        /* \"contracts/fundMe.sol\":2529:2539  msg.sender */\n      caller\n        /* \"contracts/fundMe.sol\":2529:2548  msg.sender == owner */\n      0xffffffffffffffffffffffffffffffffffffffff\n      and\n      eq\n        /* \"contracts/fundMe.sol\":2394:2622  if(\r... */\n      iszero\n      tag_42\n      jumpi\n        /* \"contracts/fundMe.sol\":2610:2620  notOwner() */\n      mload(0x40)\n      0x251c9d6300000000000000000000000000000000000000000000000000000000\n      dup2\n      mstore\n      0x04\n      add\n      mload(0x40)\n      dup1\n      swap2\n      sub\n      swap1\n      revert\n        /* \"contracts/fundMe.sol\":2394:2622  if(\r... */\n    tag_42:\n        /* \"contracts/fundMe.sol\":3818:3827  _newOwner */\n      dup1\n        /* \"contracts/fundMe.sol\":3810:3815  owner */\n      0x00\n      dup1\n        /* \"contracts/fundMe.sol\":3810:3827  owner = _newOwner */\n      0x0100\n      exp\n      dup2\n      sload\n      dup2\n      0xffffffffffffffffffffffffffffffffffffffff\n      mul\n      not\n      and\n      swap1\n      dup4\n      0xffffffffffffffffffffffffffffffffffffffff\n      and\n      mul\n      or\n      swap1\n      sstore\n      pop\n        /* \"contracts/fundMe.sol\":3742:3835  function changeOwner(address _newOwner) onlyOwner public {\r... */\n      pop\n      jump\t// out\n        /* \"contracts/fundMe.sol\":1665:2311  function fund() public payable {\r... */\n    tag_31:\n        /* \"contracts/fundMe.sol\":1203:1222  2000000000000000000 */\n      0x1bc16d674ec80000\n        /* \"contracts/fundMe.sol\":2039:2070  msg.value.valueInUSD(priceFeed) */\n      tag_45\n        /* \"contracts/fundMe.sol\":2060:2069  priceFeed */\n      0x02\n      0x00\n      swap1\n      sload\n      swap1\n      0x0100\n      exp\n      swap1\n      div\n      0xffffffffffffffffffffffffffffffffffffffff\n      and\n        /* \"contracts/fundMe.sol\":2039:2048  msg.value */\n      callvalue\n        /* \"contracts/fundMe.sol\":2039:2059  msg.value.valueInUSD */\n      tag_46\n      swap1\n        /* \"contracts/fundMe.sol\":2039:2070  msg.value.valueInUSD(priceFeed) */\n      swap2\n      swap1\n      0xffffffff\n      and\n      jump\t// in\n    tag_45:\n        /* \"contracts/fundMe.sol\":2039:2080  msg.value.valueInUSD(priceFeed) >= MINUSD */\n      lt\n      iszero\n        /* \"contracts/fundMe.sol\":1898:2193  require(\r... */\n      tag_47\n      jumpi\n      mload(0x40)\n      0x08c379a000000000000000000000000000000000000000000000000000000000\n      dup2\n      mstore\n      0x04\n      add\n      tag_48\n      swap1\n      tag_49\n      jump\t// in\n    tag_48:\n      mload(0x40)\n      dup1\n      swap2\n      sub\n      swap1\n      revert\n    tag_47:\n        /* \"contracts/fundMe.sol\":2232:2241  msg.value */\n      callvalue\n        /* \"contracts/fundMe.sol\":2206:2217  funderToAmo */\n      0x03\n        /* \"contracts/fundMe.sol\":2206:2229  funderToAmo[msg.sender] */\n      0x00\n        /* \"contracts/fundMe.sol\":2218:2228  msg.sender */\n      caller\n        /* \"contracts/fundMe.sol\":2206:2229  funderToAmo[msg.sender] */\n      0xffffffffffffffffffffffffffffffffffffffff\n      and\n      0xffffffffffffffffffffffffffffffffffffffff\n      and\n      dup2\n      mstore\n      0x20\n      add\n      swap1\n      dup2\n      mstore\n      0x20\n      add\n      0x00\n      keccak256\n        /* \"contracts/fundMe.sol\":2206:2241  funderToAmo[msg.sender] = msg.value */\n      dup2\n      swap1\n      sstore\n      pop\n        /* \"contracts/fundMe.sol\":2254:2261  funders */\n      0x01\n        /* \"contracts/fundMe.sol\":2267:2277  msg.sender */\n      caller\n        /* \"contracts/fundMe.sol\":2254:2278  funders.push(msg.sender) */\n      swap1\n      dup1\n      0x01\n      dup2\n      sload\n      add\n      dup1\n      dup3\n      sstore\n      dup1\n      swap2\n      pop\n      pop\n      0x01\n      swap1\n      sub\n      swap1\n      0x00\n      mstore\n      keccak256(0x00, 0x20)\n      add\n      0x00\n      swap1\n      swap2\n      swap1\n      swap2\n      swap1\n      swap2\n      0x0100\n      exp\n      dup2\n      sload\n      dup2\n      0xffffffffffffffffffffffffffffffffffffffff\n      mul\n      not\n      and\n      swap1\n      dup4\n      0xffffffffffffffffffffffffffffffffffffffff\n      and\n      mul\n      or\n      swap1\n      sstore\n      pop\n        /* \"contracts/fundMe.sol\":1665:2311  function fund() public payable {\r... */\n      jump\t// out\n        /* \"contracts/fundMe.sol\":2721:3734  function wdraw() onlyOwner public {\r... */\n    tag_34:\n        /* \"contracts/fundMe.sol\":2543:2548  owner */\n      0x00\n      dup1\n      sload\n      swap1\n      0x0100\n      exp\n      swap1\n      div\n      0xffffffffffffffffffffffffffffffffffffffff\n      and\n        /* \"contracts/fundMe.sol\":2529:2548  msg.sender == owner */\n      0xffffffffffffffffffffffffffffffffffffffff\n      and\n        /* \"contracts/fundMe.sol\":2529:2539  msg.sender */\n      caller\n        /* \"contracts/fundMe.sol\":2529:2548  msg.sender == owner */\n      0xffffffffffffffffffffffffffffffffffffffff\n      and\n      eq\n        /* \"contracts/fundMe.sol\":2394:2622  if(\r... */\n      iszero\n      tag_52\n      jumpi\n        /* \"contracts/fundMe.sol\":2610:2620  notOwner() */\n      mload(0x40)\n      0x251c9d6300000000000000000000000000000000000000000000000000000000\n      dup2\n      mstore\n      0x04\n      add\n      mload(0x40)\n      dup1\n      swap2\n      sub\n      swap1\n      revert\n        /* \"contracts/fundMe.sol\":2394:2622  if(\r... */\n    tag_52:\n        /* \"contracts/fundMe.sol\":3221:3233  bool success */\n      0x00\n        /* \"contracts/fundMe.sol\":3246:3256  msg.sender */\n      caller\n        /* \"contracts/fundMe.sol\":3238:3262  payable(msg.sender).call */\n      0xffffffffffffffffffffffffffffffffffffffff\n      and\n        /* \"contracts/fundMe.sol\":3270:3291  address(this).balance */\n      selfbalance\n        /* \"contracts/fundMe.sol\":3238:3296  payable(msg.sender).call{value: address(this).balance}(\"\") */\n      mload(0x40)\n      tag_54\n      swap1\n      tag_55\n      jump\t// in\n    tag_54:\n      0x00\n      mload(0x40)\n      dup1\n      dup4\n      sub\n      dup2\n      dup6\n      dup8\n      gas\n      call\n      swap3\n      pop\n      pop\n      pop\n      returndatasize\n      dup1\n      0x00\n      dup2\n      eq\n      tag_58\n      jumpi\n      mload(0x40)\n      swap2\n      pop\n      and(add(returndatasize, 0x3f), not(0x1f))\n      dup3\n      add\n      0x40\n      mstore\n      returndatasize\n      dup3\n      mstore\n      returndatasize\n      0x00\n      0x20\n      dup5\n      add\n      returndatacopy\n      jump(tag_57)\n    tag_58:\n      0x60\n      swap2\n      pop\n    tag_57:\n      pop\n        /* \"contracts/fundMe.sol\":3220:3296  (bool success,) = payable(msg.sender).call{value: address(this).balance}(\"\") */\n      pop\n      swap1\n      pop\n        /* \"contracts/fundMe.sol\":3417:3424  success */\n      dup1\n        /* \"contracts/fundMe.sol\":3395:3463  require(\r... */\n      tag_59\n      jumpi\n      mload(0x40)\n      0x08c379a000000000000000000000000000000000000000000000000000000000\n      dup2\n      mstore\n      0x04\n      add\n      tag_60\n      swap1\n      tag_61\n      jump\t// in\n    tag_60:\n      mload(0x40)\n      dup1\n      swap2\n      sub\n      swap1\n      revert\n    tag_59:\n        /* \"contracts/fundMe.sol\":3491:3508  uint256 funderInd */\n      0x00\n        /* \"contracts/fundMe.sol\":3486:3650  for (uint256 funderInd=0; funderInd<funders.length; funderInd++){\r... */\n    tag_62:\n        /* \"contracts/fundMe.sol\":3522:3529  funders */\n      0x01\n        /* \"contracts/fundMe.sol\":3522:3536  funders.length */\n      dup1\n      sload\n      swap1\n      pop\n        /* \"contracts/fundMe.sol\":3512:3521  funderInd */\n      dup2\n        /* \"contracts/fundMe.sol\":3512:3536  funderInd<funders.length */\n      lt\n        /* \"contracts/fundMe.sol\":3486:3650  for (uint256 funderInd=0; funderInd<funders.length; funderInd++){\r... */\n      iszero\n      tag_63\n      jumpi\n        /* \"contracts/fundMe.sol\":3565:3579  address funder */\n      0x00\n        /* \"contracts/fundMe.sol\":3582:3589  funders */\n      0x01\n        /* \"contracts/fundMe.sol\":3590:3599  funderInd */\n      dup3\n        /* \"contracts/fundMe.sol\":3582:3600  funders[funderInd] */\n      dup2\n      sload\n      dup2\n      lt\n      tag_65\n      jumpi\n      tag_66\n      tag_67\n      jump\t// in\n    tag_66:\n    tag_65:\n      swap1\n      0x00\n      mstore\n      keccak256(0x00, 0x20)\n      add\n      0x00\n      swap1\n      sload\n      swap1\n      0x0100\n      exp\n      swap1\n      div\n      0xffffffffffffffffffffffffffffffffffffffff\n      and\n        /* \"contracts/fundMe.sol\":3565:3600  address funder = funders[funderInd] */\n      swap1\n      pop\n        /* \"contracts/fundMe.sol\":3637:3638  0 */\n      0x00\n        /* \"contracts/fundMe.sol\":3615:3626  funderToAmo */\n      0x03\n        /* \"contracts/fundMe.sol\":3615:3634  funderToAmo[funder] */\n      0x00\n        /* \"contracts/fundMe.sol\":3627:3633  funder */\n      dup4\n        /* \"contracts/fundMe.sol\":3615:3634  funderToAmo[funder] */\n      0xffffffffffffffffffffffffffffffffffffffff\n      and\n      0xffffffffffffffffffffffffffffffffffffffff\n      and\n      dup2\n      mstore\n      0x20\n      add\n      swap1\n      dup2\n      mstore\n      0x20\n      add\n      0x00\n      keccak256\n        /* \"contracts/fundMe.sol\":3615:3638  funderToAmo[funder] = 0 */\n      dup2\n      swap1\n      sstore\n      pop\n        /* \"contracts/fundMe.sol\":3550:3650  {\r... */\n      pop\n        /* \"contracts/fundMe.sol\":3538:3549  funderInd++ */\n      dup1\n      dup1\n      tag_69\n      swap1\n      tag_70\n      jump\t// in\n    tag_69:\n      swap2\n      pop\n      pop\n        /* \"contracts/fundMe.sol\":3486:3650  for (uint256 funderInd=0; funderInd<funders.length; funderInd++){\r... */\n      jump(tag_62)\n    tag_63:\n      pop\n        /* \"contracts/fundMe.sol\":3724:3725  0 */\n      0x00\n        /* \"contracts/fundMe.sol\":3710:3726  new address[](0) */\n      0xffffffffffffffff\n      dup2\n      gt\n      iszero\n      tag_71\n      jumpi\n      tag_72\n      tag_73\n      jump\t// in\n    tag_72:\n    tag_71:\n      mload(0x40)\n      swap1\n      dup1\n      dup3\n      mstore\n      dup1\n      0x20\n      mul\n      0x20\n      add\n      dup3\n      add\n      0x40\n      mstore\n      dup1\n      iszero\n      tag_74\n      jumpi\n      dup2\n      0x20\n      add\n      0x20\n      dup3\n      mul\n      dup1\n      calldatasize\n      dup4\n      calldatacopy\n      dup1\n      dup3\n      add\n      swap2\n      pop\n      pop\n      swap1\n      pop\n    tag_74:\n      pop\n        /* \"contracts/fundMe.sol\":3700:3707  funders */\n      0x01\n        /* \"contracts/fundMe.sol\":3700:3726  funders = new address[](0) */\n      swap1\n      dup1\n      mload\n      swap1\n      0x20\n      add\n      swap1\n      tag_75\n      swap3\n      swap2\n      swap1\n      tag_76\n      jump\t// in\n    tag_75:\n      pop\n        /* \"contracts/fundMe.sol\":2755:3734  {\r... */\n      pop\n        /* \"contracts/fundMe.sol\":2721:3734  function wdraw() onlyOwner public {\r... */\n      jump\t// out\n        /* \"contracts/fundMe.sol\":900:924  address[] public funders */\n    tag_39:\n      0x01\n      dup2\n      dup2\n      sload\n      dup2\n      lt\n      tag_77\n      jumpi\n      0x00\n      dup1\n      revert\n    tag_77:\n      swap1\n      0x00\n      mstore\n      keccak256(0x00, 0x20)\n      add\n      0x00\n      swap2\n      pop\n      sload\n      swap1\n      0x0100\n      exp\n      swap1\n      div\n      0xffffffffffffffffffffffffffffffffffffffff\n      and\n      dup2\n      jump\t// out\n        /* \"contracts/priceConverter.sol\":952:1335  function valueInUSD(uint256 ethAmount, AggregatorV3Interface priceFeed)... */\n    tag_46:\n        /* \"contracts/priceConverter.sol\":1059:1066  uint256 */\n      0x00\n        /* \"contracts/priceConverter.sol\":1076:1092  uint256 ethPrice */\n      dup1\n        /* \"contracts/priceConverter.sol\":1095:1114  ethToUSD(priceFeed) */\n      tag_80\n        /* \"contracts/priceConverter.sol\":1104:1113  priceFeed */\n      dup4\n        /* \"contracts/priceConverter.sol\":1095:1103  ethToUSD */\n      tag_81\n        /* \"contracts/priceConverter.sol\":1095:1114  ethToUSD(priceFeed) */\n      jump\t// in\n    tag_80:\n        /* \"contracts/priceConverter.sol\":1076:1114  uint256 ethPrice = ethToUSD(priceFeed) */\n      swap1\n      pop\n        /* \"contracts/priceConverter.sol\":1159:1181  uint256 ethAmountInUsd */\n      0x00\n        /* \"contracts/priceConverter.sol\":1209:1228  1000000000000000000 */\n      0x0de0b6b3a7640000\n        /* \"contracts/priceConverter.sol\":1196:1205  ethAmount */\n      dup6\n        /* \"contracts/priceConverter.sol\":1185:1193  ethPrice */\n      dup4\n        /* \"contracts/priceConverter.sol\":1185:1205  ethPrice * ethAmount */\n      tag_82\n      swap2\n      swap1\n      tag_83\n      jump\t// in\n    tag_82:\n        /* \"contracts/priceConverter.sol\":1184:1228  (ethPrice * ethAmount) / 1000000000000000000 */\n      tag_84\n      swap2\n      swap1\n      tag_85\n      jump\t// in\n    tag_84:\n        /* \"contracts/priceConverter.sol\":1159:1228  uint256 ethAmountInUsd = (ethPrice * ethAmount) / 1000000000000000000 */\n      swap1\n      pop\n        /* \"contracts/priceConverter.sol\":1316:1330  ethAmountInUsd */\n      dup1\n        /* \"contracts/priceConverter.sol\":1309:1330  return ethAmountInUsd */\n      swap3\n      pop\n      pop\n      pop\n        /* \"contracts/priceConverter.sol\":952:1335  function valueInUSD(uint256 ethAmount, AggregatorV3Interface priceFeed)... */\n      swap3\n      swap2\n      pop\n      pop\n      jump\t// out\n        /* \"contracts/priceConverter.sol\":420:752  function ethToUSD(AggregatorV3Interface priceFeed)... */\n    tag_81:\n        /* \"contracts/priceConverter.sol\":506:513  uint256 */\n      0x00\n        /* \"contracts/priceConverter.sol\":560:573  int256 answer */\n      dup1\n        /* \"contracts/priceConverter.sol\":583:592  priceFeed */\n      dup3\n        /* \"contracts/priceConverter.sol\":583:608  priceFeed.latestRoundData */\n      0xffffffffffffffffffffffffffffffffffffffff\n      and\n      0xfeaf968c\n        /* \"contracts/priceConverter.sol\":583:610  priceFeed.latestRoundData() */\n      mload(0x40)\n      dup2\n      0xffffffff\n      and\n      0xe0\n      shl\n      dup2\n      mstore\n      0x04\n      add\n      0xa0\n      mload(0x40)\n      dup1\n      dup4\n      sub\n      dup2\n      dup7\n      dup1\n      extcodesize\n      iszero\n      dup1\n      iszero\n      tag_87\n      jumpi\n      0x00\n      dup1\n      revert\n    tag_87:\n      pop\n      gas\n      staticcall\n      iszero\n      dup1\n      iszero\n      tag_89\n      jumpi\n      returndatasize\n      0x00\n      dup1\n      returndatacopy\n      revert(0x00, returndatasize)\n    tag_89:\n      pop\n      pop\n      pop\n      pop\n      mload(0x40)\n      returndatasize\n      not(0x1f)\n      0x1f\n      dup3\n      add\n      and\n      dup3\n      add\n      dup1\n      0x40\n      mstore\n      pop\n      dup2\n      add\n      swap1\n      tag_90\n      swap2\n      swap1\n      tag_91\n      jump\t// in\n    tag_90:\n        /* \"contracts/priceConverter.sol\":557:610  (, int256 answer, , , ) = priceFeed.latestRoundData() */\n      pop\n      pop\n      pop\n      swap2\n      pop\n      pop\n        /* \"contracts/priceConverter.sol\":735:746  10000000000 */\n      0x02540be400\n        /* \"contracts/priceConverter.sol\":726:732  answer */\n      dup2\n        /* \"contracts/priceConverter.sol\":726:746  answer * 10000000000 */\n      tag_92\n      swap2\n      swap1\n      tag_93\n      jump\t// in\n    tag_92:\n        /* \"contracts/priceConverter.sol\":711:747  return uint256(answer * 10000000000) */\n      swap2\n      pop\n      pop\n        /* \"contracts/priceConverter.sol\":420:752  function ethToUSD(AggregatorV3Interface priceFeed)... */\n      swap2\n      swap1\n      pop\n      jump\t// out\n    tag_76:\n      dup3\n      dup1\n      sload\n      dup3\n      dup3\n      sstore\n      swap1\n      0x00\n      mstore\n      keccak256(0x00, 0x20)\n      swap1\n      dup2\n      add\n      swap3\n      dup3\n      iszero\n      tag_94\n      jumpi\n      swap2\n      0x20\n      mul\n      dup3\n      add\n    tag_95:\n      dup3\n      dup2\n      gt\n      iszero\n      tag_96\n      jumpi\n      dup3\n      mload\n      dup3\n      exp(0x0100, 0x00)\n      dup2\n      sload\n      dup2\n      0xffffffffffffffffffffffffffffffffffffffff\n      mul\n      not\n      and\n      swap1\n      dup4\n      0xffffffffffffffffffffffffffffffffffffffff\n      and\n      mul\n      or\n      swap1\n      sstore\n      pop\n      swap2\n      0x20\n      add\n      swap2\n      swap1\n      0x01\n      add\n      swap1\n      jump(tag_95)\n    tag_96:\n    tag_94:\n      pop\n      swap1\n      pop\n      tag_97\n      swap2\n      swap1\n      tag_98\n      jump\t// in\n    tag_97:\n      pop\n      swap1\n      jump\t// out\n    tag_98:\n    tag_99:\n      dup1\n      dup3\n      gt\n      iszero\n      tag_100\n      jumpi\n      0x00\n      dup2\n      0x00\n      swap1\n      sstore\n      pop\n      0x01\n      add\n      jump(tag_99)\n    tag_100:\n      pop\n      swap1\n      jump\t// out\n        /* \"#utility.yul\":7:146   */\n    tag_102:\n        /* \"#utility.yul\":53:58   */\n      0x00\n        /* \"#utility.yul\":91:97   */\n      dup2\n        /* \"#utility.yul\":78:98   */\n      calldataload\n        /* \"#utility.yul\":69:98   */\n      swap1\n      pop\n        /* \"#utility.yul\":107:140   */\n      tag_104\n        /* \"#utility.yul\":134:139   */\n      dup2\n        /* \"#utility.yul\":107:140   */\n      tag_105\n      jump\t// in\n    tag_104:\n        /* \"#utility.yul\":7:146   */\n      swap3\n      swap2\n      pop\n      pop\n      jump\t// out\n        /* \"#utility.yul\":152:293   */\n    tag_106:\n        /* \"#utility.yul\":208:213   */\n      0x00\n        /* \"#utility.yul\":239:245   */\n      dup2\n        /* \"#utility.yul\":233:246   */\n      mload\n        /* \"#utility.yul\":224:246   */\n      swap1\n      pop\n        /* \"#utility.yul\":255:287   */\n      tag_108\n        /* \"#utility.yul\":281:286   */\n      dup2\n        /* \"#utility.yul\":255:287   */\n      tag_109\n      jump\t// in\n    tag_108:\n        /* \"#utility.yul\":152:293   */\n      swap3\n      swap2\n      pop\n      pop\n      jump\t// out\n        /* \"#utility.yul\":299:438   */\n    tag_110:\n        /* \"#utility.yul\":345:350   */\n      0x00\n        /* \"#utility.yul\":383:389   */\n      dup2\n        /* \"#utility.yul\":370:390   */\n      calldataload\n        /* \"#utility.yul\":361:390   */\n      swap1\n      pop\n        /* \"#utility.yul\":399:432   */\n      tag_112\n        /* \"#utility.yul\":426:431   */\n      dup2\n        /* \"#utility.yul\":399:432   */\n      tag_113\n      jump\t// in\n    tag_112:\n        /* \"#utility.yul\":299:438   */\n      swap3\n      swap2\n      pop\n      pop\n      jump\t// out\n        /* \"#utility.yul\":444:587   */\n    tag_114:\n        /* \"#utility.yul\":501:506   */\n      0x00\n        /* \"#utility.yul\":532:538   */\n      dup2\n        /* \"#utility.yul\":526:539   */\n      mload\n        /* \"#utility.yul\":517:539   */\n      swap1\n      pop\n        /* \"#utility.yul\":548:581   */\n      tag_116\n        /* \"#utility.yul\":575:580   */\n      dup2\n        /* \"#utility.yul\":548:581   */\n      tag_113\n      jump\t// in\n    tag_116:\n        /* \"#utility.yul\":444:587   */\n      swap3\n      swap2\n      pop\n      pop\n      jump\t// out\n        /* \"#utility.yul\":593:734   */\n    tag_117:\n        /* \"#utility.yul\":649:654   */\n      0x00\n        /* \"#utility.yul\":680:686   */\n      dup2\n        /* \"#utility.yul\":674:687   */\n      mload\n        /* \"#utility.yul\":665:687   */\n      swap1\n      pop\n        /* \"#utility.yul\":696:728   */\n      tag_119\n        /* \"#utility.yul\":722:727   */\n      dup2\n        /* \"#utility.yul\":696:728   */\n      tag_120\n      jump\t// in\n    tag_119:\n        /* \"#utility.yul\":593:734   */\n      swap3\n      swap2\n      pop\n      pop\n      jump\t// out\n        /* \"#utility.yul\":740:1069   */\n    tag_23:\n        /* \"#utility.yul\":799:805   */\n      0x00\n        /* \"#utility.yul\":848:850   */\n      0x20\n        /* \"#utility.yul\":836:845   */\n      dup3\n        /* \"#utility.yul\":827:834   */\n      dup5\n        /* \"#utility.yul\":823:846   */\n      sub\n        /* \"#utility.yul\":819:851   */\n      slt\n        /* \"#utility.yul\":816:935   */\n      iszero\n      tag_122\n      jumpi\n        /* \"#utility.yul\":854:933   */\n      tag_123\n      tag_124\n      jump\t// in\n    tag_123:\n        /* \"#utility.yul\":816:935   */\n    tag_122:\n        /* \"#utility.yul\":974:975   */\n      0x00\n        /* \"#utility.yul\":999:1052   */\n      tag_125\n        /* \"#utility.yul\":1044:1051   */\n      dup5\n        /* \"#utility.yul\":1035:1041   */\n      dup3\n        /* \"#utility.yul\":1024:1033   */\n      dup6\n        /* \"#utility.yul\":1020:1042   */\n      add\n        /* \"#utility.yul\":999:1052   */\n      tag_102\n      jump\t// in\n    tag_125:\n        /* \"#utility.yul\":989:1052   */\n      swap2\n      pop\n        /* \"#utility.yul\":945:1062   */\n      pop\n        /* \"#utility.yul\":740:1069   */\n      swap3\n      swap2\n      pop\n      pop\n      jump\t// out\n        /* \"#utility.yul\":1075:1404   */\n    tag_38:\n        /* \"#utility.yul\":1134:1140   */\n      0x00\n        /* \"#utility.yul\":1183:1185   */\n      0x20\n        /* \"#utility.yul\":1171:1180   */\n      dup3\n        /* \"#utility.yul\":1162:1169   */\n      dup5\n        /* \"#utility.yul\":1158:1181   */\n      sub\n        /* \"#utility.yul\":1154:1186   */\n      slt\n        /* \"#utility.yul\":1151:1270   */\n      iszero\n      tag_127\n      jumpi\n        /* \"#utility.yul\":1189:1268   */\n      tag_128\n      tag_124\n      jump\t// in\n    tag_128:\n        /* \"#utility.yul\":1151:1270   */\n    tag_127:\n        /* \"#utility.yul\":1309:1310   */\n      0x00\n        /* \"#utility.yul\":1334:1387   */\n      tag_129\n        /* \"#utility.yul\":1379:1386   */\n      dup5\n        /* \"#utility.yul\":1370:1376   */\n      dup3\n        /* \"#utility.yul\":1359:1368   */\n      dup6\n        /* \"#utility.yul\":1355:1377   */\n      add\n        /* \"#utility.yul\":1334:1387   */\n      tag_110\n      jump\t// in\n    tag_129:\n        /* \"#utility.yul\":1324:1387   */\n      swap2\n      pop\n        /* \"#utility.yul\":1280:1397   */\n      pop\n        /* \"#utility.yul\":1075:1404   */\n      swap3\n      swap2\n      pop\n      pop\n      jump\t// out\n        /* \"#utility.yul\":1410:2381   */\n    tag_91:\n        /* \"#utility.yul\":1513:1519   */\n      0x00\n        /* \"#utility.yul\":1521:1527   */\n      dup1\n        /* \"#utility.yul\":1529:1535   */\n      0x00\n        /* \"#utility.yul\":1537:1543   */\n      dup1\n        /* \"#utility.yul\":1545:1551   */\n      0x00\n        /* \"#utility.yul\":1594:1597   */\n      0xa0\n        /* \"#utility.yul\":1582:1591   */\n      dup7\n        /* \"#utility.yul\":1573:1580   */\n      dup9\n        /* \"#utility.yul\":1569:1592   */\n      sub\n        /* \"#utility.yul\":1565:1598   */\n      slt\n        /* \"#utility.yul\":1562:1682   */\n      iszero\n      tag_131\n      jumpi\n        /* \"#utility.yul\":1601:1680   */\n      tag_132\n      tag_124\n      jump\t// in\n    tag_132:\n        /* \"#utility.yul\":1562:1682   */\n    tag_131:\n        /* \"#utility.yul\":1721:1722   */\n      0x00\n        /* \"#utility.yul\":1746:1809   */\n      tag_133\n        /* \"#utility.yul\":1801:1808   */\n      dup9\n        /* \"#utility.yul\":1792:1798   */\n      dup3\n        /* \"#utility.yul\":1781:1790   */\n      dup10\n        /* \"#utility.yul\":1777:1799   */\n      add\n        /* \"#utility.yul\":1746:1809   */\n      tag_117\n      jump\t// in\n    tag_133:\n        /* \"#utility.yul\":1736:1809   */\n      swap6\n      pop\n        /* \"#utility.yul\":1692:1819   */\n      pop\n        /* \"#utility.yul\":1858:1860   */\n      0x20\n        /* \"#utility.yul\":1884:1947   */\n      tag_134\n        /* \"#utility.yul\":1939:1946   */\n      dup9\n        /* \"#utility.yul\":1930:1936   */\n      dup3\n        /* \"#utility.yul\":1919:1928   */\n      dup10\n        /* \"#utility.yul\":1915:1937   */\n      add\n        /* \"#utility.yul\":1884:1947   */\n      tag_106\n      jump\t// in\n    tag_134:\n        /* \"#utility.yul\":1874:1947   */\n      swap5\n      pop\n        /* \"#utility.yul\":1829:1957   */\n      pop\n        /* \"#utility.yul\":1996:1998   */\n      0x40\n        /* \"#utility.yul\":2022:2086   */\n      tag_135\n        /* \"#utility.yul\":2078:2085   */\n      dup9\n        /* \"#utility.yul\":2069:2075   */\n      dup3\n        /* \"#utility.yul\":2058:2067   */\n      dup10\n        /* \"#utility.yul\":2054:2076   */\n      add\n        /* \"#utility.yul\":2022:2086   */\n      tag_114\n      jump\t// in\n    tag_135:\n        /* \"#utility.yul\":2012:2086   */\n      swap4\n      pop\n        /* \"#utility.yul\":1967:2096   */\n      pop\n        /* \"#utility.yul\":2135:2137   */\n      0x60\n        /* \"#utility.yul\":2161:2225   */\n      tag_136\n        /* \"#utility.yul\":2217:2224   */\n      dup9\n        /* \"#utility.yul\":2208:2214   */\n      dup3\n        /* \"#utility.yul\":2197:2206   */\n      dup10\n        /* \"#utility.yul\":2193:2215   */\n      add\n        /* \"#utility.yul\":2161:2225   */\n      tag_114\n      jump\t// in\n    tag_136:\n        /* \"#utility.yul\":2151:2225   */\n      swap3\n      pop\n        /* \"#utility.yul\":2106:2235   */\n      pop\n        /* \"#utility.yul\":2274:2277   */\n      0x80\n        /* \"#utility.yul\":2301:2364   */\n      tag_137\n        /* \"#utility.yul\":2356:2363   */\n      dup9\n        /* \"#utility.yul\":2347:2353   */\n      dup3\n        /* \"#utility.yul\":2336:2345   */\n      dup10\n        /* \"#utility.yul\":2332:2354   */\n      add\n        /* \"#utility.yul\":2301:2364   */\n      tag_117\n      jump\t// in\n    tag_137:\n        /* \"#utility.yul\":2291:2364   */\n      swap2\n      pop\n        /* \"#utility.yul\":2245:2374   */\n      pop\n        /* \"#utility.yul\":1410:2381   */\n      swap3\n      swap6\n      pop\n      swap3\n      swap6\n      swap1\n      swap4\n      pop\n      jump\t// out\n        /* \"#utility.yul\":2387:2505   */\n    tag_138:\n        /* \"#utility.yul\":2474:2498   */\n      tag_140\n        /* \"#utility.yul\":2492:2497   */\n      dup2\n        /* \"#utility.yul\":2474:2498   */\n      tag_141\n      jump\t// in\n    tag_140:\n        /* \"#utility.yul\":2469:2472   */\n      dup3\n        /* \"#utility.yul\":2462:2499   */\n      mstore\n        /* \"#utility.yul\":2387:2505   */\n      pop\n      pop\n      jump\t// out\n        /* \"#utility.yul\":2511:2877   */\n    tag_142:\n        /* \"#utility.yul\":2653:2656   */\n      0x00\n        /* \"#utility.yul\":2674:2741   */\n      tag_144\n        /* \"#utility.yul\":2738:2740   */\n      0x11\n        /* \"#utility.yul\":2733:2736   */\n      dup4\n        /* \"#utility.yul\":2674:2741   */\n      tag_145\n      jump\t// in\n    tag_144:\n        /* \"#utility.yul\":2667:2741   */\n      swap2\n      pop\n        /* \"#utility.yul\":2750:2843   */\n      tag_146\n        /* \"#utility.yul\":2839:2842   */\n      dup3\n        /* \"#utility.yul\":2750:2843   */\n      tag_147\n      jump\t// in\n    tag_146:\n        /* \"#utility.yul\":2868:2870   */\n      0x20\n        /* \"#utility.yul\":2863:2866   */\n      dup3\n        /* \"#utility.yul\":2859:2871   */\n      add\n        /* \"#utility.yul\":2852:2871   */\n      swap1\n      pop\n        /* \"#utility.yul\":2511:2877   */\n      swap2\n      swap1\n      pop\n      jump\t// out\n        /* \"#utility.yul\":2883:3249   */\n    tag_148:\n        /* \"#utility.yul\":3025:3028   */\n      0x00\n        /* \"#utility.yul\":3046:3113   */\n      tag_150\n        /* \"#utility.yul\":3110:3112   */\n      0x0b\n        /* \"#utility.yul\":3105:3108   */\n      dup4\n        /* \"#utility.yul\":3046:3113   */\n      tag_145\n      jump\t// in\n    tag_150:\n        /* \"#utility.yul\":3039:3113   */\n      swap2\n      pop\n        /* \"#utility.yul\":3122:3215   */\n      tag_151\n        /* \"#utility.yul\":3211:3214   */\n      dup3\n        /* \"#utility.yul\":3122:3215   */\n      tag_152\n      jump\t// in\n    tag_151:\n        /* \"#utility.yul\":3240:3242   */\n      0x20\n        /* \"#utility.yul\":3235:3238   */\n      dup3\n        /* \"#utility.yul\":3231:3243   */\n      add\n        /* \"#utility.yul\":3224:3243   */\n      swap1\n      pop\n        /* \"#utility.yul\":2883:3249   */\n      swap2\n      swap1\n      pop\n      jump\t// out\n        /* \"#utility.yul\":3255:3653   */\n    tag_153:\n        /* \"#utility.yul\":3414:3417   */\n      0x00\n        /* \"#utility.yul\":3435:3518   */\n      tag_155\n        /* \"#utility.yul\":3516:3517   */\n      0x00\n        /* \"#utility.yul\":3511:3514   */\n      dup4\n        /* \"#utility.yul\":3435:3518   */\n      tag_156\n      jump\t// in\n    tag_155:\n        /* \"#utility.yul\":3428:3518   */\n      swap2\n      pop\n        /* \"#utility.yul\":3527:3620   */\n      tag_157\n        /* \"#utility.yul\":3616:3619   */\n      dup3\n        /* \"#utility.yul\":3527:3620   */\n      tag_158\n      jump\t// in\n    tag_157:\n        /* \"#utility.yul\":3645:3646   */\n      0x00\n        /* \"#utility.yul\":3640:3643   */\n      dup3\n        /* \"#utility.yul\":3636:3647   */\n      add\n        /* \"#utility.yul\":3629:3647   */\n      swap1\n      pop\n        /* \"#utility.yul\":3255:3653   */\n      swap2\n      swap1\n      pop\n      jump\t// out\n        /* \"#utility.yul\":3659:3777   */\n    tag_159:\n        /* \"#utility.yul\":3746:3770   */\n      tag_161\n        /* \"#utility.yul\":3764:3769   */\n      dup2\n        /* \"#utility.yul\":3746:3770   */\n      tag_162\n      jump\t// in\n    tag_161:\n        /* \"#utility.yul\":3741:3744   */\n      dup3\n        /* \"#utility.yul\":3734:3771   */\n      mstore\n        /* \"#utility.yul\":3659:3777   */\n      pop\n      pop\n      jump\t// out\n        /* \"#utility.yul\":3783:4162   */\n    tag_55:\n        /* \"#utility.yul\":3967:3970   */\n      0x00\n        /* \"#utility.yul\":3989:4136   */\n      tag_164\n        /* \"#utility.yul\":4132:4135   */\n      dup3\n        /* \"#utility.yul\":3989:4136   */\n      tag_153\n      jump\t// in\n    tag_164:\n        /* \"#utility.yul\":3982:4136   */\n      swap2\n      pop\n        /* \"#utility.yul\":4153:4156   */\n      dup2\n        /* \"#utility.yul\":4146:4156   */\n      swap1\n      pop\n        /* \"#utility.yul\":3783:4162   */\n      swap2\n      swap1\n      pop\n      jump\t// out\n        /* \"#utility.yul\":4168:4390   */\n    tag_19:\n        /* \"#utility.yul\":4261:4265   */\n      0x00\n        /* \"#utility.yul\":4299:4301   */\n      0x20\n        /* \"#utility.yul\":4288:4297   */\n      dup3\n        /* \"#utility.yul\":4284:4302   */\n      add\n        /* \"#utility.yul\":4276:4302   */\n      swap1\n      pop\n        /* \"#utility.yul\":4312:4383   */\n      tag_166\n        /* \"#utility.yul\":4380:4381   */\n      0x00\n        /* \"#utility.yul\":4369:4378   */\n      dup4\n        /* \"#utility.yul\":4365:4382   */\n      add\n        /* \"#utility.yul\":4356:4362   */\n      dup5\n        /* \"#utility.yul\":4312:4383   */\n      tag_138\n      jump\t// in\n    tag_166:\n        /* \"#utility.yul\":4168:4390   */\n      swap3\n      swap2\n      pop\n      pop\n      jump\t// out\n        /* \"#utility.yul\":4396:4815   */\n    tag_49:\n        /* \"#utility.yul\":4562:4566   */\n      0x00\n        /* \"#utility.yul\":4600:4602   */\n      0x20\n        /* \"#utility.yul\":4589:4598   */\n      dup3\n        /* \"#utility.yul\":4585:4603   */\n      add\n        /* \"#utility.yul\":4577:4603   */\n      swap1\n      pop\n        /* \"#utility.yul\":4649:4658   */\n      dup2\n        /* \"#utility.yul\":4643:4647   */\n      dup2\n        /* \"#utility.yul\":4639:4659   */\n      sub\n        /* \"#utility.yul\":4635:4636   */\n      0x00\n        /* \"#utility.yul\":4624:4633   */\n      dup4\n        /* \"#utility.yul\":4620:4637   */\n      add\n        /* \"#utility.yul\":4613:4660   */\n      mstore\n        /* \"#utility.yul\":4677:4808   */\n      tag_168\n        /* \"#utility.yul\":4803:4807   */\n      dup2\n        /* \"#utility.yul\":4677:4808   */\n      tag_142\n      jump\t// in\n    tag_168:\n        /* \"#utility.yul\":4669:4808   */\n      swap1\n      pop\n        /* \"#utility.yul\":4396:4815   */\n      swap2\n      swap1\n      pop\n      jump\t// out\n        /* \"#utility.yul\":4821:5240   */\n    tag_61:\n        /* \"#utility.yul\":4987:4991   */\n      0x00\n        /* \"#utility.yul\":5025:5027   */\n      0x20\n        /* \"#utility.yul\":5014:5023   */\n      dup3\n        /* \"#utility.yul\":5010:5028   */\n      add\n        /* \"#utility.yul\":5002:5028   */\n      swap1\n      pop\n        /* \"#utility.yul\":5074:5083   */\n      dup2\n        /* \"#utility.yul\":5068:5072   */\n      dup2\n        /* \"#utility.yul\":5064:5084   */\n      sub\n        /* \"#utility.yul\":5060:5061   */\n      0x00\n        /* \"#utility.yul\":5049:5058   */\n      dup4\n        /* \"#utility.yul\":5045:5062   */\n      add\n        /* \"#utility.yul\":5038:5085   */\n      mstore\n        /* \"#utility.yul\":5102:5233   */\n      tag_170\n        /* \"#utility.yul\":5228:5232   */\n      dup2\n        /* \"#utility.yul\":5102:5233   */\n      tag_148\n      jump\t// in\n    tag_170:\n        /* \"#utility.yul\":5094:5233   */\n      swap1\n      pop\n        /* \"#utility.yul\":4821:5240   */\n      swap2\n      swap1\n      pop\n      jump\t// out\n        /* \"#utility.yul\":5246:5468   */\n    tag_14:\n        /* \"#utility.yul\":5339:5343   */\n      0x00\n        /* \"#utility.yul\":5377:5379   */\n      0x20\n        /* \"#utility.yul\":5366:5375   */\n      dup3\n        /* \"#utility.yul\":5362:5380   */\n      add\n        /* \"#utility.yul\":5354:5380   */\n      swap1\n      pop\n        /* \"#utility.yul\":5390:5461   */\n      tag_172\n        /* \"#utility.yul\":5458:5459   */\n      0x00\n        /* \"#utility.yul\":5447:5456   */\n      dup4\n        /* \"#utility.yul\":5443:5460   */\n      add\n        /* \"#utility.yul\":5434:5440   */\n      dup5\n        /* \"#utility.yul\":5390:5461   */\n      tag_159\n      jump\t// in\n    tag_172:\n        /* \"#utility.yul\":5246:5468   */\n      swap3\n      swap2\n      pop\n      pop\n      jump\t// out\n        /* \"#utility.yul\":5555:5702   */\n    tag_156:\n        /* \"#utility.yul\":5656:5667   */\n      0x00\n        /* \"#utility.yul\":5693:5696   */\n      dup2\n        /* \"#utility.yul\":5678:5696   */\n      swap1\n      pop\n        /* \"#utility.yul\":5555:5702   */\n      swap3\n      swap2\n      pop\n      pop\n      jump\t// out\n        /* \"#utility.yul\":5708:5877   */\n    tag_145:\n        /* \"#utility.yul\":5792:5803   */\n      0x00\n        /* \"#utility.yul\":5826:5832   */\n      dup3\n        /* \"#utility.yul\":5821:5824   */\n      dup3\n        /* \"#utility.yul\":5814:5833   */\n      mstore\n        /* \"#utility.yul\":5866:5870   */\n      0x20\n        /* \"#utility.yul\":5861:5864   */\n      dup3\n        /* \"#utility.yul\":5857:5871   */\n      add\n        /* \"#utility.yul\":5842:5871   */\n      swap1\n      pop\n        /* \"#utility.yul\":5708:5877   */\n      swap3\n      swap2\n      pop\n      pop\n      jump\t// out\n        /* \"#utility.yul\":5883:6068   */\n    tag_85:\n        /* \"#utility.yul\":5923:5924   */\n      0x00\n        /* \"#utility.yul\":5940:5960   */\n      tag_178\n        /* \"#utility.yul\":5958:5959   */\n      dup3\n        /* \"#utility.yul\":5940:5960   */\n      tag_162\n      jump\t// in\n    tag_178:\n        /* \"#utility.yul\":5935:5960   */\n      swap2\n      pop\n        /* \"#utility.yul\":5974:5994   */\n      tag_179\n        /* \"#utility.yul\":5992:5993   */\n      dup4\n        /* \"#utility.yul\":5974:5994   */\n      tag_162\n      jump\t// in\n    tag_179:\n        /* \"#utility.yul\":5969:5994   */\n      swap3\n      pop\n        /* \"#utility.yul\":6013:6014   */\n      dup3\n        /* \"#utility.yul\":6003:6038   */\n      tag_180\n      jumpi\n        /* \"#utility.yul\":6018:6036   */\n      tag_181\n      tag_182\n      jump\t// in\n    tag_181:\n        /* \"#utility.yul\":6003:6038   */\n    tag_180:\n        /* \"#utility.yul\":6060:6061   */\n      dup3\n        /* \"#utility.yul\":6057:6058   */\n      dup3\n        /* \"#utility.yul\":6053:6062   */\n      div\n        /* \"#utility.yul\":6048:6062   */\n      swap1\n      pop\n        /* \"#utility.yul\":5883:6068   */\n      swap3\n      swap2\n      pop\n      pop\n      jump\t// out\n        /* \"#utility.yul\":6074:7065   */\n    tag_93:\n        /* \"#utility.yul\":6113:6120   */\n      0x00\n        /* \"#utility.yul\":6136:6155   */\n      tag_184\n        /* \"#utility.yul\":6153:6154   */\n      dup3\n        /* \"#utility.yul\":6136:6155   */\n      tag_185\n      jump\t// in\n    tag_184:\n        /* \"#utility.yul\":6131:6155   */\n      swap2\n      pop\n        /* \"#utility.yul\":6169:6188   */\n      tag_186\n        /* \"#utility.yul\":6186:6187   */\n      dup4\n        /* \"#utility.yul\":6169:6188   */\n      tag_185\n      jump\t// in\n    tag_186:\n        /* \"#utility.yul\":6164:6188   */\n      swap3\n      pop\n        /* \"#utility.yul\":6370:6371   */\n      dup3\n        /* \"#utility.yul\":6302:6368   */\n      0x7fffffffffffffffffffffffffffffffffffffffffffffffffffffffffffffff\n        /* \"#utility.yul\":6298:6372   */\n      div\n        /* \"#utility.yul\":6295:6296   */\n      dup3\n        /* \"#utility.yul\":6292:6373   */\n      gt\n        /* \"#utility.yul\":6287:6288   */\n      0x00\n        /* \"#utility.yul\":6284:6285   */\n      dup5\n        /* \"#utility.yul\":6280:6289   */\n      sgt\n        /* \"#utility.yul\":6276:6277   */\n      0x00\n        /* \"#utility.yul\":6273:6274   */\n      dup5\n        /* \"#utility.yul\":6269:6278   */\n      sgt\n        /* \"#utility.yul\":6265:6290   */\n      and\n        /* \"#utility.yul\":6261:6374   */\n      and\n        /* \"#utility.yul\":6258:6397   */\n      iszero\n      tag_187\n      jumpi\n        /* \"#utility.yul\":6377:6395   */\n      tag_188\n      tag_189\n      jump\t// in\n    tag_188:\n        /* \"#utility.yul\":6258:6397   */\n    tag_187:\n        /* \"#utility.yul\":6581:6582   */\n      dup2\n        /* \"#utility.yul\":6513:6579   */\n      0x8000000000000000000000000000000000000000000000000000000000000000\n        /* \"#utility.yul\":6508:6583   */\n      sdiv\n        /* \"#utility.yul\":6505:6506   */\n      dup4\n        /* \"#utility.yul\":6501:6584   */\n      slt\n        /* \"#utility.yul\":6496:6497   */\n      0x00\n        /* \"#utility.yul\":6493:6494   */\n      dup5\n        /* \"#utility.yul\":6489:6498   */\n      slt\n        /* \"#utility.yul\":6485:6486   */\n      0x00\n        /* \"#utility.yul\":6482:6483   */\n      dup5\n        /* \"#utility.yul\":6478:6487   */\n      sgt\n        /* \"#utility.yul\":6474:6499   */\n      and\n        /* \"#utility.yul\":6470:6585   */\n      and\n        /* \"#utility.yul\":6467:6608   */\n      iszero\n      tag_190\n      jumpi\n        /* \"#utility.yul\":6588:6606   */\n      tag_191\n      tag_189\n      jump\t// in\n    tag_191:\n        /* \"#utility.yul\":6467:6608   */\n    tag_190:\n        /* \"#utility.yul\":6792:6793   */\n      dup3\n        /* \"#utility.yul\":6724:6790   */\n      0x8000000000000000000000000000000000000000000000000000000000000000\n        /* \"#utility.yul\":6719:6794   */\n      sdiv\n        /* \"#utility.yul\":6716:6717   */\n      dup3\n        /* \"#utility.yul\":6712:6795   */\n      slt\n        /* \"#utility.yul\":6707:6708   */\n      0x00\n        /* \"#utility.yul\":6704:6705   */\n      dup5\n        /* \"#utility.yul\":6700:6709   */\n      sgt\n        /* \"#utility.yul\":6696:6697   */\n      0x00\n        /* \"#utility.yul\":6693:6694   */\n      dup5\n        /* \"#utility.yul\":6689:6698   */\n      slt\n        /* \"#utility.yul\":6685:6710   */\n      and\n        /* \"#utility.yul\":6681:6796   */\n      and\n        /* \"#utility.yul\":6678:6819   */\n      iszero\n      tag_192\n      jumpi\n        /* \"#utility.yul\":6799:6817   */\n      tag_193\n      tag_189\n      jump\t// in\n    tag_193:\n        /* \"#utility.yul\":6678:6819   */\n    tag_192:\n        /* \"#utility.yul\":7002:7003   */\n      dup3\n        /* \"#utility.yul\":6934:7000   */\n      0x7fffffffffffffffffffffffffffffffffffffffffffffffffffffffffffffff\n        /* \"#utility.yul\":6929:7004   */\n      sdiv\n        /* \"#utility.yul\":6926:6927   */\n      dup3\n        /* \"#utility.yul\":6922:7005   */\n      slt\n        /* \"#utility.yul\":6917:6918   */\n      0x00\n        /* \"#utility.yul\":6914:6915   */\n      dup5\n        /* \"#utility.yul\":6910:6919   */\n      slt\n        /* \"#utility.yul\":6906:6907   */\n      0x00\n        /* \"#utility.yul\":6903:6904   */\n      dup5\n        /* \"#utility.yul\":6899:6908   */\n      slt\n        /* \"#utility.yul\":6895:6920   */\n      and\n        /* \"#utility.yul\":6891:7006   */\n      and\n        /* \"#utility.yul\":6888:7029   */\n      iszero\n      tag_194\n      jumpi\n        /* \"#utility.yul\":7009:7027   */\n      tag_195\n      tag_189\n      jump\t// in\n    tag_195:\n        /* \"#utility.yul\":6888:7029   */\n    tag_194:\n        /* \"#utility.yul\":7057:7058   */\n      dup3\n        /* \"#utility.yul\":7054:7055   */\n      dup3\n        /* \"#utility.yul\":7050:7059   */\n      mul\n        /* \"#utility.yul\":7039:7059   */\n      swap1\n      pop\n        /* \"#utility.yul\":6074:7065   */\n      swap3\n      swap2\n      pop\n      pop\n      jump\t// out\n        /* \"#utility.yul\":7071:7419   */\n    tag_83:\n        /* \"#utility.yul\":7111:7118   */\n      0x00\n        /* \"#utility.yul\":7134:7154   */\n      tag_197\n        /* \"#utility.yul\":7152:7153   */\n      dup3\n        /* \"#utility.yul\":7134:7154   */\n      tag_162\n      jump\t// in\n    tag_197:\n        /* \"#utility.yul\":7129:7154   */\n      swap2\n      pop\n        /* \"#utility.yul\":7168:7188   */\n      tag_198\n        /* \"#utility.yul\":7186:7187   */\n      dup4\n        /* \"#utility.yul\":7168:7188   */\n      tag_162\n      jump\t// in\n    tag_198:\n        /* \"#utility.yul\":7163:7188   */\n      swap3\n      pop\n        /* \"#utility.yul\":7356:7357   */\n      dup2\n        /* \"#utility.yul\":7288:7354   */\n      0xffffffffffffffffffffffffffffffffffffffffffffffffffffffffffffffff\n        /* \"#utility.yul\":7284:7358   */\n      div\n        /* \"#utility.yul\":7281:7282   */\n      dup4\n        /* \"#utility.yul\":7278:7359   */\n      gt\n        /* \"#utility.yul\":7273:7274   */\n      dup3\n        /* \"#utility.yul\":7266:7275   */\n      iszero\n        /* \"#utility.yul\":7259:7276   */\n      iszero\n        /* \"#utility.yul\":7255:7360   */\n      and\n        /* \"#utility.yul\":7252:7383   */\n      iszero\n      tag_199\n      jumpi\n        /* \"#utility.yul\":7363:7381   */\n      tag_200\n      tag_189\n      jump\t// in\n    tag_200:\n        /* \"#utility.yul\":7252:7383   */\n    tag_199:\n        /* \"#utility.yul\":7411:7412   */\n      dup3\n        /* \"#utility.yul\":7408:7409   */\n      dup3\n        /* \"#utility.yul\":7404:7413   */\n      mul\n        /* \"#utility.yul\":7393:7413   */\n      swap1\n      pop\n        /* \"#utility.yul\":7071:7419   */\n      swap3\n      swap2\n      pop\n      pop\n      jump\t// out\n        /* \"#utility.yul\":7425:7521   */\n    tag_141:\n        /* \"#utility.yul\":7462:7469   */\n      0x00\n        /* \"#utility.yul\":7491:7515   */\n      tag_202\n        /* \"#utility.yul\":7509:7514   */\n      dup3\n        /* \"#utility.yul\":7491:7515   */\n      tag_203\n      jump\t// in\n    tag_202:\n        /* \"#utility.yul\":7480:7515   */\n      swap1\n      pop\n        /* \"#utility.yul\":7425:7521   */\n      swap2\n      swap1\n      pop\n      jump\t// out\n        /* \"#utility.yul\":7527:7603   */\n    tag_185:\n        /* \"#utility.yul\":7563:7570   */\n      0x00\n        /* \"#utility.yul\":7592:7597   */\n      dup2\n        /* \"#utility.yul\":7581:7597   */\n      swap1\n      pop\n        /* \"#utility.yul\":7527:7603   */\n      swap2\n      swap1\n      pop\n      jump\t// out\n        /* \"#utility.yul\":7609:7735   */\n    tag_203:\n        /* \"#utility.yul\":7646:7653   */\n      0x00\n        /* \"#utility.yul\":7686:7728   */\n      0xffffffffffffffffffffffffffffffffffffffff\n        /* \"#utility.yul\":7679:7684   */\n      dup3\n        /* \"#utility.yul\":7675:7729   */\n      and\n        /* \"#utility.yul\":7664:7729   */\n      swap1\n      pop\n        /* \"#utility.yul\":7609:7735   */\n      swap2\n      swap1\n      pop\n      jump\t// out\n        /* \"#utility.yul\":7741:7818   */\n    tag_162:\n        /* \"#utility.yul\":7778:7785   */\n      0x00\n        /* \"#utility.yul\":7807:7812   */\n      dup2\n        /* \"#utility.yul\":7796:7812   */\n      swap1\n      pop\n        /* \"#utility.yul\":7741:7818   */\n      swap2\n      swap1\n      pop\n      jump\t// out\n        /* \"#utility.yul\":7824:7929   */\n    tag_207:\n        /* \"#utility.yul\":7860:7867   */\n      0x00\n        /* \"#utility.yul\":7900:7922   */\n      0xffffffffffffffffffff\n        /* \"#utility.yul\":7893:7898   */\n      dup3\n        /* \"#utility.yul\":7889:7923   */\n      and\n        /* \"#utility.yul\":7878:7923   */\n      swap1\n      pop\n        /* \"#utility.yul\":7824:7929   */\n      swap2\n      swap1\n      pop\n      jump\t// out\n        /* \"#utility.yul\":7935:8168   */\n    tag_70:\n        /* \"#utility.yul\":7974:7977   */\n      0x00\n        /* \"#utility.yul\":7997:8021   */\n      tag_210\n        /* \"#utility.yul\":8015:8020   */\n      dup3\n        /* \"#utility.yul\":7997:8021   */\n      tag_162\n      jump\t// in\n    tag_210:\n        /* \"#utility.yul\":7988:8021   */\n      swap2\n      pop\n        /* \"#utility.yul\":8043:8109   */\n      0xffffffffffffffffffffffffffffffffffffffffffffffffffffffffffffffff\n        /* \"#utility.yul\":8036:8041   */\n      dup3\n        /* \"#utility.yul\":8033:8110   */\n      eq\n        /* \"#utility.yul\":8030:8133   */\n      iszero\n      tag_211\n      jumpi\n        /* \"#utility.yul\":8113:8131   */\n      tag_212\n      tag_189\n      jump\t// in\n    tag_212:\n        /* \"#utility.yul\":8030:8133   */\n    tag_211:\n        /* \"#utility.yul\":8160:8161   */\n      0x01\n        /* \"#utility.yul\":8153:8158   */\n      dup3\n        /* \"#utility.yul\":8149:8162   */\n      add\n        /* \"#utility.yul\":8142:8162   */\n      swap1\n      pop\n        /* \"#utility.yul\":7935:8168   */\n      swap2\n      swap1\n      pop\n      jump\t// out\n        /* \"#utility.yul\":8174:8354   */\n    tag_189:\n        /* \"#utility.yul\":8222:8299   */\n      0x4e487b7100000000000000000000000000000000000000000000000000000000\n        /* \"#utility.yul\":8219:8220   */\n      0x00\n        /* \"#utility.yul\":8212:8300   */\n      mstore\n        /* \"#utility.yul\":8319:8323   */\n      0x11\n        /* \"#utility.yul\":8316:8317   */\n      0x04\n        /* \"#utility.yul\":8309:8324   */\n      mstore\n        /* \"#utility.yul\":8343:8347   */\n      0x24\n        /* \"#utility.yul\":8340:8341   */\n      0x00\n        /* \"#utility.yul\":8333:8348   */\n      revert\n        /* \"#utility.yul\":8360:8540   */\n    tag_182:\n        /* \"#utility.yul\":8408:8485   */\n      0x4e487b7100000000000000000000000000000000000000000000000000000000\n        /* \"#utility.yul\":8405:8406   */\n      0x00\n        /* \"#utility.yul\":8398:8486   */\n      mstore\n        /* \"#utility.yul\":8505:8509   */\n      0x12\n        /* \"#utility.yul\":8502:8503   */\n      0x04\n        /* \"#utility.yul\":8495:8510   */\n      mstore\n        /* \"#utility.yul\":8529:8533   */\n      0x24\n        /* \"#utility.yul\":8526:8527   */\n      0x00\n        /* \"#utility.yul\":8519:8534   */\n      revert\n        /* \"#utility.yul\":8546:8726   */\n    tag_67:\n        /* \"#utility.yul\":8594:8671   */\n      0x4e487b7100000000000000000000000000000000000000000000000000000000\n        /* \"#utility.yul\":8591:8592   */\n      0x00\n        /* \"#utility.yul\":8584:8672   */\n      mstore\n        /* \"#utility.yul\":8691:8695   */\n      0x32\n        /* \"#utility.yul\":8688:8689   */\n      0x04\n        /* \"#utility.yul\":8681:8696   */\n      mstore\n        /* \"#utility.yul\":8715:8719   */\n      0x24\n        /* \"#utility.yul\":8712:8713   */\n      0x00\n        /* \"#utility.yul\":8705:8720   */\n      revert\n        /* \"#utility.yul\":8732:8912   */\n    tag_73:\n        /* \"#utility.yul\":8780:8857   */\n      0x4e487b7100000000000000000000000000000000000000000000000000000000\n        /* \"#utility.yul\":8777:8778   */\n      0x00\n        /* \"#utility.yul\":8770:8858   */\n      mstore\n        /* \"#utility.yul\":8877:8881   */\n      0x41\n        /* \"#utility.yul\":8874:8875   */\n      0x04\n        /* \"#utility.yul\":8867:8882   */\n      mstore\n        /* \"#utility.yul\":8901:8905   */\n      0x24\n        /* \"#utility.yul\":8898:8899   */\n      0x00\n        /* \"#utility.yul\":8891:8906   */\n      revert\n        /* \"#utility.yul\":9041:9158   */\n    tag_124:\n        /* \"#utility.yul\":9150:9151   */\n      0x00\n        /* \"#utility.yul\":9147:9148   */\n      dup1\n        /* \"#utility.yul\":9140:9152   */\n      revert\n        /* \"#utility.yul\":9164:9331   */\n    tag_147:\n        /* \"#utility.yul\":9304:9323   */\n      0x4d6f726520455448207265717569726564000000000000000000000000000000\n        /* \"#utility.yul\":9300:9301   */\n      0x00\n        /* \"#utility.yul\":9292:9298   */\n      dup3\n        /* \"#utility.yul\":9288:9302   */\n      add\n        /* \"#utility.yul\":9281:9324   */\n      mstore\n        /* \"#utility.yul\":9164:9331   */\n      pop\n      jump\t// out\n        /* \"#utility.yul\":9337:9498   */\n    tag_152:\n        /* \"#utility.yul\":9477:9490   */\n      0x53656e64206661696c6564000000000000000000000000000000000000000000\n        /* \"#utility.yul\":9473:9474   */\n      0x00\n        /* \"#utility.yul\":9465:9471   */\n      dup3\n        /* \"#utility.yul\":9461:9475   */\n      add\n        /* \"#utility.yul\":9454:9491   */\n      mstore\n        /* \"#utility.yul\":9337:9498   */\n      pop\n      jump\t// out\n        /* \"#utility.yul\":9504:9618   */\n    tag_158:\n      pop\n      jump\t// out\n        /* \"#utility.yul\":9624:9746   */\n    tag_105:\n        /* \"#utility.yul\":9697:9721   */\n      tag_224\n        /* \"#utility.yul\":9715:9720   */\n      dup2\n        /* \"#utility.yul\":9697:9721   */\n      tag_141\n      jump\t// in\n    tag_224:\n        /* \"#utility.yul\":9690:9695   */\n      dup2\n        /* \"#utility.yul\":9687:9722   */\n      eq\n        /* \"#utility.yul\":9677:9740   */\n      tag_225\n      jumpi\n        /* \"#utility.yul\":9736:9737   */\n      0x00\n        /* \"#utility.yul\":9733:9734   */\n      dup1\n        /* \"#utility.yul\":9726:9738   */\n      revert\n        /* \"#utility.yul\":9677:9740   */\n    tag_225:\n        /* \"#utility.yul\":9624:9746   */\n      pop\n      jump\t// out\n        /* \"#utility.yul\":9752:9872   */\n    tag_109:\n        /* \"#utility.yul\":9824:9847   */\n      tag_227\n        /* \"#utility.yul\":9841:9846   */\n      dup2\n        /* \"#utility.yul\":9824:9847   */\n      tag_185\n      jump\t// in\n    tag_227:\n        /* \"#utility.yul\":9817:9822   */\n      dup2\n        /* \"#utility.yul\":9814:9848   */\n      eq\n        /* \"#utility.yul\":9804:9866   */\n      tag_228\n      jumpi\n        /* \"#utility.yul\":9862:9863   */\n      0x00\n        /* \"#utility.yul\":9859:9860   */\n      dup1\n        /* \"#utility.yul\":9852:9864   */\n      revert\n        /* \"#utility.yul\":9804:9866   */\n    tag_228:\n        /* \"#utility.yul\":9752:9872   */\n      pop\n      jump\t// out\n        /* \"#utility.yul\":9878:10000   */\n    tag_113:\n        /* \"#utility.yul\":9951:9975   */\n      tag_230\n        /* \"#utility.yul\":9969:9974   */\n      dup2\n        /* \"#utility.yul\":9951:9975   */\n      tag_162\n      jump\t// in\n    tag_230:\n        /* \"#utility.yul\":9944:9949   */\n      dup2\n        /* \"#utility.yul\":9941:9976   */\n      eq\n        /* \"#utility.yul\":9931:9994   */\n      tag_231\n      jumpi\n        /* \"#utility.yul\":9990:9991   */\n      0x00\n        /* \"#utility.yul\":9987:9988   */\n      dup1\n        /* \"#utility.yul\":9980:9992   */\n      revert\n        /* \"#utility.yul\":9931:9994   */\n    tag_231:\n        /* \"#utility.yul\":9878:10000   */\n      pop\n      jump\t// out\n        /* \"#utility.yul\":10006:10126   */\n    tag_120:\n        /* \"#utility.yul\":10078:10101   */\n      tag_233\n        /* \"#utility.yul\":10095:10100   */\n      dup2\n        /* \"#utility.yul\":10078:10101   */\n      tag_207\n      jump\t// in\n    tag_233:\n        /* \"#utility.yul\":10071:10076   */\n      dup2\n        /* \"#utility.yul\":10068:10102   */\n      eq\n        /* \"#utility.yul\":10058:10120   */\n      tag_234\n      jumpi\n        /* \"#utility.yul\":10116:10117   */\n      0x00\n        /* \"#utility.yul\":10113:10114   */\n      dup1\n        /* \"#utility.yul\":10106:10118   */\n      revert\n        /* \"#utility.yul\":10058:10120   */\n    tag_234:\n        /* \"#utility.yul\":10006:10126   */\n      pop\n      jump\t// out\n\n    auxdata: 0xa26469706673582212204f6845dd9b21521f6c517d09564300bc39ee42d0025f5f1e1299df4b2ebef13364736f6c63430008070033\n}\n",
				"bytecode": {
					"linkReferences": {},
					"object": "608060405234801561001057600080fd5b50604051610f7f380380610f7f833981810160405281019061003291906100ce565b336000806101000a81548173ffffffffffffffffffffffffffffffffffffffff021916908373ffffffffffffffffffffffffffffffffffffffff16021790555080600260006101000a81548173ffffffffffffffffffffffffffffffffffffffff021916908373ffffffffffffffffffffffffffffffffffffffff16021790555050610149565b6000815190506100c881610132565b92915050565b6000602082840312156100e4576100e361012d565b5b60006100f2848285016100b9565b91505092915050565b60006101068261010d565b9050919050565b600073ffffffffffffffffffffffffffffffffffffffff82169050919050565b600080fd5b61013b816100fb565b811461014657600080fd5b50565b610e27806101586000396000f3fe6080604052600436106100705760003560e01c8063a6f9dae11161004e578063a6f9dae114610108578063b60d428814610131578063ccadfaf21461013b578063dc0d3dff1461015257610070565b80634dc93616146100755780638da5cb5b146100a05780639d9ef3e7146100cb575b600080fd5b34801561008157600080fd5b5061008a61018f565b6040516100979190610a01565b60405180910390f35b3480156100ac57600080fd5b506100b561019b565b6040516100c291906109a6565b60405180910390f35b3480156100d757600080fd5b506100f260048036038101906100ed9190610835565b6101bf565b6040516100ff9190610a01565b60405180910390f35b34801561011457600080fd5b5061012f600480360381019061012a9190610835565b6101d7565b005b6101396102a0565b005b34801561014757600080fd5b506101506103c8565b005b34801561015e57600080fd5b5061017960048036038101906101749190610862565b61060a565b60405161018691906109a6565b60405180910390f35b671bc16d674ec8000081565b60008054906101000a900473ffffffffffffffffffffffffffffffffffffffff1681565b60036020528060005260406000206000915090505481565b60008054906101000a900473ffffffffffffffffffffffffffffffffffffffff1673ffffffffffffffffffffffffffffffffffffffff163373ffffffffffffffffffffffffffffffffffffffff16141561025d576040517f251c9d6300000000000000000000000000000000000000000000000000000000815260040160405180910390fd5b806000806101000a81548173ffffffffffffffffffffffffffffffffffffffff021916908373ffffffffffffffffffffffffffffffffffffffff16021790555050565b671bc16d674ec800006102de600260009054906101000a900473ffffffffffffffffffffffffffffffffffffffff163461064990919063ffffffff16565b101561031f576040517f08c379a0000000000000000000000000000000000000000000000000000000008152600401610316906109c1565b60405180910390fd5b34600360003373ffffffffffffffffffffffffffffffffffffffff1673ffffffffffffffffffffffffffffffffffffffff168152602001908152602001600020819055506001339080600181540180825580915050600190039060005260206000200160009091909190916101000a81548173ffffffffffffffffffffffffffffffffffffffff021916908373ffffffffffffffffffffffffffffffffffffffff160217905550565b60008054906101000a900473ffffffffffffffffffffffffffffffffffffffff1673ffffffffffffffffffffffffffffffffffffffff163373ffffffffffffffffffffffffffffffffffffffff16141561044e576040517f251c9d6300000000000000000000000000000000000000000000000000000000815260040160405180910390fd5b60003373ffffffffffffffffffffffffffffffffffffffff164760405161047490610991565b60006040518083038185875af1925050503d80600081146104b1576040519150601f19603f3d011682016040523d82523d6000602084013e6104b6565b606091505b50509050806104fa576040517f08c379a00000000000000000000000000000000000000000000000000000000081526004016104f1906109e1565b60405180910390fd5b60005b6001805490508110156105a6576000600182815481106105205761051f610cdd565b5b9060005260206000200160009054906101000a900473ffffffffffffffffffffffffffffffffffffffff1690506000600360008373ffffffffffffffffffffffffffffffffffffffff1673ffffffffffffffffffffffffffffffffffffffff1681526020019081526020016000208190555050808061059e90610c36565b9150506104fd565b50600067ffffffffffffffff8111156105c2576105c1610d0c565b5b6040519080825280602002602001820160405280156105f05781602001602082028036833780820191505090505b5060019080519060200190610606929190610725565b5050565b6001818154811061061a57600080fd5b906000526020600020016000915054906101000a900473ffffffffffffffffffffffffffffffffffffffff1681565b60008061065583610685565b90506000670de0b6b3a7640000858361066e9190610b80565b6106789190610a38565b9050809250505092915050565b6000808273ffffffffffffffffffffffffffffffffffffffff1663feaf968c6040518163ffffffff1660e01b815260040160a06040518083038186803b1580156106ce57600080fd5b505afa1580156106e2573d6000803e3d6000fd5b505050506040513d601f19601f82011682018060405250810190610706919061088f565b5050509150506402540be4008161071d9190610a69565b915050919050565b82805482825590600052602060002090810192821561079e579160200282015b8281111561079d5782518260006101000a81548173ffffffffffffffffffffffffffffffffffffffff021916908373ffffffffffffffffffffffffffffffffffffffff16021790555091602001919060010190610745565b5b5090506107ab91906107af565b5090565b5b808211156107c85760008160009055506001016107b0565b5090565b6000813590506107db81610d95565b92915050565b6000815190506107f081610dac565b92915050565b60008135905061080581610dc3565b92915050565b60008151905061081a81610dc3565b92915050565b60008151905061082f81610dda565b92915050565b60006020828403121561084b5761084a610d3b565b5b6000610859848285016107cc565b91505092915050565b60006020828403121561087857610877610d3b565b5b6000610886848285016107f6565b91505092915050565b600080600080600060a086880312156108ab576108aa610d3b565b5b60006108b988828901610820565b95505060206108ca888289016107e1565b94505060406108db8882890161080b565b93505060606108ec8882890161080b565b92505060806108fd88828901610820565b9150509295509295909350565b61091381610bda565b82525050565b6000610926601183610a27565b915061093182610d40565b602082019050919050565b6000610949600b83610a27565b915061095482610d69565b602082019050919050565b600061096c600083610a1c565b915061097782610d92565b600082019050919050565b61098b81610c16565b82525050565b600061099c8261095f565b9150819050919050565b60006020820190506109bb600083018461090a565b92915050565b600060208201905081810360008301526109da81610919565b9050919050565b600060208201905081810360008301526109fa8161093c565b9050919050565b6000602082019050610a166000830184610982565b92915050565b600081905092915050565b600082825260208201905092915050565b6000610a4382610c16565b9150610a4e83610c16565b925082610a5e57610a5d610cae565b5b828204905092915050565b6000610a7482610bec565b9150610a7f83610bec565b9250827f7fffffffffffffffffffffffffffffffffffffffffffffffffffffffffffffff0482116000841360008413161615610abe57610abd610c7f565b5b817f80000000000000000000000000000000000000000000000000000000000000000583126000841260008413161615610afb57610afa610c7f565b5b827f80000000000000000000000000000000000000000000000000000000000000000582126000841360008412161615610b3857610b37610c7f565b5b827f7fffffffffffffffffffffffffffffffffffffffffffffffffffffffffffffff0582126000841260008412161615610b7557610b74610c7f565b5b828202905092915050565b6000610b8b82610c16565b9150610b9683610c16565b9250817fffffffffffffffffffffffffffffffffffffffffffffffffffffffffffffffff0483118215151615610bcf57610bce610c7f565b5b828202905092915050565b6000610be582610bf6565b9050919050565b6000819050919050565b600073ffffffffffffffffffffffffffffffffffffffff82169050919050565b6000819050919050565b600069ffffffffffffffffffff82169050919050565b6000610c4182610c16565b91507fffffffffffffffffffffffffffffffffffffffffffffffffffffffffffffffff821415610c7457610c73610c7f565b5b600182019050919050565b7f4e487b7100000000000000000000000000000000000000000000000000000000600052601160045260246000fd5b7f4e487b7100000000000000000000000000000000000000000000000000000000600052601260045260246000fd5b7f4e487b7100000000000000000000000000000000000000000000000000000000600052603260045260246000fd5b7f4e487b7100000000000000000000000000000000000000000000000000000000600052604160045260246000fd5b600080fd5b7f4d6f726520455448207265717569726564000000000000000000000000000000600082015250565b7f53656e64206661696c6564000000000000000000000000000000000000000000600082015250565b50565b610d9e81610bda565b8114610da957600080fd5b50565b610db581610bec565b8114610dc057600080fd5b50565b610dcc81610c16565b8114610dd757600080fd5b50565b610de381610c20565b8114610dee57600080fd5b5056fea26469706673582212204f6845dd9b21521f6c517d09564300bc39ee42d0025f5f1e1299df4b2ebef13364736f6c63430008070033",
					"opcodes": "PUSH1 0x80 PUSH1 0x40 MSTORE CALLVALUE DUP1 ISZERO PUSH2 0x10 JUMPI PUSH1 0x0 DUP1 REVERT JUMPDEST POP PUSH1 0x40 MLOAD PUSH2 0xF7F CODESIZE SUB DUP1 PUSH2 0xF7F DUP4 CODECOPY DUP2 DUP2 ADD PUSH1 0x40 MSTORE DUP2 ADD SWAP1 PUSH2 0x32 SWAP2 SWAP1 PUSH2 0xCE JUMP JUMPDEST CALLER PUSH1 0x0 DUP1 PUSH2 0x100 EXP DUP2 SLOAD DUP2 PUSH20 0xFFFFFFFFFFFFFFFFFFFFFFFFFFFFFFFFFFFFFFFF MUL NOT AND SWAP1 DUP4 PUSH20 0xFFFFFFFFFFFFFFFFFFFFFFFFFFFFFFFFFFFFFFFF AND MUL OR SWAP1 SSTORE POP DUP1 PUSH1 0x2 PUSH1 0x0 PUSH2 0x100 EXP DUP2 SLOAD DUP2 PUSH20 0xFFFFFFFFFFFFFFFFFFFFFFFFFFFFFFFFFFFFFFFF MUL NOT AND SWAP1 DUP4 PUSH20 0xFFFFFFFFFFFFFFFFFFFFFFFFFFFFFFFFFFFFFFFF AND MUL OR SWAP1 SSTORE POP POP PUSH2 0x149 JUMP JUMPDEST PUSH1 0x0 DUP2 MLOAD SWAP1 POP PUSH2 0xC8 DUP2 PUSH2 0x132 JUMP JUMPDEST SWAP3 SWAP2 POP POP JUMP JUMPDEST PUSH1 0x0 PUSH1 0x20 DUP3 DUP5 SUB SLT ISZERO PUSH2 0xE4 JUMPI PUSH2 0xE3 PUSH2 0x12D JUMP JUMPDEST JUMPDEST PUSH1 0x0 PUSH2 0xF2 DUP5 DUP3 DUP6 ADD PUSH2 0xB9 JUMP JUMPDEST SWAP2 POP POP SWAP3 SWAP2 POP POP JUMP JUMPDEST PUSH1 0x0 PUSH2 0x106 DUP3 PUSH2 0x10D JUMP JUMPDEST SWAP1 POP SWAP2 SWAP1 POP JUMP JUMPDEST PUSH1 0x0 PUSH20 0xFFFFFFFFFFFFFFFFFFFFFFFFFFFFFFFFFFFFFFFF DUP3 AND SWAP1 POP SWAP2 SWAP1 POP JUMP JUMPDEST PUSH1 0x0 DUP1 REVERT JUMPDEST PUSH2 0x13B DUP2 PUSH2 0xFB JUMP JUMPDEST DUP2 EQ PUSH2 0x146 JUMPI PUSH1 0x0 DUP1 REVERT JUMPDEST POP JUMP JUMPDEST PUSH2 0xE27 DUP1 PUSH2 0x158 PUSH1 0x0 CODECOPY PUSH1 0x0 RETURN INVALID PUSH1 0x80 PUSH1 0x40 MSTORE PUSH1 0x4 CALLDATASIZE LT PUSH2 0x70 JUMPI PUSH1 0x0 CALLDATALOAD PUSH1 0xE0 SHR DUP1 PUSH4 0xA6F9DAE1 GT PUSH2 0x4E JUMPI DUP1 PUSH4 0xA6F9DAE1 EQ PUSH2 0x108 JUMPI DUP1 PUSH4 0xB60D4288 EQ PUSH2 0x131 JUMPI DUP1 PUSH4 0xCCADFAF2 EQ PUSH2 0x13B JUMPI DUP1 PUSH4 0xDC0D3DFF EQ PUSH2 0x152 JUMPI PUSH2 0x70 JUMP JUMPDEST DUP1 PUSH4 0x4DC93616 EQ PUSH2 0x75 JUMPI DUP1 PUSH4 0x8DA5CB5B EQ PUSH2 0xA0 JUMPI DUP1 PUSH4 0x9D9EF3E7 EQ PUSH2 0xCB JUMPI JUMPDEST PUSH1 0x0 DUP1 REVERT JUMPDEST CALLVALUE DUP1 ISZERO PUSH2 0x81 JUMPI PUSH1 0x0 DUP1 REVERT JUMPDEST POP PUSH2 0x8A PUSH2 0x18F JUMP JUMPDEST PUSH1 0x40 MLOAD PUSH2 0x97 SWAP2 SWAP1 PUSH2 0xA01 JUMP JUMPDEST PUSH1 0x40 MLOAD DUP1 SWAP2 SUB SWAP1 RETURN JUMPDEST CALLVALUE DUP1 ISZERO PUSH2 0xAC JUMPI PUSH1 0x0 DUP1 REVERT JUMPDEST POP PUSH2 0xB5 PUSH2 0x19B JUMP JUMPDEST PUSH1 0x40 MLOAD PUSH2 0xC2 SWAP2 SWAP1 PUSH2 0x9A6 JUMP JUMPDEST PUSH1 0x40 MLOAD DUP1 SWAP2 SUB SWAP1 RETURN JUMPDEST CALLVALUE DUP1 ISZERO PUSH2 0xD7 JUMPI PUSH1 0x0 DUP1 REVERT JUMPDEST POP PUSH2 0xF2 PUSH1 0x4 DUP1 CALLDATASIZE SUB DUP2 ADD SWAP1 PUSH2 0xED SWAP2 SWAP1 PUSH2 0x835 JUMP JUMPDEST PUSH2 0x1BF JUMP JUMPDEST PUSH1 0x40 MLOAD PUSH2 0xFF SWAP2 SWAP1 PUSH2 0xA01 JUMP JUMPDEST PUSH1 0x40 MLOAD DUP1 SWAP2 SUB SWAP1 RETURN JUMPDEST CALLVALUE DUP1 ISZERO PUSH2 0x114 JUMPI PUSH1 0x0 DUP1 REVERT JUMPDEST POP PUSH2 0x12F PUSH1 0x4 DUP1 CALLDATASIZE SUB DUP2 ADD SWAP1 PUSH2 0x12A SWAP2 SWAP1 PUSH2 0x835 JUMP JUMPDEST PUSH2 0x1D7 JUMP JUMPDEST STOP JUMPDEST PUSH2 0x139 PUSH2 0x2A0 JUMP JUMPDEST STOP JUMPDEST CALLVALUE DUP1 ISZERO PUSH2 0x147 JUMPI PUSH1 0x0 DUP1 REVERT JUMPDEST POP PUSH2 0x150 PUSH2 0x3C8 JUMP JUMPDEST STOP JUMPDEST CALLVALUE DUP1 ISZERO PUSH2 0x15E JUMPI PUSH1 0x0 DUP1 REVERT JUMPDEST POP PUSH2 0x179 PUSH1 0x4 DUP1 CALLDATASIZE SUB DUP2 ADD SWAP1 PUSH2 0x174 SWAP2 SWAP1 PUSH2 0x862 JUMP JUMPDEST PUSH2 0x60A JUMP JUMPDEST PUSH1 0x40 MLOAD PUSH2 0x186 SWAP2 SWAP1 PUSH2 0x9A6 JUMP JUMPDEST PUSH1 0x40 MLOAD DUP1 SWAP2 SUB SWAP1 RETURN JUMPDEST PUSH8 0x1BC16D674EC80000 DUP2 JUMP JUMPDEST PUSH1 0x0 DUP1 SLOAD SWAP1 PUSH2 0x100 EXP SWAP1 DIV PUSH20 0xFFFFFFFFFFFFFFFFFFFFFFFFFFFFFFFFFFFFFFFF AND DUP2 JUMP JUMPDEST PUSH1 0x3 PUSH1 0x20 MSTORE DUP1 PUSH1 0x0 MSTORE PUSH1 0x40 PUSH1 0x0 KECCAK256 PUSH1 0x0 SWAP2 POP SWAP1 POP SLOAD DUP2 JUMP JUMPDEST PUSH1 0x0 DUP1 SLOAD SWAP1 PUSH2 0x100 EXP SWAP1 DIV PUSH20 0xFFFFFFFFFFFFFFFFFFFFFFFFFFFFFFFFFFFFFFFF AND PUSH20 0xFFFFFFFFFFFFFFFFFFFFFFFFFFFFFFFFFFFFFFFF AND CALLER PUSH20 0xFFFFFFFFFFFFFFFFFFFFFFFFFFFFFFFFFFFFFFFF AND EQ ISZERO PUSH2 0x25D JUMPI PUSH1 0x40 MLOAD PUSH32 0x251C9D6300000000000000000000000000000000000000000000000000000000 DUP2 MSTORE PUSH1 0x4 ADD PUSH1 0x40 MLOAD DUP1 SWAP2 SUB SWAP1 REVERT JUMPDEST DUP1 PUSH1 0x0 DUP1 PUSH2 0x100 EXP DUP2 SLOAD DUP2 PUSH20 0xFFFFFFFFFFFFFFFFFFFFFFFFFFFFFFFFFFFFFFFF MUL NOT AND SWAP1 DUP4 PUSH20 0xFFFFFFFFFFFFFFFFFFFFFFFFFFFFFFFFFFFFFFFF AND MUL OR SWAP1 SSTORE POP POP JUMP JUMPDEST PUSH8 0x1BC16D674EC80000 PUSH2 0x2DE PUSH1 0x2 PUSH1 0x0 SWAP1 SLOAD SWAP1 PUSH2 0x100 EXP SWAP1 DIV PUSH20 0xFFFFFFFFFFFFFFFFFFFFFFFFFFFFFFFFFFFFFFFF AND CALLVALUE PUSH2 0x649 SWAP1 SWAP2 SWAP1 PUSH4 0xFFFFFFFF AND JUMP JUMPDEST LT ISZERO PUSH2 0x31F JUMPI PUSH1 0x40 MLOAD PUSH32 0x8C379A000000000000000000000000000000000000000000000000000000000 DUP2 MSTORE PUSH1 0x4 ADD PUSH2 0x316 SWAP1 PUSH2 0x9C1 JUMP JUMPDEST PUSH1 0x40 MLOAD DUP1 SWAP2 SUB SWAP1 REVERT JUMPDEST CALLVALUE PUSH1 0x3 PUSH1 0x0 CALLER PUSH20 0xFFFFFFFFFFFFFFFFFFFFFFFFFFFFFFFFFFFFFFFF AND PUSH20 0xFFFFFFFFFFFFFFFFFFFFFFFFFFFFFFFFFFFFFFFF AND DUP2 MSTORE PUSH1 0x20 ADD SWAP1 DUP2 MSTORE PUSH1 0x20 ADD PUSH1 0x0 KECCAK256 DUP2 SWAP1 SSTORE POP PUSH1 0x1 CALLER SWAP1 DUP1 PUSH1 0x1 DUP2 SLOAD ADD DUP1 DUP3 SSTORE DUP1 SWAP2 POP POP PUSH1 0x1 SWAP1 SUB SWAP1 PUSH1 0x0 MSTORE PUSH1 0x20 PUSH1 0x0 KECCAK256 ADD PUSH1 0x0 SWAP1 SWAP2 SWAP1 SWAP2 SWAP1 SWAP2 PUSH2 0x100 EXP DUP2 SLOAD DUP2 PUSH20 0xFFFFFFFFFFFFFFFFFFFFFFFFFFFFFFFFFFFFFFFF MUL NOT AND SWAP1 DUP4 PUSH20 0xFFFFFFFFFFFFFFFFFFFFFFFFFFFFFFFFFFFFFFFF AND MUL OR SWAP1 SSTORE POP JUMP JUMPDEST PUSH1 0x0 DUP1 SLOAD SWAP1 PUSH2 0x100 EXP SWAP1 DIV PUSH20 0xFFFFFFFFFFFFFFFFFFFFFFFFFFFFFFFFFFFFFFFF AND PUSH20 0xFFFFFFFFFFFFFFFFFFFFFFFFFFFFFFFFFFFFFFFF AND CALLER PUSH20 0xFFFFFFFFFFFFFFFFFFFFFFFFFFFFFFFFFFFFFFFF AND EQ ISZERO PUSH2 0x44E JUMPI PUSH1 0x40 MLOAD PUSH32 0x251C9D6300000000000000000000000000000000000000000000000000000000 DUP2 MSTORE PUSH1 0x4 ADD PUSH1 0x40 MLOAD DUP1 SWAP2 SUB SWAP1 REVERT JUMPDEST PUSH1 0x0 CALLER PUSH20 0xFFFFFFFFFFFFFFFFFFFFFFFFFFFFFFFFFFFFFFFF AND SELFBALANCE PUSH1 0x40 MLOAD PUSH2 0x474 SWAP1 PUSH2 0x991 JUMP JUMPDEST PUSH1 0x0 PUSH1 0x40 MLOAD DUP1 DUP4 SUB DUP2 DUP6 DUP8 GAS CALL SWAP3 POP POP POP RETURNDATASIZE DUP1 PUSH1 0x0 DUP2 EQ PUSH2 0x4B1 JUMPI PUSH1 0x40 MLOAD SWAP2 POP PUSH1 0x1F NOT PUSH1 0x3F RETURNDATASIZE ADD AND DUP3 ADD PUSH1 0x40 MSTORE RETURNDATASIZE DUP3 MSTORE RETURNDATASIZE PUSH1 0x0 PUSH1 0x20 DUP5 ADD RETURNDATACOPY PUSH2 0x4B6 JUMP JUMPDEST PUSH1 0x60 SWAP2 POP JUMPDEST POP POP SWAP1 POP DUP1 PUSH2 0x4FA JUMPI PUSH1 0x40 MLOAD PUSH32 0x8C379A000000000000000000000000000000000000000000000000000000000 DUP2 MSTORE PUSH1 0x4 ADD PUSH2 0x4F1 SWAP1 PUSH2 0x9E1 JUMP JUMPDEST PUSH1 0x40 MLOAD DUP1 SWAP2 SUB SWAP1 REVERT JUMPDEST PUSH1 0x0 JUMPDEST PUSH1 0x1 DUP1 SLOAD SWAP1 POP DUP2 LT ISZERO PUSH2 0x5A6 JUMPI PUSH1 0x0 PUSH1 0x1 DUP3 DUP2 SLOAD DUP2 LT PUSH2 0x520 JUMPI PUSH2 0x51F PUSH2 0xCDD JUMP JUMPDEST JUMPDEST SWAP1 PUSH1 0x0 MSTORE PUSH1 0x20 PUSH1 0x0 KECCAK256 ADD PUSH1 0x0 SWAP1 SLOAD SWAP1 PUSH2 0x100 EXP SWAP1 DIV PUSH20 0xFFFFFFFFFFFFFFFFFFFFFFFFFFFFFFFFFFFFFFFF AND SWAP1 POP PUSH1 0x0 PUSH1 0x3 PUSH1 0x0 DUP4 PUSH20 0xFFFFFFFFFFFFFFFFFFFFFFFFFFFFFFFFFFFFFFFF AND PUSH20 0xFFFFFFFFFFFFFFFFFFFFFFFFFFFFFFFFFFFFFFFF AND DUP2 MSTORE PUSH1 0x20 ADD SWAP1 DUP2 MSTORE PUSH1 0x20 ADD PUSH1 0x0 KECCAK256 DUP2 SWAP1 SSTORE POP POP DUP1 DUP1 PUSH2 0x59E SWAP1 PUSH2 0xC36 JUMP JUMPDEST SWAP2 POP POP PUSH2 0x4FD JUMP JUMPDEST POP PUSH1 0x0 PUSH8 0xFFFFFFFFFFFFFFFF DUP2 GT ISZERO PUSH2 0x5C2 JUMPI PUSH2 0x5C1 PUSH2 0xD0C JUMP JUMPDEST JUMPDEST PUSH1 0x40 MLOAD SWAP1 DUP1 DUP3 MSTORE DUP1 PUSH1 0x20 MUL PUSH1 0x20 ADD DUP3 ADD PUSH1 0x40 MSTORE DUP1 ISZERO PUSH2 0x5F0 JUMPI DUP2 PUSH1 0x20 ADD PUSH1 0x20 DUP3 MUL DUP1 CALLDATASIZE DUP4 CALLDATACOPY DUP1 DUP3 ADD SWAP2 POP POP SWAP1 POP JUMPDEST POP PUSH1 0x1 SWAP1 DUP1 MLOAD SWAP1 PUSH1 0x20 ADD SWAP1 PUSH2 0x606 SWAP3 SWAP2 SWAP1 PUSH2 0x725 JUMP JUMPDEST POP POP JUMP JUMPDEST PUSH1 0x1 DUP2 DUP2 SLOAD DUP2 LT PUSH2 0x61A JUMPI PUSH1 0x0 DUP1 REVERT JUMPDEST SWAP1 PUSH1 0x0 MSTORE PUSH1 0x20 PUSH1 0x0 KECCAK256 ADD PUSH1 0x0 SWAP2 POP SLOAD SWAP1 PUSH2 0x100 EXP SWAP1 DIV PUSH20 0xFFFFFFFFFFFFFFFFFFFFFFFFFFFFFFFFFFFFFFFF AND DUP2 JUMP JUMPDEST PUSH1 0x0 DUP1 PUSH2 0x655 DUP4 PUSH2 0x685 JUMP JUMPDEST SWAP1 POP PUSH1 0x0 PUSH8 0xDE0B6B3A7640000 DUP6 DUP4 PUSH2 0x66E SWAP2 SWAP1 PUSH2 0xB80 JUMP JUMPDEST PUSH2 0x678 SWAP2 SWAP1 PUSH2 0xA38 JUMP JUMPDEST SWAP1 POP DUP1 SWAP3 POP POP POP SWAP3 SWAP2 POP POP JUMP JUMPDEST PUSH1 0x0 DUP1 DUP3 PUSH20 0xFFFFFFFFFFFFFFFFFFFFFFFFFFFFFFFFFFFFFFFF AND PUSH4 0xFEAF968C PUSH1 0x40 MLOAD DUP2 PUSH4 0xFFFFFFFF AND PUSH1 0xE0 SHL DUP2 MSTORE PUSH1 0x4 ADD PUSH1 0xA0 PUSH1 0x40 MLOAD DUP1 DUP4 SUB DUP2 DUP7 DUP1 EXTCODESIZE ISZERO DUP1 ISZERO PUSH2 0x6CE JUMPI PUSH1 0x0 DUP1 REVERT JUMPDEST POP GAS STATICCALL ISZERO DUP1 ISZERO PUSH2 0x6E2 JUMPI RETURNDATASIZE PUSH1 0x0 DUP1 RETURNDATACOPY RETURNDATASIZE PUSH1 0x0 REVERT JUMPDEST POP POP POP POP PUSH1 0x40 MLOAD RETURNDATASIZE PUSH1 0x1F NOT PUSH1 0x1F DUP3 ADD AND DUP3 ADD DUP1 PUSH1 0x40 MSTORE POP DUP2 ADD SWAP1 PUSH2 0x706 SWAP2 SWAP1 PUSH2 0x88F JUMP JUMPDEST POP POP POP SWAP2 POP POP PUSH5 0x2540BE400 DUP2 PUSH2 0x71D SWAP2 SWAP1 PUSH2 0xA69 JUMP JUMPDEST SWAP2 POP POP SWAP2 SWAP1 POP JUMP JUMPDEST DUP3 DUP1 SLOAD DUP3 DUP3 SSTORE SWAP1 PUSH1 0x0 MSTORE PUSH1 0x20 PUSH1 0x0 KECCAK256 SWAP1 DUP2 ADD SWAP3 DUP3 ISZERO PUSH2 0x79E JUMPI SWAP2 PUSH1 0x20 MUL DUP3 ADD JUMPDEST DUP3 DUP2 GT ISZERO PUSH2 0x79D JUMPI DUP3 MLOAD DUP3 PUSH1 0x0 PUSH2 0x100 EXP DUP2 SLOAD DUP2 PUSH20 0xFFFFFFFFFFFFFFFFFFFFFFFFFFFFFFFFFFFFFFFF MUL NOT AND SWAP1 DUP4 PUSH20 0xFFFFFFFFFFFFFFFFFFFFFFFFFFFFFFFFFFFFFFFF AND MUL OR SWAP1 SSTORE POP SWAP2 PUSH1 0x20 ADD SWAP2 SWAP1 PUSH1 0x1 ADD SWAP1 PUSH2 0x745 JUMP JUMPDEST JUMPDEST POP SWAP1 POP PUSH2 0x7AB SWAP2 SWAP1 PUSH2 0x7AF JUMP JUMPDEST POP SWAP1 JUMP JUMPDEST JUMPDEST DUP1 DUP3 GT ISZERO PUSH2 0x7C8 JUMPI PUSH1 0x0 DUP2 PUSH1 0x0 SWAP1 SSTORE POP PUSH1 0x1 ADD PUSH2 0x7B0 JUMP JUMPDEST POP SWAP1 JUMP JUMPDEST PUSH1 0x0 DUP2 CALLDATALOAD SWAP1 POP PUSH2 0x7DB DUP2 PUSH2 0xD95 JUMP JUMPDEST SWAP3 SWAP2 POP POP JUMP JUMPDEST PUSH1 0x0 DUP2 MLOAD SWAP1 POP PUSH2 0x7F0 DUP2 PUSH2 0xDAC JUMP JUMPDEST SWAP3 SWAP2 POP POP JUMP JUMPDEST PUSH1 0x0 DUP2 CALLDATALOAD SWAP1 POP PUSH2 0x805 DUP2 PUSH2 0xDC3 JUMP JUMPDEST SWAP3 SWAP2 POP POP JUMP JUMPDEST PUSH1 0x0 DUP2 MLOAD SWAP1 POP PUSH2 0x81A DUP2 PUSH2 0xDC3 JUMP JUMPDEST SWAP3 SWAP2 POP POP JUMP JUMPDEST PUSH1 0x0 DUP2 MLOAD SWAP1 POP PUSH2 0x82F DUP2 PUSH2 0xDDA JUMP JUMPDEST SWAP3 SWAP2 POP POP JUMP JUMPDEST PUSH1 0x0 PUSH1 0x20 DUP3 DUP5 SUB SLT ISZERO PUSH2 0x84B JUMPI PUSH2 0x84A PUSH2 0xD3B JUMP JUMPDEST JUMPDEST PUSH1 0x0 PUSH2 0x859 DUP5 DUP3 DUP6 ADD PUSH2 0x7CC JUMP JUMPDEST SWAP2 POP POP SWAP3 SWAP2 POP POP JUMP JUMPDEST PUSH1 0x0 PUSH1 0x20 DUP3 DUP5 SUB SLT ISZERO PUSH2 0x878 JUMPI PUSH2 0x877 PUSH2 0xD3B JUMP JUMPDEST JUMPDEST PUSH1 0x0 PUSH2 0x886 DUP5 DUP3 DUP6 ADD PUSH2 0x7F6 JUMP JUMPDEST SWAP2 POP POP SWAP3 SWAP2 POP POP JUMP JUMPDEST PUSH1 0x0 DUP1 PUSH1 0x0 DUP1 PUSH1 0x0 PUSH1 0xA0 DUP7 DUP9 SUB SLT ISZERO PUSH2 0x8AB JUMPI PUSH2 0x8AA PUSH2 0xD3B JUMP JUMPDEST JUMPDEST PUSH1 0x0 PUSH2 0x8B9 DUP9 DUP3 DUP10 ADD PUSH2 0x820 JUMP JUMPDEST SWAP6 POP POP PUSH1 0x20 PUSH2 0x8CA DUP9 DUP3 DUP10 ADD PUSH2 0x7E1 JUMP JUMPDEST SWAP5 POP POP PUSH1 0x40 PUSH2 0x8DB DUP9 DUP3 DUP10 ADD PUSH2 0x80B JUMP JUMPDEST SWAP4 POP POP PUSH1 0x60 PUSH2 0x8EC DUP9 DUP3 DUP10 ADD PUSH2 0x80B JUMP JUMPDEST SWAP3 POP POP PUSH1 0x80 PUSH2 0x8FD DUP9 DUP3 DUP10 ADD PUSH2 0x820 JUMP JUMPDEST SWAP2 POP POP SWAP3 SWAP6 POP SWAP3 SWAP6 SWAP1 SWAP4 POP JUMP JUMPDEST PUSH2 0x913 DUP2 PUSH2 0xBDA JUMP JUMPDEST DUP3 MSTORE POP POP JUMP JUMPDEST PUSH1 0x0 PUSH2 0x926 PUSH1 0x11 DUP4 PUSH2 0xA27 JUMP JUMPDEST SWAP2 POP PUSH2 0x931 DUP3 PUSH2 0xD40 JUMP JUMPDEST PUSH1 0x20 DUP3 ADD SWAP1 POP SWAP2 SWAP1 POP JUMP JUMPDEST PUSH1 0x0 PUSH2 0x949 PUSH1 0xB DUP4 PUSH2 0xA27 JUMP JUMPDEST SWAP2 POP PUSH2 0x954 DUP3 PUSH2 0xD69 JUMP JUMPDEST PUSH1 0x20 DUP3 ADD SWAP1 POP SWAP2 SWAP1 POP JUMP JUMPDEST PUSH1 0x0 PUSH2 0x96C PUSH1 0x0 DUP4 PUSH2 0xA1C JUMP JUMPDEST SWAP2 POP PUSH2 0x977 DUP3 PUSH2 0xD92 JUMP JUMPDEST PUSH1 0x0 DUP3 ADD SWAP1 POP SWAP2 SWAP1 POP JUMP JUMPDEST PUSH2 0x98B DUP2 PUSH2 0xC16 JUMP JUMPDEST DUP3 MSTORE POP POP JUMP JUMPDEST PUSH1 0x0 PUSH2 0x99C DUP3 PUSH2 0x95F JUMP JUMPDEST SWAP2 POP DUP2 SWAP1 POP SWAP2 SWAP1 POP JUMP JUMPDEST PUSH1 0x0 PUSH1 0x20 DUP3 ADD SWAP1 POP PUSH2 0x9BB PUSH1 0x0 DUP4 ADD DUP5 PUSH2 0x90A JUMP JUMPDEST SWAP3 SWAP2 POP POP JUMP JUMPDEST PUSH1 0x0 PUSH1 0x20 DUP3 ADD SWAP1 POP DUP2 DUP2 SUB PUSH1 0x0 DUP4 ADD MSTORE PUSH2 0x9DA DUP2 PUSH2 0x919 JUMP JUMPDEST SWAP1 POP SWAP2 SWAP1 POP JUMP JUMPDEST PUSH1 0x0 PUSH1 0x20 DUP3 ADD SWAP1 POP DUP2 DUP2 SUB PUSH1 0x0 DUP4 ADD MSTORE PUSH2 0x9FA DUP2 PUSH2 0x93C JUMP JUMPDEST SWAP1 POP SWAP2 SWAP1 POP JUMP JUMPDEST PUSH1 0x0 PUSH1 0x20 DUP3 ADD SWAP1 POP PUSH2 0xA16 PUSH1 0x0 DUP4 ADD DUP5 PUSH2 0x982 JUMP JUMPDEST SWAP3 SWAP2 POP POP JUMP JUMPDEST PUSH1 0x0 DUP2 SWAP1 POP SWAP3 SWAP2 POP POP JUMP JUMPDEST PUSH1 0x0 DUP3 DUP3 MSTORE PUSH1 0x20 DUP3 ADD SWAP1 POP SWAP3 SWAP2 POP POP JUMP JUMPDEST PUSH1 0x0 PUSH2 0xA43 DUP3 PUSH2 0xC16 JUMP JUMPDEST SWAP2 POP PUSH2 0xA4E DUP4 PUSH2 0xC16 JUMP JUMPDEST SWAP3 POP DUP3 PUSH2 0xA5E JUMPI PUSH2 0xA5D PUSH2 0xCAE JUMP JUMPDEST JUMPDEST DUP3 DUP3 DIV SWAP1 POP SWAP3 SWAP2 POP POP JUMP JUMPDEST PUSH1 0x0 PUSH2 0xA74 DUP3 PUSH2 0xBEC JUMP JUMPDEST SWAP2 POP PUSH2 0xA7F DUP4 PUSH2 0xBEC JUMP JUMPDEST SWAP3 POP DUP3 PUSH32 0x7FFFFFFFFFFFFFFFFFFFFFFFFFFFFFFFFFFFFFFFFFFFFFFFFFFFFFFFFFFFFFFF DIV DUP3 GT PUSH1 0x0 DUP5 SGT PUSH1 0x0 DUP5 SGT AND AND ISZERO PUSH2 0xABE JUMPI PUSH2 0xABD PUSH2 0xC7F JUMP JUMPDEST JUMPDEST DUP2 PUSH32 0x8000000000000000000000000000000000000000000000000000000000000000 SDIV DUP4 SLT PUSH1 0x0 DUP5 SLT PUSH1 0x0 DUP5 SGT AND AND ISZERO PUSH2 0xAFB JUMPI PUSH2 0xAFA PUSH2 0xC7F JUMP JUMPDEST JUMPDEST DUP3 PUSH32 0x8000000000000000000000000000000000000000000000000000000000000000 SDIV DUP3 SLT PUSH1 0x0 DUP5 SGT PUSH1 0x0 DUP5 SLT AND AND ISZERO PUSH2 0xB38 JUMPI PUSH2 0xB37 PUSH2 0xC7F JUMP JUMPDEST JUMPDEST DUP3 PUSH32 0x7FFFFFFFFFFFFFFFFFFFFFFFFFFFFFFFFFFFFFFFFFFFFFFFFFFFFFFFFFFFFFFF SDIV DUP3 SLT PUSH1 0x0 DUP5 SLT PUSH1 0x0 DUP5 SLT AND AND ISZERO PUSH2 0xB75 JUMPI PUSH2 0xB74 PUSH2 0xC7F JUMP JUMPDEST JUMPDEST DUP3 DUP3 MUL SWAP1 POP SWAP3 SWAP2 POP POP JUMP JUMPDEST PUSH1 0x0 PUSH2 0xB8B DUP3 PUSH2 0xC16 JUMP JUMPDEST SWAP2 POP PUSH2 0xB96 DUP4 PUSH2 0xC16 JUMP JUMPDEST SWAP3 POP DUP2 PUSH32 0xFFFFFFFFFFFFFFFFFFFFFFFFFFFFFFFFFFFFFFFFFFFFFFFFFFFFFFFFFFFFFFFF DIV DUP4 GT DUP3 ISZERO ISZERO AND ISZERO PUSH2 0xBCF JUMPI PUSH2 0xBCE PUSH2 0xC7F JUMP JUMPDEST JUMPDEST DUP3 DUP3 MUL SWAP1 POP SWAP3 SWAP2 POP POP JUMP JUMPDEST PUSH1 0x0 PUSH2 0xBE5 DUP3 PUSH2 0xBF6 JUMP JUMPDEST SWAP1 POP SWAP2 SWAP1 POP JUMP JUMPDEST PUSH1 0x0 DUP2 SWAP1 POP SWAP2 SWAP1 POP JUMP JUMPDEST PUSH1 0x0 PUSH20 0xFFFFFFFFFFFFFFFFFFFFFFFFFFFFFFFFFFFFFFFF DUP3 AND SWAP1 POP SWAP2 SWAP1 POP JUMP JUMPDEST PUSH1 0x0 DUP2 SWAP1 POP SWAP2 SWAP1 POP JUMP JUMPDEST PUSH1 0x0 PUSH10 0xFFFFFFFFFFFFFFFFFFFF DUP3 AND SWAP1 POP SWAP2 SWAP1 POP JUMP JUMPDEST PUSH1 0x0 PUSH2 0xC41 DUP3 PUSH2 0xC16 JUMP JUMPDEST SWAP2 POP PUSH32 0xFFFFFFFFFFFFFFFFFFFFFFFFFFFFFFFFFFFFFFFFFFFFFFFFFFFFFFFFFFFFFFFF DUP3 EQ ISZERO PUSH2 0xC74 JUMPI PUSH2 0xC73 PUSH2 0xC7F JUMP JUMPDEST JUMPDEST PUSH1 0x1 DUP3 ADD SWAP1 POP SWAP2 SWAP1 POP JUMP JUMPDEST PUSH32 0x4E487B7100000000000000000000000000000000000000000000000000000000 PUSH1 0x0 MSTORE PUSH1 0x11 PUSH1 0x4 MSTORE PUSH1 0x24 PUSH1 0x0 REVERT JUMPDEST PUSH32 0x4E487B7100000000000000000000000000000000000000000000000000000000 PUSH1 0x0 MSTORE PUSH1 0x12 PUSH1 0x4 MSTORE PUSH1 0x24 PUSH1 0x0 REVERT JUMPDEST PUSH32 0x4E487B7100000000000000000000000000000000000000000000000000000000 PUSH1 0x0 MSTORE PUSH1 0x32 PUSH1 0x4 MSTORE PUSH1 0x24 PUSH1 0x0 REVERT JUMPDEST PUSH32 0x4E487B7100000000000000000000000000000000000000000000000000000000 PUSH1 0x0 MSTORE PUSH1 0x41 PUSH1 0x4 MSTORE PUSH1 0x24 PUSH1 0x0 REVERT JUMPDEST PUSH1 0x0 DUP1 REVERT JUMPDEST PUSH32 0x4D6F726520455448207265717569726564000000000000000000000000000000 PUSH1 0x0 DUP3 ADD MSTORE POP JUMP JUMPDEST PUSH32 0x53656E64206661696C6564000000000000000000000000000000000000000000 PUSH1 0x0 DUP3 ADD MSTORE POP JUMP JUMPDEST POP JUMP JUMPDEST PUSH2 0xD9E DUP2 PUSH2 0xBDA JUMP JUMPDEST DUP2 EQ PUSH2 0xDA9 JUMPI PUSH1 0x0 DUP1 REVERT JUMPDEST POP JUMP JUMPDEST PUSH2 0xDB5 DUP2 PUSH2 0xBEC JUMP JUMPDEST DUP2 EQ PUSH2 0xDC0 JUMPI PUSH1 0x0 DUP1 REVERT JUMPDEST POP JUMP JUMPDEST PUSH2 0xDCC DUP2 PUSH2 0xC16 JUMP JUMPDEST DUP2 EQ PUSH2 0xDD7 JUMPI PUSH1 0x0 DUP1 REVERT JUMPDEST POP JUMP JUMPDEST PUSH2 0xDE3 DUP2 PUSH2 0xC20 JUMP JUMPDEST DUP2 EQ PUSH2 0xDEE JUMPI PUSH1 0x0 DUP1 REVERT JUMPDEST POP JUMP INVALID LOG2 PUSH5 0x6970667358 0x22 SLT KECCAK256 0x4F PUSH9 0x45DD9B21521F6C517D MULMOD JUMP NUMBER STOP 0xBC CODECOPY 0xEE TIMESTAMP 0xD0 MUL 0x5F 0x5F 0x1E SLT SWAP10 0xDF 0x4B 0x2E 0xBE CALL CALLER PUSH5 0x736F6C6343 STOP ADDMOD SMOD STOP CALLER "
				},
				"gasEstimates": {
					"creation": {
						"codeDepositCost": "724600",
						"executionCost": "infinite",
						"totalCost": "infinite"
					},
					"external": {
						"MINUSD()": "330",
						"changeOwner(address)": "26892",
						"fund()": "infinite",
						"funderToAmo(address)": "2859",
						"funders(uint256)": "5022",
						"owner()": "2534",
						"wdraw()": "infinite"
					}
				},
				"methodIdentifiers": {
					"MINUSD()": "4dc93616",
					"changeOwner(address)": "a6f9dae1",
					"fund()": "b60d4288",
					"funderToAmo(address)": "9d9ef3e7",
					"funders(uint256)": "dc0d3dff",
					"owner()": "8da5cb5b",
					"wdraw()": "ccadfaf2"
				}
			},
			"storageLayout": {
				"storage": [
					{
						"astId": 56,
						"contract": "contracts/fundMe.sol:FundMe",
						"label": "owner",
						"offset": 0,
						"slot": "0",
						"type": "t_address"
					},
					{
						"astId": 59,
						"contract": "contracts/fundMe.sol:FundMe",
						"label": "funders",
						"offset": 0,
						"slot": "1",
						"type": "t_array(t_address)dyn_storage"
					},
					{
						"astId": 62,
						"contract": "contracts/fundMe.sol:FundMe",
						"label": "priceFeed",
						"offset": 0,
						"slot": "2",
						"type": "t_contract(AggregatorV3Interface)45"
					},
					{
						"astId": 66,
						"contract": "contracts/fundMe.sol:FundMe",
						"label": "funderToAmo",
						"offset": 0,
						"slot": "3",
						"type": "t_mapping(t_address,t_uint256)"
					}
				],
				"types": {
					"t_address": {
						"encoding": "inplace",
						"label": "address",
						"numberOfBytes": "20"
					},
					"t_array(t_address)dyn_storage": {
						"base": "t_address",
						"encoding": "dynamic_array",
						"label": "address[]",
						"numberOfBytes": "32"
					},
					"t_contract(AggregatorV3Interface)45": {
						"encoding": "inplace",
						"label": "contract AggregatorV3Interface",
						"numberOfBytes": "20"
					},
					"t_mapping(t_address,t_uint256)": {
						"encoding": "mapping",
						"key": "t_address",
						"label": "mapping(address => uint256)",
						"numberOfBytes": "32",
						"value": "t_uint256"
					},
					"t_uint256": {
						"encoding": "inplace",
						"label": "uint256",
						"numberOfBytes": "32"
					}
				}
			},
			"userdoc": {
				"kind": "user",
				"methods": {},
				"version": 1
			}
		}
	}
}