{
	"gist-16a9851a79dc6e8c7cae51e129b888f2/contracts/store.sol": {
		"stored": {
			"abi": [
				{
					"inputs": [],
					"name": "Num",
					"outputs": [
						{
							"internalType": "uint256",
							"name": "",
							"type": "uint256"
						}
					],
					"stateMutability": "view",
					"type": "function"
				},
				{
					"inputs": [
						{
							"internalType": "string",
							"name": "_name",
							"type": "string"
						},
						{
							"internalType": "uint256",
							"name": "_num",
							"type": "uint256"
						}
					],
					"name": "addpers",
					"outputs": [],
					"stateMutability": "nonpayable",
					"type": "function"
				},
				{
					"inputs": [
						{
							"internalType": "uint256",
							"name": "_Num",
							"type": "uint256"
						}
					],
					"name": "math",
					"outputs": [
						{
							"internalType": "uint256",
							"name": "",
							"type": "uint256"
						}
					],
					"stateMutability": "pure",
					"type": "function"
				},
				{
					"inputs": [
						{
							"internalType": "string",
							"name": "",
							"type": "string"
						}
					],
					"name": "nameToNum",
					"outputs": [
						{
							"internalType": "uint256",
							"name": "",
							"type": "uint256"
						}
					],
					"stateMutability": "view",
					"type": "function"
				},
				{
					"inputs": [],
					"name": "person",
					"outputs": [
						{
							"internalType": "uint256",
							"name": "num",
							"type": "uint256"
						},
						{
							"internalType": "string",
							"name": "name",
							"type": "string"
						}
					],
					"stateMutability": "view",
					"type": "function"
				},
				{
					"inputs": [
						{
							"internalType": "uint256",
							"name": "",
							"type": "uint256"
						}
					],
					"name": "pueblo",
					"outputs": [
						{
							"internalType": "uint256",
							"name": "num",
							"type": "uint256"
						},
						{
							"internalType": "string",
							"name": "name",
							"type": "string"
						}
					],
					"stateMutability": "view",
					"type": "function"
				},
				{
					"inputs": [],
					"name": "retrieve",
					"outputs": [
						{
							"internalType": "uint256",
							"name": "",
							"type": "uint256"
						}
					],
					"stateMutability": "view",
					"type": "function"
				},
				{
					"inputs": [
						{
							"internalType": "uint256",
							"name": "_Num",
							"type": "uint256"
						}
					],
					"name": "store",
					"outputs": [],
					"stateMutability": "nonpayable",
					"type": "function"
				}
			],
			"devdoc": {
				"kind": "dev",
				"methods": {},
				"version": 1
			},
			"evm": {
				"assembly": "    /* \"gist-16a9851a79dc6e8c7cae51e129b888f2/contracts/store.sol\":173:1508  contract stored {\r... */\n  mstore(0x40, 0x80)\n    /* \"gist-16a9851a79dc6e8c7cae51e129b888f2/contracts/store.sol\":406:437  people({num:2, name:\"patrick\"}) */\n  mload(0x40)\n  dup1\n  0x40\n  add\n  0x40\n  mstore\n  dup1\n    /* \"gist-16a9851a79dc6e8c7cae51e129b888f2/contracts/store.sol\":418:419  2 */\n  0x02\n    /* \"gist-16a9851a79dc6e8c7cae51e129b888f2/contracts/store.sol\":406:437  people({num:2, name:\"patrick\"}) */\n  dup2\n  mstore\n  0x20\n  add\n  mload(0x40)\n  dup1\n  0x40\n  add\n  0x40\n  mstore\n  dup1\n  0x07\n  dup2\n  mstore\n  0x20\n  add\n  0x7061747269636b00000000000000000000000000000000000000000000000000\n  dup2\n  mstore\n  pop\n  dup2\n  mstore\n  pop\n    /* \"gist-16a9851a79dc6e8c7cae51e129b888f2/contracts/store.sol\":383:437  people public person = people({num:2, name:\"patrick\"}) */\n  0x01\n  0x00\n  dup3\n  add\n  mload\n  dup2\n  0x00\n  add\n  sstore\n  0x20\n  dup3\n  add\n  mload\n  dup2\n  0x01\n  add\n  swap1\n  dup1\n  mload\n  swap1\n  0x20\n  add\n  swap1\n  tag_1\n  swap3\n  swap2\n  swap1\n  tag_2\n  jump\t// in\ntag_1:\n  pop\n  pop\n  pop\n    /* \"gist-16a9851a79dc6e8c7cae51e129b888f2/contracts/store.sol\":891:892  5 */\n  0x05\n    /* \"gist-16a9851a79dc6e8c7cae51e129b888f2/contracts/store.sol\":874:892  uint256 favNum = 5 */\n  dup1\n  sstore\n    /* \"gist-16a9851a79dc6e8c7cae51e129b888f2/contracts/store.sol\":914:918  true */\n  0x01\n    /* \"gist-16a9851a79dc6e8c7cae51e129b888f2/contracts/store.sol\":899:918  bool favBool = true */\n  0x06\n  exp(0x0100, 0x00)\n  dup2\n  sload\n  dup2\n  0xff\n  mul\n  not\n  and\n  swap1\n  dup4\n  iszero\n  iszero\n  mul\n  or\n  swap1\n  sstore\n  pop\n    /* \"gist-16a9851a79dc6e8c7cae51e129b888f2/contracts/store.sol\":925:952  string favString = \"string\" */\n  mload(0x40)\n  dup1\n  0x40\n  add\n  0x40\n  mstore\n  dup1\n  0x06\n  dup2\n  mstore\n  0x20\n  add\n  0x737472696e670000000000000000000000000000000000000000000000000000\n  dup2\n  mstore\n  pop\n  0x07\n  swap1\n  dup1\n  mload\n  swap1\n  0x20\n  add\n  swap1\n  tag_3\n  swap3\n  swap2\n  swap1\n  tag_2\n  jump\t// in\ntag_3:\n  pop\n    /* \"gist-16a9851a79dc6e8c7cae51e129b888f2/contracts/store.sol\":972:974  -5 */\n  0xfffffffffffffffffffffffffffffffffffffffffffffffffffffffffffffffb\n    /* \"gist-16a9851a79dc6e8c7cae51e129b888f2/contracts/store.sol\":959:974  int favInt = -5 */\n  0x08\n  sstore\n    /* \"gist-16a9851a79dc6e8c7cae51e129b888f2/contracts/store.sol\":1012:1034  bytes32 favByt = \"cat\" */\n  sstore(0x09, 0x6361740000000000000000000000000000000000000000000000000000000000)\n    /* \"gist-16a9851a79dc6e8c7cae51e129b888f2/contracts/store.sol\":173:1508  contract stored {\r... */\n  callvalue\n  dup1\n  iszero\n  tag_4\n  jumpi\n  0x00\n  dup1\n  revert\ntag_4:\n  pop\n  jump(tag_5)\ntag_2:\n  dup3\n  dup1\n  sload\n  tag_6\n  swap1\n  tag_7\n  jump\t// in\ntag_6:\n  swap1\n  0x00\n  mstore\n  keccak256(0x00, 0x20)\n  swap1\n  0x1f\n  add\n  0x20\n  swap1\n  div\n  dup2\n  add\n  swap3\n  dup3\n  tag_9\n  jumpi\n  0x00\n  dup6\n  sstore\n  jump(tag_8)\ntag_9:\n  dup3\n  0x1f\n  lt\n  tag_10\n  jumpi\n  dup1\n  mload\n  not(0xff)\n  and\n  dup4\n  dup1\n  add\n  or\n  dup6\n  sstore\n  jump(tag_8)\ntag_10:\n  dup3\n  dup1\n  add\n  0x01\n  add\n  dup6\n  sstore\n  dup3\n  iszero\n  tag_8\n  jumpi\n  swap2\n  dup3\n  add\ntag_11:\n  dup3\n  dup2\n  gt\n  iszero\n  tag_12\n  jumpi\n  dup3\n  mload\n  dup3\n  sstore\n  swap2\n  0x20\n  add\n  swap2\n  swap1\n  0x01\n  add\n  swap1\n  jump(tag_11)\ntag_12:\ntag_8:\n  pop\n  swap1\n  pop\n  tag_13\n  swap2\n  swap1\n  tag_14\n  jump\t// in\ntag_13:\n  pop\n  swap1\n  jump\t// out\ntag_14:\ntag_15:\n  dup1\n  dup3\n  gt\n  iszero\n  tag_16\n  jumpi\n  0x00\n  dup2\n  0x00\n  swap1\n  sstore\n  pop\n  0x01\n  add\n  jump(tag_15)\ntag_16:\n  pop\n  swap1\n  jump\t// out\n    /* \"#utility.yul\":7:327   */\ntag_7:\n    /* \"#utility.yul\":51:57   */\n  0x00\n    /* \"#utility.yul\":88:89   */\n  0x02\n    /* \"#utility.yul\":82:86   */\n  dup3\n    /* \"#utility.yul\":78:90   */\n  div\n    /* \"#utility.yul\":68:90   */\n  swap1\n  pop\n    /* \"#utility.yul\":135:136   */\n  0x01\n    /* \"#utility.yul\":129:133   */\n  dup3\n    /* \"#utility.yul\":125:137   */\n  and\n    /* \"#utility.yul\":156:174   */\n  dup1\n    /* \"#utility.yul\":146:227   */\n  tag_19\n  jumpi\n    /* \"#utility.yul\":212:216   */\n  0x7f\n    /* \"#utility.yul\":204:210   */\n  dup3\n    /* \"#utility.yul\":200:217   */\n  and\n    /* \"#utility.yul\":190:217   */\n  swap2\n  pop\n    /* \"#utility.yul\":146:227   */\ntag_19:\n    /* \"#utility.yul\":274:276   */\n  0x20\n    /* \"#utility.yul\":266:272   */\n  dup3\n    /* \"#utility.yul\":263:277   */\n  lt\n    /* \"#utility.yul\":243:261   */\n  dup2\n    /* \"#utility.yul\":240:278   */\n  eq\n    /* \"#utility.yul\":237:321   */\n  iszero\n  tag_20\n  jumpi\n    /* \"#utility.yul\":293:311   */\n  tag_21\n  tag_22\n  jump\t// in\ntag_21:\n    /* \"#utility.yul\":237:321   */\ntag_20:\n    /* \"#utility.yul\":58:327   */\n  pop\n    /* \"#utility.yul\":7:327   */\n  swap2\n  swap1\n  pop\n  jump\t// out\n    /* \"#utility.yul\":333:513   */\ntag_22:\n    /* \"#utility.yul\":381:458   */\n  0x4e487b7100000000000000000000000000000000000000000000000000000000\n    /* \"#utility.yul\":378:379   */\n  0x00\n    /* \"#utility.yul\":371:459   */\n  mstore\n    /* \"#utility.yul\":478:482   */\n  0x22\n    /* \"#utility.yul\":475:476   */\n  0x04\n    /* \"#utility.yul\":468:483   */\n  mstore\n    /* \"#utility.yul\":502:506   */\n  0x24\n    /* \"#utility.yul\":499:500   */\n  0x00\n    /* \"#utility.yul\":492:507   */\n  revert\n    /* \"gist-16a9851a79dc6e8c7cae51e129b888f2/contracts/store.sol\":173:1508  contract stored {\r... */\ntag_5:\n  dataSize(sub_0)\n  dup1\n  dataOffset(sub_0)\n  0x00\n  codecopy\n  0x00\n  return\nstop\n\nsub_0: assembly {\n        /* \"gist-16a9851a79dc6e8c7cae51e129b888f2/contracts/store.sol\":173:1508  contract stored {\r... */\n      mstore(0x40, 0x80)\n      callvalue\n      dup1\n      iszero\n      tag_1\n      jumpi\n      0x00\n      dup1\n      revert\n    tag_1:\n      pop\n      jumpi(tag_2, lt(calldatasize, 0x04))\n      shr(0xe0, calldataload(0x00))\n      dup1\n      0x6f2938e8\n      gt\n      tag_11\n      jumpi\n      dup1\n      0x6f2938e8\n      eq\n      tag_7\n      jumpi\n      dup1\n      0x75bf7eed\n      eq\n      tag_8\n      jumpi\n      dup1\n      0x77ec2b55\n      eq\n      tag_9\n      jumpi\n      dup1\n      0x92fa9da3\n      eq\n      tag_10\n      jumpi\n      jump(tag_2)\n    tag_11:\n      dup1\n      0x2e64cec1\n      eq\n      tag_3\n      jumpi\n      dup1\n      0x4237c65b\n      eq\n      tag_4\n      jumpi\n      dup1\n      0x6057361d\n      eq\n      tag_5\n      jumpi\n      dup1\n      0x6c992aec\n      eq\n      tag_6\n      jumpi\n    tag_2:\n      0x00\n      dup1\n      revert\n        /* \"gist-16a9851a79dc6e8c7cae51e129b888f2/contracts/store.sol\":1290:1368  function retrieve() public view returns(uint256) {\r... */\n    tag_3:\n      tag_12\n      tag_13\n      jump\t// in\n    tag_12:\n      mload(0x40)\n      tag_14\n      swap2\n      swap1\n      tag_15\n      jump\t// in\n    tag_14:\n      mload(0x40)\n      dup1\n      swap2\n      sub\n      swap1\n      return\n        /* \"gist-16a9851a79dc6e8c7cae51e129b888f2/contracts/store.sol\":233:251  uint256 public Num */\n    tag_4:\n      tag_16\n      tag_17\n      jump\t// in\n    tag_16:\n      mload(0x40)\n      tag_18\n      swap2\n      swap1\n      tag_15\n      jump\t// in\n    tag_18:\n      mload(0x40)\n      dup1\n      swap2\n      sub\n      swap1\n      return\n        /* \"gist-16a9851a79dc6e8c7cae51e129b888f2/contracts/store.sol\":1043:1108  function store(uint256 _Num) public {\r... */\n    tag_5:\n      tag_19\n      0x04\n      dup1\n      calldatasize\n      sub\n      dup2\n      add\n      swap1\n      tag_20\n      swap2\n      swap1\n      tag_21\n      jump\t// in\n    tag_20:\n      tag_22\n      jump\t// in\n    tag_19:\n      stop\n        /* \"gist-16a9851a79dc6e8c7cae51e129b888f2/contracts/store.sol\":459:481  people[] public pueblo */\n    tag_6:\n      tag_23\n      0x04\n      dup1\n      calldatasize\n      sub\n      dup2\n      add\n      swap1\n      tag_24\n      swap2\n      swap1\n      tag_21\n      jump\t// in\n    tag_24:\n      tag_25\n      jump\t// in\n    tag_23:\n      mload(0x40)\n      tag_26\n      swap3\n      swap2\n      swap1\n      tag_27\n      jump\t// in\n    tag_26:\n      mload(0x40)\n      dup1\n      swap2\n      sub\n      swap1\n      return\n        /* \"gist-16a9851a79dc6e8c7cae51e129b888f2/contracts/store.sol\":1416:1505  function math(uint256 _Num) public pure returns(uint256) {\r... */\n    tag_7:\n      tag_28\n      0x04\n      dup1\n      calldatasize\n      sub\n      dup2\n      add\n      swap1\n      tag_29\n      swap2\n      swap1\n      tag_21\n      jump\t// in\n    tag_29:\n      tag_30\n      jump\t// in\n    tag_28:\n      mload(0x40)\n      tag_31\n      swap2\n      swap1\n      tag_15\n      jump\t// in\n    tag_31:\n      mload(0x40)\n      dup1\n      swap2\n      sub\n      swap1\n      return\n        /* \"gist-16a9851a79dc6e8c7cae51e129b888f2/contracts/store.sol\":709:866  function addpers(string memory _name, uint256 _num) public {\r... */\n    tag_8:\n      tag_32\n      0x04\n      dup1\n      calldatasize\n      sub\n      dup2\n      add\n      swap1\n      tag_33\n      swap2\n      swap1\n      tag_34\n      jump\t// in\n    tag_33:\n      tag_35\n      jump\t// in\n    tag_32:\n      stop\n        /* \"gist-16a9851a79dc6e8c7cae51e129b888f2/contracts/store.sol\":383:437  people public person = people({num:2, name:\"patrick\"}) */\n    tag_9:\n      tag_36\n      tag_37\n      jump\t// in\n    tag_36:\n      mload(0x40)\n      tag_38\n      swap3\n      swap2\n      swap1\n      tag_27\n      jump\t// in\n    tag_38:\n      mload(0x40)\n      dup1\n      swap2\n      sub\n      swap1\n      return\n        /* \"gist-16a9851a79dc6e8c7cae51e129b888f2/contracts/store.sol\":490:534  mapping(string =>  uint256) public nameToNum */\n    tag_10:\n      tag_39\n      0x04\n      dup1\n      calldatasize\n      sub\n      dup2\n      add\n      swap1\n      tag_40\n      swap2\n      swap1\n      tag_41\n      jump\t// in\n    tag_40:\n      tag_42\n      jump\t// in\n    tag_39:\n      mload(0x40)\n      tag_43\n      swap2\n      swap1\n      tag_15\n      jump\t// in\n    tag_43:\n      mload(0x40)\n      dup1\n      swap2\n      sub\n      swap1\n      return\n        /* \"gist-16a9851a79dc6e8c7cae51e129b888f2/contracts/store.sol\":1290:1368  function retrieve() public view returns(uint256) {\r... */\n    tag_13:\n        /* \"gist-16a9851a79dc6e8c7cae51e129b888f2/contracts/store.sol\":1330:1337  uint256 */\n      0x00\n        /* \"gist-16a9851a79dc6e8c7cae51e129b888f2/contracts/store.sol\":1357:1360  Num */\n      dup1\n      sload\n        /* \"gist-16a9851a79dc6e8c7cae51e129b888f2/contracts/store.sol\":1350:1360  return Num */\n      swap1\n      pop\n        /* \"gist-16a9851a79dc6e8c7cae51e129b888f2/contracts/store.sol\":1290:1368  function retrieve() public view returns(uint256) {\r... */\n      swap1\n      jump\t// out\n        /* \"gist-16a9851a79dc6e8c7cae51e129b888f2/contracts/store.sol\":233:251  uint256 public Num */\n    tag_17:\n      sload(0x00)\n      dup2\n      jump\t// out\n        /* \"gist-16a9851a79dc6e8c7cae51e129b888f2/contracts/store.sol\":1043:1108  function store(uint256 _Num) public {\r... */\n    tag_22:\n        /* \"gist-16a9851a79dc6e8c7cae51e129b888f2/contracts/store.sol\":1096:1100  _Num */\n      dup1\n        /* \"gist-16a9851a79dc6e8c7cae51e129b888f2/contracts/store.sol\":1090:1093  Num */\n      0x00\n        /* \"gist-16a9851a79dc6e8c7cae51e129b888f2/contracts/store.sol\":1090:1100  Num = _Num */\n      dup2\n      swap1\n      sstore\n      pop\n        /* \"gist-16a9851a79dc6e8c7cae51e129b888f2/contracts/store.sol\":1043:1108  function store(uint256 _Num) public {\r... */\n      pop\n      jump\t// out\n        /* \"gist-16a9851a79dc6e8c7cae51e129b888f2/contracts/store.sol\":459:481  people[] public pueblo */\n    tag_25:\n      0x03\n      dup2\n      dup2\n      sload\n      dup2\n      lt\n      tag_46\n      jumpi\n      0x00\n      dup1\n      revert\n    tag_46:\n      swap1\n      0x00\n      mstore\n      keccak256(0x00, 0x20)\n      swap1\n      0x02\n      mul\n      add\n      0x00\n      swap2\n      pop\n      swap1\n      pop\n      dup1\n      0x00\n      add\n      sload\n      swap1\n      dup1\n      0x01\n      add\n      dup1\n      sload\n      tag_48\n      swap1\n      tag_49\n      jump\t// in\n    tag_48:\n      dup1\n      0x1f\n      add\n      0x20\n      dup1\n      swap2\n      div\n      mul\n      0x20\n      add\n      mload(0x40)\n      swap1\n      dup2\n      add\n      0x40\n      mstore\n      dup1\n      swap3\n      swap2\n      swap1\n      dup2\n      dup2\n      mstore\n      0x20\n      add\n      dup3\n      dup1\n      sload\n      tag_50\n      swap1\n      tag_49\n      jump\t// in\n    tag_50:\n      dup1\n      iszero\n      tag_51\n      jumpi\n      dup1\n      0x1f\n      lt\n      tag_52\n      jumpi\n      0x0100\n      dup1\n      dup4\n      sload\n      div\n      mul\n      dup4\n      mstore\n      swap2\n      0x20\n      add\n      swap2\n      jump(tag_51)\n    tag_52:\n      dup3\n      add\n      swap2\n      swap1\n      0x00\n      mstore\n      keccak256(0x00, 0x20)\n      swap1\n    tag_53:\n      dup2\n      sload\n      dup2\n      mstore\n      swap1\n      0x01\n      add\n      swap1\n      0x20\n      add\n      dup1\n      dup4\n      gt\n      tag_53\n      jumpi\n      dup3\n      swap1\n      sub\n      0x1f\n      and\n      dup3\n      add\n      swap2\n    tag_51:\n      pop\n      pop\n      pop\n      pop\n      pop\n      swap1\n      pop\n      dup3\n      jump\t// out\n        /* \"gist-16a9851a79dc6e8c7cae51e129b888f2/contracts/store.sol\":1416:1505  function math(uint256 _Num) public pure returns(uint256) {\r... */\n    tag_30:\n        /* \"gist-16a9851a79dc6e8c7cae51e129b888f2/contracts/store.sol\":1464:1471  uint256 */\n      0x00\n        /* \"gist-16a9851a79dc6e8c7cae51e129b888f2/contracts/store.sol\":1496:1497  2 */\n      0x02\n        /* \"gist-16a9851a79dc6e8c7cae51e129b888f2/contracts/store.sol\":1491:1495  _Num */\n      dup3\n        /* \"gist-16a9851a79dc6e8c7cae51e129b888f2/contracts/store.sol\":1491:1497  _Num*2 */\n      tag_55\n      swap2\n      swap1\n      tag_56\n      jump\t// in\n    tag_55:\n        /* \"gist-16a9851a79dc6e8c7cae51e129b888f2/contracts/store.sol\":1484:1497  return _Num*2 */\n      swap1\n      pop\n        /* \"gist-16a9851a79dc6e8c7cae51e129b888f2/contracts/store.sol\":1416:1505  function math(uint256 _Num) public pure returns(uint256) {\r... */\n      swap2\n      swap1\n      pop\n      jump\t// out\n        /* \"gist-16a9851a79dc6e8c7cae51e129b888f2/contracts/store.sol\":709:866  function addpers(string memory _name, uint256 _num) public {\r... */\n    tag_35:\n        /* \"gist-16a9851a79dc6e8c7cae51e129b888f2/contracts/store.sol\":779:785  pueblo */\n      0x03\n        /* \"gist-16a9851a79dc6e8c7cae51e129b888f2/contracts/store.sol\":791:823  people({num: _num, name: _name}) */\n      mload(0x40)\n      dup1\n      0x40\n      add\n      0x40\n      mstore\n      dup1\n        /* \"gist-16a9851a79dc6e8c7cae51e129b888f2/contracts/store.sol\":804:808  _num */\n      dup4\n        /* \"gist-16a9851a79dc6e8c7cae51e129b888f2/contracts/store.sol\":791:823  people({num: _num, name: _name}) */\n      dup2\n      mstore\n      0x20\n      add\n        /* \"gist-16a9851a79dc6e8c7cae51e129b888f2/contracts/store.sol\":816:821  _name */\n      dup5\n        /* \"gist-16a9851a79dc6e8c7cae51e129b888f2/contracts/store.sol\":791:823  people({num: _num, name: _name}) */\n      dup2\n      mstore\n      pop\n        /* \"gist-16a9851a79dc6e8c7cae51e129b888f2/contracts/store.sol\":779:824  pueblo.push(people({num: _num, name: _name})) */\n      swap1\n      dup1\n      0x01\n      dup2\n      sload\n      add\n      dup1\n      dup3\n      sstore\n      dup1\n      swap2\n      pop\n      pop\n      0x01\n      swap1\n      sub\n      swap1\n      0x00\n      mstore\n      keccak256(0x00, 0x20)\n      swap1\n      0x02\n      mul\n      add\n      0x00\n      swap1\n      swap2\n      swap1\n      swap2\n      swap1\n      swap2\n      pop\n      0x00\n      dup3\n      add\n      mload\n      dup2\n      0x00\n      add\n      sstore\n      0x20\n      dup3\n      add\n      mload\n      dup2\n      0x01\n      add\n      swap1\n      dup1\n      mload\n      swap1\n      0x20\n      add\n      swap1\n      tag_59\n      swap3\n      swap2\n      swap1\n      tag_60\n      jump\t// in\n    tag_59:\n      pop\n      pop\n      pop\n        /* \"gist-16a9851a79dc6e8c7cae51e129b888f2/contracts/store.sol\":854:858  _num */\n      dup1\n        /* \"gist-16a9851a79dc6e8c7cae51e129b888f2/contracts/store.sol\":835:844  nameToNum */\n      0x04\n        /* \"gist-16a9851a79dc6e8c7cae51e129b888f2/contracts/store.sol\":845:850  _name */\n      dup4\n        /* \"gist-16a9851a79dc6e8c7cae51e129b888f2/contracts/store.sol\":835:851  nameToNum[_name] */\n      mload(0x40)\n      tag_61\n      swap2\n      swap1\n      tag_62\n      jump\t// in\n    tag_61:\n      swap1\n      dup2\n      mstore\n      0x20\n      add\n      mload(0x40)\n      dup1\n      swap2\n      sub\n      swap1\n      keccak256\n        /* \"gist-16a9851a79dc6e8c7cae51e129b888f2/contracts/store.sol\":835:858  nameToNum[_name] = _num */\n      dup2\n      swap1\n      sstore\n      pop\n        /* \"gist-16a9851a79dc6e8c7cae51e129b888f2/contracts/store.sol\":709:866  function addpers(string memory _name, uint256 _num) public {\r... */\n      pop\n      pop\n      jump\t// out\n        /* \"gist-16a9851a79dc6e8c7cae51e129b888f2/contracts/store.sol\":383:437  people public person = people({num:2, name:\"patrick\"}) */\n    tag_37:\n      0x01\n      dup1\n      0x00\n      add\n      sload\n      swap1\n      dup1\n      0x01\n      add\n      dup1\n      sload\n      tag_63\n      swap1\n      tag_49\n      jump\t// in\n    tag_63:\n      dup1\n      0x1f\n      add\n      0x20\n      dup1\n      swap2\n      div\n      mul\n      0x20\n      add\n      mload(0x40)\n      swap1\n      dup2\n      add\n      0x40\n      mstore\n      dup1\n      swap3\n      swap2\n      swap1\n      dup2\n      dup2\n      mstore\n      0x20\n      add\n      dup3\n      dup1\n      sload\n      tag_64\n      swap1\n      tag_49\n      jump\t// in\n    tag_64:\n      dup1\n      iszero\n      tag_65\n      jumpi\n      dup1\n      0x1f\n      lt\n      tag_66\n      jumpi\n      0x0100\n      dup1\n      dup4\n      sload\n      div\n      mul\n      dup4\n      mstore\n      swap2\n      0x20\n      add\n      swap2\n      jump(tag_65)\n    tag_66:\n      dup3\n      add\n      swap2\n      swap1\n      0x00\n      mstore\n      keccak256(0x00, 0x20)\n      swap1\n    tag_67:\n      dup2\n      sload\n      dup2\n      mstore\n      swap1\n      0x01\n      add\n      swap1\n      0x20\n      add\n      dup1\n      dup4\n      gt\n      tag_67\n      jumpi\n      dup3\n      swap1\n      sub\n      0x1f\n      and\n      dup3\n      add\n      swap2\n    tag_65:\n      pop\n      pop\n      pop\n      pop\n      pop\n      swap1\n      pop\n      dup3\n      jump\t// out\n        /* \"gist-16a9851a79dc6e8c7cae51e129b888f2/contracts/store.sol\":490:534  mapping(string =>  uint256) public nameToNum */\n    tag_42:\n      0x04\n      dup2\n      dup1\n      mload\n      0x20\n      dup2\n      add\n      dup3\n      add\n      dup1\n      mload\n      dup5\n      dup3\n      mstore\n      0x20\n      dup4\n      add\n      0x20\n      dup6\n      add\n      keccak256\n      dup2\n      dup4\n      mstore\n      dup1\n      swap6\n      pop\n      pop\n      pop\n      pop\n      pop\n      pop\n      0x00\n      swap2\n      pop\n      swap1\n      pop\n      sload\n      dup2\n      jump\t// out\n    tag_60:\n      dup3\n      dup1\n      sload\n      tag_68\n      swap1\n      tag_49\n      jump\t// in\n    tag_68:\n      swap1\n      0x00\n      mstore\n      keccak256(0x00, 0x20)\n      swap1\n      0x1f\n      add\n      0x20\n      swap1\n      div\n      dup2\n      add\n      swap3\n      dup3\n      tag_70\n      jumpi\n      0x00\n      dup6\n      sstore\n      jump(tag_69)\n    tag_70:\n      dup3\n      0x1f\n      lt\n      tag_71\n      jumpi\n      dup1\n      mload\n      not(0xff)\n      and\n      dup4\n      dup1\n      add\n      or\n      dup6\n      sstore\n      jump(tag_69)\n    tag_71:\n      dup3\n      dup1\n      add\n      0x01\n      add\n      dup6\n      sstore\n      dup3\n      iszero\n      tag_69\n      jumpi\n      swap2\n      dup3\n      add\n    tag_72:\n      dup3\n      dup2\n      gt\n      iszero\n      tag_73\n      jumpi\n      dup3\n      mload\n      dup3\n      sstore\n      swap2\n      0x20\n      add\n      swap2\n      swap1\n      0x01\n      add\n      swap1\n      jump(tag_72)\n    tag_73:\n    tag_69:\n      pop\n      swap1\n      pop\n      tag_74\n      swap2\n      swap1\n      tag_75\n      jump\t// in\n    tag_74:\n      pop\n      swap1\n      jump\t// out\n    tag_75:\n    tag_76:\n      dup1\n      dup3\n      gt\n      iszero\n      tag_77\n      jumpi\n      0x00\n      dup2\n      0x00\n      swap1\n      sstore\n      pop\n      0x01\n      add\n      jump(tag_76)\n    tag_77:\n      pop\n      swap1\n      jump\t// out\n        /* \"#utility.yul\":7:419   */\n    tag_79:\n        /* \"#utility.yul\":85:90   */\n      0x00\n        /* \"#utility.yul\":110:176   */\n      tag_81\n        /* \"#utility.yul\":126:175   */\n      tag_82\n        /* \"#utility.yul\":168:174   */\n      dup5\n        /* \"#utility.yul\":126:175   */\n      tag_83\n      jump\t// in\n    tag_82:\n        /* \"#utility.yul\":110:176   */\n      tag_84\n      jump\t// in\n    tag_81:\n        /* \"#utility.yul\":101:176   */\n      swap1\n      pop\n        /* \"#utility.yul\":199:205   */\n      dup3\n        /* \"#utility.yul\":192:197   */\n      dup2\n        /* \"#utility.yul\":185:206   */\n      mstore\n        /* \"#utility.yul\":237:241   */\n      0x20\n        /* \"#utility.yul\":230:235   */\n      dup2\n        /* \"#utility.yul\":226:242   */\n      add\n        /* \"#utility.yul\":275:278   */\n      dup5\n        /* \"#utility.yul\":266:272   */\n      dup5\n        /* \"#utility.yul\":261:264   */\n      dup5\n        /* \"#utility.yul\":257:273   */\n      add\n        /* \"#utility.yul\":254:279   */\n      gt\n        /* \"#utility.yul\":251:363   */\n      iszero\n      tag_85\n      jumpi\n        /* \"#utility.yul\":282:361   */\n      tag_86\n      tag_87\n      jump\t// in\n    tag_86:\n        /* \"#utility.yul\":251:363   */\n    tag_85:\n        /* \"#utility.yul\":372:413   */\n      tag_88\n        /* \"#utility.yul\":406:412   */\n      dup5\n        /* \"#utility.yul\":401:404   */\n      dup3\n        /* \"#utility.yul\":396:399   */\n      dup6\n        /* \"#utility.yul\":372:413   */\n      tag_89\n      jump\t// in\n    tag_88:\n        /* \"#utility.yul\":91:419   */\n      pop\n        /* \"#utility.yul\":7:419   */\n      swap4\n      swap3\n      pop\n      pop\n      pop\n      jump\t// out\n        /* \"#utility.yul\":439:779   */\n    tag_90:\n        /* \"#utility.yul\":495:500   */\n      0x00\n        /* \"#utility.yul\":544:547   */\n      dup3\n        /* \"#utility.yul\":537:541   */\n      0x1f\n        /* \"#utility.yul\":529:535   */\n      dup4\n        /* \"#utility.yul\":525:542   */\n      add\n        /* \"#utility.yul\":521:548   */\n      slt\n        /* \"#utility.yul\":511:633   */\n      tag_92\n      jumpi\n        /* \"#utility.yul\":552:631   */\n      tag_93\n      tag_94\n      jump\t// in\n    tag_93:\n        /* \"#utility.yul\":511:633   */\n    tag_92:\n        /* \"#utility.yul\":669:675   */\n      dup2\n        /* \"#utility.yul\":656:676   */\n      calldataload\n        /* \"#utility.yul\":694:773   */\n      tag_95\n        /* \"#utility.yul\":769:772   */\n      dup5\n        /* \"#utility.yul\":761:767   */\n      dup3\n        /* \"#utility.yul\":754:758   */\n      0x20\n        /* \"#utility.yul\":746:752   */\n      dup7\n        /* \"#utility.yul\":742:759   */\n      add\n        /* \"#utility.yul\":694:773   */\n      tag_79\n      jump\t// in\n    tag_95:\n        /* \"#utility.yul\":685:773   */\n      swap2\n      pop\n        /* \"#utility.yul\":501:779   */\n      pop\n        /* \"#utility.yul\":439:779   */\n      swap3\n      swap2\n      pop\n      pop\n      jump\t// out\n        /* \"#utility.yul\":785:924   */\n    tag_96:\n        /* \"#utility.yul\":831:836   */\n      0x00\n        /* \"#utility.yul\":869:875   */\n      dup2\n        /* \"#utility.yul\":856:876   */\n      calldataload\n        /* \"#utility.yul\":847:876   */\n      swap1\n      pop\n        /* \"#utility.yul\":885:918   */\n      tag_98\n        /* \"#utility.yul\":912:917   */\n      dup2\n        /* \"#utility.yul\":885:918   */\n      tag_99\n      jump\t// in\n    tag_98:\n        /* \"#utility.yul\":785:924   */\n      swap3\n      swap2\n      pop\n      pop\n      jump\t// out\n        /* \"#utility.yul\":930:1439   */\n    tag_41:\n        /* \"#utility.yul\":999:1005   */\n      0x00\n        /* \"#utility.yul\":1048:1050   */\n      0x20\n        /* \"#utility.yul\":1036:1045   */\n      dup3\n        /* \"#utility.yul\":1027:1034   */\n      dup5\n        /* \"#utility.yul\":1023:1046   */\n      sub\n        /* \"#utility.yul\":1019:1051   */\n      slt\n        /* \"#utility.yul\":1016:1135   */\n      iszero\n      tag_101\n      jumpi\n        /* \"#utility.yul\":1054:1133   */\n      tag_102\n      tag_103\n      jump\t// in\n    tag_102:\n        /* \"#utility.yul\":1016:1135   */\n    tag_101:\n        /* \"#utility.yul\":1202:1203   */\n      0x00\n        /* \"#utility.yul\":1191:1200   */\n      dup3\n        /* \"#utility.yul\":1187:1204   */\n      add\n        /* \"#utility.yul\":1174:1205   */\n      calldataload\n        /* \"#utility.yul\":1232:1250   */\n      0xffffffffffffffff\n        /* \"#utility.yul\":1224:1230   */\n      dup2\n        /* \"#utility.yul\":1221:1251   */\n      gt\n        /* \"#utility.yul\":1218:1335   */\n      iszero\n      tag_104\n      jumpi\n        /* \"#utility.yul\":1254:1333   */\n      tag_105\n      tag_106\n      jump\t// in\n    tag_105:\n        /* \"#utility.yul\":1218:1335   */\n    tag_104:\n        /* \"#utility.yul\":1359:1422   */\n      tag_107\n        /* \"#utility.yul\":1414:1421   */\n      dup5\n        /* \"#utility.yul\":1405:1411   */\n      dup3\n        /* \"#utility.yul\":1394:1403   */\n      dup6\n        /* \"#utility.yul\":1390:1412   */\n      add\n        /* \"#utility.yul\":1359:1422   */\n      tag_90\n      jump\t// in\n    tag_107:\n        /* \"#utility.yul\":1349:1422   */\n      swap2\n      pop\n        /* \"#utility.yul\":1145:1432   */\n      pop\n        /* \"#utility.yul\":930:1439   */\n      swap3\n      swap2\n      pop\n      pop\n      jump\t// out\n        /* \"#utility.yul\":1445:2099   */\n    tag_34:\n        /* \"#utility.yul\":1523:1529   */\n      0x00\n        /* \"#utility.yul\":1531:1537   */\n      dup1\n        /* \"#utility.yul\":1580:1582   */\n      0x40\n        /* \"#utility.yul\":1568:1577   */\n      dup4\n        /* \"#utility.yul\":1559:1566   */\n      dup6\n        /* \"#utility.yul\":1555:1578   */\n      sub\n        /* \"#utility.yul\":1551:1583   */\n      slt\n        /* \"#utility.yul\":1548:1667   */\n      iszero\n      tag_109\n      jumpi\n        /* \"#utility.yul\":1586:1665   */\n      tag_110\n      tag_103\n      jump\t// in\n    tag_110:\n        /* \"#utility.yul\":1548:1667   */\n    tag_109:\n        /* \"#utility.yul\":1734:1735   */\n      0x00\n        /* \"#utility.yul\":1723:1732   */\n      dup4\n        /* \"#utility.yul\":1719:1736   */\n      add\n        /* \"#utility.yul\":1706:1737   */\n      calldataload\n        /* \"#utility.yul\":1764:1782   */\n      0xffffffffffffffff\n        /* \"#utility.yul\":1756:1762   */\n      dup2\n        /* \"#utility.yul\":1753:1783   */\n      gt\n        /* \"#utility.yul\":1750:1867   */\n      iszero\n      tag_111\n      jumpi\n        /* \"#utility.yul\":1786:1865   */\n      tag_112\n      tag_106\n      jump\t// in\n    tag_112:\n        /* \"#utility.yul\":1750:1867   */\n    tag_111:\n        /* \"#utility.yul\":1891:1954   */\n      tag_113\n        /* \"#utility.yul\":1946:1953   */\n      dup6\n        /* \"#utility.yul\":1937:1943   */\n      dup3\n        /* \"#utility.yul\":1926:1935   */\n      dup7\n        /* \"#utility.yul\":1922:1944   */\n      add\n        /* \"#utility.yul\":1891:1954   */\n      tag_90\n      jump\t// in\n    tag_113:\n        /* \"#utility.yul\":1881:1954   */\n      swap3\n      pop\n        /* \"#utility.yul\":1677:1964   */\n      pop\n        /* \"#utility.yul\":2003:2005   */\n      0x20\n        /* \"#utility.yul\":2029:2082   */\n      tag_114\n        /* \"#utility.yul\":2074:2081   */\n      dup6\n        /* \"#utility.yul\":2065:2071   */\n      dup3\n        /* \"#utility.yul\":2054:2063   */\n      dup7\n        /* \"#utility.yul\":2050:2072   */\n      add\n        /* \"#utility.yul\":2029:2082   */\n      tag_96\n      jump\t// in\n    tag_114:\n        /* \"#utility.yul\":2019:2082   */\n      swap2\n      pop\n        /* \"#utility.yul\":1974:2092   */\n      pop\n        /* \"#utility.yul\":1445:2099   */\n      swap3\n      pop\n      swap3\n      swap1\n      pop\n      jump\t// out\n        /* \"#utility.yul\":2105:2434   */\n    tag_21:\n        /* \"#utility.yul\":2164:2170   */\n      0x00\n        /* \"#utility.yul\":2213:2215   */\n      0x20\n        /* \"#utility.yul\":2201:2210   */\n      dup3\n        /* \"#utility.yul\":2192:2199   */\n      dup5\n        /* \"#utility.yul\":2188:2211   */\n      sub\n        /* \"#utility.yul\":2184:2216   */\n      slt\n        /* \"#utility.yul\":2181:2300   */\n      iszero\n      tag_116\n      jumpi\n        /* \"#utility.yul\":2219:2298   */\n      tag_117\n      tag_103\n      jump\t// in\n    tag_117:\n        /* \"#utility.yul\":2181:2300   */\n    tag_116:\n        /* \"#utility.yul\":2339:2340   */\n      0x00\n        /* \"#utility.yul\":2364:2417   */\n      tag_118\n        /* \"#utility.yul\":2409:2416   */\n      dup5\n        /* \"#utility.yul\":2400:2406   */\n      dup3\n        /* \"#utility.yul\":2389:2398   */\n      dup6\n        /* \"#utility.yul\":2385:2407   */\n      add\n        /* \"#utility.yul\":2364:2417   */\n      tag_96\n      jump\t// in\n    tag_118:\n        /* \"#utility.yul\":2354:2417   */\n      swap2\n      pop\n        /* \"#utility.yul\":2310:2427   */\n      pop\n        /* \"#utility.yul\":2105:2434   */\n      swap3\n      swap2\n      pop\n      pop\n      jump\t// out\n        /* \"#utility.yul\":2440:2804   */\n    tag_119:\n        /* \"#utility.yul\":2528:2531   */\n      0x00\n        /* \"#utility.yul\":2556:2595   */\n      tag_121\n        /* \"#utility.yul\":2589:2594   */\n      dup3\n        /* \"#utility.yul\":2556:2595   */\n      tag_122\n      jump\t// in\n    tag_121:\n        /* \"#utility.yul\":2611:2682   */\n      tag_123\n        /* \"#utility.yul\":2675:2681   */\n      dup2\n        /* \"#utility.yul\":2670:2673   */\n      dup6\n        /* \"#utility.yul\":2611:2682   */\n      tag_124\n      jump\t// in\n    tag_123:\n        /* \"#utility.yul\":2604:2682   */\n      swap4\n      pop\n        /* \"#utility.yul\":2691:2743   */\n      tag_125\n        /* \"#utility.yul\":2736:2742   */\n      dup2\n        /* \"#utility.yul\":2731:2734   */\n      dup6\n        /* \"#utility.yul\":2724:2728   */\n      0x20\n        /* \"#utility.yul\":2717:2722   */\n      dup7\n        /* \"#utility.yul\":2713:2729   */\n      add\n        /* \"#utility.yul\":2691:2743   */\n      tag_126\n      jump\t// in\n    tag_125:\n        /* \"#utility.yul\":2768:2797   */\n      tag_127\n        /* \"#utility.yul\":2790:2796   */\n      dup2\n        /* \"#utility.yul\":2768:2797   */\n      tag_128\n      jump\t// in\n    tag_127:\n        /* \"#utility.yul\":2763:2766   */\n      dup5\n        /* \"#utility.yul\":2759:2798   */\n      add\n        /* \"#utility.yul\":2752:2798   */\n      swap2\n      pop\n        /* \"#utility.yul\":2532:2804   */\n      pop\n        /* \"#utility.yul\":2440:2804   */\n      swap3\n      swap2\n      pop\n      pop\n      jump\t// out\n        /* \"#utility.yul\":2810:3187   */\n    tag_129:\n        /* \"#utility.yul\":2916:2919   */\n      0x00\n        /* \"#utility.yul\":2944:2983   */\n      tag_131\n        /* \"#utility.yul\":2977:2982   */\n      dup3\n        /* \"#utility.yul\":2944:2983   */\n      tag_122\n      jump\t// in\n    tag_131:\n        /* \"#utility.yul\":2999:3088   */\n      tag_132\n        /* \"#utility.yul\":3081:3087   */\n      dup2\n        /* \"#utility.yul\":3076:3079   */\n      dup6\n        /* \"#utility.yul\":2999:3088   */\n      tag_133\n      jump\t// in\n    tag_132:\n        /* \"#utility.yul\":2992:3088   */\n      swap4\n      pop\n        /* \"#utility.yul\":3097:3149   */\n      tag_134\n        /* \"#utility.yul\":3142:3148   */\n      dup2\n        /* \"#utility.yul\":3137:3140   */\n      dup6\n        /* \"#utility.yul\":3130:3134   */\n      0x20\n        /* \"#utility.yul\":3123:3128   */\n      dup7\n        /* \"#utility.yul\":3119:3135   */\n      add\n        /* \"#utility.yul\":3097:3149   */\n      tag_126\n      jump\t// in\n    tag_134:\n        /* \"#utility.yul\":3174:3180   */\n      dup1\n        /* \"#utility.yul\":3169:3172   */\n      dup5\n        /* \"#utility.yul\":3165:3181   */\n      add\n        /* \"#utility.yul\":3158:3181   */\n      swap2\n      pop\n        /* \"#utility.yul\":2920:3187   */\n      pop\n        /* \"#utility.yul\":2810:3187   */\n      swap3\n      swap2\n      pop\n      pop\n      jump\t// out\n        /* \"#utility.yul\":3193:3311   */\n    tag_135:\n        /* \"#utility.yul\":3280:3304   */\n      tag_137\n        /* \"#utility.yul\":3298:3303   */\n      dup2\n        /* \"#utility.yul\":3280:3304   */\n      tag_138\n      jump\t// in\n    tag_137:\n        /* \"#utility.yul\":3275:3278   */\n      dup3\n        /* \"#utility.yul\":3268:3305   */\n      mstore\n        /* \"#utility.yul\":3193:3311   */\n      pop\n      pop\n      jump\t// out\n        /* \"#utility.yul\":3317:3592   */\n    tag_62:\n        /* \"#utility.yul\":3449:3452   */\n      0x00\n        /* \"#utility.yul\":3471:3566   */\n      tag_140\n        /* \"#utility.yul\":3562:3565   */\n      dup3\n        /* \"#utility.yul\":3553:3559   */\n      dup5\n        /* \"#utility.yul\":3471:3566   */\n      tag_129\n      jump\t// in\n    tag_140:\n        /* \"#utility.yul\":3464:3566   */\n      swap2\n      pop\n        /* \"#utility.yul\":3583:3586   */\n      dup2\n        /* \"#utility.yul\":3576:3586   */\n      swap1\n      pop\n        /* \"#utility.yul\":3317:3592   */\n      swap3\n      swap2\n      pop\n      pop\n      jump\t// out\n        /* \"#utility.yul\":3598:3820   */\n    tag_15:\n        /* \"#utility.yul\":3691:3695   */\n      0x00\n        /* \"#utility.yul\":3729:3731   */\n      0x20\n        /* \"#utility.yul\":3718:3727   */\n      dup3\n        /* \"#utility.yul\":3714:3732   */\n      add\n        /* \"#utility.yul\":3706:3732   */\n      swap1\n      pop\n        /* \"#utility.yul\":3742:3813   */\n      tag_142\n        /* \"#utility.yul\":3810:3811   */\n      0x00\n        /* \"#utility.yul\":3799:3808   */\n      dup4\n        /* \"#utility.yul\":3795:3812   */\n      add\n        /* \"#utility.yul\":3786:3792   */\n      dup5\n        /* \"#utility.yul\":3742:3813   */\n      tag_135\n      jump\t// in\n    tag_142:\n        /* \"#utility.yul\":3598:3820   */\n      swap3\n      swap2\n      pop\n      pop\n      jump\t// out\n        /* \"#utility.yul\":3826:4249   */\n    tag_27:\n        /* \"#utility.yul\":3967:3971   */\n      0x00\n        /* \"#utility.yul\":4005:4007   */\n      0x40\n        /* \"#utility.yul\":3994:4003   */\n      dup3\n        /* \"#utility.yul\":3990:4008   */\n      add\n        /* \"#utility.yul\":3982:4008   */\n      swap1\n      pop\n        /* \"#utility.yul\":4018:4089   */\n      tag_144\n        /* \"#utility.yul\":4086:4087   */\n      0x00\n        /* \"#utility.yul\":4075:4084   */\n      dup4\n        /* \"#utility.yul\":4071:4088   */\n      add\n        /* \"#utility.yul\":4062:4068   */\n      dup6\n        /* \"#utility.yul\":4018:4089   */\n      tag_135\n      jump\t// in\n    tag_144:\n        /* \"#utility.yul\":4136:4145   */\n      dup2\n        /* \"#utility.yul\":4130:4134   */\n      dup2\n        /* \"#utility.yul\":4126:4146   */\n      sub\n        /* \"#utility.yul\":4121:4123   */\n      0x20\n        /* \"#utility.yul\":4110:4119   */\n      dup4\n        /* \"#utility.yul\":4106:4124   */\n      add\n        /* \"#utility.yul\":4099:4147   */\n      mstore\n        /* \"#utility.yul\":4164:4242   */\n      tag_145\n        /* \"#utility.yul\":4237:4241   */\n      dup2\n        /* \"#utility.yul\":4228:4234   */\n      dup5\n        /* \"#utility.yul\":4164:4242   */\n      tag_119\n      jump\t// in\n    tag_145:\n        /* \"#utility.yul\":4156:4242   */\n      swap1\n      pop\n        /* \"#utility.yul\":3826:4249   */\n      swap4\n      swap3\n      pop\n      pop\n      pop\n      jump\t// out\n        /* \"#utility.yul\":4255:4384   */\n    tag_84:\n        /* \"#utility.yul\":4289:4295   */\n      0x00\n        /* \"#utility.yul\":4316:4336   */\n      tag_147\n      tag_148\n      jump\t// in\n    tag_147:\n        /* \"#utility.yul\":4306:4336   */\n      swap1\n      pop\n        /* \"#utility.yul\":4345:4378   */\n      tag_149\n        /* \"#utility.yul\":4373:4377   */\n      dup3\n        /* \"#utility.yul\":4365:4371   */\n      dup3\n        /* \"#utility.yul\":4345:4378   */\n      tag_150\n      jump\t// in\n    tag_149:\n        /* \"#utility.yul\":4255:4384   */\n      swap2\n      swap1\n      pop\n      jump\t// out\n        /* \"#utility.yul\":4390:4465   */\n    tag_148:\n        /* \"#utility.yul\":4423:4429   */\n      0x00\n        /* \"#utility.yul\":4456:4458   */\n      0x40\n        /* \"#utility.yul\":4450:4459   */\n      mload\n        /* \"#utility.yul\":4440:4459   */\n      swap1\n      pop\n        /* \"#utility.yul\":4390:4465   */\n      swap1\n      jump\t// out\n        /* \"#utility.yul\":4471:4779   */\n    tag_83:\n        /* \"#utility.yul\":4533:4537   */\n      0x00\n        /* \"#utility.yul\":4623:4641   */\n      0xffffffffffffffff\n        /* \"#utility.yul\":4615:4621   */\n      dup3\n        /* \"#utility.yul\":4612:4642   */\n      gt\n        /* \"#utility.yul\":4609:4665   */\n      iszero\n      tag_153\n      jumpi\n        /* \"#utility.yul\":4645:4663   */\n      tag_154\n      tag_155\n      jump\t// in\n    tag_154:\n        /* \"#utility.yul\":4609:4665   */\n    tag_153:\n        /* \"#utility.yul\":4683:4712   */\n      tag_156\n        /* \"#utility.yul\":4705:4711   */\n      dup3\n        /* \"#utility.yul\":4683:4712   */\n      tag_128\n      jump\t// in\n    tag_156:\n        /* \"#utility.yul\":4675:4712   */\n      swap1\n      pop\n        /* \"#utility.yul\":4767:4771   */\n      0x20\n        /* \"#utility.yul\":4761:4765   */\n      dup2\n        /* \"#utility.yul\":4757:4772   */\n      add\n        /* \"#utility.yul\":4749:4772   */\n      swap1\n      pop\n        /* \"#utility.yul\":4471:4779   */\n      swap2\n      swap1\n      pop\n      jump\t// out\n        /* \"#utility.yul\":4785:4884   */\n    tag_122:\n        /* \"#utility.yul\":4837:4843   */\n      0x00\n        /* \"#utility.yul\":4871:4876   */\n      dup2\n        /* \"#utility.yul\":4865:4877   */\n      mload\n        /* \"#utility.yul\":4855:4877   */\n      swap1\n      pop\n        /* \"#utility.yul\":4785:4884   */\n      swap2\n      swap1\n      pop\n      jump\t// out\n        /* \"#utility.yul\":4890:5059   */\n    tag_124:\n        /* \"#utility.yul\":4974:4985   */\n      0x00\n        /* \"#utility.yul\":5008:5014   */\n      dup3\n        /* \"#utility.yul\":5003:5006   */\n      dup3\n        /* \"#utility.yul\":4996:5015   */\n      mstore\n        /* \"#utility.yul\":5048:5052   */\n      0x20\n        /* \"#utility.yul\":5043:5046   */\n      dup3\n        /* \"#utility.yul\":5039:5053   */\n      add\n        /* \"#utility.yul\":5024:5053   */\n      swap1\n      pop\n        /* \"#utility.yul\":4890:5059   */\n      swap3\n      swap2\n      pop\n      pop\n      jump\t// out\n        /* \"#utility.yul\":5065:5213   */\n    tag_133:\n        /* \"#utility.yul\":5167:5178   */\n      0x00\n        /* \"#utility.yul\":5204:5207   */\n      dup2\n        /* \"#utility.yul\":5189:5207   */\n      swap1\n      pop\n        /* \"#utility.yul\":5065:5213   */\n      swap3\n      swap2\n      pop\n      pop\n      jump\t// out\n        /* \"#utility.yul\":5219:5567   */\n    tag_56:\n        /* \"#utility.yul\":5259:5266   */\n      0x00\n        /* \"#utility.yul\":5282:5302   */\n      tag_161\n        /* \"#utility.yul\":5300:5301   */\n      dup3\n        /* \"#utility.yul\":5282:5302   */\n      tag_138\n      jump\t// in\n    tag_161:\n        /* \"#utility.yul\":5277:5302   */\n      swap2\n      pop\n        /* \"#utility.yul\":5316:5336   */\n      tag_162\n        /* \"#utility.yul\":5334:5335   */\n      dup4\n        /* \"#utility.yul\":5316:5336   */\n      tag_138\n      jump\t// in\n    tag_162:\n        /* \"#utility.yul\":5311:5336   */\n      swap3\n      pop\n        /* \"#utility.yul\":5504:5505   */\n      dup2\n        /* \"#utility.yul\":5436:5502   */\n      0xffffffffffffffffffffffffffffffffffffffffffffffffffffffffffffffff\n        /* \"#utility.yul\":5432:5506   */\n      div\n        /* \"#utility.yul\":5429:5430   */\n      dup4\n        /* \"#utility.yul\":5426:5507   */\n      gt\n        /* \"#utility.yul\":5421:5422   */\n      dup3\n        /* \"#utility.yul\":5414:5423   */\n      iszero\n        /* \"#utility.yul\":5407:5424   */\n      iszero\n        /* \"#utility.yul\":5403:5508   */\n      and\n        /* \"#utility.yul\":5400:5531   */\n      iszero\n      tag_163\n      jumpi\n        /* \"#utility.yul\":5511:5529   */\n      tag_164\n      tag_165\n      jump\t// in\n    tag_164:\n        /* \"#utility.yul\":5400:5531   */\n    tag_163:\n        /* \"#utility.yul\":5559:5560   */\n      dup3\n        /* \"#utility.yul\":5556:5557   */\n      dup3\n        /* \"#utility.yul\":5552:5561   */\n      mul\n        /* \"#utility.yul\":5541:5561   */\n      swap1\n      pop\n        /* \"#utility.yul\":5219:5567   */\n      swap3\n      swap2\n      pop\n      pop\n      jump\t// out\n        /* \"#utility.yul\":5573:5650   */\n    tag_138:\n        /* \"#utility.yul\":5610:5617   */\n      0x00\n        /* \"#utility.yul\":5639:5644   */\n      dup2\n        /* \"#utility.yul\":5628:5644   */\n      swap1\n      pop\n        /* \"#utility.yul\":5573:5650   */\n      swap2\n      swap1\n      pop\n      jump\t// out\n        /* \"#utility.yul\":5656:5810   */\n    tag_89:\n        /* \"#utility.yul\":5740:5746   */\n      dup3\n        /* \"#utility.yul\":5735:5738   */\n      dup2\n        /* \"#utility.yul\":5730:5733   */\n      dup4\n        /* \"#utility.yul\":5717:5747   */\n      calldatacopy\n        /* \"#utility.yul\":5802:5803   */\n      0x00\n        /* \"#utility.yul\":5793:5799   */\n      dup4\n        /* \"#utility.yul\":5788:5791   */\n      dup4\n        /* \"#utility.yul\":5784:5800   */\n      add\n        /* \"#utility.yul\":5777:5804   */\n      mstore\n        /* \"#utility.yul\":5656:5810   */\n      pop\n      pop\n      pop\n      jump\t// out\n        /* \"#utility.yul\":5816:6123   */\n    tag_126:\n        /* \"#utility.yul\":5884:5885   */\n      0x00\n        /* \"#utility.yul\":5894:6007   */\n    tag_169:\n        /* \"#utility.yul\":5908:5914   */\n      dup4\n        /* \"#utility.yul\":5905:5906   */\n      dup2\n        /* \"#utility.yul\":5902:5915   */\n      lt\n        /* \"#utility.yul\":5894:6007   */\n      iszero\n      tag_171\n      jumpi\n        /* \"#utility.yul\":5993:5994   */\n      dup1\n        /* \"#utility.yul\":5988:5991   */\n      dup3\n        /* \"#utility.yul\":5984:5995   */\n      add\n        /* \"#utility.yul\":5978:5996   */\n      mload\n        /* \"#utility.yul\":5974:5975   */\n      dup2\n        /* \"#utility.yul\":5969:5972   */\n      dup5\n        /* \"#utility.yul\":5965:5976   */\n      add\n        /* \"#utility.yul\":5958:5997   */\n      mstore\n        /* \"#utility.yul\":5930:5932   */\n      0x20\n        /* \"#utility.yul\":5927:5928   */\n      dup2\n        /* \"#utility.yul\":5923:5933   */\n      add\n        /* \"#utility.yul\":5918:5933   */\n      swap1\n      pop\n        /* \"#utility.yul\":5894:6007   */\n      jump(tag_169)\n    tag_171:\n        /* \"#utility.yul\":6025:6031   */\n      dup4\n        /* \"#utility.yul\":6022:6023   */\n      dup2\n        /* \"#utility.yul\":6019:6032   */\n      gt\n        /* \"#utility.yul\":6016:6117   */\n      iszero\n      tag_172\n      jumpi\n        /* \"#utility.yul\":6105:6106   */\n      0x00\n        /* \"#utility.yul\":6096:6102   */\n      dup5\n        /* \"#utility.yul\":6091:6094   */\n      dup5\n        /* \"#utility.yul\":6087:6103   */\n      add\n        /* \"#utility.yul\":6080:6107   */\n      mstore\n        /* \"#utility.yul\":6016:6117   */\n    tag_172:\n        /* \"#utility.yul\":5865:6123   */\n      pop\n        /* \"#utility.yul\":5816:6123   */\n      pop\n      pop\n      pop\n      jump\t// out\n        /* \"#utility.yul\":6129:6449   */\n    tag_49:\n        /* \"#utility.yul\":6173:6179   */\n      0x00\n        /* \"#utility.yul\":6210:6211   */\n      0x02\n        /* \"#utility.yul\":6204:6208   */\n      dup3\n        /* \"#utility.yul\":6200:6212   */\n      div\n        /* \"#utility.yul\":6190:6212   */\n      swap1\n      pop\n        /* \"#utility.yul\":6257:6258   */\n      0x01\n        /* \"#utility.yul\":6251:6255   */\n      dup3\n        /* \"#utility.yul\":6247:6259   */\n      and\n        /* \"#utility.yul\":6278:6296   */\n      dup1\n        /* \"#utility.yul\":6268:6349   */\n      tag_174\n      jumpi\n        /* \"#utility.yul\":6334:6338   */\n      0x7f\n        /* \"#utility.yul\":6326:6332   */\n      dup3\n        /* \"#utility.yul\":6322:6339   */\n      and\n        /* \"#utility.yul\":6312:6339   */\n      swap2\n      pop\n        /* \"#utility.yul\":6268:6349   */\n    tag_174:\n        /* \"#utility.yul\":6396:6398   */\n      0x20\n        /* \"#utility.yul\":6388:6394   */\n      dup3\n        /* \"#utility.yul\":6385:6399   */\n      lt\n        /* \"#utility.yul\":6365:6383   */\n      dup2\n        /* \"#utility.yul\":6362:6400   */\n      eq\n        /* \"#utility.yul\":6359:6443   */\n      iszero\n      tag_175\n      jumpi\n        /* \"#utility.yul\":6415:6433   */\n      tag_176\n      tag_177\n      jump\t// in\n    tag_176:\n        /* \"#utility.yul\":6359:6443   */\n    tag_175:\n        /* \"#utility.yul\":6180:6449   */\n      pop\n        /* \"#utility.yul\":6129:6449   */\n      swap2\n      swap1\n      pop\n      jump\t// out\n        /* \"#utility.yul\":6455:6736   */\n    tag_150:\n        /* \"#utility.yul\":6538:6565   */\n      tag_179\n        /* \"#utility.yul\":6560:6564   */\n      dup3\n        /* \"#utility.yul\":6538:6565   */\n      tag_128\n      jump\t// in\n    tag_179:\n        /* \"#utility.yul\":6530:6536   */\n      dup2\n        /* \"#utility.yul\":6526:6566   */\n      add\n        /* \"#utility.yul\":6668:6674   */\n      dup2\n        /* \"#utility.yul\":6656:6666   */\n      dup2\n        /* \"#utility.yul\":6653:6675   */\n      lt\n        /* \"#utility.yul\":6632:6650   */\n      0xffffffffffffffff\n        /* \"#utility.yul\":6620:6630   */\n      dup3\n        /* \"#utility.yul\":6617:6651   */\n      gt\n        /* \"#utility.yul\":6614:6676   */\n      or\n        /* \"#utility.yul\":6611:6699   */\n      iszero\n      tag_180\n      jumpi\n        /* \"#utility.yul\":6679:6697   */\n      tag_181\n      tag_155\n      jump\t// in\n    tag_181:\n        /* \"#utility.yul\":6611:6699   */\n    tag_180:\n        /* \"#utility.yul\":6719:6729   */\n      dup1\n        /* \"#utility.yul\":6715:6717   */\n      0x40\n        /* \"#utility.yul\":6708:6730   */\n      mstore\n        /* \"#utility.yul\":6498:6736   */\n      pop\n        /* \"#utility.yul\":6455:6736   */\n      pop\n      pop\n      jump\t// out\n        /* \"#utility.yul\":6742:6922   */\n    tag_165:\n        /* \"#utility.yul\":6790:6867   */\n      0x4e487b7100000000000000000000000000000000000000000000000000000000\n        /* \"#utility.yul\":6787:6788   */\n      0x00\n        /* \"#utility.yul\":6780:6868   */\n      mstore\n        /* \"#utility.yul\":6887:6891   */\n      0x11\n        /* \"#utility.yul\":6884:6885   */\n      0x04\n        /* \"#utility.yul\":6877:6892   */\n      mstore\n        /* \"#utility.yul\":6911:6915   */\n      0x24\n        /* \"#utility.yul\":6908:6909   */\n      0x00\n        /* \"#utility.yul\":6901:6916   */\n      revert\n        /* \"#utility.yul\":6928:7108   */\n    tag_177:\n        /* \"#utility.yul\":6976:7053   */\n      0x4e487b7100000000000000000000000000000000000000000000000000000000\n        /* \"#utility.yul\":6973:6974   */\n      0x00\n        /* \"#utility.yul\":6966:7054   */\n      mstore\n        /* \"#utility.yul\":7073:7077   */\n      0x22\n        /* \"#utility.yul\":7070:7071   */\n      0x04\n        /* \"#utility.yul\":7063:7078   */\n      mstore\n        /* \"#utility.yul\":7097:7101   */\n      0x24\n        /* \"#utility.yul\":7094:7095   */\n      0x00\n        /* \"#utility.yul\":7087:7102   */\n      revert\n        /* \"#utility.yul\":7114:7294   */\n    tag_155:\n        /* \"#utility.yul\":7162:7239   */\n      0x4e487b7100000000000000000000000000000000000000000000000000000000\n        /* \"#utility.yul\":7159:7160   */\n      0x00\n        /* \"#utility.yul\":7152:7240   */\n      mstore\n        /* \"#utility.yul\":7259:7263   */\n      0x41\n        /* \"#utility.yul\":7256:7257   */\n      0x04\n        /* \"#utility.yul\":7249:7264   */\n      mstore\n        /* \"#utility.yul\":7283:7287   */\n      0x24\n        /* \"#utility.yul\":7280:7281   */\n      0x00\n        /* \"#utility.yul\":7273:7288   */\n      revert\n        /* \"#utility.yul\":7300:7417   */\n    tag_94:\n        /* \"#utility.yul\":7409:7410   */\n      0x00\n        /* \"#utility.yul\":7406:7407   */\n      dup1\n        /* \"#utility.yul\":7399:7411   */\n      revert\n        /* \"#utility.yul\":7423:7540   */\n    tag_87:\n        /* \"#utility.yul\":7532:7533   */\n      0x00\n        /* \"#utility.yul\":7529:7530   */\n      dup1\n        /* \"#utility.yul\":7522:7534   */\n      revert\n        /* \"#utility.yul\":7546:7663   */\n    tag_106:\n        /* \"#utility.yul\":7655:7656   */\n      0x00\n        /* \"#utility.yul\":7652:7653   */\n      dup1\n        /* \"#utility.yul\":7645:7657   */\n      revert\n        /* \"#utility.yul\":7669:7786   */\n    tag_103:\n        /* \"#utility.yul\":7778:7779   */\n      0x00\n        /* \"#utility.yul\":7775:7776   */\n      dup1\n        /* \"#utility.yul\":7768:7780   */\n      revert\n        /* \"#utility.yul\":7792:7894   */\n    tag_128:\n        /* \"#utility.yul\":7833:7839   */\n      0x00\n        /* \"#utility.yul\":7884:7886   */\n      0x1f\n        /* \"#utility.yul\":7880:7887   */\n      not\n        /* \"#utility.yul\":7875:7877   */\n      0x1f\n        /* \"#utility.yul\":7868:7873   */\n      dup4\n        /* \"#utility.yul\":7864:7878   */\n      add\n        /* \"#utility.yul\":7860:7888   */\n      and\n        /* \"#utility.yul\":7850:7888   */\n      swap1\n      pop\n        /* \"#utility.yul\":7792:7894   */\n      swap2\n      swap1\n      pop\n      jump\t// out\n        /* \"#utility.yul\":7900:8022   */\n    tag_99:\n        /* \"#utility.yul\":7973:7997   */\n      tag_191\n        /* \"#utility.yul\":7991:7996   */\n      dup2\n        /* \"#utility.yul\":7973:7997   */\n      tag_138\n      jump\t// in\n    tag_191:\n        /* \"#utility.yul\":7966:7971   */\n      dup2\n        /* \"#utility.yul\":7963:7998   */\n      eq\n        /* \"#utility.yul\":7953:8016   */\n      tag_192\n      jumpi\n        /* \"#utility.yul\":8012:8013   */\n      0x00\n        /* \"#utility.yul\":8009:8010   */\n      dup1\n        /* \"#utility.yul\":8002:8014   */\n      revert\n        /* \"#utility.yul\":7953:8016   */\n    tag_192:\n        /* \"#utility.yul\":7900:8022   */\n      pop\n      jump\t// out\n\n    auxdata: 0xa26469706673582212201ff6bd0545f555d3b9d567725dc0cb909dc60b4e9f34d4d79230b6926caa763a64736f6c63430008070033\n}\n",
				"bytecode": {
					"linkReferences": {},
					"object": "60806040526040518060400160405280600281526020016040518060400160405280600781526020017f7061747269636b00000000000000000000000000000000000000000000000000815250815250600160008201518160000155602082015181600101908051906020019061007792919061013f565b505050600580556001600660006101000a81548160ff0219169083151502179055506040518060400160405280600681526020017f737472696e670000000000000000000000000000000000000000000000000000815250600790805190602001906100e492919061013f565b507ffffffffffffffffffffffffffffffffffffffffffffffffffffffffffffffffb6008557f636174000000000000000000000000000000000000000000000000000000000060095534801561013957600080fd5b50610243565b82805461014b906101e2565b90600052602060002090601f01602090048101928261016d57600085556101b4565b82601f1061018657805160ff19168380011785556101b4565b828001600101855582156101b4579182015b828111156101b3578251825591602001919060010190610198565b5b5090506101c191906101c5565b5090565b5b808211156101de5760008160009055506001016101c6565b5090565b600060028204905060018216806101fa57607f821691505b6020821081141561020e5761020d610214565b5b50919050565b7f4e487b7100000000000000000000000000000000000000000000000000000000600052602260045260246000fd5b61094e806102526000396000f3fe608060405234801561001057600080fd5b50600436106100885760003560e01c80636f2938e81161005b5780636f2938e81461011657806375bf7eed1461014657806377ec2b551461016257806392fa9da31461018157610088565b80632e64cec11461008d5780634237c65b146100ab5780636057361d146100c95780636c992aec146100e5575b600080fd5b6100956101b1565b6040516100a2919061067e565b60405180910390f35b6100b36101ba565b6040516100c0919061067e565b60405180910390f35b6100e360048036038101906100de91906105c1565b6101c0565b005b6100ff60048036038101906100fa91906105c1565b6101ca565b60405161010d929190610699565b60405180910390f35b610130600480360381019061012b91906105c1565b610286565b60405161013d919061067e565b60405180910390f35b610160600480360381019061015b9190610565565b61029c565b005b61016a61032c565b604051610178929190610699565b60405180910390f35b61019b6004803603810190610196919061051c565b6103c6565b6040516101a8919061067e565b60405180910390f35b60008054905090565b60005481565b8060008190555050565b600381815481106101da57600080fd5b9060005260206000209060020201600091509050806000015490806001018054610203906107ec565b80601f016020809104026020016040519081016040528092919081815260200182805461022f906107ec565b801561027c5780601f106102515761010080835404028352916020019161027c565b820191906000526020600020905b81548152906001019060200180831161025f57829003601f168201915b5050505050905082565b60006002826102959190610746565b9050919050565b600360405180604001604052808381526020018481525090806001815401808255809150506001900390600052602060002090600202016000909190919091506000820151816000015560208201518160010190805190602001906103029291906103f4565b505050806004836040516103169190610667565b9081526020016040518091039020819055505050565b6001806000015490806001018054610343906107ec565b80601f016020809104026020016040519081016040528092919081815260200182805461036f906107ec565b80156103bc5780601f10610391576101008083540402835291602001916103bc565b820191906000526020600020905b81548152906001019060200180831161039f57829003601f168201915b5050505050905082565b6004818051602081018201805184825260208301602085012081835280955050505050506000915090505481565b828054610400906107ec565b90600052602060002090601f0160209004810192826104225760008555610469565b82601f1061043b57805160ff1916838001178555610469565b82800160010185558215610469579182015b8281111561046857825182559160200191906001019061044d565b5b509050610476919061047a565b5090565b5b8082111561049357600081600090555060010161047b565b5090565b60006104aa6104a5846106ee565b6106c9565b9050828152602081018484840111156104c6576104c56108e1565b5b6104d18482856107aa565b509392505050565b600082601f8301126104ee576104ed6108dc565b5b81356104fe848260208601610497565b91505092915050565b60008135905061051681610901565b92915050565b600060208284031215610532576105316108eb565b5b600082013567ffffffffffffffff8111156105505761054f6108e6565b5b61055c848285016104d9565b91505092915050565b6000806040838503121561057c5761057b6108eb565b5b600083013567ffffffffffffffff81111561059a576105996108e6565b5b6105a6858286016104d9565b92505060206105b785828601610507565b9150509250929050565b6000602082840312156105d7576105d66108eb565b5b60006105e584828501610507565b91505092915050565b60006105f98261071f565b610603818561072a565b93506106138185602086016107b9565b61061c816108f0565b840191505092915050565b60006106328261071f565b61063c818561073b565b935061064c8185602086016107b9565b80840191505092915050565b610661816107a0565b82525050565b60006106738284610627565b915081905092915050565b60006020820190506106936000830184610658565b92915050565b60006040820190506106ae6000830185610658565b81810360208301526106c081846105ee565b90509392505050565b60006106d36106e4565b90506106df828261081e565b919050565b6000604051905090565b600067ffffffffffffffff821115610709576107086108ad565b5b610712826108f0565b9050602081019050919050565b600081519050919050565b600082825260208201905092915050565b600081905092915050565b6000610751826107a0565b915061075c836107a0565b9250817fffffffffffffffffffffffffffffffffffffffffffffffffffffffffffffffff04831182151516156107955761079461084f565b5b828202905092915050565b6000819050919050565b82818337600083830152505050565b60005b838110156107d75780820151818401526020810190506107bc565b838111156107e6576000848401525b50505050565b6000600282049050600182168061080457607f821691505b602082108114156108185761081761087e565b5b50919050565b610827826108f0565b810181811067ffffffffffffffff82111715610846576108456108ad565b5b80604052505050565b7f4e487b7100000000000000000000000000000000000000000000000000000000600052601160045260246000fd5b7f4e487b7100000000000000000000000000000000000000000000000000000000600052602260045260246000fd5b7f4e487b7100000000000000000000000000000000000000000000000000000000600052604160045260246000fd5b600080fd5b600080fd5b600080fd5b600080fd5b6000601f19601f8301169050919050565b61090a816107a0565b811461091557600080fd5b5056fea26469706673582212201ff6bd0545f555d3b9d567725dc0cb909dc60b4e9f34d4d79230b6926caa763a64736f6c63430008070033",
					"opcodes": "PUSH1 0x80 PUSH1 0x40 MSTORE PUSH1 0x40 MLOAD DUP1 PUSH1 0x40 ADD PUSH1 0x40 MSTORE DUP1 PUSH1 0x2 DUP2 MSTORE PUSH1 0x20 ADD PUSH1 0x40 MLOAD DUP1 PUSH1 0x40 ADD PUSH1 0x40 MSTORE DUP1 PUSH1 0x7 DUP2 MSTORE PUSH1 0x20 ADD PUSH32 0x7061747269636B00000000000000000000000000000000000000000000000000 DUP2 MSTORE POP DUP2 MSTORE POP PUSH1 0x1 PUSH1 0x0 DUP3 ADD MLOAD DUP2 PUSH1 0x0 ADD SSTORE PUSH1 0x20 DUP3 ADD MLOAD DUP2 PUSH1 0x1 ADD SWAP1 DUP1 MLOAD SWAP1 PUSH1 0x20 ADD SWAP1 PUSH2 0x77 SWAP3 SWAP2 SWAP1 PUSH2 0x13F JUMP JUMPDEST POP POP POP PUSH1 0x5 DUP1 SSTORE PUSH1 0x1 PUSH1 0x6 PUSH1 0x0 PUSH2 0x100 EXP DUP2 SLOAD DUP2 PUSH1 0xFF MUL NOT AND SWAP1 DUP4 ISZERO ISZERO MUL OR SWAP1 SSTORE POP PUSH1 0x40 MLOAD DUP1 PUSH1 0x40 ADD PUSH1 0x40 MSTORE DUP1 PUSH1 0x6 DUP2 MSTORE PUSH1 0x20 ADD PUSH32 0x737472696E670000000000000000000000000000000000000000000000000000 DUP2 MSTORE POP PUSH1 0x7 SWAP1 DUP1 MLOAD SWAP1 PUSH1 0x20 ADD SWAP1 PUSH2 0xE4 SWAP3 SWAP2 SWAP1 PUSH2 0x13F JUMP JUMPDEST POP PUSH32 0xFFFFFFFFFFFFFFFFFFFFFFFFFFFFFFFFFFFFFFFFFFFFFFFFFFFFFFFFFFFFFFFB PUSH1 0x8 SSTORE PUSH32 0x6361740000000000000000000000000000000000000000000000000000000000 PUSH1 0x9 SSTORE CALLVALUE DUP1 ISZERO PUSH2 0x139 JUMPI PUSH1 0x0 DUP1 REVERT JUMPDEST POP PUSH2 0x243 JUMP JUMPDEST DUP3 DUP1 SLOAD PUSH2 0x14B SWAP1 PUSH2 0x1E2 JUMP JUMPDEST SWAP1 PUSH1 0x0 MSTORE PUSH1 0x20 PUSH1 0x0 KECCAK256 SWAP1 PUSH1 0x1F ADD PUSH1 0x20 SWAP1 DIV DUP2 ADD SWAP3 DUP3 PUSH2 0x16D JUMPI PUSH1 0x0 DUP6 SSTORE PUSH2 0x1B4 JUMP JUMPDEST DUP3 PUSH1 0x1F LT PUSH2 0x186 JUMPI DUP1 MLOAD PUSH1 0xFF NOT AND DUP4 DUP1 ADD OR DUP6 SSTORE PUSH2 0x1B4 JUMP JUMPDEST DUP3 DUP1 ADD PUSH1 0x1 ADD DUP6 SSTORE DUP3 ISZERO PUSH2 0x1B4 JUMPI SWAP2 DUP3 ADD JUMPDEST DUP3 DUP2 GT ISZERO PUSH2 0x1B3 JUMPI DUP3 MLOAD DUP3 SSTORE SWAP2 PUSH1 0x20 ADD SWAP2 SWAP1 PUSH1 0x1 ADD SWAP1 PUSH2 0x198 JUMP JUMPDEST JUMPDEST POP SWAP1 POP PUSH2 0x1C1 SWAP2 SWAP1 PUSH2 0x1C5 JUMP JUMPDEST POP SWAP1 JUMP JUMPDEST JUMPDEST DUP1 DUP3 GT ISZERO PUSH2 0x1DE JUMPI PUSH1 0x0 DUP2 PUSH1 0x0 SWAP1 SSTORE POP PUSH1 0x1 ADD PUSH2 0x1C6 JUMP JUMPDEST POP SWAP1 JUMP JUMPDEST PUSH1 0x0 PUSH1 0x2 DUP3 DIV SWAP1 POP PUSH1 0x1 DUP3 AND DUP1 PUSH2 0x1FA JUMPI PUSH1 0x7F DUP3 AND SWAP2 POP JUMPDEST PUSH1 0x20 DUP3 LT DUP2 EQ ISZERO PUSH2 0x20E JUMPI PUSH2 0x20D PUSH2 0x214 JUMP JUMPDEST JUMPDEST POP SWAP2 SWAP1 POP JUMP JUMPDEST PUSH32 0x4E487B7100000000000000000000000000000000000000000000000000000000 PUSH1 0x0 MSTORE PUSH1 0x22 PUSH1 0x4 MSTORE PUSH1 0x24 PUSH1 0x0 REVERT JUMPDEST PUSH2 0x94E DUP1 PUSH2 0x252 PUSH1 0x0 CODECOPY PUSH1 0x0 RETURN INVALID PUSH1 0x80 PUSH1 0x40 MSTORE CALLVALUE DUP1 ISZERO PUSH2 0x10 JUMPI PUSH1 0x0 DUP1 REVERT JUMPDEST POP PUSH1 0x4 CALLDATASIZE LT PUSH2 0x88 JUMPI PUSH1 0x0 CALLDATALOAD PUSH1 0xE0 SHR DUP1 PUSH4 0x6F2938E8 GT PUSH2 0x5B JUMPI DUP1 PUSH4 0x6F2938E8 EQ PUSH2 0x116 JUMPI DUP1 PUSH4 0x75BF7EED EQ PUSH2 0x146 JUMPI DUP1 PUSH4 0x77EC2B55 EQ PUSH2 0x162 JUMPI DUP1 PUSH4 0x92FA9DA3 EQ PUSH2 0x181 JUMPI PUSH2 0x88 JUMP JUMPDEST DUP1 PUSH4 0x2E64CEC1 EQ PUSH2 0x8D JUMPI DUP1 PUSH4 0x4237C65B EQ PUSH2 0xAB JUMPI DUP1 PUSH4 0x6057361D EQ PUSH2 0xC9 JUMPI DUP1 PUSH4 0x6C992AEC EQ PUSH2 0xE5 JUMPI JUMPDEST PUSH1 0x0 DUP1 REVERT JUMPDEST PUSH2 0x95 PUSH2 0x1B1 JUMP JUMPDEST PUSH1 0x40 MLOAD PUSH2 0xA2 SWAP2 SWAP1 PUSH2 0x67E JUMP JUMPDEST PUSH1 0x40 MLOAD DUP1 SWAP2 SUB SWAP1 RETURN JUMPDEST PUSH2 0xB3 PUSH2 0x1BA JUMP JUMPDEST PUSH1 0x40 MLOAD PUSH2 0xC0 SWAP2 SWAP1 PUSH2 0x67E JUMP JUMPDEST PUSH1 0x40 MLOAD DUP1 SWAP2 SUB SWAP1 RETURN JUMPDEST PUSH2 0xE3 PUSH1 0x4 DUP1 CALLDATASIZE SUB DUP2 ADD SWAP1 PUSH2 0xDE SWAP2 SWAP1 PUSH2 0x5C1 JUMP JUMPDEST PUSH2 0x1C0 JUMP JUMPDEST STOP JUMPDEST PUSH2 0xFF PUSH1 0x4 DUP1 CALLDATASIZE SUB DUP2 ADD SWAP1 PUSH2 0xFA SWAP2 SWAP1 PUSH2 0x5C1 JUMP JUMPDEST PUSH2 0x1CA JUMP JUMPDEST PUSH1 0x40 MLOAD PUSH2 0x10D SWAP3 SWAP2 SWAP1 PUSH2 0x699 JUMP JUMPDEST PUSH1 0x40 MLOAD DUP1 SWAP2 SUB SWAP1 RETURN JUMPDEST PUSH2 0x130 PUSH1 0x4 DUP1 CALLDATASIZE SUB DUP2 ADD SWAP1 PUSH2 0x12B SWAP2 SWAP1 PUSH2 0x5C1 JUMP JUMPDEST PUSH2 0x286 JUMP JUMPDEST PUSH1 0x40 MLOAD PUSH2 0x13D SWAP2 SWAP1 PUSH2 0x67E JUMP JUMPDEST PUSH1 0x40 MLOAD DUP1 SWAP2 SUB SWAP1 RETURN JUMPDEST PUSH2 0x160 PUSH1 0x4 DUP1 CALLDATASIZE SUB DUP2 ADD SWAP1 PUSH2 0x15B SWAP2 SWAP1 PUSH2 0x565 JUMP JUMPDEST PUSH2 0x29C JUMP JUMPDEST STOP JUMPDEST PUSH2 0x16A PUSH2 0x32C JUMP JUMPDEST PUSH1 0x40 MLOAD PUSH2 0x178 SWAP3 SWAP2 SWAP1 PUSH2 0x699 JUMP JUMPDEST PUSH1 0x40 MLOAD DUP1 SWAP2 SUB SWAP1 RETURN JUMPDEST PUSH2 0x19B PUSH1 0x4 DUP1 CALLDATASIZE SUB DUP2 ADD SWAP1 PUSH2 0x196 SWAP2 SWAP1 PUSH2 0x51C JUMP JUMPDEST PUSH2 0x3C6 JUMP JUMPDEST PUSH1 0x40 MLOAD PUSH2 0x1A8 SWAP2 SWAP1 PUSH2 0x67E JUMP JUMPDEST PUSH1 0x40 MLOAD DUP1 SWAP2 SUB SWAP1 RETURN JUMPDEST PUSH1 0x0 DUP1 SLOAD SWAP1 POP SWAP1 JUMP JUMPDEST PUSH1 0x0 SLOAD DUP2 JUMP JUMPDEST DUP1 PUSH1 0x0 DUP2 SWAP1 SSTORE POP POP JUMP JUMPDEST PUSH1 0x3 DUP2 DUP2 SLOAD DUP2 LT PUSH2 0x1DA JUMPI PUSH1 0x0 DUP1 REVERT JUMPDEST SWAP1 PUSH1 0x0 MSTORE PUSH1 0x20 PUSH1 0x0 KECCAK256 SWAP1 PUSH1 0x2 MUL ADD PUSH1 0x0 SWAP2 POP SWAP1 POP DUP1 PUSH1 0x0 ADD SLOAD SWAP1 DUP1 PUSH1 0x1 ADD DUP1 SLOAD PUSH2 0x203 SWAP1 PUSH2 0x7EC JUMP JUMPDEST DUP1 PUSH1 0x1F ADD PUSH1 0x20 DUP1 SWAP2 DIV MUL PUSH1 0x20 ADD PUSH1 0x40 MLOAD SWAP1 DUP2 ADD PUSH1 0x40 MSTORE DUP1 SWAP3 SWAP2 SWAP1 DUP2 DUP2 MSTORE PUSH1 0x20 ADD DUP3 DUP1 SLOAD PUSH2 0x22F SWAP1 PUSH2 0x7EC JUMP JUMPDEST DUP1 ISZERO PUSH2 0x27C JUMPI DUP1 PUSH1 0x1F LT PUSH2 0x251 JUMPI PUSH2 0x100 DUP1 DUP4 SLOAD DIV MUL DUP4 MSTORE SWAP2 PUSH1 0x20 ADD SWAP2 PUSH2 0x27C JUMP JUMPDEST DUP3 ADD SWAP2 SWAP1 PUSH1 0x0 MSTORE PUSH1 0x20 PUSH1 0x0 KECCAK256 SWAP1 JUMPDEST DUP2 SLOAD DUP2 MSTORE SWAP1 PUSH1 0x1 ADD SWAP1 PUSH1 0x20 ADD DUP1 DUP4 GT PUSH2 0x25F JUMPI DUP3 SWAP1 SUB PUSH1 0x1F AND DUP3 ADD SWAP2 JUMPDEST POP POP POP POP POP SWAP1 POP DUP3 JUMP JUMPDEST PUSH1 0x0 PUSH1 0x2 DUP3 PUSH2 0x295 SWAP2 SWAP1 PUSH2 0x746 JUMP JUMPDEST SWAP1 POP SWAP2 SWAP1 POP JUMP JUMPDEST PUSH1 0x3 PUSH1 0x40 MLOAD DUP1 PUSH1 0x40 ADD PUSH1 0x40 MSTORE DUP1 DUP4 DUP2 MSTORE PUSH1 0x20 ADD DUP5 DUP2 MSTORE POP SWAP1 DUP1 PUSH1 0x1 DUP2 SLOAD ADD DUP1 DUP3 SSTORE DUP1 SWAP2 POP POP PUSH1 0x1 SWAP1 SUB SWAP1 PUSH1 0x0 MSTORE PUSH1 0x20 PUSH1 0x0 KECCAK256 SWAP1 PUSH1 0x2 MUL ADD PUSH1 0x0 SWAP1 SWAP2 SWAP1 SWAP2 SWAP1 SWAP2 POP PUSH1 0x0 DUP3 ADD MLOAD DUP2 PUSH1 0x0 ADD SSTORE PUSH1 0x20 DUP3 ADD MLOAD DUP2 PUSH1 0x1 ADD SWAP1 DUP1 MLOAD SWAP1 PUSH1 0x20 ADD SWAP1 PUSH2 0x302 SWAP3 SWAP2 SWAP1 PUSH2 0x3F4 JUMP JUMPDEST POP POP POP DUP1 PUSH1 0x4 DUP4 PUSH1 0x40 MLOAD PUSH2 0x316 SWAP2 SWAP1 PUSH2 0x667 JUMP JUMPDEST SWAP1 DUP2 MSTORE PUSH1 0x20 ADD PUSH1 0x40 MLOAD DUP1 SWAP2 SUB SWAP1 KECCAK256 DUP2 SWAP1 SSTORE POP POP POP JUMP JUMPDEST PUSH1 0x1 DUP1 PUSH1 0x0 ADD SLOAD SWAP1 DUP1 PUSH1 0x1 ADD DUP1 SLOAD PUSH2 0x343 SWAP1 PUSH2 0x7EC JUMP JUMPDEST DUP1 PUSH1 0x1F ADD PUSH1 0x20 DUP1 SWAP2 DIV MUL PUSH1 0x20 ADD PUSH1 0x40 MLOAD SWAP1 DUP2 ADD PUSH1 0x40 MSTORE DUP1 SWAP3 SWAP2 SWAP1 DUP2 DUP2 MSTORE PUSH1 0x20 ADD DUP3 DUP1 SLOAD PUSH2 0x36F SWAP1 PUSH2 0x7EC JUMP JUMPDEST DUP1 ISZERO PUSH2 0x3BC JUMPI DUP1 PUSH1 0x1F LT PUSH2 0x391 JUMPI PUSH2 0x100 DUP1 DUP4 SLOAD DIV MUL DUP4 MSTORE SWAP2 PUSH1 0x20 ADD SWAP2 PUSH2 0x3BC JUMP JUMPDEST DUP3 ADD SWAP2 SWAP1 PUSH1 0x0 MSTORE PUSH1 0x20 PUSH1 0x0 KECCAK256 SWAP1 JUMPDEST DUP2 SLOAD DUP2 MSTORE SWAP1 PUSH1 0x1 ADD SWAP1 PUSH1 0x20 ADD DUP1 DUP4 GT PUSH2 0x39F JUMPI DUP3 SWAP1 SUB PUSH1 0x1F AND DUP3 ADD SWAP2 JUMPDEST POP POP POP POP POP SWAP1 POP DUP3 JUMP JUMPDEST PUSH1 0x4 DUP2 DUP1 MLOAD PUSH1 0x20 DUP2 ADD DUP3 ADD DUP1 MLOAD DUP5 DUP3 MSTORE PUSH1 0x20 DUP4 ADD PUSH1 0x20 DUP6 ADD KECCAK256 DUP2 DUP4 MSTORE DUP1 SWAP6 POP POP POP POP POP POP PUSH1 0x0 SWAP2 POP SWAP1 POP SLOAD DUP2 JUMP JUMPDEST DUP3 DUP1 SLOAD PUSH2 0x400 SWAP1 PUSH2 0x7EC JUMP JUMPDEST SWAP1 PUSH1 0x0 MSTORE PUSH1 0x20 PUSH1 0x0 KECCAK256 SWAP1 PUSH1 0x1F ADD PUSH1 0x20 SWAP1 DIV DUP2 ADD SWAP3 DUP3 PUSH2 0x422 JUMPI PUSH1 0x0 DUP6 SSTORE PUSH2 0x469 JUMP JUMPDEST DUP3 PUSH1 0x1F LT PUSH2 0x43B JUMPI DUP1 MLOAD PUSH1 0xFF NOT AND DUP4 DUP1 ADD OR DUP6 SSTORE PUSH2 0x469 JUMP JUMPDEST DUP3 DUP1 ADD PUSH1 0x1 ADD DUP6 SSTORE DUP3 ISZERO PUSH2 0x469 JUMPI SWAP2 DUP3 ADD JUMPDEST DUP3 DUP2 GT ISZERO PUSH2 0x468 JUMPI DUP3 MLOAD DUP3 SSTORE SWAP2 PUSH1 0x20 ADD SWAP2 SWAP1 PUSH1 0x1 ADD SWAP1 PUSH2 0x44D JUMP JUMPDEST JUMPDEST POP SWAP1 POP PUSH2 0x476 SWAP2 SWAP1 PUSH2 0x47A JUMP JUMPDEST POP SWAP1 JUMP JUMPDEST JUMPDEST DUP1 DUP3 GT ISZERO PUSH2 0x493 JUMPI PUSH1 0x0 DUP2 PUSH1 0x0 SWAP1 SSTORE POP PUSH1 0x1 ADD PUSH2 0x47B JUMP JUMPDEST POP SWAP1 JUMP JUMPDEST PUSH1 0x0 PUSH2 0x4AA PUSH2 0x4A5 DUP5 PUSH2 0x6EE JUMP JUMPDEST PUSH2 0x6C9 JUMP JUMPDEST SWAP1 POP DUP3 DUP2 MSTORE PUSH1 0x20 DUP2 ADD DUP5 DUP5 DUP5 ADD GT ISZERO PUSH2 0x4C6 JUMPI PUSH2 0x4C5 PUSH2 0x8E1 JUMP JUMPDEST JUMPDEST PUSH2 0x4D1 DUP5 DUP3 DUP6 PUSH2 0x7AA JUMP JUMPDEST POP SWAP4 SWAP3 POP POP POP JUMP JUMPDEST PUSH1 0x0 DUP3 PUSH1 0x1F DUP4 ADD SLT PUSH2 0x4EE JUMPI PUSH2 0x4ED PUSH2 0x8DC JUMP JUMPDEST JUMPDEST DUP2 CALLDATALOAD PUSH2 0x4FE DUP5 DUP3 PUSH1 0x20 DUP7 ADD PUSH2 0x497 JUMP JUMPDEST SWAP2 POP POP SWAP3 SWAP2 POP POP JUMP JUMPDEST PUSH1 0x0 DUP2 CALLDATALOAD SWAP1 POP PUSH2 0x516 DUP2 PUSH2 0x901 JUMP JUMPDEST SWAP3 SWAP2 POP POP JUMP JUMPDEST PUSH1 0x0 PUSH1 0x20 DUP3 DUP5 SUB SLT ISZERO PUSH2 0x532 JUMPI PUSH2 0x531 PUSH2 0x8EB JUMP JUMPDEST JUMPDEST PUSH1 0x0 DUP3 ADD CALLDATALOAD PUSH8 0xFFFFFFFFFFFFFFFF DUP2 GT ISZERO PUSH2 0x550 JUMPI PUSH2 0x54F PUSH2 0x8E6 JUMP JUMPDEST JUMPDEST PUSH2 0x55C DUP5 DUP3 DUP6 ADD PUSH2 0x4D9 JUMP JUMPDEST SWAP2 POP POP SWAP3 SWAP2 POP POP JUMP JUMPDEST PUSH1 0x0 DUP1 PUSH1 0x40 DUP4 DUP6 SUB SLT ISZERO PUSH2 0x57C JUMPI PUSH2 0x57B PUSH2 0x8EB JUMP JUMPDEST JUMPDEST PUSH1 0x0 DUP4 ADD CALLDATALOAD PUSH8 0xFFFFFFFFFFFFFFFF DUP2 GT ISZERO PUSH2 0x59A JUMPI PUSH2 0x599 PUSH2 0x8E6 JUMP JUMPDEST JUMPDEST PUSH2 0x5A6 DUP6 DUP3 DUP7 ADD PUSH2 0x4D9 JUMP JUMPDEST SWAP3 POP POP PUSH1 0x20 PUSH2 0x5B7 DUP6 DUP3 DUP7 ADD PUSH2 0x507 JUMP JUMPDEST SWAP2 POP POP SWAP3 POP SWAP3 SWAP1 POP JUMP JUMPDEST PUSH1 0x0 PUSH1 0x20 DUP3 DUP5 SUB SLT ISZERO PUSH2 0x5D7 JUMPI PUSH2 0x5D6 PUSH2 0x8EB JUMP JUMPDEST JUMPDEST PUSH1 0x0 PUSH2 0x5E5 DUP5 DUP3 DUP6 ADD PUSH2 0x507 JUMP JUMPDEST SWAP2 POP POP SWAP3 SWAP2 POP POP JUMP JUMPDEST PUSH1 0x0 PUSH2 0x5F9 DUP3 PUSH2 0x71F JUMP JUMPDEST PUSH2 0x603 DUP2 DUP6 PUSH2 0x72A JUMP JUMPDEST SWAP4 POP PUSH2 0x613 DUP2 DUP6 PUSH1 0x20 DUP7 ADD PUSH2 0x7B9 JUMP JUMPDEST PUSH2 0x61C DUP2 PUSH2 0x8F0 JUMP JUMPDEST DUP5 ADD SWAP2 POP POP SWAP3 SWAP2 POP POP JUMP JUMPDEST PUSH1 0x0 PUSH2 0x632 DUP3 PUSH2 0x71F JUMP JUMPDEST PUSH2 0x63C DUP2 DUP6 PUSH2 0x73B JUMP JUMPDEST SWAP4 POP PUSH2 0x64C DUP2 DUP6 PUSH1 0x20 DUP7 ADD PUSH2 0x7B9 JUMP JUMPDEST DUP1 DUP5 ADD SWAP2 POP POP SWAP3 SWAP2 POP POP JUMP JUMPDEST PUSH2 0x661 DUP2 PUSH2 0x7A0 JUMP JUMPDEST DUP3 MSTORE POP POP JUMP JUMPDEST PUSH1 0x0 PUSH2 0x673 DUP3 DUP5 PUSH2 0x627 JUMP JUMPDEST SWAP2 POP DUP2 SWAP1 POP SWAP3 SWAP2 POP POP JUMP JUMPDEST PUSH1 0x0 PUSH1 0x20 DUP3 ADD SWAP1 POP PUSH2 0x693 PUSH1 0x0 DUP4 ADD DUP5 PUSH2 0x658 JUMP JUMPDEST SWAP3 SWAP2 POP POP JUMP JUMPDEST PUSH1 0x0 PUSH1 0x40 DUP3 ADD SWAP1 POP PUSH2 0x6AE PUSH1 0x0 DUP4 ADD DUP6 PUSH2 0x658 JUMP JUMPDEST DUP2 DUP2 SUB PUSH1 0x20 DUP4 ADD MSTORE PUSH2 0x6C0 DUP2 DUP5 PUSH2 0x5EE JUMP JUMPDEST SWAP1 POP SWAP4 SWAP3 POP POP POP JUMP JUMPDEST PUSH1 0x0 PUSH2 0x6D3 PUSH2 0x6E4 JUMP JUMPDEST SWAP1 POP PUSH2 0x6DF DUP3 DUP3 PUSH2 0x81E JUMP JUMPDEST SWAP2 SWAP1 POP JUMP JUMPDEST PUSH1 0x0 PUSH1 0x40 MLOAD SWAP1 POP SWAP1 JUMP JUMPDEST PUSH1 0x0 PUSH8 0xFFFFFFFFFFFFFFFF DUP3 GT ISZERO PUSH2 0x709 JUMPI PUSH2 0x708 PUSH2 0x8AD JUMP JUMPDEST JUMPDEST PUSH2 0x712 DUP3 PUSH2 0x8F0 JUMP JUMPDEST SWAP1 POP PUSH1 0x20 DUP2 ADD SWAP1 POP SWAP2 SWAP1 POP JUMP JUMPDEST PUSH1 0x0 DUP2 MLOAD SWAP1 POP SWAP2 SWAP1 POP JUMP JUMPDEST PUSH1 0x0 DUP3 DUP3 MSTORE PUSH1 0x20 DUP3 ADD SWAP1 POP SWAP3 SWAP2 POP POP JUMP JUMPDEST PUSH1 0x0 DUP2 SWAP1 POP SWAP3 SWAP2 POP POP JUMP JUMPDEST PUSH1 0x0 PUSH2 0x751 DUP3 PUSH2 0x7A0 JUMP JUMPDEST SWAP2 POP PUSH2 0x75C DUP4 PUSH2 0x7A0 JUMP JUMPDEST SWAP3 POP DUP2 PUSH32 0xFFFFFFFFFFFFFFFFFFFFFFFFFFFFFFFFFFFFFFFFFFFFFFFFFFFFFFFFFFFFFFFF DIV DUP4 GT DUP3 ISZERO ISZERO AND ISZERO PUSH2 0x795 JUMPI PUSH2 0x794 PUSH2 0x84F JUMP JUMPDEST JUMPDEST DUP3 DUP3 MUL SWAP1 POP SWAP3 SWAP2 POP POP JUMP JUMPDEST PUSH1 0x0 DUP2 SWAP1 POP SWAP2 SWAP1 POP JUMP JUMPDEST DUP3 DUP2 DUP4 CALLDATACOPY PUSH1 0x0 DUP4 DUP4 ADD MSTORE POP POP POP JUMP JUMPDEST PUSH1 0x0 JUMPDEST DUP4 DUP2 LT ISZERO PUSH2 0x7D7 JUMPI DUP1 DUP3 ADD MLOAD DUP2 DUP5 ADD MSTORE PUSH1 0x20 DUP2 ADD SWAP1 POP PUSH2 0x7BC JUMP JUMPDEST DUP4 DUP2 GT ISZERO PUSH2 0x7E6 JUMPI PUSH1 0x0 DUP5 DUP5 ADD MSTORE JUMPDEST POP POP POP POP JUMP JUMPDEST PUSH1 0x0 PUSH1 0x2 DUP3 DIV SWAP1 POP PUSH1 0x1 DUP3 AND DUP1 PUSH2 0x804 JUMPI PUSH1 0x7F DUP3 AND SWAP2 POP JUMPDEST PUSH1 0x20 DUP3 LT DUP2 EQ ISZERO PUSH2 0x818 JUMPI PUSH2 0x817 PUSH2 0x87E JUMP JUMPDEST JUMPDEST POP SWAP2 SWAP1 POP JUMP JUMPDEST PUSH2 0x827 DUP3 PUSH2 0x8F0 JUMP JUMPDEST DUP2 ADD DUP2 DUP2 LT PUSH8 0xFFFFFFFFFFFFFFFF DUP3 GT OR ISZERO PUSH2 0x846 JUMPI PUSH2 0x845 PUSH2 0x8AD JUMP JUMPDEST JUMPDEST DUP1 PUSH1 0x40 MSTORE POP POP POP JUMP JUMPDEST PUSH32 0x4E487B7100000000000000000000000000000000000000000000000000000000 PUSH1 0x0 MSTORE PUSH1 0x11 PUSH1 0x4 MSTORE PUSH1 0x24 PUSH1 0x0 REVERT JUMPDEST PUSH32 0x4E487B7100000000000000000000000000000000000000000000000000000000 PUSH1 0x0 MSTORE PUSH1 0x22 PUSH1 0x4 MSTORE PUSH1 0x24 PUSH1 0x0 REVERT JUMPDEST PUSH32 0x4E487B7100000000000000000000000000000000000000000000000000000000 PUSH1 0x0 MSTORE PUSH1 0x41 PUSH1 0x4 MSTORE PUSH1 0x24 PUSH1 0x0 REVERT JUMPDEST PUSH1 0x0 DUP1 REVERT JUMPDEST PUSH1 0x0 DUP1 REVERT JUMPDEST PUSH1 0x0 DUP1 REVERT JUMPDEST PUSH1 0x0 DUP1 REVERT JUMPDEST PUSH1 0x0 PUSH1 0x1F NOT PUSH1 0x1F DUP4 ADD AND SWAP1 POP SWAP2 SWAP1 POP JUMP JUMPDEST PUSH2 0x90A DUP2 PUSH2 0x7A0 JUMP JUMPDEST DUP2 EQ PUSH2 0x915 JUMPI PUSH1 0x0 DUP1 REVERT JUMPDEST POP JUMP INVALID LOG2 PUSH5 0x6970667358 0x22 SLT KECCAK256 0x1F 0xF6 0xBD SDIV GASLIMIT CREATE2 SSTORE 0xD3 0xB9 0xD5 PUSH8 0x725DC0CB909DC60B 0x4E SWAP16 CALLVALUE 0xD4 0xD7 SWAP3 ADDRESS 0xB6 SWAP3 PUSH13 0xAA763A64736F6C634300080700 CALLER "
				},
				"gasEstimates": {
					"creation": {
						"codeDepositCost": "476400",
						"executionCost": "infinite",
						"totalCost": "infinite"
					},
					"external": {
						"Num()": "2452",
						"addpers(string,uint256)": "infinite",
						"math(uint256)": "infinite",
						"nameToNum(string)": "infinite",
						"person()": "infinite",
						"pueblo(uint256)": "infinite",
						"retrieve()": "2438",
						"store(uint256)": "22565"
					},
					"internal": {
						"store2(uint256)": "infinite"
					}
				},
				"methodIdentifiers": {
					"Num()": "4237c65b",
					"addpers(string,uint256)": "75bf7eed",
					"math(uint256)": "6f2938e8",
					"nameToNum(string)": "92fa9da3",
					"person()": "77ec2b55",
					"pueblo(uint256)": "6c992aec",
					"retrieve()": "2e64cec1",
					"store(uint256)": "6057361d"
				}
			},
			"storageLayout": {
				"storage": [
					{
						"astId": 3,
						"contract": "gist-16a9851a79dc6e8c7cae51e129b888f2/contracts/store.sol:stored",
						"label": "Num",
						"offset": 0,
						"slot": "0",
						"type": "t_uint256"
					},
					{
						"astId": 15,
						"contract": "gist-16a9851a79dc6e8c7cae51e129b888f2/contracts/store.sol:stored",
						"label": "person",
						"offset": 0,
						"slot": "1",
						"type": "t_struct(people)8_storage"
					},
					{
						"astId": 19,
						"contract": "gist-16a9851a79dc6e8c7cae51e129b888f2/contracts/store.sol:stored",
						"label": "pueblo",
						"offset": 0,
						"slot": "3",
						"type": "t_array(t_struct(people)8_storage)dyn_storage"
					},
					{
						"astId": 23,
						"contract": "gist-16a9851a79dc6e8c7cae51e129b888f2/contracts/store.sol:stored",
						"label": "nameToNum",
						"offset": 0,
						"slot": "4",
						"type": "t_mapping(t_string_memory_ptr,t_uint256)"
					},
					{
						"astId": 49,
						"contract": "gist-16a9851a79dc6e8c7cae51e129b888f2/contracts/store.sol:stored",
						"label": "favNum",
						"offset": 0,
						"slot": "5",
						"type": "t_uint256"
					},
					{
						"astId": 52,
						"contract": "gist-16a9851a79dc6e8c7cae51e129b888f2/contracts/store.sol:stored",
						"label": "favBool",
						"offset": 0,
						"slot": "6",
						"type": "t_bool"
					},
					{
						"astId": 55,
						"contract": "gist-16a9851a79dc6e8c7cae51e129b888f2/contracts/store.sol:stored",
						"label": "favString",
						"offset": 0,
						"slot": "7",
						"type": "t_string_storage"
					},
					{
						"astId": 59,
						"contract": "gist-16a9851a79dc6e8c7cae51e129b888f2/contracts/store.sol:stored",
						"label": "favInt",
						"offset": 0,
						"slot": "8",
						"type": "t_int256"
					},
					{
						"astId": 62,
						"contract": "gist-16a9851a79dc6e8c7cae51e129b888f2/contracts/store.sol:stored",
						"label": "favByt",
						"offset": 0,
						"slot": "9",
						"type": "t_bytes32"
					}
				],
				"types": {
					"t_array(t_struct(people)8_storage)dyn_storage": {
						"base": "t_struct(people)8_storage",
						"encoding": "dynamic_array",
						"label": "struct stored.people[]",
						"numberOfBytes": "32"
					},
					"t_bool": {
						"encoding": "inplace",
						"label": "bool",
						"numberOfBytes": "1"
					},
					"t_bytes32": {
						"encoding": "inplace",
						"label": "bytes32",
						"numberOfBytes": "32"
					},
					"t_int256": {
						"encoding": "inplace",
						"label": "int256",
						"numberOfBytes": "32"
					},
					"t_mapping(t_string_memory_ptr,t_uint256)": {
						"encoding": "mapping",
						"key": "t_string_memory_ptr",
						"label": "mapping(string => uint256)",
						"numberOfBytes": "32",
						"value": "t_uint256"
					},
					"t_string_memory_ptr": {
						"encoding": "bytes",
						"label": "string",
						"numberOfBytes": "32"
					},
					"t_string_storage": {
						"encoding": "bytes",
						"label": "string",
						"numberOfBytes": "32"
					},
					"t_struct(people)8_storage": {
						"encoding": "inplace",
						"label": "struct stored.people",
						"members": [
							{
								"astId": 5,
								"contract": "gist-16a9851a79dc6e8c7cae51e129b888f2/contracts/store.sol:stored",
								"label": "num",
								"offset": 0,
								"slot": "0",
								"type": "t_uint256"
							},
							{
								"astId": 7,
								"contract": "gist-16a9851a79dc6e8c7cae51e129b888f2/contracts/store.sol:stored",
								"label": "name",
								"offset": 0,
								"slot": "1",
								"type": "t_string_storage"
							}
						],
						"numberOfBytes": "64"
					},
					"t_uint256": {
						"encoding": "inplace",
						"label": "uint256",
						"numberOfBytes": "32"
					}
				}
			},
			"userdoc": {
				"kind": "user",
				"methods": {},
				"version": 1
			}
		}
	}
}