{
  "_format": "hh-sol-artifact-1",
  "contractName": "Owner",
  "sourceName": "contracts/2_Owner.sol",
  "abi": [
    {
      "inputs": [],
      "stateMutability": "nonpayable",
      "type": "constructor"
    },
    {
      "anonymous": false,
      "inputs": [
        {
          "indexed": true,
          "internalType": "address",
          "name": "oldOwner",
          "type": "address"
        },
        {
          "indexed": true,
          "internalType": "address",
          "name": "newOwner",
          "type": "address"
        }
      ],
      "name": "OwnerSet",
      "type": "event"
    },
    {
      "inputs": [
        {
          "internalType": "address",
          "name": "newOwner",
          "type": "address"
        }
      ],
      "name": "changeOwner",
      "outputs": [],
      "stateMutability": "nonpayable",
      "type": "function"
    },
    {
      "inputs": [],
      "name": "getOwner",
      "outputs": [
        {
          "internalType": "address",
          "name": "",
          "type": "address"
        }
      ],
      "stateMutability": "view",
      "type": "function"
    }
  ],
  "bytecode": "0x608060405234801561001057600080fd5b5061005a6040518060400160405280601b81526020017f4f776e657220636f6e7472616374206465706c6f7965642062793a00000000008152503361009e60201b6101001760201c565b600080546001600160a01b0319163390811782556040519091907f342827c97908e5e2f71151c08502a66d44b6f758e3ac2f1de95f02eb95f0a735908290a361018b565b6100e782826040516024016100b4929190610162565b60408051601f198184030181529190526020810180516001600160e01b0390811663319af33360e01b179091526100eb16565b5050565b80516a636f6e736f6c652e6c6f67602083016000808483855afa5050505050565b60005b8381101561012757818101518382015260200161010f565b50506000910152565b600061013a825190565b80845260208401935061015181856020860161010c565b601f01601f19169290920192915050565b604080825281016101738185610130565b6001600160a01b038416602084015290509392505050565b6102c98061019a6000396000f3fe608060405234801561001057600080fd5b50600436106100365760003560e01c8063893d20e81461003b578063a6f9dae11461005d575b600080fd5b6000546001600160a01b0316604051610054919061018c565b60405180910390f35b61007061006b3660046101bc565b610072565b005b6000546001600160a01b031633146100a55760405162461bcd60e51b815260040161009c906101e5565b60405180910390fd5b600080546040516001600160a01b03808516939216917f342827c97908e5e2f71151c08502a66d44b6f758e3ac2f1de95f02eb95f0a73591a3600080546001600160a01b0319166001600160a01b0392909216919091179055565b610145828260405160240161011692919061026c565b60408051601f198184030181529190526020810180516001600160e01b031663319af33360e01b179052610149565b5050565b80516a636f6e736f6c652e6c6f67602083016000808483855afa5050505050565b60006001600160a01b0382165b92915050565b6101868161016a565b82525050565b60208101610177828461017d565b6101a38161016a565b81146101ae57600080fd5b50565b80356101778161019a565b6000602082840312156101d1576101d1600080fd5b60006101dd84846101b1565b949350505050565b6020808252810161017781601381527221b0b63632b91034b9903737ba1037bbb732b960691b602082015260400190565b60005b83811015610231578181015183820152602001610219565b50506000910152565b6000610244825190565b80845260208401935061025b818560208601610216565b601f01601f19169290920192915050565b6040808252810161027d818561023a565b905061028c602083018461017d565b939250505056fea26469706673582212200c221d963b0ff029af41e42f93a09b105119189b4779e9fd9bc7a9d3e254bb5c64736f6c63430008110033",
  "linkReferences": {},
  "deployedLinkReferences": {}
}