{
  "_format": "hh-sol-artifact-1",
  "contractName": "storFact",
  "sourceName": "contracts/storageFactory.sol",
  "abi": [
    {
      "inputs": [],
      "name": "createStore",
      "outputs": [],
      "stateMutability": "nonpayable",
      "type": "function"
    },
    {
      "inputs": [
        {
          "internalType": "uint256",
          "name": "_ind",
          "type": "uint256"
        }
      ],
      "name": "sfGet",
      "outputs": [
        {
          "internalType": "uint256",
          "name": "",
          "type": "uint256"
        }
      ],
      "stateMutability": "view",
      "type": "function"
    },
    {
      "inputs": [
        {
          "internalType": "uint256",
          "name": "_ind",
          "type": "uint256"
        },
        {
          "internalType": "uint256",
          "name": "_num",
          "type": "uint256"
        }
      ],
      "name": "sfStore",
      "outputs": [],
      "stateMutability": "nonpayable",
      "type": "function"
    },
    {
      "inputs": [
        {
          "internalType": "uint256",
          "name": "",
          "type": "uint256"
        }
      ],
      "name": "storedArray",
      "outputs": [
        {
          "internalType": "contract stored",
          "name": "",
          "type": "address"
        }
      ],
      "stateMutability": "view",
      "type": "function"
    }
  ],
  "bytecode": "0x608060405234801561001057600080fd5b5061152c806100206000396000f3fe60806040523480156200001157600080fd5b5060043610620000525760003560e01c80631563700f1462000057578063b70d134a1462000077578063c5f19c2014620000ad578063fb122ac814620000e3575b600080fd5b6200007560048036038101906200006f919062000387565b620000ef565b005b6200009560048036038101906200008f9190620003ce565b620001a8565b604051620000a491906200048b565b60405180910390f35b620000cb6004803603810190620000c59190620003ce565b620001e8565b604051620000da9190620004b9565b60405180910390f35b620000ed620002a3565b005b6000808381548110620001075762000106620004d6565b5b9060005260206000200160009054906101000a900473ffffffffffffffffffffffffffffffffffffffff1690508073ffffffffffffffffffffffffffffffffffffffff16636057361d836040518263ffffffff1660e01b81526004016200016f9190620004b9565b600060405180830381600087803b1580156200018a57600080fd5b505af11580156200019f573d6000803e3d6000fd5b50505050505050565b60008181548110620001b957600080fd5b906000526020600020016000915054906101000a900473ffffffffffffffffffffffffffffffffffffffff1681565b60008082815481106200020057620001ff620004d6565b5b9060005260206000200160009054906101000a900473ffffffffffffffffffffffffffffffffffffffff1673ffffffffffffffffffffffffffffffffffffffff16632e64cec16040518163ffffffff1660e01b8152600401602060405180830381865afa15801562000276573d6000803e3d6000fd5b505050506040513d601f19601f820116820180604052508101906200029c91906200051c565b9050919050565b6000604051620002b39062000339565b604051809103906000f080158015620002d0573d6000803e3d6000fd5b5090506000819080600181540180825580915050600190039060005260206000200160009091909190916101000a81548173ffffffffffffffffffffffffffffffffffffffff021916908373ffffffffffffffffffffffffffffffffffffffff16021790555050565b610fa8806200054f83390190565b600080fd5b6000819050919050565b62000361816200034c565b81146200036d57600080fd5b50565b600081359050620003818162000356565b92915050565b60008060408385031215620003a157620003a062000347565b5b6000620003b18582860162000370565b9250506020620003c48582860162000370565b9150509250929050565b600060208284031215620003e757620003e662000347565b5b6000620003f78482850162000370565b91505092915050565b600073ffffffffffffffffffffffffffffffffffffffff82169050919050565b6000819050919050565b60006200044b620004456200043f8462000400565b62000420565b62000400565b9050919050565b60006200045f826200042a565b9050919050565b6000620004738262000452565b9050919050565b620004858162000466565b82525050565b6000602082019050620004a260008301846200047a565b92915050565b620004b3816200034c565b82525050565b6000602082019050620004d06000830184620004a8565b92915050565b7f4e487b7100000000000000000000000000000000000000000000000000000000600052603260045260246000fd5b600081519050620005168162000356565b92915050565b60006020828403121562000535576200053462000347565b5b6000620005458482850162000505565b9150509291505056fe60806040526040518060400160405280600281526020016040518060400160405280600781526020017f7061747269636b000000000000000000000000000000000000000000000000008152508152506001600082015181600001556020820151816001019081620000729190620003b1565b505050600580556001600660006101000a81548160ff0219169083151502179055506040518060400160405280600681526020017f737472696e67000000000000000000000000000000000000000000000000000081525060079081620000da9190620003b1565b507ffffffffffffffffffffffffffffffffffffffffffffffffffffffffffffffffb6008557f63617400000000000000000000000000000000000000000000000000000000006009553480156200013057600080fd5b5062000498565b600081519050919050565b7f4e487b7100000000000000000000000000000000000000000000000000000000600052604160045260246000fd5b7f4e487b7100000000000000000000000000000000000000000000000000000000600052602260045260246000fd5b60006002820490506001821680620001b957607f821691505b602082108103620001cf57620001ce62000171565b5b50919050565b60008190508160005260206000209050919050565b60006020601f8301049050919050565b600082821b905092915050565b600060088302620002397fffffffffffffffffffffffffffffffffffffffffffffffffffffffffffffffff82620001fa565b620002458683620001fa565b95508019841693508086168417925050509392505050565b6000819050919050565b6000819050919050565b6000620002926200028c62000286846200025d565b62000267565b6200025d565b9050919050565b6000819050919050565b620002ae8362000271565b620002c6620002bd8262000299565b84845462000207565b825550505050565b600090565b620002dd620002ce565b620002ea818484620002a3565b505050565b5b81811015620003125762000306600082620002d3565b600181019050620002f0565b5050565b601f82111562000361576200032b81620001d5565b6200033684620001ea565b8101602085101562000346578190505b6200035e6200035585620001ea565b830182620002ef565b50505b505050565b600082821c905092915050565b6000620003866000198460080262000366565b1980831691505092915050565b6000620003a1838362000373565b9150826002028217905092915050565b620003bc8262000137565b67ffffffffffffffff811115620003d857620003d762000142565b5b620003e48254620001a0565b620003f182828562000316565b600060209050601f83116001811462000429576000841562000414578287015190505b62000420858262000393565b86555062000490565b601f1984166200043986620001d5565b60005b8281101562000463578489015182556001820191506020850194506020810190506200043c565b868310156200048357848901516200047f601f89168262000373565b8355505b6001600288020188555050505b505050505050565b610b0080620004a86000396000f3fe608060405234801561001057600080fd5b50600436106100885760003560e01c80636f2938e81161005b5780636f2938e81461011657806375bf7eed1461014657806377ec2b551461016257806392fa9da31461018157610088565b80632e64cec11461008d5780634237c65b146100ab5780636057361d146100c95780636c992aec146100e5575b600080fd5b6100956101b1565b6040516100a29190610406565b60405180910390f35b6100b36101ba565b6040516100c09190610406565b60405180910390f35b6100e360048036038101906100de9190610461565b6101c0565b005b6100ff60048036038101906100fa9190610461565b6101ca565b60405161010d92919061051e565b60405180910390f35b610130600480360381019061012b9190610461565b610286565b60405161013d9190610406565b60405180910390f35b610160600480360381019061015b9190610683565b61029c565b005b61016a610325565b60405161017892919061051e565b60405180910390f35b61019b600480360381019061019691906106df565b6103bf565b6040516101a89190610406565b60405180910390f35b60008054905090565b60005481565b8060008190555050565b600381815481106101da57600080fd5b906000526020600020906002020160009150905080600001549080600101805461020390610757565b80601f016020809104026020016040519081016040528092919081815260200182805461022f90610757565b801561027c5780601f106102515761010080835404028352916020019161027c565b820191906000526020600020905b81548152906001019060200180831161025f57829003601f168201915b5050505050905082565b600060028261029591906107b7565b9050919050565b600360405180604001604052808381526020018481525090806001815401808255809150506001900390600052602060002090600202016000909190919091506000820151816000015560208201518160010190816102fb91906109a5565b5050508060048360405161030f9190610ab3565b9081526020016040518091039020819055505050565b600180600001549080600101805461033c90610757565b80601f016020809104026020016040519081016040528092919081815260200182805461036890610757565b80156103b55780601f1061038a576101008083540402835291602001916103b5565b820191906000526020600020905b81548152906001019060200180831161039857829003601f168201915b5050505050905082565b6004818051602081018201805184825260208301602085012081835280955050505050506000915090505481565b6000819050919050565b610400816103ed565b82525050565b600060208201905061041b60008301846103f7565b92915050565b6000604051905090565b600080fd5b600080fd5b61043e816103ed565b811461044957600080fd5b50565b60008135905061045b81610435565b92915050565b6000602082840312156104775761047661042b565b5b60006104858482850161044c565b91505092915050565b600081519050919050565b600082825260208201905092915050565b60005b838110156104c85780820151818401526020810190506104ad565b60008484015250505050565b6000601f19601f8301169050919050565b60006104f08261048e565b6104fa8185610499565b935061050a8185602086016104aa565b610513816104d4565b840191505092915050565b600060408201905061053360008301856103f7565b818103602083015261054581846104e5565b90509392505050565b600080fd5b600080fd5b7f4e487b7100000000000000000000000000000000000000000000000000000000600052604160045260246000fd5b610590826104d4565b810181811067ffffffffffffffff821117156105af576105ae610558565b5b80604052505050565b60006105c2610421565b90506105ce8282610587565b919050565b600067ffffffffffffffff8211156105ee576105ed610558565b5b6105f7826104d4565b9050602081019050919050565b82818337600083830152505050565b6000610626610621846105d3565b6105b8565b90508281526020810184848401111561064257610641610553565b5b61064d848285610604565b509392505050565b600082601f83011261066a5761066961054e565b5b813561067a848260208601610613565b91505092915050565b6000806040838503121561069a5761069961042b565b5b600083013567ffffffffffffffff8111156106b8576106b7610430565b5b6106c485828601610655565b92505060206106d58582860161044c565b9150509250929050565b6000602082840312156106f5576106f461042b565b5b600082013567ffffffffffffffff81111561071357610712610430565b5b61071f84828501610655565b91505092915050565b7f4e487b7100000000000000000000000000000000000000000000000000000000600052602260045260246000fd5b6000600282049050600182168061076f57607f821691505b60208210810361078257610781610728565b5b50919050565b7f4e487b7100000000000000000000000000000000000000000000000000000000600052601160045260246000fd5b60006107c2826103ed565b91506107cd836103ed565b92508282026107db816103ed565b915082820484148315176107f2576107f1610788565b5b5092915050565b60008190508160005260206000209050919050565b60006020601f8301049050919050565b600082821b905092915050565b60006008830261085b7fffffffffffffffffffffffffffffffffffffffffffffffffffffffffffffffff8261081e565b610865868361081e565b95508019841693508086168417925050509392505050565b6000819050919050565b60006108a261089d610898846103ed565b61087d565b6103ed565b9050919050565b6000819050919050565b6108bc83610887565b6108d06108c8826108a9565b84845461082b565b825550505050565b600090565b6108e56108d8565b6108f08184846108b3565b505050565b5b81811015610914576109096000826108dd565b6001810190506108f6565b5050565b601f8211156109595761092a816107f9565b6109338461080e565b81016020851015610942578190505b61095661094e8561080e565b8301826108f5565b50505b505050565b600082821c905092915050565b600061097c6000198460080261095e565b1980831691505092915050565b6000610995838361096b565b9150826002028217905092915050565b6109ae8261048e565b67ffffffffffffffff8111156109c7576109c6610558565b5b6109d18254610757565b6109dc828285610918565b600060209050601f831160018114610a0f57600084156109fd578287015190505b610a078582610989565b865550610a6f565b601f198416610a1d866107f9565b60005b82811015610a4557848901518255600182019150602085019450602081019050610a20565b86831015610a625784890151610a5e601f89168261096b565b8355505b6001600288020188555050505b505050505050565b600081905092915050565b6000610a8d8261048e565b610a978185610a77565b9350610aa78185602086016104aa565b80840191505092915050565b6000610abf8284610a82565b91508190509291505056fea2646970667358221220f554901cba1b7e112edfc6652f1c4befccec4744c84809f92a836e63a98aff3064736f6c63430008110033a26469706673582212201d565967b2246d2d2683280228ff743a84cea2a5047a53a289962a529268aa3a64736f6c63430008110033",
  "linkReferences": {},
  "deployedLinkReferences": {}
}