{
  "_format": "hh-sol-artifact-1",
  "contractName": "StorFact",
  "sourceName": "contracts/storageFactory.sol",
  "abi": [
    {
      "inputs": [],
      "name": "createStore",
      "outputs": [],
      "stateMutability": "nonpayable",
      "type": "function"
    },
    {
      "inputs": [
        {
          "internalType": "uint256",
          "name": "_ind",
          "type": "uint256"
        }
      ],
      "name": "sfGet",
      "outputs": [
        {
          "internalType": "uint256",
          "name": "",
          "type": "uint256"
        }
      ],
      "stateMutability": "view",
      "type": "function"
    },
    {
      "inputs": [
        {
          "internalType": "uint256",
          "name": "_ind",
          "type": "uint256"
        },
        {
          "internalType": "uint256",
          "name": "_num",
          "type": "uint256"
        }
      ],
      "name": "sfStore",
      "outputs": [],
      "stateMutability": "nonpayable",
      "type": "function"
    },
    {
      "inputs": [
        {
          "internalType": "uint256",
          "name": "",
          "type": "uint256"
        }
      ],
      "name": "storedArray",
      "outputs": [
        {
          "internalType": "contract Stored",
          "name": "",
          "type": "address"
        }
      ],
      "stateMutability": "view",
      "type": "function"
    }
  ],
  "bytecode": "0x608060405234801561001057600080fd5b50610d95806100206000396000f3fe608060405234801561001057600080fd5b506004361061004c5760003560e01c80631563700f14610051578063b70d134a14610066578063c5f19c201461008f578063fb122ac8146100af575b600080fd5b61006461005f36600461027e565b6100b7565b005b6100796100743660046102bb565b610139565b604051610086919061031a565b60405180910390f35b6100a261009d3660046102bb565b610163565b604051610086919061032e565b6100646101ef565b600082815481106100ca576100ca61033c565b600091825260209091200154604051636057361d60e01b81526001600160a01b0390911690636057361d9061010390849060040161032e565b600060405180830381600087803b15801561011d57600080fd5b505af1158015610131573d6000803e3d6000fd5b505050505050565b6000818154811061014957600080fd5b6000918252602090912001546001600160a01b0316905081565b60008082815481106101775761017761033c565b6000918252602091829020015460408051632e64cec160e01b815290516001600160a01b0390921692632e64cec1926004808401938290030181865afa1580156101c5573d6000803e3d6000fd5b505050506040513d601f19601f820116820180604052508101906101e99190610359565b92915050565b60006040516101fd9061026a565b604051809103906000f080158015610219573d6000803e3d6000fd5b50600080546001810182559080527f290decd9548b62a8d60345a988386fc84ba6bc95484008f6362f93160ef3e5630180546001600160a01b0319166001600160a01b039290921691909117905550565b6109e58061037b83390190565b80356101e9565b6000806040838503121561029457610294600080fd5b60006102a08585610277565b92505060206102b185828601610277565b9150509250929050565b6000602082840312156102d0576102d0600080fd5b60006102dc8484610277565b949350505050565b60006001600160a01b0382166101e9565b60006101e9826102e4565b60006101e9826102f5565b61031481610300565b82525050565b602081016101e9828461030b565b80610314565b602081016101e98284610328565b634e487b7160e01b600052603260045260246000fd5b80516101e9565b60006020828403121561036e5761036e600080fd5b60006102dc848461035256fe60026080818152610100604052600760c0908152667061747269636b60c81b60e05260a081905260018381559192906200003a9082620001b7565b505060058055506006805460ff191660011781556040805180820190915290815265737472696e6760d01b6020820152600790620000799082620001b7565b506004196008556218d85d60ea1b6009553480156200009757600080fd5b5062000287565b634e487b7160e01b600052604160045260246000fd5b634e487b7160e01b600052602260045260246000fd5b600281046001821680620000df57607f821691505b602082108103620000f457620000f4620000b4565b50919050565b60006200010b620001088381565b90565b92915050565b6200011c83620000fa565b81546008840282811b60001990911b908116901990911617825550505050565b60006200014b81848462000111565b505050565b818110156200016f57620001666000826200013c565b60010162000150565b5050565b601f8211156200014b576000818152602090206020601f850104810160208510156200019c5750805b620001b06020601f86010483018262000150565b5050505050565b81516001600160401b03811115620001d357620001d36200009e565b620001df8254620000ca565b620001ec82828562000173565b6020601f8311600181146200022357600084156200020a5750858201515b600019600886021c19811660028602178655506200027f565b600085815260208120601f198616915b8281101562000255578885015182556020948501946001909201910162000233565b86831015620002725784890151600019601f89166008021c191682555b6001600288020188555050505b505050505050565b61074e80620002976000396000f3fe608060405234801561001057600080fd5b50600436106100885760003560e01c80636f2938e81161005b5780636f2938e8146100e657806375bf7eed146100f957806377ec2b551461010c57806392fa9da31461011457600080fd5b80632e64cec11461008d5780634237c65b146100a75780636057361d146100b05780636c992aec146100c5575b600080fd5b6000545b60405161009e91906102c8565b60405180910390f35b61009160005481565b6100c36100be3660046102db565b600055565b005b6100d86100d33660046102db565b61013f565b60405161009e92919061035a565b6100916100f43660046102db565b6101f7565b6100c361010736600461046d565b61020a565b6100d86102b4565b6100916101223660046104c4565b805160208183018101805160048252928201919093012091525481565b6003818154811061014f57600080fd5b6000918252602090912060029091020180546001820180549193509061017490610515565b80601f01602080910402602001604051908101604052809291908181526020018280546101a090610515565b80156101ed5780601f106101c2576101008083540402835291602001916101ed565b820191906000526020600020905b8154815290600101906020018083116101d057829003601f168201915b5050505050905082565b6000610204826002610557565b92915050565b604080518082019091528181526020810183815260038054600181018255600091909152825160029091027fc2575a0e9e593c00f959f8c92f12db2869c3395a3b0502d05e2516446f71f85b8101918255915190917fc2575a0e9e593c00f959f8c92f12db2869c3395a3b0502d05e2516446f71f85c019061028c908261061f565b505050806004836040516102a09190610705565b908152604051908190036020019020555050565b600180546002805491929161017490610515565b81815260208101610204565b8035610204565b6000602082840312156102f0576102f0600080fd5b60006102fc84846102d4565b949350505050565b60005b8381101561031f578181015183820152602001610307565b50506000910152565b6000610332825190565b808452602084019350610349818560208601610304565b601f01601f19169290920192915050565b82815260406020820181905281016102fc8184610328565b634e487b7160e01b600052604160045260246000fd5b601f19601f830116810181811067ffffffffffffffff821117156103ae576103ae610372565b6040525050565b60006103c060405190565b90506103cc8282610388565b919050565b600067ffffffffffffffff8211156103eb576103eb610372565b601f19601f83011660200192915050565b82818337506000910152565b600061041b610416846103d1565b6103b5565b90508281526020810184848401111561043657610436600080fd5b6104418482856103fc565b509392505050565b600082601f83011261045d5761045d600080fd5b81356102fc848260208601610408565b6000806040838503121561048357610483600080fd5b823567ffffffffffffffff81111561049d5761049d600080fd5b6104a985828601610449565b92505060206104ba858286016102d4565b9150509250929050565b6000602082840312156104d9576104d9600080fd5b813567ffffffffffffffff8111156104f3576104f3600080fd5b6102fc84828501610449565b634e487b7160e01b600052602260045260246000fd5b60028104600182168061052957607f821691505b60208210810361053b5761053b6104ff565b50919050565b634e487b7160e01b600052601160045260246000fd5b81810280821583820485141761056f5761056f610541565b5092915050565b60006102046105828381565b90565b61058e83610576565b81546008840282811b60001990911b908116901990911617825550505050565b60006105bb818484610585565b505050565b818110156105db576105d36000826105ae565b6001016105c0565b5050565b601f8211156105bb576000818152602090206020601f850104810160208510156106065750805b6106186020601f8601048301826105c0565b5050505050565b815167ffffffffffffffff81111561063957610639610372565b6106438254610515565b61064e8282856105df565b6020601f831160018114610682576000841561066a5750858201515b600019600886021c19811660028602178655506106db565b600085815260208120601f198616915b828110156106b25788850151825560209485019460019092019101610692565b868310156106ce5784890151600019601f89166008021c191682555b6001600288020188555050505b505050505050565b60006106ed825190565b6106fb818560208601610304565b9290920192915050565b600061071182846106e3565b939250505056fea2646970667358221220213f4b6cd1e08247a0a3f0e4872495556f2840c74336575757ad48e238bf91ac64736f6c63430008110033a26469706673582212201334a4fd6dcd807a012c33068265c2b00e96bae37bb2a9b2ae2b4a4fca032fb164736f6c63430008110033",
  "linkReferences": {},
  "deployedLinkReferences": {}
}